:100000000C9402010C9421010C9421010C94210107
:100010000C9421010C9421010C9421010C942101D8
:100020000C9421010C9421010C94C9060C94030733
:100030000C9421010C9421010C9421010C942101B8
:100040000C9421010C9421010C9421010C942101A8
:100050000C9421010C9421010C9421010C94210198
:100060000C9421010C9421010C9421010C94210188
:100070000C9421010C9421010C9421010C94210178
:100080000C9421010C9421010C9421010C94210168
:100090000C9421010C942101B106AE06AB06A80612
:1000A000A506A2069F069C0699069606930690064C
:1000B0008D068A068706840681067E067B067806FC
:1000C000750672066F066C066906660663066006AC
:1000D0005D065A065706540651064E064B0648065C
:1000E000450642063F063C0639063606330630060C
:1000F0002D062A062706240621061E061B061806BC
:10010000150612060F060C0609060606030600066B
:10011000FD05FA05F705F405F105000100004E01A3
:10012000120002000060014300030000A30104016B
:10013000030904A7010E02030904B7013C030309E4
:1001400004F5010C0001C112018036018136120153
:10015000000202000010C0167A040001010203012F
:1001600009024300020100C0FA0904000001020272
:1001700001000524001001052401010104240206E8
:100180000524060001070582031000400904010050
:10019000020A000000070503024000000705840270
:1001A000400000040309040E036A00750064006740
:1001B000006500730000003C034E004F00520077C2
:1001C00000610079002000500053003300200046F9
:1001D000006C00610073006800650072002000552B
:1001E0000053004200200053006500720069006166
:1001F000006C0000000C0331003200330034003585
:100200000000000011241FBECFEFD0E2DEBFCDBF43
:1002100011E0A0E0B1E0E0EAF2E100E00BBF02C0D3
:1002200007900D92AE30B107D9F711E1AEE0B1E021
:1002300001C01D92AD31B107E1F70E9481030C941A
:100240004E090C94000084B1806784B92E9A2C98D2
:100250002D9A089511B814B817B81AB81DB810BA65
:1002600012B815B818B81BB81EB811BA08950F9374
:100270001F93CF93DF93DFB7F89428988091010103
:10028000833009F484C093E19EBD0DB407FEFDCF19
:10029000843009F475C0809114018EBD0DB407FE41
:1002A000FDCF809115018EBD0DB407FEFDCF80916D
:1002B00016018EBD0DB407FEFDCF80910201909115
:1002C0000301A0910401B0910501AC01BD01FCE066
:1002D0007695679557954795FA95D1F7411551054C
:1002E0006105710571F1C0E0E9E1F1E01EBC0DB4FA
:1002F00007FEFDCF8EB5819381E1E931F807B1F7B3
:1003000089E191E060E070E10E949605CF5F809105
:10031000020190910301A0910401B09105010C2FFD
:1003200010E020E030E0AC01BD01ECE0769567958F
:1003300057954795EA95D1F704171507260737070C
:1003400098F2BC017F706115710571F0E9E1F1E08F
:10035000CB018E0F9F1F1EBC0DB407FEFDCF2EB527
:100360002193E817F907B9F7289A89E191E00E94EB
:100370009605DFBF81E0DF91CF911F910F91089526
:10038000809113018EBD0DB407FEFDCF84CF8EBDCD
:100390000DB407FEFDCF7FCFAF92BF92DF92EF92F9
:1003A000FF920F931F93CF93DF930F92CDB7DEB7DA
:1003B0002C9A21E02983FF2406E015E0B2E1EB2E20
:1003C00082E0D82E28980EBD0DB407FEFDCF289AE6
:1003D00028981EBD0DB407FEFDCF1EBC0DB407FE50
:1003E000FDCF8EB5289A81FFEDCF2898809101012D
:1003F000833009F45EC0EEBC0DB407FEFDCF84303F
:1004000009F450C0809114018EBD0DB407FEFDCFDC
:10041000809115018F298EBD0DB407FEFDCF80910F
:1004200016018EBD0DB407FEFDCFA12CA1E0BA2EA2
:100430000E940405EFEF8F3F9E0789F18EBD0DB43A
:1004400007FEFDCF0894A108B108A114B10481F7FB
:10045000289A28981EBD0DB407FEFDCF1EBC0DB412
:1004600007FEFDCF0EB400FCF9CF289A29812F3F5B
:1004700049F080911701823C09F1F394E0E1FE1606
:1004800009F0A0CF2C9889810F90DF91CF911F9117
:100490000F91FF90EF90DF90BF90AF9008952FEFF6
:1004A0002983D6CF809113018EBD0DB407FEFDCFF9
:1004B000A9CFDEBC0DB407FEFDCFA4CF80911801FB
:1004C0008831D9F628988BE28EBD0DB407FEFDCF9A
:1004D0001EBC0DB407FEFDCF8EB5289A85FFCDCF8B
:1004E0001982CBCF2C9A26E095E028982EBD0DB42A
:1004F00007FEFDCF289A28989EBD0DB407FEFDCFBC
:100500001EBC0DB407FEFDCF8EB5289A81FFEDCF3E
:10051000289880E68EBD0DB407FEFDCF289A289856
:1005200085E08EBD0DB407FEFDCF1EBC0DB407FEE9
:10053000FDCF0EB400FCF9CF289A2C98289885E0BE
:100540008EBD0DB407FEFDCF1EBC0DB407FEFDCF62
:100550008EB5289A8C7BE9F480911701823C11F0CA
:1005600081E0089580911801883111F081E00895AB
:1005700028988BE28EBD0DB407FEFDCF1EBC0DB4D6
:1005800007FEFDCF9EB5289A907C81E081F380E044
:1005900008958FEF08952C9A26E095E028982EBDB7
:1005A0000DB407FEFDCF289A28989EBD0DB407FE16
:1005B000FDCF1EBC0DB407FEFDCF8EB5289A81FF7E
:1005C000EDCF2898809101018330E9F19CED9EBD2B
:1005D0000DB407FEFDCF8430E1F1809114018EBD92
:1005E0000DB407FEFDCF809115018EBD0DB407FE41
:1005F000FDCF809116018EBD0DB407FEFDCF289A68
:10060000289885E08EBD0DB407FEFDCF1EBC0DB44D
:1006100007FEFDCF0EB400FCF9CF289A2C9828983D
:1006200085E08EBD0DB407FEFDCF1EBC0DB407FEE8
:10063000FDCF8EB5289A8C7B51F580911701823CB5
:1006400079F081E0089588ED8EBD0DB407FEFDCFF1
:10065000C4CF809113018EBD0DB407FEFDCFBDCF79
:1006600080911801883111F081E0089528988BE27B
:100670008EBD0DB407FEFDCF1EBC0DB407FEFDCF31
:100680009EB5289A907C81E081F380E008958FEFF9
:100690000895F89481E08093E00080E28093D80090
:1006A000E9ECF0E010828FE493ECA0E0B0E0019779
:1006B000A109B109000001F0D1F7C89500001DBAE9
:1006C000109268001CBC10BE1FBA10927A001092E3
:1006D0006E0010926F0010927000109271001082E4
:1006E0001092BC0011B814B817B81AB81DB810BAD7
:1006F00012B815B818B81BB81EB811BA0C9400FE81
:100700000895CF93DF9300D0CDB7DEB780E8809314
:10071000610091E09093610091E895BF85BF0E94D0
:100720002A011CBC209A289A80E18CBD84B1866085
:1007300084B923982B9A8DB581608DBD80E58CBDE1
:100740000E9423010E94E8040E9401058823E1F32E
:100750008FE392E4AFE0B0E00197A109B109000096
:1007600001F0D1F7C89500005E010894A11CB11CEE
:1007700090E9F92E23E0E22E34E0D32ECC24CA9463
:100780000E942D050E9401058823D1F30E940405D3
:100790002FEF8F3F9207B1F38730910509F4BBC06B
:1007A0008830910514F58230910509F4B1C0833089
:1007B00091050CF067C0009709F4FFC081309105E6
:1007C00009F78091191190911A11009709F4FDC051
:1007D0008501081B190B8EE10E944305812F0E94A1
:1007E0004305802F0E944305CDCF8A30910509F43F
:1007F000BBC08B309105C4F58830910509F452C017
:100800008930910509F0BECF0E9404052FEF8F3F7C
:10081000920709F4D6C0809313010E9404052FEFBC
:100820008F3F920709F4CDC0809314010E94040504
:100830002FEF8F3F920709F4C4C0809315010E94E7
:1008400004052FEF8F3F920709F4BBC08093160178
:100850000E94CC0118160CF4ACC0882309F0B1C07A
:1008600086E50E9443058ECF8C309105C1F08C3017
:1008700091050CF441C08D30910509F083CFD092E1
:10088000010180CF8530910539F08630910509F05E
:1008900079CFC092000176CF1092000173CFE09221
:1008A000010170CF0E9404052FEF8F3F920709F4DA
:1008B00088C0809313010E9404052FEF8F3F920799
:1008C00009F47FC0809314010E9404052FEF8F3F2D
:1008D000920709F476C0809315010E9404052FEF5A
:1008E0008F3F920709F46DC0809316018BE40E943C
:1008F00043050E94370146CF0E94720218160CF47D
:1009000058C0882309F4ACCF80E50E9443053ACF54
:100910000E94490337CF2898FEBC0DB407FEFDCFD7
:100920001EBC0DB407FEFDCF1EBC0DB407FEFDCFEF
:100930001EBC0DB407FEFDCF1EBC0DB407FEFDCFDF
:100940008EB5809317011EBC0DB407FEFDCF8EB58A
:1009500080931801289A809117010E944305809185
:1009600018010E9443050ECF0E9404052FEF8F3F10
:10097000920739F1809313010E9404052FEF8F3FF6
:100980009207F9F0809314010E9404052FEF8F3F26
:100990009207B9F0809315010E9404052FEF8F3F55
:1009A000920779F0809316010E94CB0218160CF082
:1009B000A8CF8BE40E944305E5CE80E00E9443056A
:1009C000E1CE82E50E944305DDCE8DE191E100CFCD
:1009D00081E88093D70080EA8093D80086E189BDC2
:1009E00009B400FEFDCF80E98093D8001092E000AA
:1009F00010920F01109210018CE08093E200789425
:100A0000089580910F0108953FB7F89480910F01E8
:100A10008823F9F083E08093E9008091E80085FD68
:100A20000CC082FF16C09BE602C082FF12C09093EA
:100A3000E8008091E80085FFF8CF8091F100909167
:100A4000E80095FD03C09BE69093E8003FBF90E06F
:100A500008953FBF8FEF9FEF089580910F01882386
:100A600089F02FB7F89483E08093E9008091E80043
:100A700085FF07C09BE69093E8008091E80085FD24
:100A8000FACF2FBF089590910F01992309F449C01F
:100A90009FB7F89424E02093E900209111012223CC
:100AA00091F53091E4002091E80025FD1DC0305FF4
:100AB0009FBF9091E400931769F190910F019923E2
:100AC00081F144E009C09FBF9091E400931711F1B8
:100AD00090910F01992319F19FB7F8944093E90081
:100AE0002091E80025FFEFCF8093F1008091E8008E
:100AF00085FD03C08AE38093E80085E080930E01C2
:100B00009FBF80E008952091E80025FF0CC010925F
:100B10001101C7CF81E0809311018FEF08958FEF0E
:100B200008958FEF08959FBF8FEF0895CF93DC0155
:100B300080910F01882381F12FB7F89484E080938E
:100B4000E90080911101882351F56115710509F4BF
:100B500015C134E050E4CAE345E09091E40080918F
:100B6000E80085FD23C0905F2FBF8091E4008917C6
:100B700079F406C12FB7F8943093E9008091E8002A
:100B800085FD14C02FBF8091E400891709F4F8C0D7
:100B900080910F01882371F78FEFCF910895809195
:100BA000E80085FFF3C010921101CFCF8091F200D1
:100BB000E52FE81B8E2F90E06817790718F4E62FD1
:100BC000862F90E0681B790BF0E0E134F10508F026
:100BD000C5C0E45BFF4FEE0FFF1F0590F491E02DC1
:100BE00009948D918093F1008D918093F1008D9106
:100BF0008093F1008D918093F1008D918093F100AD
:100C00008D918093F1008D918093F1008D9180936F
:100C1000F1008D918093F1008D918093F1008D9181
:100C20008093F1008D918093F1008D918093F1007C
:100C30008D918093F1008D918093F1008D9180933F
:100C4000F1008D918093F1008D918093F1008D9151
:100C50008093F1008D918093F1008D918093F1004C
:100C60008D918093F1008D918093F1008D9180930F
:100C7000F1008D918093F1008D918093F1008D9121
:100C80008093F1008D918093F1008D918093F1001C
:100C90008D918093F1008D918093F1008D918093DF
:100CA000F1008D918093F1008D918093F1008D91F1
:100CB0008093F1008D918093F1008D918093F100EC
:100CC0008D918093F1008D918093F1008D918093AF
:100CD000F1008D918093F1008D918093F1008D91C1
:100CE0008093F1008D918093F1008D918093F100BC
:100CF0008D918093F1008D918093F1008D9180937F
:100D0000F1008D918093F1008D918093F1008D9190
:100D10008093F1008D918093F1008D918093F1008B
:100D20008D918093F1008D918093F1008D9180934E
:100D3000F1008D918093F1008D918093F1008D9160
:100D40008093F1008D918093F1008D918093F1005B
:100D50008D918093F1008D918093F1008D9180931E
:100D6000F1008091E80085FD02C0C093E800409347
:100D70000E012FBF6115710509F0EFCE80E00DCF98
:100D800081E0809311018FEFCF9108952FBF8FEFF6
:100D900004CF1F920F920FB60F9211248F939F933F
:100DA0008091E1001092E10083FF11C01092E900F0
:100DB00091E09093EB001092EC0092E19093ED00A3
:100DC00098E09093F00010920F011092100182FFB2
:100DD00013C080910F01882379F080910E01882340
:100DE00059F0815080930E01882331F484E0809380
:100DF000E9008AE38093E8009F918F910F900FBEE6
:100E00000F901F9018951F920F920FB60F920BB66E
:100E10000F9211240F931F932F933F934F935F9340
:100E20006F937F938F939F93AF93BF93CF93EF93E2
:100E3000FF931092E9008091E80083FF71C0E09178
:100E4000F1006091F1002091F10030E04091F1005B
:100E5000942F80E0282B392B4091F10050E07091C5
:100E6000F100972F80E0482B592BA091F100C09101
:100E7000F10082EF8093E8006630E1F0653009F41C
:100E8000E7C0693009F465C0683009F4ECC061322C
:100E900009F4F8C0603209F41CC1623209F0C5C01F
:100EA000E13209F03DC0209310018091E80080FFFD
:100EB000FCCFCAC06AE171E0FB01859194912817CB
:100EC000390709F4A5C1695F7F4FFB0185919491B2
:100ED0002817390709F4A5C168E271E0FB01859183
:100EE00094912817390709F4A9C16FE271E0FB0159
:100EF000859194912817390709F4ADC166E371E033
:100F0000FB01859194912817390709F4BBC1695FEA
:100F10007F4FFB01859194912817390709F403C18C
:100F200081E28093EB00FF91EF91CF91BF91AF9160
:100F30009F918F917F916F915F914F913F912F91F1
:100F40001F910F910F900BBE0F900FBE0F901F902F
:100F50001895EE2329F720930F011092100110929B
:100F60000E018EEF8093E80081E08093E90024E495
:100F700031E0F90184918093EB00882309F48BC15F
:100F80003196E491E093EC00F9013296E491E0931C
:100F9000ED002D5F3F4F82E08093E900C90101968B
:100FA000F90144914093EB00442361F0FC018491EA
:100FB0008093EC00C90103962E5F3F4FF901249105
:100FC0002093ED0023E02093E9009C012F5F3F4F29
:100FD000FC0144914093EB00442361F0F90124911A
:100FE0002093EC009C012D5F3F4F0296FC01849101
:100FF0008093ED0084E08093E900C9010196F90136
:1010000044914093EB00442351F0FC018491809380
:10101000EC002E5F3F4FF90124912093ED008EE10B
:101020008093EA001092EA007ECF662309F0C6C0E2
:101030008091E80080FFFCCFE23809F419C180E01C
:101040008093F1001092F1008EEF8093E8006BCF57
:101050008EEF8093E8008091E80080FFFCCF20684D
:101060002093E30060CFE03809F05ACF8091E80088
:1010700080FFFCCF80910F018093F1008EEF809371
:10108000E80051CFE13A09F04BCF8091E80080FFB2
:10109000FCCF809106018093F1008091070180933D
:1010A000F100809108018093F10080910901809303
:1010B000F10080910A018093F10080910B018093EF
:1010C000F10080910C018093F1008EEF8093E80095
:1010D0002ACFE13209F024CF8091E80082FFFCCFD3
:1010E0008091F100809306018091F10080930701C7
:1010F0008091F100809308018091F10080930901B3
:101100008091F10080930A018091F10080930B019E
:101110008091F10080930C018BEF8093E8008EEFBB
:101120008093E80000CFFB01329685919491481797
:10113000590709F0F5CEFB01349625913491C90188
:101140006A5F7F4FFB016491B0E03C2F20E0A22B4F
:10115000B32BAF3FB10519F010F0AFEFB0E0A61719
:1011600008F46A2F7EEF2091E80030E0A901457075
:10117000507041155105B9F322FDD5CE562F61317E
:10118000D0F050E19C01452FF9012F5F3F4FE491D2
:10119000E093F1004150C1F7252F215030E02F5F3F
:1011A0003F4F820F931F651B7093E8006623D9F6AB
:1011B0005031C9F2B8CE662329F7F5CF613021F559
:1011C000E23009F0ADCE2115310509F0A9CE4F77F7
:1011D000842F8150843008F0A3CE8EEF8093E800F6
:1011E0004093E900633009F49BCE89E18093EB00E2
:1011F00081E090E002C0880F991F4A95E2F7809342
:10120000EA001092EA008FCE633009F089CED8CF81
:10121000FB013296859194914817590709F053CEF6
:101220008ACF03E211E0F80185919491481759079C
:1012300009F481CFB8016B5F7F4F50CE0AE211E015
:10124000F801859194914817590709F474CFB801B2
:101250006B5F7F4F4CCE01E311E0F80185919491D3
:101260004817590709F467CFB8016B5F7F4F48CE25
:101270004093E9009091EB0081E095FF80E01092AF
:10128000E900DECEFB01329685919491481759070B
:1012900009F03DCE50CF2F5F3F4F7DCEF894FFCF6A
:0E12A000FF040000010000E100000000080053
:00000001FF
