:100000000C9410010C942F010C942F010C942F01CF
:100010000C942F010C942F010C942F010C942F01A0
:100020000C942F010C942F010C9482070C94BC07A4
:100030000C942F010C942F010C942F010C942F0180
:100040000C942F010C942F010C942F010C942F0170
:100050000C942F010C942F010C942F010C942F0160
:100060000C942F010C942F010C942F010C942F0150
:100070000C942F010C942F010C942F010C942F0140
:100080000C942F010C942F010C942F010C942F0130
:100090000C942F010C942F0170045D042904960325
:1000A000960323042004F703E203C903B203A80361
:1000B0007404260439078F052C0776071F07780775
:1000C00012076E0705077007F8067207EB0674073C
:1000D000DE064607D1064807C4064A07B706640786
:1000E000AA0666079D06680790066A0783066C07DE
:1000F00076065C0769065E075C0660074F066207C6
:1001000042064E0735064C0728067C071B067A0771
:100110000E06800701067E07F4055607E70554071B
:10012000DA055A07CD055807C0055207B305500731
:10013000A6059E05960500010000030212000200BC
:1001400000C0014300030000BC010401030904AC2A
:10015000010E020309046E013C0303090460010C53
:100160000C033100320033003400350000003C0342
:100170004E004F00520077006100790020005000CF
:1001800053003300200046006C00610073006800DB
:10019000650072002000550053004200200053000B
:1001A00065007200690061006C0000000E036A00C7
:1001B0007500640067006500730000000403090413
:1001C00009024300020100C0FA0904000001020212
:1001D0000100052400100105240101010424020688
:1001E00005240600010705820310004009040100F0
:1001F000020A000000070503024000000705840210
:100200004000001201000202000010C0167A040033
:1002100001010203010001C1120180360181360093
:1002200011241FBECFEFD0E2DEBFCDBF11E0A0E0B2
:10023000B1E0EAECF3E100E00BBF02C007900D92E1
:10024000AE30B107D9F721E1AEE0B1E001C01D92B7
:10025000AD31B207E1F70E943E030C94E3090C9420
:1002600000000F931F93CF93DF93CFB7F894289894
:1002700080910101833009F485C083E18EBD0DB406
:1002800007FEFDCF80910101843009F474C0809194
:1002900014018EBD0DB407FEFDCF809115018EBDFA
:1002A0000DB407FEFDCF809116018EBD0DB407FE83
:1002B000FDCF8091020190910301A0910401B091C2
:1002C0000501AC01BD01FCE0769567955795479512
:1002D000FA95D1F7452B462B472B71F1D0E0E9E198
:1002E000F1E01EBC0DB407FEFDCF8EB5819381E118
:1002F000E931F807B1F760E070E189E191E00E942F
:100300002905DF5F8091020190910301A091040112
:10031000B09105010D2F10E020E030E0AC01BD01EF
:10032000ECE07695679557954795EA95D1F70417D0
:1003300015072607370798F2BC017F706115710514
:1003400071F0E9E1F1E09B01275E3E4F1EBC0DB468
:1003500007FEFDCF4EB54193E217F307B9F7289A90
:1003600089E191E00E942905CFBF81E0DF91CF9123
:100370001F910F910895809113018EBD0DB407FE5A
:10038000FDCF85CF8EBD0DB407FEFDCF7BCFBF92D5
:10039000CF92DF92EF92FF920F931F93CF93DF9351
:1003A0002C9AEE24E394F12C15E006E0A2E1DA2E7B
:1003B000B2E0BB2ECBE2CC2E28980EBD0DB407FECA
:1003C000FDCF289A28981EBD0DB407FEFDCF1EBC98
:1003D0000DB407FEFDCF9EB5289A91FFEDCF28986A
:1003E00080910101833009F45AC0DEBC0DB407FED0
:1003F000FDCF80910101843009F44AC0809114013D
:100400008EBD0DB407FEFDCF909115019F299EBDB5
:100410000DB407FEFDCF809116018EBD0DB407FE11
:10042000FDCFC0E0D1E00E949A048F3F2FEF9207EA
:1004300061F18EBD0DB407FEFDCF2197209799F78E
:10044000289A28981EBD0DB407FEFDCF1EBC0DB422
:1004500007FEFDCF0EB400FCF9CF289A8FEFE81607
:1004600041F080911701823CF9F0F39420E1F212FF
:10047000A3CF2C988E2DDF91CF911F910F91FF90DC
:10048000EF90DF90CF90BF900895EE24EA94D8CFFC
:10049000809113018EBD0DB407FEFDCFAFCFBEBC62
:1004A0000DB407FEFDCFA5CF809118018831E9F684
:1004B0002898CEBC0DB407FEFDCF1EBC0DB407FEC0
:1004C000FDCF8EB5289A85FFD0CFE12CCECF2C9AC8
:1004D00026E095E028982EBD0DB407FEFDCF289AA2
:1004E00028989EBD0DB407FEFDCF1EBC0DB407FEBF
:1004F000FDCF8EB5289A81FFEDCF289880E68EBD7E
:100500000DB407FEFDCF289A289885E08EBD0DB466
:1005100007FEFDCF1EBC0DB407FEFDCF0EB400FCE0
:10052000F9CF289A2C98289885E08EBD0DB407FE47
:10053000FDCF1EBC0DB407FEFDCF8EB5289A8C7B77
:10054000D9F480911701823C11F081E008958091E7
:1005500018018831D1F728988BE28EBD0DB407FEC3
:10056000FDCF1EBC0DB407FEFDCF9EB5289A907C32
:1005700081E061F380E008958FEF08952C9A26E0E2
:1005800095E028982EBD0DB407FEFDCF289A289837
:100590009EBD0DB407FEFDCF1EBC0DB407FEFDCF02
:1005A0008EB5289A81FFEDCF289880910101833084
:1005B00009F45CC08CED8EBD0DB407FEFDCF8091BB
:1005C0000101843009F44BC0809114018EBD0DB43B
:1005D00007FEFDCF809115018EBD0DB407FEFDCF46
:1005E000809116018EBD0DB407FEFDCF289A289884
:1005F00085E08EBD0DB407FEFDCF1EBC0DB407FE19
:10060000FDCF0EB400FCF9CF289A2C98289885E0ED
:100610008EBD0DB407FEFDCF1EBC0DB407FEFDCF91
:100620008EB5289A8C7B41F580911701823C11F0A0
:1006300081E00895809118018831D1F728988BE2E4
:100640008EBD0DB407FEFDCF1EBC0DB407FEFDCF61
:100650009EB5289A907C81E061F380E008958091B6
:1006600013018EBD0DB407FEFDCFAECF88ED8EBD5C
:100670000DB407FEFDCFA3CF8FEF0895CF93DF9387
:1006800000D0CDB7DEB780E88093610091E0909311
:10069000610091E895BF85BF11B814B817B81AB8B2
:1006A0001DB810BA12B815B818B81BB81EB811BAD0
:1006B0001CBC209A289A80E18CBD84B1866084B9E4
:1006C00023982B9A8DB581608DBD80E58CBD84B15A
:1006D000806784B92E9A2C982D9A0E947E040E94DD
:1006E00097048823E1F38FE392E4AFE0B0E0019751
:1006F000A109B109000001F0D1F7C8950000CE01B1
:1007000001965C0100E9702E8FE4C82E83ECD82E90
:10071000E12CF12C94E0692E23E0522E44244A94DB
:100720000E94C3048824839410E2912E0E949704AF
:100730008823B1F30E949A048F3FEFEF9E07B1F335
:100740008E30910598F7FC01E45BFF4F0C94DD09B6
:100750000E9467021816CCF08111C9C086E50E947C
:10076000DA04E4CF03E111E00E949A048F3F2FEFF7
:10077000920721F1F80181938F01F1E007311F0702
:1007800099F70E94BE0218163CF78BE40E94DA0427
:10079000CDCF03E111E00E949A048F3F2FEF920723
:1007A00069F0F80181938F01F1E007311F0799F794
:1007B0000E94C70118164CF3882381F282E50E943B
:1007C000DA04B4CF03E111E00E949A048F3FFFEFF7
:1007D0009F07A1F3F80181938F01F1E007311F0713
:1007E00099F78BE40E94DA040E9431019FCF289888
:1007F0007EBC0DB407FEFDCF1EBC0DB407FEFDCFC1
:100800001EBC0DB407FEFDCF1EBC0DB407FEFDCF10
:100810001EBC0DB407FEFDCF8EB5809317011EBC24
:100820000DB407FEFDCF8EB580931801289A8091F4
:1008300017010E94DA04809118010E94DA0476CF31
:100840004092000173CF1092000170CF60920101BD
:100850006DCFF8948092E0009092D8001092C90079
:10086000D701C6010197A109B109000001F0D1F734
:10087000C89500001DBA109268001CBC10BE1FBABB
:1008800010927A0010926E0010926F001092700019
:10089000109271001092C9001092BC0011B814B8E7
:1008A00017B81AB81DB810BA12B815B818B81BB8CE
:1008B0001EB811BA0C9400FE39CF80911911909195
:1008C0001A110097C1F08501081B190B88E20E94DC
:1008D000DA04812F0E94DA04802F0E94DA0426CFE6
:1008E00080E00E94DA0422CF509201011FCF80E500
:1008F0000E94DA041BCF8DE191E1E5CF81E880937E
:10090000D70080EA8093D80086E189BD09B400FE53
:10091000FDCF80E98093D8001092E0001092110181
:1009200010920E018CE08093E200789408958091FB
:10093000110108952FB7F894809111018823F9F0DF
:1009400083E08093E9008091E80085FD0CC082FF80
:1009500016C09BE602C082FF12C09093E80080910F
:10096000E80085FFF8CF8091F1009091E80095FDB7
:1009700003C09BE69093E8002FBF90E008952FBF3F
:100980008FEF9FEF089580911101882391F02FB789
:10099000F89483E08093E9008091E80085FF07C028
:1009A0009BE69093E8008091E80085FDFACF2FBF89
:1009B0000895089590911101992309F443C09FB7B8
:1009C000F89424E02093E90020910F01211132C016
:1009D0003091E400305F2091E80025FD1CC09FBFEE
:1009E0009091E400931781F190911101992351F1B5
:1009F00044E009C09FBF9091E400931729F19091C2
:100A000011019923F9F09FB7F8944093E9002091E0
:100A1000E80025FFEFCF8093F1008091E80085FD8D
:100A200003C08AE38093E80085E0809310019FBFB4
:100A300080E008952091E80025FF03C010920F0187
:100A4000C7CF9FBF8FEF089581E080930F018FEF95
:100A50000895CF92DF92FF920F931F93CF93DF936E
:100A60006C01CB01209111012223B9F1CFB7F89489
:100A700024E02093E90020910F01211137C0009755
:100A800009F402C2D4E000E42AE3F22E15E030912A
:100A9000E400305F2091E80025FF0DC02EC02091BA
:100AA00011012223D1F0CFB7F894D093E90020911F
:100AB000E80025FD22C0CFBF2091E4002313EFCF33
:100AC00081E080930F018FEFDF91CF911F910F9104
:100AD000FF90DF90CF900895CFBF8FEFDF91CF9140
:100AE0001F910F91FF90DF90CF9008952091E80023
:100AF00025FFF2CF10920F01C2CF2091F200402FBC
:100B0000421B242F30E08217930718F4482F9C01D2
:100B10003327821B930B50E04134510510F0D6016E
:100B2000A1C1465A5F4FFA010C94DD09F6012081FC
:100B30002093F10096012F5F3F4F6901F60120815C
:100B40002093F10096012F5F3F4F6901D601119666
:100B5000F60120812093F1006D01FFEFCF1ADF0A2B
:100B60002C912093F100D6011196F601208120935B
:100B7000F1006D01FFEFCF1ADF0A2C912093F100F5
:100B8000D6011196F60120812093F1006D01FFEF4F
:100B9000CF1ADF0A2C912093F100D6011196F601AD
:100BA00020812093F1006D01FFEFCF1ADF0A2C9115
:100BB0002093F100D6011196F60120812093F100D7
:100BC0006D01FFEFCF1ADF0A2C912093F100D601BF
:100BD0001196F60120812093F1006D01FFEFCF1AED
:100BE000DF0A2C912093F100D6011196F6012081A5
:100BF0002093F1006D01FFEFCF1ADF0A2C912093B3
:100C0000F100D6011196F60120812093F1006D01CB
:100C1000FFEFCF1ADF0A2C912093F100D601119635
:100C2000F60120812093F1006D01FFEFCF1ADF0A5A
:100C30002C912093F100D6011196F601208120938A
:100C4000F1006D01FFEFCF1ADF0A2C912093F10024
:100C5000D6011196F60120812093F1006D01FFEF7E
:100C6000CF1ADF0A2C912093F100D6011196F601DC
:100C700020812093F1006D01FFEFCF1ADF0A2C9144
:100C80002093F100D6011196F60120812093F10006
:100C90006D01FFEFCF1ADF0A2C912093F100D601EE
:100CA0001196F60120812093F1006D01FFEFCF1A1C
:100CB000DF0A2C912093F100D6011196F6012081D4
:100CC0002093F1006D01FFEFCF1ADF0A2C912093E2
:100CD000F100D6011196F60120812093F1006D01FB
:100CE000FFEFCF1ADF0A2C912093F100D601119665
:100CF000F60120812093F1006D01FFEFCF1ADF0A8A
:100D00002C912093F100D6011196F60120812093B9
:100D1000F1006D01FFEFCF1ADF0A2C912093F10053
:100D2000D6011196F60120812093F1006D01FFEFAD
:100D3000CF1ADF0A2C912093F100D6011196F6010B
:100D400020812093F1006D01FFEFCF1ADF0A2C9173
:100D50002093F100D6011196F60120812093F10035
:100D60006D01FFEFCF1ADF0A2C912093F100D6011D
:100D70001196F60120812093F1006D01FFEFCF1A4B
:100D8000DF0A2C912093F100D6011196F601208103
:100D90002093F1006D01FFEFCF1ADF0A2C91209311
:100DA000F100D6011196F60120812093F1006D012A
:100DB000FFEFCF1ADF0A2C912093F100D601119694
:100DC000F60120812093F1006D01FFEFCF1ADF0AB9
:100DD0002C912093F100D6011196F60120812093E9
:100DE000F1006D01FFEFCF1ADF0A2C912093F10083
:100DF000D6011196F60120812093F1006D01FFEFDD
:100E0000CF1ADF0A2C912093F100D6011196F6013A
:100E100020812093F1006D01FFEFCF1ADF0A2C91A2
:100E20002093F100D6011196F60120812093F10064
:100E30006D01FFEFCF1ADF0A2C912093F100D6014C
:100E40001196F60120812093F1006D01FFEFCF1A7A
:100E5000DF0A2C912093F100D6011196F601208132
:100E60002093F1006D01FFEFCF1ADF0A2C91209340
:100E7000F1002091E80025FFF092E80010931001A6
:100E8000CFBF009709F003CE80E028CED6018FCFE8
:100E9000D60180CFD60171CFD601E0CED601EBCE00
:100EA000D6015ACED60165CED6018ACED60195CED0
:100EB000D6016CCED60177CED60111CFD60102CFA6
:100EC000D601F3CED601E4CED6014ACFD6013BCF30
:100ED000D6012CCFD6011DCFD6010ECFD6019BCF88
:100EE000D6018CCFD6017DCFD6016ECFD601ADCF46
:100EF000D6019ECFD60198CED601A3CED6017ACE0A
:100F0000D60185CE1F920F920FB60F9211248F93A8
:100F10009F938091E1001092E10083FF11C0109235
:100F2000E90091E09093EB001092EC0092E1909335
:100F3000ED0098E09093F0001092110110920E01D4
:100F400082FF13C080911101882379F080911001F4
:100F5000882359F0815080931001811106C084E0EC
:100F60008093E9008AE38093E8009F918F910F902E
:100F70000FBE0F901F9018951F920F920FB60F92F1
:100F800011240BB60F922F933F934F935F936F9360
:100F90007F938F939F93AF93BF93EF93FF931092A1
:100FA000E9008091E80083FF2BC06091F10040913F
:100FB000F1008091F1002091F10090E0922B2091BE
:100FC000F1005091F10030E0352BB091F100A0918B
:100FD000F10052EF5093E800463009F44EC045301E
:100FE00009F426C1493009F4BCC0483009F42BC1CA
:100FF000413209F45EC1403209F0B8C16132B1F04A
:1010000081E28093EB00FF91EF91BF91AF919F91AF
:101010008F917F916F915F914F913F912F910F90A1
:101020000BBE0F900FBE0F901F9018958091E80097
:1010300082FFFCCF8091F100809306018091F10046
:10104000809307018091F100809308018091F10065
:10105000809309018091F10080930A018091F10051
:1010600080930B018091F10080930C018BEF8093B2
:10107000E8008EEF8093E800C6CFE6E3F1E045910B
:1010800054918417950709F43FC14DE351E0FA01EB
:10109000659174918617970709F441C1495F5F4FC5
:1010A000FA01659174918617970709F441C1495F68
:1010B0005F4FFA01659174918617970709F441C152
:1010C000495F5F4FFA01659174918617970709F49C
:1010D00041C1495F5F4FFA01659174918617970787
:1010E00009F08ECFFA01329685919491281739072D
:1010F00009F086CFFA01349625913491FA0136969B
:1011000044918B2F90E09A2B8F3F910519F010F0AE
:101110008FEF90E0841708F4482F6EEF8091E8007D
:10112000982F9570D9F382FD6ECF542F413108F47A
:10113000E6C050E1F901852F94919093F100815020
:1011400031968111F9CF8FEF850F90E00196280F2E
:10115000391F451B6093E8004111E0CF5031F1F297
:1011600052CF611172C08093110110920E01109242
:1011700010018EEF8093E80081E08093E900E5E1C3
:10118000F2E0E491E093EB00EE2309F4ECC0E6E139
:10119000F2E0E491E093EC00E7E1F2E0E491E09327
:1011A000ED0028E132E082E08093E900C901019678
:1011B000F90144914093EB00442351F0FC018491E8
:1011C0008093EC00C9010396319624912093ED00A1
:1011D00023E02093E9009C012F5F3F4FFC014491E5
:1011E0004093EB00442359F0F90124912093EC0043
:1011F0009C012D5F3F4F319684918093ED0084E0F8
:101200008093E900C9010196F90144914093EB00F4
:10121000442341F0FC0184918093EC0031962491A9
:101220002093ED008EE18093EA001092EA00EBCE6D
:101230002EEF2093E8002091E80020FFFCCF80688B
:101240008093E300E0CE603841F1542F5D7F513050
:1012500009F0D6CE623009F0D3CE892B09F0D0CE7A
:101260002F778FEF820F843008F0CACE8EEF8093F5
:10127000E8002093E900433009F4C2CE89E180936D
:10128000EB0081E090E0022E01C0880F0A94EAF79B
:101290008093EA001092EA00B6CE8091E80080FFC9
:1012A000FCCF809111018093F1008EEF8093E800D4
:1012B000AACE613A51F68091E80080FFFCCF809180
:1012C00006018093F100809107018093F1008091E5
:1012D00008018093F100809109018093F1008091D1
:1012E0000A018093F10080910B018093F1008091BD
:1012F0000C018093F1008EEF8093E80084CE4111C1
:1013000019CF6093E8007FCEE8E3F1E04591549176
:101310002417350709F0B9CE46E351E0EBCEFA01C8
:101320003296659174912617370709F0B7CEE2CE51
:10133000FA013296659174912617370709F0B7CEF6
:10134000D9CEFA013296659174912617370709F0C4
:10135000B7CED0CEFA013296659174912617370731
:1013600009F0B7CEC7CE26E132E01DCF423269F494
:10137000613209F045CE80930E018091E80080FF34
:10138000FCCF8EEF8093E8003ECE41115ECF80917E
:10139000E80080FFFCCF623831F080E08093F100FC
:1013A0001092F100EECF2093E9008091EB0085FBD5
:1013B000882780F91092E900F1CFEE0FFF1F05900A
:0A13C000F491E02D0994F894FFCF9A
:0E13CA00FF040000010000E100000000080028
:00000001FF
