:100000000C9412010C9431010C9431010C943101C7
:100010000C9431010C9431010C9431010C94310198
:100020000C9431010C9431010C94D8070C941208F3
:100030000C9431010C9431010C9431010C94310178
:100040000C9431010C9431010C9431010C94310168
:100050000C9431010C9431010C9431010C94310158
:100060000C9431010C9431010C9431010C94310148
:100070000C9431010C9431010C9431010C94310138
:100080000C9431010C9431010C9431010C94310128
:100090000C9431010C943101C604B3047F04E603CF
:1000A000E603790476044D0438041F040804FE03B3
:1000B000FB03F803CA047C048F07E5058207CC071D
:1000C0007507CE076807C4075B07C6074E07C80752
:1000D0004107CA0734079C0727079E071A07A0078E
:1000E0000D07BA070007BC07F306BE07E606C00700
:1000F000D906C207CC06B207BF06B407B206B607D8
:10010000A506B8079806A4078B06A2077E06D207A5
:100110007106D0076406D6075706D4074A06AC070F
:100120003D06AA073006B0072306AE071606A80745
:100130000906A607FC05F405EC050001000007020E
:100140001200020000C4014300030000C0010401CA
:10015000030904B0010E0203090472013C03030900
:100160000464010C0C03310032003300340035000C
:1001700000003C034E004F00520077006100790000
:100180002000500053003300200046006C00610046
:1001900073006800650072002000550053004200A3
:1001A0002000530065007200690061006C000000CF
:1001B0000E036A00750064006700650073000000AC
:1001C0000403090409024300020100C0FA09040003
:1001D00000010202010005240010010524010101B3
:1001E00004240206052406000107058203100040CE
:1001F00009040100020A0000000705030240000094
:10020000070584024000001201000202000010C035
:10021000167A040001010203010001C112018036B7
:100220000181360011241FBECFEFD0E2DEBFCDBF6B
:1002300011E0A0E0B1E0E6E7F4E100E00BBF02C0AE
:1002400007900D92AE30B107D9F721E1AEE0B1E0F1
:1002500001C01D92AE31B207E1F70E948C030C94ED
:10026000390A0C9400000F931F93CF93DF93809172
:100270000E01882329F080910101843009F49BC08C
:10028000CFB7F894289880910E01811183C0809196
:100290000101833009F47EC083E18EBD0DB407FEF9
:1002A000FDCF80910101843009F47EC08091150159
:1002B0008EBD0DB407FEFDCF809116018EBD0DB42D
:1002C00007FEFDCF809117018EBD0DB407FEFDCF57
:1002D0008091020190910301A0910401B091050168
:1002E000AC01BD01FCE07695679557954795FA9569
:1002F000D1F7452B462B472B71F1D0E0EAE1F1E035
:100300001EBC0DB407FEFDCF8EB5819381E1EA31AD
:10031000F807B1F760E070E18AE191E00E947F05A3
:10032000DF5F8091020190910301A0910401B091DF
:1003300005010D2F10E020E030E0AC01BD01ECE044
:100340007695679557954795EA95D1F70417150760
:100350002607370798F2BC017F706115710571F0AF
:10036000EAE1F1E09B01265E3E4F1EBC0DB407FEA4
:10037000FDCF4EB54193E217F307B9F7289A8AE10A
:1003800091E00E947F05CFBF81E0DF91CF911F9167
:100390000F91089583E08EBD0DB407FEFDCF8091CF
:1003A0000101843009F082CF809114018EBD0DB41B
:1003B00007FEFDCF7BCF289887EB8EBD0DB407FEDF
:1003C000FDCF289A5DCFBF92CF92DF92EF92FF923E
:1003D0000F931F93CF93DF9380910E01882329F011
:1003E00080910101843009F49FC02C9AEE24E3949B
:1003F000F12C15E006E0A2E0DA2EB2E1BB2ECBE252
:10040000CC2E28980EBD0DB407FEFDCF289A289853
:100410001EBD0DB407FEFDCF1EBC0DB407FEFDCF03
:100420009EB5289A91FFEDCF289880910E018111F9
:1004300058C080910101833009F453C0BEBC0DB493
:1004400007FEFDCF80910101843009F453C08091F3
:1004500015018EBD0DB407FEFDCF909116019F29A9
:100460009EBD0DB407FEFDCF809117018EBD0DB46A
:1004700007FEFDCFC0E0D1E00E94F0048F3F2FEFD8
:10048000920761F18EBD0DB407FEFDCF2197209735
:1004900099F7289A28981EBD0DB407FEFDCF1EBC03
:1004A0000DB407FEFDCF0EB400FCF9CF289A8FEFF4
:1004B000E81641F080911801823C19F1F39420E193
:1004C000F2129FCF2C988E2DDF91CF911F910F911B
:1004D000FF90EF90DF90CF90BF900895EE24EA94C4
:1004E000D8CFDEBC0DB407FEFDCF80910101843072
:1004F00009F0ADCF809114018EBD0DB407FEFDCF84
:10050000A6CF809119018831C9F62898CEBC0DB4C8
:1005100007FEFDCF1EBC0DB407FEFDCF8EB5289A99
:1005200085FFCCCFE12CCACF289887EB8EBD0DB4C8
:1005300007FEFDCF289A59CF2C9A26E095E02898FF
:100540002EBD0DB407FEFDCF289A28989EBD0DB490
:1005500007FEFDCF1EBC0DB407FEFDCF8EB5289A59
:1005600081FFEDCF289880E68EBD0DB407FEFDCF4C
:10057000289A289885E08EBD0DB407FEFDCF1EBCDD
:100580000DB407FEFDCF0EB400FCF9CF289A2C98CD
:10059000289885E08EBD0DB407FEFDCF1EBC0DB4BE
:1005A00007FEFDCF8EB5289A8C7BD9F48091180177
:1005B000823C11F081E00895809119018831D1F7D2
:1005C00028988BE28EBD0DB407FEFDCF1EBC0DB486
:1005D00007FEFDCF9EB5289A907C81E061F380E014
:1005E00008958FEF089580910E01882329F080915E
:1005F0000101843009F486C02C9A26E095E0289801
:100600002EBD0DB407FEFDCF289A28989EBD0DB4CF
:1006100007FEFDCF1EBC0DB407FEFDCF8EB5289A98
:1006200081FFEDCF289880910E01811145C0809106
:100630000101833009F440C08CED8EBD0DB407FE7E
:10064000FDCF80910101843009F440C080911501F3
:100650008EBD0DB407FEFDCF809116018EBD0DB489
:1006600007FEFDCF809117018EBD0DB407FEFDCFB3
:10067000289A289885E08EBD0DB407FEFDCF1EBCDC
:100680000DB407FEFDCF0EB400FCF9CF289A2C98CC
:10069000289885E08EBD0DB407FEFDCF1EBC0DB4BD
:1006A00007FEFDCF8EB5289A8C7BA1F580911801AD
:1006B000823C99F081E0089588ED8EBD0DB407FE6F
:1006C000FDCF80910101843009F0C0CF80911401E9
:1006D0008EBD0DB407FEFDCFB9CF809119018831D1
:1006E00049F728988BE28EBD0DB407FEFDCF1EBCE6
:1006F0000DB407FEFDCF9EB5289A907C81E0D9F21B
:1007000080E00895289887EB8EBD0DB407FEFDCFDD
:10071000289A72CF8FEF0895CF93DF9300D0CDB793
:10072000DEB780E88093610091E09093610091E8EA
:1007300095BF85BF11B814B817B81AB81DB810BA4C
:1007400012B815B818B81BB81EB811BA1CBC209A3C
:10075000289A80E18CBD84B1866084B923982B9A55
:100760008DB581608DBD80E58CBD84B1806784B915
:100770002E9A2C982D9A0E94D4040E94ED0488236E
:10078000E1F38FE392E4AFE0B0E00197A109B10992
:10079000000001F0D1F7C8950000CE0101965C0180
:1007A0007724739400E9602E8FE4C82E83ECD82E52
:1007B000E12CF12C5524539494E0492E23E0322E61
:1007C0000E94190588248A9410E2912E0E94ED045B
:1007D0008823B1F30E94F0048F3FEFEF9E07B1F33F
:1007E0008031910598F7FC01E45BFF4F0C94330ACC
:1007F00040920101EBCF30920101E8CF0E949C02B0
:100800001816CCF08111C9C086E50E943005DECFF4
:1008100004E111E00E94F0048F3F2FEF920721F1D5
:10082000F80181938F01F1E008311F0799F70E94C9
:10083000F30218163CF78BE40E943005C7CF04E1A1
:1008400011E00E94F0048F3F2FEF920769F0F8014A
:1008500081938F01F1E008311F0799F70E94E301AE
:1008600018164CF3882381F282E50E943005AECF42
:1008700004E111E00E94F0048F3FFFEF9F07A1F316
:10088000F80181938F01F1E008311F0799F78BE49C
:100890000E9430050E94330199CF28986EBC0DB498
:1008A00007FEFDCF1EBC0DB407FEFDCF1EBC0DB470
:1008B00007FEFDCF1EBC0DB407FEFDCF1EBC0DB460
:1008C00007FEFDCF8EB5809318011EBC0DB407FE48
:1008D000FDCF8EB580931901289A809118010E944E
:1008E0003005809119010E94300570CF809200017F
:1008F0006DCF109200016ACF10920E0167CFF8946D
:100900007092E0009092D8001092C900D701C60101
:100910000197A109B109000001F0D1F7C8950000C5
:100920001DBA109268001CBC10BE1FBA10927A004B
:1009300010926E0010926F00109270001092710071
:100940001092C9001092BC0011B814B817B81AB8A8
:100950001DB810BA12B815B818B81BB81EB811BA1D
:100960000C9400FE33CF80911A1190911B110097C7
:10097000C1F08501081B190B88E20E943005812F08
:100980000E943005802F0E94300520CF80E00E9419
:1009900030051CCF50920E0119CF80E50E94300522
:1009A00015CF8EE191E1E5CF81E88093D70080EA11
:1009B0008093D80086E189BD09B400FEFDCF80E9AF
:1009C0008093D8001092E0001092120110920F0153
:1009D0008CE08093E200789408958091120108954C
:1009E0002FB7F894809112018823F9F083E0809367
:1009F000E9008091E80085FD0CC082FF16C09BE6EF
:100A000002C082FF12C09093E8008091E80085FF49
:100A1000F8CF8091F1009091E80095FD03C09BE62E
:100A20009093E8002FBF90E008952FBF8FEF9FEFC6
:100A3000089580911201882391F02FB7F89483E0F4
:100A40008093E9008091E80085FF07C09BE69093C2
:100A5000E8008091E80085FDFACF2FBF0895089542
:100A600090911201992309F443C09FB7F89424E0B0
:100A70002093E90020911001211132C03091E4004F
:100A8000305F2091E80025FD1CC09FBF9091E400DD
:100A9000931781F190911201992351F144E009C01B
:100AA0009FBF9091E400931729F19091120199232F
:100AB000F9F09FB7F8944093E9002091E80025FFF2
:100AC000EFCF8093F1008091E80085FD03C08AE3B9
:100AD0008093E80085E0809311019FBF80E0089536
:100AE0002091E80025FF03C010921001C7CF9FBFDF
:100AF0008FEF089581E0809310018FEF0895CF92DA
:100B0000DF92FF920F931F93CF93DF936C01CB0182
:100B1000209112012223B9F1CFB7F89424E0209359
:100B2000E90020911001211137C0009709F402C299
:100B3000D4E000E42AE3F22E15E03091E400305FC7
:100B40002091E80025FF0DC02EC020911201222324
:100B5000D1F0CFB7F894D093E9002091E80025FDBB
:100B600022C0CFBF2091E4002313EFCF81E0809318
:100B700010018FEFDF91CF911F910F91FF90DF90C8
:100B8000CF900895CFBF8FEFDF91CF911F910F913D
:100B9000FF90DF90CF9008952091E80025FFF2CFDD
:100BA00010921001C2CF2091F200402F421B242F3F
:100BB00030E08217930718F4482F9C013327821BDB
:100BC000930B50E04134510510F0D601A1C1445AB5
:100BD0005F4FFA010C94330AF60120812093F10053
:100BE00096012F5F3F4F6901F60120812093F100AC
:100BF00096012F5F3F4F6901D6011196F6012081C2
:100C00002093F1006D01FFEFCF1ADF0A2C912093A2
:100C1000F100D6011196F60120812093F1006D01BB
:100C2000FFEFCF1ADF0A2C912093F100D601119625
:100C3000F60120812093F1006D01FFEFCF1ADF0A4A
:100C40002C912093F100D6011196F601208120937A
:100C5000F1006D01FFEFCF1ADF0A2C912093F10014
:100C6000D6011196F60120812093F1006D01FFEF6E
:100C7000CF1ADF0A2C912093F100D6011196F601CC
:100C800020812093F1006D01FFEFCF1ADF0A2C9134
:100C90002093F100D6011196F60120812093F100F6
:100CA0006D01FFEFCF1ADF0A2C912093F100D601DE
:100CB0001196F60120812093F1006D01FFEFCF1A0C
:100CC000DF0A2C912093F100D6011196F6012081C4
:100CD0002093F1006D01FFEFCF1ADF0A2C912093D2
:100CE000F100D6011196F60120812093F1006D01EB
:100CF000FFEFCF1ADF0A2C912093F100D601119655
:100D0000F60120812093F1006D01FFEFCF1ADF0A79
:100D10002C912093F100D6011196F60120812093A9
:100D2000F1006D01FFEFCF1ADF0A2C912093F10043
:100D3000D6011196F60120812093F1006D01FFEF9D
:100D4000CF1ADF0A2C912093F100D6011196F601FB
:100D500020812093F1006D01FFEFCF1ADF0A2C9163
:100D60002093F100D6011196F60120812093F10025
:100D70006D01FFEFCF1ADF0A2C912093F100D6010D
:100D80001196F60120812093F1006D01FFEFCF1A3B
:100D9000DF0A2C912093F100D6011196F6012081F3
:100DA0002093F1006D01FFEFCF1ADF0A2C91209301
:100DB000F100D6011196F60120812093F1006D011A
:100DC000FFEFCF1ADF0A2C912093F100D601119684
:100DD000F60120812093F1006D01FFEFCF1ADF0AA9
:100DE0002C912093F100D6011196F60120812093D9
:100DF000F1006D01FFEFCF1ADF0A2C912093F10073
:100E0000D6011196F60120812093F1006D01FFEFCC
:100E1000CF1ADF0A2C912093F100D6011196F6012A
:100E200020812093F1006D01FFEFCF1ADF0A2C9192
:100E30002093F100D6011196F60120812093F10054
:100E40006D01FFEFCF1ADF0A2C912093F100D6013C
:100E50001196F60120812093F1006D01FFEFCF1A6A
:100E6000DF0A2C912093F100D6011196F601208122
:100E70002093F1006D01FFEFCF1ADF0A2C91209330
:100E8000F100D6011196F60120812093F1006D0149
:100E9000FFEFCF1ADF0A2C912093F100D6011196B3
:100EA000F60120812093F1006D01FFEFCF1ADF0AD8
:100EB0002C912093F100D6011196F6012081209308
:100EC000F1006D01FFEFCF1ADF0A2C912093F100A2
:100ED000D6011196F60120812093F1006D01FFEFFC
:100EE000CF1ADF0A2C912093F100D6011196F6015A
:100EF00020812093F1006D01FFEFCF1ADF0A2C91C2
:100F00002093F100D6011196F60120812093F10083
:100F10006D01FFEFCF1ADF0A2C912093F100209191
:100F2000E80025FFF092E80010931101CFBF009771
:100F300009F003CE80E028CED6018FCFD60180CF36
:100F4000D60171CFD601E0CED601EBCED6015ACE76
:100F5000D60165CED6018ACED60195CED6016CCE0D
:100F6000D60177CED60111CFD60102CFD601F3CE6E
:100F7000D601E4CED6014ACFD6013BCFD6012CCF45
:100F8000D6011DCFD6010ECFD6019BCFD6018CCF77
:100F9000D6017DCFD6016ECFD601ADCFD6019ECF83
:100FA000D60198CED601A3CED6017ACED60185CE73
:100FB0001F920F920FB60F9211248F939F938091DF
:100FC000E1001092E10083FF11C01092E90091E06E
:100FD0009093EB001092EC0092E19093ED0098E07A
:100FE0009093F0001092120110920F0182FF13C033
:100FF00080911201882379F080911101882359F0A2
:10100000815080931101811106C084E08093E90032
:101010008AE38093E8009F918F910F900FBE0F900D
:101020001F9018951F920F920FB60F9211240BB6B6
:101030000F922F933F934F935F936F937F938F9371
:101040009F93AF93BF93EF93FF931092E90080912A
:10105000E80083FF2BC06091F1004091F100809186
:10106000F1002091F10090E0922B2091F10050913D
:10107000F10030E0352BB091F100A091F10052EF7A
:101080005093E800463009F44EC0453009F426C1BB
:10109000493009F4BCC0483009F42BC1413209F48D
:1010A0005EC1403209F0B8C16132B1F081E2809393
:1010B000EB00FF91EF91BF91AF919F918F917F9145
:1010C0006F915F914F913F912F910F900BBE0F90B9
:1010D0000FBE0F901F9018958091E80082FFFCCF03
:1010E0008091F100809306018091F10080930701C7
:1010F0008091F100809308018091F10080930901B3
:101100008091F10080930A018091F10080930B019E
:101110008091F10080930C018BEF8093E8008EEFBB
:101120008093E800C6CFEAE3F1E04591549184173B
:10113000950709F43FC141E451E0FA0165917491CA
:101140008617970709F441C1495F5F4FFA0165911E
:1011500074918617970709F441C1495F5F4FFA01FF
:10116000659174918617970709F441C1495F5F4FF4
:10117000FA01659174918617970709F441C1495F97
:101180005F4FFA01659174918617970709F08ECF2A
:10119000FA013296859194912817390709F086CF84
:1011A000FA01349625913491FA01369644918B2FA9
:1011B00090E09A2B8F3F910519F010F08FEF90E09F
:1011C000841708F4482F6EEF8091E800982F9570EF
:1011D000D9F382FD6ECF542F413108F4E6C050E1BF
:1011E000F901852F94919093F100815031968111EE
:1011F000F9CF8FEF850F90E00196280F391F451B1F
:101200006093E8004111E0CF5031F1F252CF61110B
:1012100072C08093120110920F01109211018EEF93
:101220008093E80081E08093E900E9E1F2E0E49155
:10123000E093EB00EE2309F4ECC0EAE1F2E0E49184
:10124000E093EC00EBE1F2E0E491E093ED002CE1BF
:1012500032E082E08093E900C9010196F9014491EE
:101260004093EB00442351F0FC0184918093EC0007
:10127000C9010396319624912093ED0023E0209339
:10128000E9009C012F5F3F4FFC0144914093EB002C
:10129000442359F0F90124912093EC009C012D5F27
:1012A0003F4F319684918093ED0084E08093E90074
:1012B000C9010196F90144914093EB00442341F0A8
:1012C000FC0184918093EC00319624912093ED00F1
:1012D0008EE18093EA001092EA00EBCE2EEF20938D
:1012E000E8002091E80020FFFCCF80688093E300B5
:1012F000E0CE603841F1542F5D7F513009F0D6CEF9
:10130000623009F0D3CE892B09F0D0CE2F778FEF42
:10131000820F843008F0CACE8EEF8093E8002093CD
:10132000E900433009F4C2CE89E18093EB0081E00B
:1013300090E0022E01C0880F0A94EAF78093EA0039
:101340001092EA00B6CE8091E80080FFFCCF809139
:1013500012018093F1008EEF8093E800AACE613AEB
:1013600051F68091E80080FFFCCF809106018093C8
:10137000F100809107018093F10080910801809332
:10138000F100809109018093F10080910A0180931E
:10139000F10080910B018093F10080910C0180930A
:1013A000F1008EEF8093E80084CE411119CF609355
:1013B000E8007FCEECE3F1E0459154912417350726
:1013C00009F0B9CE4AE351E0EBCEFA0132966591CD
:1013D00074912617370709F0B7CEE2CEFA0132969C
:1013E000659174912617370709F0B7CED9CEFA0167
:1013F0003296659174912617370709F0B7CED0CE93
:10140000FA013296659174912617370709F0B7CE25
:10141000C7CE2AE132E01DCF423269F4613209F0D1
:1014200045CE80930F018091E80080FFFCCF8EEFC6
:101430008093E8003ECE41115ECF8091E80080FFAE
:10144000FCCF623831F080E08093F1001092F1001F
:10145000EECF2093E9008091EB0085FB882780F98F
:101460001092E900F1CFEE0FFF1F0590F491E02DEF
:061470000994F894FFCF7F
:0E147600FF040000010000E10000000008007B
:00000001FF
