:100000000C9402010C9422010C9422010C94220104
:100010000C9422010C9422010C9422010C942201D4
:100020000C9422010C9422010C9455050C948F051C
:100030000C9422010C9422010C9422010C942201B4
:100040000C9422010C9422010C9422010C942201A4
:100050000C9422010C9422010C9422010C94220194
:100060000C9422010C9422010C9422010C94220184
:100070000C9422010C9422010C9422010C94220174
:100080000C9422010C9422010C9422010C94220164
:100090000C9422010C942201ED04EA04E704E40428
:1000A000E104DE04DB04D804D504D204CF04CC047C
:1000B000C904C604C304C004BD04BA04B704B4042C
:1000C000B104AE04AB04A804A504A2049F049C04DC
:1000D00099049604930490048D048A04870484048C
:1000E00081047E047B047804750472046F046C043C
:1000F00069046604630460045D045A0457045404EC
:1001000051044E044B044804450442043F043C049B
:1001100039043604330430042D04000100004E017C
:10012000120002000060014300030000A30104016B
:10013000030904A7010E02030904B7013C030309E4
:1001400004F5010C0001C112018036018136120153
:10015000000202000010C0167A040001010203012F
:1001600009024300020100C0FA0904000001020272
:1001700001000524001001052401010104240206E8
:100180000524060001070582031000400904010050
:10019000020A000000070503024000000705840270
:1001A000400000040309040E036A00750064006740
:1001B000006500730000003C034E004F00520077C2
:1001C00000610079002000500053003300200046F9
:1001D000006C00610073006800650072002000552B
:1001E0000053004200200053006500720069006166
:1001F000006C0000000C0331003200330034003585
:100200000000000011241FBECFEFD0E2DEBFCDBF43
:1002100011E0A0E0B1E0E0E3FEE100E00BBF02C0CE
:1002200007900D92A830B107D9F71BBE11E0A8E0E6
:10023000B1E001C01D92AF30B107E1F70E94DA07CB
:100240000C94160F0C94000085B962B941BB089557
:1002500088B96BB900007598759A089590910C0152
:100260009F3F79F09F5F90930C01882349F0809124
:100270000D0185B980910E0182B980910C0181BB7D
:10028000089510920C0190910E019F3F21F09F5F05
:1002900090930E01EACF10920E0190910D019F37BD
:1002A00020F49F5F90930D01E0CF10920D01DDCF00
:1002B00000C04FEF5FEF6FEF70E005C0415050405E
:1002C0006040704021F1669BF9CF882311F481E0F2
:1002D000089580910C018F3F71F08F5F80930C0126
:1002E00080910D0185B980910E0182B980910C0138
:1002F00081BB81E0089510920C0180910E018F3F27
:1003000041F08F5F80930E0180910D01EBCF80E073
:10031000089510920E0180910D018F3720F48F5FA8
:1003200080930D01DFCF10920D0180E0DBCF00C084
:10033000669BFECF882311F480E0089580910C0124
:100340008F3F71F08F5F80930C0180910D0185B913
:1003500080910E0182B980910C0181BB80E00895EB
:1003600010920C0180910E018F3F31F08F5F8093CE
:100370000E0180910D01EBCF10920E0180910D01C5
:100380008F3720F48F5F80930D01E1CF10920D0124
:1003900080E0DDCF9CB1991F9927991F9295990F05
:1003A000907E2CB12071669B15C058E0609B0DC0FB
:1003B00044E065990DC030E081E0619B80E0822BD4
:1003C000892B852B842B832B089540E0659BF3CFED
:1003D00032E0F2CF50E0EACFF89481E08093E00081
:1003E00080E28093D800E9ECF0E010828FE798E398
:1003F000A1E081509040A040E1F700C000001DBA8C
:10040000109268001CBC10BE1FBA10927A001092A5
:100410006E0010926F0010927000109271001082A6
:100420001092BC0011B814B817B81AB81DB810BA99
:1004300012B815B818B81BB81EB811BA0C9400FE43
:100440000895CF93DF93C0E0D0E102C0219761F01F
:100450000E9404032FEF8F3F9207C1F784E50E94AB
:100460005E03DF91CF9108958BE40E945E03DF91DC
:10047000CF9108950F931F93CF93DF93CDB7DEB73E
:10048000C054D0400FB6F894DEBF0FBECDBF198266
:1004900081E08A8300E010E082E006C00F5F1F4F1A
:1004A0009FEF0F3F190701F1E1E0F0E0EC0FFD1FB6
:1004B000E80FF11D8083982F9F5FE1E0F0E0EC0FE3
:1004C000FD1FE90FF11D90838E5F803439F7CE0157
:1004D000019660E470E00E94D20380E00F5F1F4F3E
:1004E0009FEF0F3F190701F7C05CDF4F0FB6F8947D
:1004F000DEBF0FBECDBFDF91CF911F910F91089549
:10050000FC0117B81AB86115710581F43CC08F5F02
:1005100080930C0180910D0185B980910E0182B903
:1005200080910C0181BB6250704069F171980000AC
:1005300086B19081981701F5918189B1329698170B
:10054000D9F4719A80910C018F3F09F710920C0138
:1005500080910E018F3F31F08F5F80930E0180916B
:100560000D01DACF10920E0180910D018F3738F412
:100570008F5F80930D01D0CF719A81E00895109222
:100580000D0180E0C9CF8FEF87B98AB980E0089567
:100590008FEF87B98AB984B981B980BB15B812B811
:1005A00011BA8DB96E98769A8EB18E778EB98EB15A
:1005B00082638EB908951DB817B81AB814B811B867
:1005C00010BA1EB818B81BB815B812B811BA0895E9
:1005D00081E88093D70080EA8093D80086E189BDC6
:1005E00009B400FEFDCF80E98093D8001092E000AE
:1005F0001092090110920A018CE08093E200789435
:1006000008958091090108953FB7F89480910901F8
:100610008823F9F083E08093E9008091E80085FD6C
:100620000CC082FF16C09BE602C082FF12C09093EE
:10063000E8008091E80085FFF8CF8091F10090916B
:10064000E80095FD03C09BE69093E8003FBF90E073
:1006500008953FBF8FEF9FEF08959FB7F894809163
:100660000901882391F083E08093E9008091F200F2
:10067000882349F42091E80022FF05C025FD03C02E
:100680002BE62093E8009FBF089580E09FBF089568
:1006900080910901882389F02FB7F89483E0809333
:1006A000E9008091E80085FF07C09BE69093E80091
:1006B0008091E80085FDFACF2FBF08959091090140
:1006C000992309F449C09FB7F89424E02093E900E6
:1006D00020910B01222391F53091E4002091E80054
:1006E00025FD1DC0305F9FBF9091E400931769F115
:1006F00090910901992381F144E009C09FBF909135
:10070000E400931711F190910901992319F19FB712
:10071000F8944093E9002091E80025FFEFCF809303
:10072000F1008091E80085FD03C08AE38093E80032
:1007300085E0809308019FBF80E008952091E80044
:1007400025FF0CC010920B01C7CF81E080930B01F5
:100750008FEF08958FEF08958FEF08959FBF8FEF6C
:100760000895909109019923C1F02FB7F89494E06E
:100770009093E9009091E80095FF11C08093F100FB
:100780008091E80085FD03C08AE38093E80085E05E
:10079000809308012FBF80E008958FEF08952FBF49
:1007A0008FEF0895CF93DC0180910901882381F1B7
:1007B0002FB7F89484E08093E90080910B0188239F
:1007C00051F56115710509F415C134E050E4CAE32F
:1007D00045E09091E4008091E80085FD23C0905FA2
:1007E0002FBF8091E400891779F406C12FB7F894E0
:1007F0003093E9008091E80085FD14C02FBF8091FF
:10080000E400891709F4F8C080910901882371F781
:100810008FEFCF9108958091E80085FFF3C010928B
:100820000B01CFCF8091F200E52FE81B8E2F90E0D7
:100830006817790718F4E62F862F90E0681B790B6C
:10084000F0E0E134F10508F0C5C0E45BFF4FEE0FC6
:10085000FF1F0590F491E02D09948D918093F10094
:100860008D918093F1008D918093F1008D91809313
:10087000F1008D918093F1008D918093F1008D9125
:100880008093F1008D918093F1008D918093F10020
:100890008D918093F1008D918093F1008D918093E3
:1008A000F1008D918093F1008D918093F1008D91F5
:1008B0008093F1008D918093F1008D918093F100F0
:1008C0008D918093F1008D918093F1008D918093B3
:1008D000F1008D918093F1008D918093F1008D91C5
:1008E0008093F1008D918093F1008D918093F100C0
:1008F0008D918093F1008D918093F1008D91809383
:10090000F1008D918093F1008D918093F1008D9194
:100910008093F1008D918093F1008D918093F1008F
:100920008D918093F1008D918093F1008D91809352
:10093000F1008D918093F1008D918093F1008D9164
:100940008093F1008D918093F1008D918093F1005F
:100950008D918093F1008D918093F1008D91809322
:10096000F1008D918093F1008D918093F1008D9134
:100970008093F1008D918093F1008D918093F1002F
:100980008D918093F1008D918093F1008D918093F2
:10099000F1008D918093F1008D918093F1008D9104
:1009A0008093F1008D918093F1008D918093F100FF
:1009B0008D918093F1008D918093F1008D918093C2
:1009C000F1008D918093F1008D918093F1008D91D4
:1009D0008093F1008D918093F1008091E80085FD76
:1009E00002C0C093E800409308012FBF6115710554
:1009F00009F0EFCE80E00DCF81E080930B018FEF07
:100A0000CF9108952FBF8FEF04CF8FB7F8949091B7
:100A10000801992341F094E09093E9009AE39093C0
:100A2000E800109208018FBF089560910001709155
:100A300001018091020190910301089580910401C8
:100A4000089580910501089580910601089580918F
:100A50000A0108952FB7F89490910901992311F193
:100A600092E09093E9009091E80095FF1BC091EA15
:100A70009093F10090E29093F1001092F1001092A7
:100A8000F1001092F1001092F10091E09093F100CA
:100A90001092F1008093F1008AE38093E8002FBF69
:100AA00080E008952FBF8FEF08951F920F920FB629
:100AB0000F9211248F939F938091E1001092E10097
:100AC00083FF11C01092E90091E09093EB00109227
:100AD000EC0092E19093ED0098E09093F00010927A
:100AE000090110920A0182FF13C080910901882335
:100AF00079F080910801882359F081508093080192
:100B0000882331F484E08093E9008AE38093E8004D
:100B10009F918F910F900FBE0F901F9018951F926D
:100B20000F920FB60F920BB60F9211240F931F93D3
:100B30002F933F934F935F936F937F938F939F93E5
:100B4000AF93BF93CF93EF93FF931092E9008091FF
:100B5000E80083FF71C0E091F1006091F100209105
:100B6000F10030E04091F100942F80E0282B392BE8
:100B70004091F10050E07091F100972F80E0482BF8
:100B8000592BA091F100C091F10082EF8093E80011
:100B90006630E1F0653009F4E7C0693009F465C0FA
:100BA000683009F4ECC0613209F4F8C0603209F42D
:100BB0001CC1623209F0C5C0E13209F03DC020938A
:100BC0000A018091E80080FFFCCFCAC06AE171E0B1
:100BD000FB01859194912817390709F4A5C1695F34
:100BE0007F4FFB01859194912817390709F4A5C11E
:100BF00068E271E0FB01859194912817390709F4A7
:100C0000A9C16FE271E0FB01859194912817390722
:100C100009F4ADC166E371E0FB0185919491281759
:100C2000390709F4BBC1695F7F4FFB01859194913E
:100C30002817390709F403C181E28093EB00FF9183
:100C4000EF91CF91BF91AF919F918F917F916F91D4
:100C50005F914F913F912F911F910F910F900BBE7C
:100C60000F900FBE0F901F901895EE2329F7209339
:100C7000090110920A01109208018EEF8093E8009A
:100C800081E08093E90024E431E0F90184918093CC
:100C9000EB00882309F48BC13196E491E093EC00DA
:100CA000F9013296E491E093ED002D5F3F4F82E031
:100CB0008093E900C9010196F90144914093EB004A
:100CC000442361F0FC0184918093EC00C9010396F8
:100CD0002E5F3F4FF90124912093ED0023E02093F4
:100CE000E9009C012F5F3F4FFC0144914093EB00D2
:100CF000442361F0F90124912093EC009C012D5FC5
:100D00003F4F0296FC0184918093ED0084E0809334
:100D1000E900C9010196F90144914093EB00442395
:100D200051F0FC0184918093EC002E5F3F4FF9015C
:100D300024912093ED008EE18093EA001092EA0066
:100D40007ECF662309F0C6C08091E80080FFFCCF0B
:100D5000E23809F419C180E08093F1001092F100AB
:100D60008EEF8093E8006BCF8EEF8093E800809148
:100D7000E80080FFFCCF20682093E30060CFE038DC
:100D800009F05ACF8091E80080FFFCCF80910901E3
:100D90008093F1008EEF8093E80051CFE13A09F0A3
:100DA0004BCF8091E80080FFFCCF809100018093C1
:100DB000F100809101018093F10080910201809304
:100DC000F100809103018093F100809104018093F0
:100DD000F100809105018093F100809106018093DC
:100DE000F1008EEF8093E8002ACFE13209F024CFA2
:100DF0008091E80082FFFCCF8091F1008093000198
:100E00008091F100809301018091F10080930201B3
:100E10008091F100809303018091F100809304019F
:100E20008091F100809305018091F100809306018B
:100E30008BEF8093E8008EEF8093E80000CFFB01FA
:100E40003296859194914817590709F0F5CEFB0128
:100E5000349625913491C9016A5F7F4FFB016491FB
:100E6000B0E03C2F20E0A22BB32BAF3FB10519F02F
:100E700010F0AFEFB0E0A61708F46A2F7EEF2091D4
:100E8000E80030E0A9014570507041155105B9F3F3
:100E900022FDD5CE562F6131D0F050E19C01452F77
:100EA000F9012F5F3F4FE491E093F1004150C1F70A
:100EB000252F215030E02F5F3F4F820F931F651B7E
:100EC0007093E8006623D9F65031C9F2B8CE662394
:100ED00029F7F5CF613021F5E23009F0ADCE2115CB
:100EE000310509F0A9CE4F77842F8150843008F066
:100EF000A3CE8EEF8093E8004093E900633009F4BD
:100F00009BCE89E18093EB0081E090E002C0880FE6
:100F1000991F4A95E2F78093EA001092EA008FCE7B
:100F2000633009F089CED8CFFB0132968591949138
:100F30004817590709F053CE8ACF03E211E0F801B0
:100F4000859194914817590709F481CFB8016B5FD7
:100F50007F4F50CE0AE211E0F80185919491481735
:100F6000590709F474CFB8016B5F7F4F4CCE01E392
:100F700011E0F801859194914817590709F467CF5A
:100F8000B8016B5F7F4F48CE4093E9009091EB0032
:100F900081E095FF80E01092E900DECEFB01329601
:100FA000859194914817590709F03DCE50CF2F5F96
:100FB0003F4F7DCECF93DF93CDB7DEB7CE54D04138
:100FC0000FB6F894DEBF0FBECDBF80E880936100FE
:100FD00091E09093610091E895BF85BF0E94DB028C
:100FE0000E94E8020E9401038823E1F30E94C802E4
:100FF0008FEF99E6A8E181509040A040E1F700C052
:10100000000010920D0110920E0110920C01AA2402
:10101000C25BDF4E1882CE54D041CD5BDF4E1882CA
:10102000C354D041C85BDF4E1882C854D04100E0A1
:1010300080E090E0A2E0B0E0CC5BDF4E8883998353
:10104000AA83BB83C454D04111E4812E10E1912EB8
:101050008C0E9D1E25E0322E35E5B32E40EA242E5F
:101060000E944803EAEAFE2EF2E0EF2E0E940103FE
:101070008823B1F3063009F4EDC00730D0F4023014
:1010800009F4E4C1033008F0CBC0002309F440C1E7
:10109000013061F7C85BDF4E2881C854D04122235C
:1010A00009F4D6C02150C85BDF4E2883C854D04114
:1010B000DDCF0A3009F4F2C00B30F8F4083009F43F
:1010C000A8C1093008F4BCC0A1E4CA2ED12CCC0EB2
:1010D000DD1E860107C0F80181938F01E815F9052F
:1010E00009F43FC20E940403AFEF8F3F9A0799F7BC
:1010F00082E50E945E0300E0B9CF0C3009F4B5C070
:101100000C3008F4F3C00D3009F0B0CF4EB051B23E
:1011100062B075B0CBB0D8B02DB1CF5BDF4E2883B5
:10112000C154D04120B3C75BDF4E2883C954D0419E
:1011300021B1C65BDF4E2883CA54D04124B1C55BC0
:10114000DF4E2883CB54D0412AB1C45BDF4E2883C5
:10115000CC54D04127B1C35BDF4E2883CD54D0415E
:1011600018B81BB815B812B811BA1EB88FEF87B9E6
:101170008AB984B981B980BB8DB91FEF22C018B973
:101180001BB915B912B911BB1EB98FEF99E6A8E1C9
:1011900081509040A040E1F700C0000018B81BB893
:1011A00015B812B811BA1EB88FEF99E6A8E18150B0
:1011B0009040A040E1F700C000000E9404030097A7
:1011C00021F00E9401038823D1F64EB851BA62B8CB
:1011D00075B8CBB8D8B8CF5BDF4E2881C154D041A9
:1011E0002DB9C75BDF4E2881C954D04120BBC65BF7
:1011F000DF4E2881CA54D04121B9C55BDF4E28811A
:10120000CB54D04124B9C45BDF4E2881CC54D041AB
:101210002AB9C35BDF4E2881CD54D04127B926CFF0
:10122000043009F41FC1053008F4E7C00E9404032C
:10123000AFEF8F3F9A0709F419CF88B906E016CFB0
:10124000759ACD5BDF4E2881C354D0412223D9F556
:1012500000E00CCF0E940403BFEF8F3F9B0709F40F
:1012600005CF8BB9000007E001CF7198000089B16C
:101270000E945E0386B10E945E030AC00E940403BE
:10128000009751F0EFECF7E03197F1F700C0000064
:101290000E940103882391F7719AE8CEF1E4CF2EE2
:1012A000D12CCC0EDD1E860107C0D8018D938D0197
:1012B000A815B90509F4E5C10E940403FFEF8F3FAB
:1012C0009F0799F715CF80910C018F3F09F4EFC369
:1012D0008F5F80930C0180910D0185B980910E0183
:1012E00082B980910C0181BB00E0C0CE8E010F5B02
:1012F0001F4F07C0F80181938F01E815F90509F424
:10130000A1C20E940403AFEF8F3F9A0799F7F0CE76
:101310000E940403AC019FEF4F3F590709F4A6CE8A
:101320004115510509F4A2CE4130510509F4E3C33A
:101330004230510509F4CDC34330510509F4D9C3F6
:101340004430510509F42FC44530510509F47CC4DB
:10135000CA01959587958330910509F460C484305E
:10136000910509F482C48630910509F414C48730CC
:10137000910509F4F3C49A0135952795359527957C
:10138000359527952230310509F4CBC48C30910571
:1013900009F4B2C48D30910509F4A1C48E309105D1
:1013A00009F423C58F30910509F415C5CA01082E2B
:1013B000892F000C881F990B000C881F991F813002
:1013C000910509F41FC54032510509F486C4413224
:1013D000510509F482C4CA01880F892F881F990B0F
:1013E0008130910509F042CE440F551F5595479520
:1013F00040930D0145B902E039CE0E940403BFEFCE
:101400008F3F9B0709F432CE80930C0181BB00E033
:101410002DCE00C0669BFECFCD5BDF4E2881C3542E
:10142000D041222309F414CF80910C018F3F09F0A1
:101430004FCF10920C0180910E018F3F09F48BC3A6
:101440008F5F80930E0180910D0147CF0E940403AE
:10145000AFEF8F3F9A0709F409CE80930E0182B94E
:1014600003E004CECC5BDF4E88819981AA81BB81E9
:10147000C454D04182309105A105B10509F44DC095
:101480002C013D0176946794579447940894410841
:1014900051086108710820E000E010E018C08F5F7B
:1014A00080930C0180910D0185B980910E0182B964
:1014B00080910C0181BB2034F1F1C801A0E0B0E0C3
:1014C0000F5F1F4F84159505A605B70579F1719833
:1014D000000086B1E1E0F0E0EC0FFD1FE20FF11D2E
:1014E000808389B1922F9F5FE1E0F0E0EC0FFD1F58
:1014F000E90FF11D80832E5F719A80910C018F3F5F
:1015000071F610920C0180910E018F3FE1F08F5F18
:1015100080930E0180910D01C7CF7198000086B1B4
:101520000E945E0389B10E945E03719A8FEF87B9B2
:101530008AB900E09BCDCE01019660E470E00E9484
:10154000D20320E0BACF10920E0180910D018F37A7
:1015500020F48F5F80930D01A7CF10920D0180E0E2
:10156000A3CF20910C0160910E0130910D0141E05B
:1015700050E0022F162FBA01A601DA018C918F3F9D
:1015800051F4E1E4F0E0EC0FFD1FE60FF71F80815E
:101590008F3F09F45AC0A5B832B8B1BA18B8FBB831
:1015A00000007598759AA5B8E2B8F1BA18B8BBB83A
:1015B00000007598759AA5B832B8B1BA18B82BB8AA
:1015C00000007598759A90910D0180910E0195B962
:1015D00082B921BBFA01A081E1E4F0E0EC0FFD1F2C
:1015E000E60FF71FE081A8B9EBB900007598759A6E
:1015F0002F3FD9F02F5F20930C0100C08FEF9FEF9A
:10160000AFEFB0E004C00197A109B10961F0669B9A
:10161000FACF4E5F5F4F6E5F7F4F8416950611F1D4
:1016200020910C01AACF84E564CD10920C018F3F6C
:1016300021F08F5F80930E01E0CF10920E019F3753
:10164000E8F49F5F90930D01D8CF2F3F09F49BC121
:101650002F5F20930C014E5F5F4F6E5F7F4F8416AC
:101660009506F1F6702F612FC25BDF4E2881CE54B4
:10167000D041213009F4DFC18BE43BCD10920D0144
:10168000BCCF20910C01022F30910E01732E1091CE
:101690000D01A5B832B8B1BA18B8FBB800007598FA
:1016A000759AA5B8E2B8F1BA18B8BBB80000759839
:1016B000759AA5B832B8B1BA18B880E28BB90000F3
:1016C0007598759A15B932B921BB41E050E060E0D8
:1016D00070E0CA01A60168018B01BC01FA0180819A
:1016E0008F3F49F4E1E4F0E0EC0FFD1FE60FF71F38
:1016F00080818F3FF9F018B82BB800007598759A63
:10170000DA018C91E1E4F0E0EC0FFD1FE60FF71F2A
:10171000908188B99BB900007598759A00C08FEFC9
:101720009FEFAFEFB0E004C00197A109B109C1F08C
:10173000669BFACF2F3F09F46BC02F5F20930C01FB
:1017400080910D0185B932B921BB0E5F1F4F4E5FED
:101750005F4F6E5F7F4FB0E100301B0709F0BECFD7
:10176000B801860118B880E98BB900007598759AA0
:1017700018B81BB800007598759AE0E160307E07D4
:1017800009F051CFC25BDF4E2881CE54D0412130C9
:1017900009F072CFC0920C0170920E0110930D01EE
:1017A00015B972B8C1BA17B81AB8FE01EF5BFF4F8E
:1017B00010C08F5F80930C0180910D0185B98091DD
:1017C0000E0182B980910C0181BB8E169F0609F42F
:1017D0006DC27198000086B19081981709F07BC1A5
:1017E000918189B13296981709F075C1719A8091EB
:1017F0000C018F3FF1F610920C0180910E018F3F8A
:1018000009F49EC18F5F80930E0180910D01D6CFA8
:1018100010920C013F3F41F03F5F30930E018091E9
:101820000D0120910C018ECF10920E0180910D01BF
:101830008F3708F0B3C08F5F80930D0130E02091A7
:101840000C0180CF20910C01522E30910E01632E9D
:1018500090910D01792E092F132F722F41E050E046
:1018600065E28FE1D82EE9E2CE2E15B832B8B1BAD2
:1018700018B8FBB800007598759A15B8E2B8F1BAB7
:1018800018B8BBB800007598759A95B932B921BBE4
:1018900018B86BB900007598759A95B932B921BB23
:1018A00018B8DBB800007598759AA1E4B0E0AC0FE9
:1018B000BD1FA40FB51F80E2CF5BDF4E5983488365
:1018C000C154D0410CC02F5F20930C0195B932B99F
:1018D00021BB815012968823E9F090910D01FD0102
:1018E000319750814C9158B94BB900007598759A51
:1018F0002F3F49F710920C013F3F99F13F5F309322
:101900000E0120910C0195B932B921BB815012967C
:10191000882319F7CF5BDF4E48815981C154D041EC
:1019200005B912B971BB18B8CBB800007598759A93
:1019300000C08FEF9FEFAFEFB0E005C00197A109A6
:10194000B10909F470CE669BF9CF405C5F4FF0E1BE
:1019500041305F0751F1722F132F90910D01092F24
:1019600084CF10920E019F3738F49F5F90930D0142
:1019700030E020910C01AACF10920D0190E030E0F0
:1019800020910C01A3CF10920C0180910E018F3F8A
:1019900009F4A4C08F5F80930E013BCE10920D011D
:1019A00080E030E020910C01CDCEC25BDF4E28817B
:1019B000CE54D041213009F05FCE50920C0160929C
:1019C0000E0170920D0175B862B851BA17B81AB805
:1019D000FE01EF5BFF4F10C08F5F80930C01809181
:1019E0000D0185B980910E0182B980910C0181BBF6
:1019F0008E169F0609F45AC17198000086B1908135
:101A0000981709F068C0918189B13296981709F04A
:101A100062C0719A80910C018F3FF1F610920C0117
:101A200080910E018F3F09F4ABC08F5F80930E0150
:101A300080910D01D6CF70930C0160930E0130930D
:101A40000D0135B962B971BB17B81AB8FE01EF5B69
:101A5000FF4F10C08F5F80930C0180910D0185B9FD
:101A600080910E0182B980910C0181BB8E169F0678
:101A700009F41CC17198000086B19081981759F53E
:101A8000918189B13296981731F5719A80910C0144
:101A90008F3F01F710920C0180910E018F3F09F4E6
:101AA00064C08F5F80930E0180910D01D8CF10929A
:101AB0000C0180910E018F3F09F0C2CC10920E01F3
:101AC00080910D018F37C0F110920D0180910D01B1
:101AD00004CC82E40ECB719A86E50BCB10920E01FA
:101AE00080910D018F3708F093C08F5F80930D01B7
:101AF00090CD8DEBFECA9CB1991F9927991F9295A5
:101B0000990F907E8CB18071669B14C048E0609BF9
:101B10000FC034E065990AC020E051E0619B50E0BD
:101B2000852B892B842B832B822BE3CA22E0F5CFD4
:101B300030E0F0CF40E0EBCF8F5F80930D01CDCB55
:101B400010920E0180910D018F3708F0B6C08F5FA3
:101B500080930D0133CE10920E0180910D018F37CD
:101B600058F310920D0180E0B8CB10920E018091D5
:101B70000D018F3708F04FC08F5F80930D016FCF3D
:101B800010920E0180910D018F3708F07FC08F5F9A
:101B900080930D0126CF242F2170C25BDF4E288356
:101BA000CE54D04163CAF89481E08093E00080E293
:101BB0008093D8001092C9008FE798E3A1E081508C
:101BC0009040A040E1F700C000001DBA10926800EC
:101BD0001CBC10BE1FBA10927A0010926E001092B8
:101BE0006F0010927000109271001092C900109254
:101BF000BC0011B814B817B81AB81DB810BA12B88A
:101C000015B818B81BB81EB811BA0C9400FE2ECA2D
:101C100010920D01FECC10920D0180E020CF40FF0C
:101C200028C08FEF87B98AB984B981B980BB15B84C
:101C300012B811BA8DB96E98769A8EB18E778EB928
:101C40008EB182638EB912CA80910C018F3F11F15F
:101C50008F5F80930C0180910D0185B980910E01F9
:101C600082B980910C0181BB01CA40FF24C07498E5
:101C7000FDC91DB817B81AB814B811B810BA1EB8F3
:101C800018B81BB815B812B811BAF0C910920D01E6
:101C900080E0A7CE10920C0180910E018F3F91F051
:101CA0008F5F80930E0180910D01D7CF8FEF87B9A1
:101CB0008AB98BE41ECA749AD9C910920D01809119
:101CC0000D017CCD10920E0180910D018F3708F02F
:101CD000A0C08F5F80930D01C0CF0CE0C7C9719A7F
:101CE000709840FF16C050E4A52ECD5BDF4E1882E1
:101CF000C354D04109E0BAC9719A8EB18E7D8EB9B4
:101D0000242F2170CD5BDF4E2883C354D04105E0E2
:101D1000ADC9AA24CD5BDF4E1882C354D04109E07F
:101D2000A5C94031510509F449C041315105C9F1F6
:101D30004231510549F143315105C9F082E090E04B
:101D4000A0E0B0E0CC5BDF4E88839983AA83BB839D
:101D5000C454D04117B81AB804E088C9242F2170A0
:101D6000CD5BDF4E2883C354D04108E07FC980E0BB
:101D700090E0A2E0B0E0CC5BDF4E88839983AA8339
:101D8000BB83C454D041E6CF80E090E0A1E0B0E056
:101D9000CC5BDF4E88839983AA83BB83C454D04134
:101DA000D9CF80E090E2A0E0B0E0CC5BDF4E88834A
:101DB0009983AA83BB83C454D041CCCF80E090E107
:101DC000A0E0B0E0CC5BDF4E88839983AA83BB831D
:101DD000C454D041BFCF719A7098AA24CD5BDF4E16
:101DE0001882C354D0410BE041C9719A709840FFEA
:101DF00015C040E4A42ECD5BDF4E1882C354D04101
:101E00000AE034C9C85BDF4E4883C854D04101E0C2
:101E10002DC910920D0180910D011FCFAA24CD5B19
:101E2000DF4E1882C354D0410AE020C9F894FFCF96
:081E300000E1000000000800C1
:00000001FF
