:100000000C9402010C9422010C9422010C94220104
:100010000C9422010C9422010C9422010C942201D4
:100020000C9422010C9422010C9439080C9473084E
:100030000C9422010C9422010C9422010C942201B4
:100040000C9422010C9422010C9422010C942201A4
:100050000C9422010C9422010C9422010C94220194
:100060000C9422010C9422010C9422010C94220184
:100070000C9422010C9422010C9422010C94220174
:100080000C9422010C9422010C9422010C94220164
:100090000C9422010C942201D207CF07CC07C90788
:1000A000C607C307C007BD07BA07B707B407B1073C
:1000B000AE07AB07A807A507A2079F079C079907EC
:1000C0009607930790078D078A078707840781079C
:1000D0007E077B077807750772076F076C0769074C
:1000E0006607630760075D075A07570754075107FC
:1000F0004E074B074807450742073F073C073907AC
:100100003607330730072D072A072707240721075B
:100110001E071B07180715071207000100004E01F4
:10012000120002000060014300030000A30104016B
:10013000030904A7010E02030904B7013C030309E4
:1001400004F5010C0001C112018036018136120153
:10015000000202000010C0167A040001010203012F
:1001600009024300020100C0FA0904000001020272
:1001700001000524001001052401010104240206E8
:100180000524060001070582031000400904010050
:10019000020A000000070503024000000705840270
:1001A000400000040309040E036A00750064006740
:1001B000006500730000003C034E004F00520077C2
:1001C00000610079002000500053003300200046F9
:1001D000006C00610073006800650072002000552B
:1001E0000053004200200053006500720069006166
:1001F000006C0000000C0331003200330034003585
:100200000000000011241FBECFEFD0E2DEBFCDBF43
:1002100011E0A0E0B1E0E8E7F5E100E00BBF02C0CB
:1002200007900D92A032B107D9F71BBE19E0A0E2EA
:10023000B1E001C01D92A93AB107E1F70E94D809C7
:100240000C94BA0A0C940000FC01A285B3859FEFC0
:100250009C93A285B3858C918F7B8C93A681B7816B
:100260008C9180648C93A681B7818C918F778C93CD
:100270000480F581E02D90830895FC01A285B3856B
:100280001C92A481B5811C92A681B7811C92019019
:10029000F081E02D108208958CE091E00E9424010D
:1002A00080E091E00E94240108958CE091E00E949A
:1002B0003D0180E091E00E943D010895FC01A6818E
:1002C000B78182E68C930480F581E02D8FEF8083E7
:1002D00008950895CF93DF93EC010E945E01EE81B3
:1002E000FF81808184608083E881F98180E9808357
:1002F000EE81FF8180818F7D8083EE81FF8180810F
:1003000080628083EE81FF8180818B7F8083EE819C
:10031000FF81808188608083E881F9811082EE818D
:10032000FF8180818F7D8083EE81FF81808180626B
:100330008083EE81FF818081877F8083EC81FD81D6
:100340001082EE81FF8180818D7F808300C000005C
:10035000EA81FB81808180933001EE81FF81808181
:10036000826080830000EE81FF8180818D7F8083A9
:1003700000C00000EA81FB81808180933101EE8121
:10038000FF818081826080830000809130018D3AFE
:1003900051F580913101833709F098C080E092E0F7
:1003A000909329018093280180E094E090932B01A1
:1003B00080932A0180E290E09093210180932001B4
:1003C00080E192E0909323018093220180E090E409
:1003D000A0E0B0E08093240190932501A093260132
:1003E000B093270173C08C3E09F070C0EE81FF818D
:1003F00080818D7F808300C00000EA81FB81808145
:1004000080933201EE81FF818081826080830000D1
:10041000EE81FF8180818D7F808300C00000EA81B2
:10042000FB81808180933301EE81FF818081826036
:100430008083000080E094E090932B0180932A0158
:100440008091330180FF03C020E038E002C020E04B
:1004500034E0309329012093280182958F7090E039
:10046000837090708130910551F08230910561F078
:100470000097B1F480E090E0A1E0B0E009C080E036
:1004800090E0A2E0B0E004C080E090E0A4E0B0E042
:100490008093240190932501A0932601B093270116
:1004A00080E498E0909323018093220140E050E0A3
:1004B000609124017091250180912601909127017E
:1004C0000E94980A309321012093200180E391E05B
:1004D000DF91CF910895EF92FF920F931F93CF93E7
:1004E000DF9300D000D00F92CDB7DEB78C012C8304
:1004F0003D8349836A837B830E945E01D8011696FF
:10050000ED91FC911797808184608083ED91FC913F
:10051000119710821696ED91FC91179780818F7D2F
:1005200080831696ED91FC9117978081806280837D
:100530001696ED91FC91179780818B7F808316969C
:10054000ED91FC9117978081886080836A81A62F46
:100550007B81B72F80E090E0498150E02C813D8184
:1005600015C0F801E080F1806D91F7016083F8011A
:10057000E680F780F70160816F7D6083F801E68097
:10058000F780F701608160626083019684179507A8
:1005900040F3D8011696ED91FC9117978081877FE3
:1005A0008083809130018C3E09F51696ED91FC9187
:1005B0001797808184608083ED91FC91119780E38F
:1005C00080831696ED91FC91179780818F7D8083B3
:1005D0001696ED91FC911797808180628083169624
:1005E000ED91FC91179780818B7F8083D8011496C1
:1005F000ED91FC91159710824FB7F894EFE8F1E078
:100600003197F1F700C00000D90120E030E019C0B7
:10061000F80166817781FB0180818D7F808300C036
:100620000000F80182819381FC0180818D93F801A3
:1006300066817781FB0180818260808300002F5F6B
:100640003F4F80912201909123012817390700F331
:100650004FBF81E00F900F900F900F900F90DF91A0
:10066000CF911F910F91FF90EF900895FC01A6810B
:10067000B7818C9184608C93A081B18180E78C9349
:10068000A681B7818C918F7D8C93A681B7818C9147
:1006900080628C93A681B7818C918B7F8C93A4818F
:1006A000B5811C92A681B7818C918D7F8C9300C0FF
:1006B0000000A281B3818C91A681B7819C91926048
:1006C0009C9300000480F581E02D9FEF90830895B6
:1006D000EF92FF920F931F93CF93DF9300D00F926F
:1006E000CDB7DEB77C01122F032F49836A837B834A
:1006F0000E945E01D7011696ED91FC9117978081BB
:1007000080618083B2E0BA95F1F700C0D7011696F8
:10071000ED91FC911797808184608083ED91FC912D
:10072000119780E880831696ED91FC911797808150
:100730008F7D80831696ED91FC9117978081806262
:1007400080831696ED91FC91179780818B7F808333
:100750001696ED91FC9117978081886080836A815D
:10076000A62F7B81B72F80E090E04981242F30E0D5
:1007700015C0F701608171814D91FB014083F70144
:1007800066817781FB0140814F7D4083F70166815F
:100790007781FB0140814062408301968217930775
:1007A00040F3D7011696ED91FC9117978081877FD2
:1007B0008083A12FB02F20E030E016C0F7014081E8
:1007C00051818D91FA018083F70146815781FA01A9
:1007D00080818F7D8083F70146815781FA01808176
:1007E000806280832F5F3F4F80912201909123018F
:1007F0002817390718F3D7011696ED91FC91179732
:10080000808184608083ED91FC91119780E18083E9
:100810001696ED91FC91179780818F7D80831696B7
:10082000ED91FC9117978081806280831696ED91FF
:10083000FC91179780818B7F8083BDE0BA95F1F79B
:100840000000C7010E94360386FFF7CFD701169636
:10085000ED91FC91179780818F7E8083C7010E9464
:10086000360391E080FD90E0892F0F900F900F905C
:10087000DF91CF911F910F91FF90EF9008950F930B
:100880001F93CF93DF9300D00F92CDB7DEB78C01CB
:1008900049836A837B830E945E01D8011696ED919D
:1008A000FC911797808180618083B2E0BA95F1F75F
:1008B00000C0D8011696ED91FC9117978081846055
:1008C0008083ED91FC91119780E680831696ED91DF
:1008D000FC91179780818F7D80831696ED91FC9116
:1008E00017978081806280831696ED91FC9117970F
:1008F00080818B7F80831696ED91FC911797808184
:10090000886080836A81E62F7B81F72F498117C039
:100910002D913C918191D9018C93D80116962D91FE
:100920003C911797D9018C918F7D8C93D8011696A5
:100930002D913C911797D9018C9180628C938E2FC9
:10094000861BD801841720F31696ED91FC9117971A
:100950008081877F80831696ED91FC911797808127
:1009600084608083ED91FC91119780ED80831696D1
:10097000ED91FC91179780818F7D80831696ED9184
:10098000FC9117978081806280831696ED91FC918F
:10099000179780818B7F8083C8010E94360387FD73
:1009A0000AC0D8011696ED91FC91179780818F7E31
:1009B00080839FEF17C0B5E3BA95F1F70000C80137
:1009C0000E94360386FFF7CFD8011696ED91FC9171
:1009D000179780818F7E8083C8010E94360391E043
:1009E00080FD90E0892F0F900F900F90DF91CF91B5
:1009F0001F910F910895F89481E08093E00080E2C8
:100A00008093D800E9ECF0E010828FE798E3A1E052
:100A100081509040A040E1F700C000001DBA109244
:100A200068001CBC10BE1FBA10927A0010926E00B3
:100A300010926F001092700010927100108210924C
:100A4000BC0011B814B817B81AB81DB810BA12B84B
:100A500015B818B81BB81EB811BA0C9400FE08954A
:100A6000EF92FF920F931F93CF93DF937C0105E3E7
:100A700011E0C0E0D0E00E9412062FEF8F3F9207F6
:100A8000F1F0F80181938F012196C430D10599F7D7
:100A90001AC066E371E043E0C70125E431E00E943B
:100AA0006B02882361F08BE40E9462066091220150
:100AB0007091230185E491E00E94C5060CC082E597
:100AC0000E94620608C0809130018D3A11F365E3FF
:100AD00071E044E0E1CFDF91CF911F910F91FF9042
:100AE000EF900895EF92FF920F931F93CF93DF93B0
:100AF0007C0105E311E0C0E0D0E00E9412062FEF78
:100B00008F3F920721F1F80181938F012196C43024
:100B1000D10599F705E411E0C0E0D0E00AC00E94D9
:100B20001206FFEF8F3F9F0759F0F80181938F0165
:100B300021968091220190912301C817D90778F35B
:100B40008091220190912301C817D90710F482E502
:100B500015C0809130018D3A21F065E371E044E0E9
:100B600003C066E371E043E0C70125E431E00E9481
:100B70006803882311F08BE401C086E50E946206B9
:100B8000DF91CF911F910F91FF90EF900895CF9338
:100B9000DF93EC010E9412062FEF8F3F920799F02E
:100BA000809335010E9412062FEF8F3F920759F074
:100BB00080933601CE0165E371E042E00E943F047C
:100BC00018162CF402C082E507C08BE405C0882308
:100BD00011F080E501C086E50E946206DF91CF91A9
:100BE00008958091E80080FFFCCF089581E880930C
:100BF000D70080EA8093D80086E189BD09B400FE61
:100C0000FDCF80E98093D8001092E00010922D0172
:100C100010922E018CE08093E200789408958091E8
:100C20002D0108959FB7F89480912D01882369F0D4
:100C300083E08093E9002BE68091E80085FD09C000
:100C400082FF03C02093E800F7CF9FBF8FEF9FEF95
:100C500008958091F1002091E80025FD03C02BE666
:100C60002093E8009FBF90E008952FB7F8948091FB
:100C70002D01882389F083E08093E9008091F200C0
:100C8000882359F49091E80092FF07C095FD05C0B4
:100C90009BE69093E80001C080E02FBF089580910B
:100CA0002D01882371F08FB7F89493E09093E900B9
:100CB0009BE602C09093E8002091E80025FDFACF62
:100CC0008FBF089590912D019923D1F19FB7F8948A
:100CD00024E02093E90020912F01222341F020916C
:100CE000E80025FD02C09FBF2BC010922F0120916C
:100CF000E400205F34E04091E80045FD12C09FBF52
:100D00009091E400921721F481E080932F0118C0A4
:100D100090912D019923B1F09FB7F8943093E90099
:100D2000EACF8093F1008091E80085FD03C08AE35B
:100D30008093E80085E080932C019FBF80E00895B8
:100D40008FEF08958FEF089590912D019923D9F099
:100D50009FB7F89424E02093E9002091E80025FD56
:100D600003C09FBF8FEF08958093F1008091E8004A
:100D700085FD03C08AE38093E80085E080932C0121
:100D80009FBF80E008958FEF0895CF93DC0180919D
:100D90002D01882309F41AC12FB7F89484E08093B9
:100DA000E90080912F01882309F406C18091E800B1
:100DB00085FD02C02FBF0AC110922F01FDC0809196
:100DC000E400805F9091E80095FD13C02FBF9091E3
:100DD000E400981721F481E080932F01F7C09091EF
:100DE0002D01992309F4F2C02FB7F894C093E900BC
:100DF000E9CF8091F200E52FE81B8E2F90E0681775
:100E0000790708F4E62F6E1B7109F0E0E134F10573
:100E100008F0C5C0E45BFF4FEE0FFF1F0590F49193
:100E2000E02D09948D918093F1008D918093F100D4
:100E30008D918093F1008D918093F1008D9180933D
:100E4000F1008D918093F1008D918093F1008D914F
:100E50008093F1008D918093F1008D918093F1004A
:100E60008D918093F1008D918093F1008D9180930D
:100E7000F1008D918093F1008D918093F1008D911F
:100E80008093F1008D918093F1008D918093F1001A
:100E90008D918093F1008D918093F1008D918093DD
:100EA000F1008D918093F1008D918093F1008D91EF
:100EB0008093F1008D918093F1008D918093F100EA
:100EC0008D918093F1008D918093F1008D918093AD
:100ED000F1008D918093F1008D918093F1008D91BF
:100EE0008093F1008D918093F1008D918093F100BA
:100EF0008D918093F1008D918093F1008D9180937D
:100F0000F1008D918093F1008D918093F1008D918E
:100F10008093F1008D918093F1008D918093F10089
:100F20008D918093F1008D918093F1008D9180934C
:100F3000F1008D918093F1008D918093F1008D915E
:100F40008093F1008D918093F1008D918093F10059
:100F50008D918093F1008D918093F1008D9180931C
:100F6000F1008D918093F1008D918093F1008D912E
:100F70008093F1008D918093F1008D918093F10029
:100F80008D918093F1008D918093F1008D918093EC
:100F9000F1008D918093F1008D918093F1008D91FE
:100FA0008093F1008091E80085FD02C04093E80045
:100FB00030932C012FBF04C0C4E050E44AE335E075
:100FC0006115710509F0FBCE80E001C08FEFCF9174
:100FD00008958FB7F89490912C01992341F094E0F3
:100FE0009093E9009AE39093E80010922C018FBF50
:100FF0000895609118017091190180911A019091E2
:101000001B01089580911C01089580911D01089590
:1010100080911E01089580912E0108959FB7F89444
:1010200020912D01222339F022E02093E900209124
:10103000E80025FD03C09FBF8FEF089521EA2093AC
:10104000F10020E22093F1001092F1001092F100E3
:101050001092F1001092F10021E02093F100109223
:10106000F1008093F1008AE38093E8009FBF80E065
:1010700008951F920F920FB60F9211248F939F9392
:101080008091E1001092E10083FF11C01092E9000D
:1010900091E09093EB001092EC0092E19093ED00C0
:1010A00098E09093F00010922D0110922E0182FF93
:1010B00013C080912D01882379F080912C01882321
:1010C00059F0815080932C01882331F484E080937F
:1010D000E9008AE38093E8009F918F910F900FBE03
:1010E0000F901F9018951F920F920FB60F920BB68C
:1010F0000F921124EF92FF920F931F932F933F9320
:101100004F935F936F937F938F939F93AF93BF930F
:10111000EF93FF93CF93DF930F92CDB7DEB710928B
:10112000E9008091E80083FF26C12091F100309111
:10113000F100E090F100FF244091F100942F80E055
:10114000E82AF92A0091F10010E04091F100942F73
:1011500080E0082B192B6091F100A091F10082EF43
:101160008093E800363009F051C046E02AE131E0D2
:10117000F901859194918E159F0539F4F901329604
:10118000859194918017910729F0295F3F4F415035
:1011900079F7F1C0F901349685919491AC012A5FF9
:1011A0003F4FF901249170E09A2F80E0682B792B52
:1011B0006F3F710519F010F06FEF70E0621708F4DF
:1011C000262FAEEF8091E80090E0BC016570707052
:1011D00061157105B9F382FDD1C0322F213108F0BC
:1011E00030E1CA01632F06C0FC010196E491E0934F
:1011F000F10061506623C1F7430F511D231BA093DB
:10120000E8002223F9F63031E9F2B8C0353051F464
:101210008EEF8093E8000E94F1058E2D8068809308
:10122000E300ACC0393069F5222309F0A4C0E09294
:101230002D0110922E0110922C018EEF8093E80068
:1012400041E084E491E001C0C9014093E9009C01C0
:101250002F5F3F4FFC0154915093EB00552361F0F9
:10126000F90124912093EC009C012D5F3F4F0296E1
:10127000FC0184918093ED004F5F453029F78EE1AA
:1012800075C0383051F4203809F075C00E94F1055E
:1012900080912D018093F10046C0313271F4213AE2
:1012A00009F069C00E94F10587E0E8E1F1E0919161
:1012B0009093F1008150D9F736C0303299F4213241
:1012C00009F059C08091E80082FFFCCF87E0E8E197
:1012D000F1E09091F10091938150D9F78BEF8093D9
:1012E000E80021C0323241F4213209F044C0E092DA
:1012F0002E010E94F10517C03323C9F429830E94EF
:10130000F1052981223851F40093E9009091EB0016
:1013100081E095FF80E01092E90001C080E08093B9
:10132000F1001092F1008EEF8093E80027C0313079
:1013300011F0333001F52230F1F4E114F104D9F465
:101340000F77802F81508430B0F48EEF8093E800C7
:101350000093E900333079F089E18093EB0081E07C
:1013600090E002C0880F991F0A95E2F78093EA0087
:101370001092EA0003C081E28093EB000F90DF91AE
:10138000CF91FF91EF91BF91AF919F918F917F91FD
:101390006F915F914F913F912F911F910F91FF900E
:1013A000EF900F900BBE0F900FBE0F901F901895EF
:1013B00080E88093610091E09093610091E895BF8F
:1013C00085BF0E9455010E94F6050E940F068823E2
:1013D000E1F30E944C018FEF99E6A8E18150904023
:1013E000A040E1F700C00000D0E0C0E00E944F063E
:1013F00093C0CC2321F0C13009F08DC084C00E947D
:101400001206AFEF8F3F9A0709F486C0009709F4E0
:1014100083C08130910509F47FC08230910509F4C1
:1014200081C08330910509F47FC08430910519F49F
:101430000E94FB0471C08530910509F46DC09C01C8
:10144000359527952330310541F480FF03C00E9474
:101450004C0162C00E9455015FC08F30910509F4B4
:1014600056C08C30910519F48CE091E017C08D3096
:10147000910519F48CE091E01FC08031910519F4B9
:101480008CE091E021C08131910519F48CE091E06C
:1014900023C08631910559F480E091E00E946A01F1
:1014A00080E391E065E070E00E94C50635C08731B9
:1014B000910529F480E091E00E9430052DC08A3129
:1014C000910529F480E091E00E94720525C08B31DE
:1014D000910529F480E091E00E94C7051DC09C01A0
:1014E00046E0359527954A95E1F72130310519F405
:1014F000D82FC1E011C0880F892F881F990B813028
:10150000910551F406C0DD2331F0D15005C0C8E08B
:1015100003C0C2E001C0C0E00E940F06882309F0AA
:1015200068CF64CF83E401C08EEB0E946206F4CFE3
:10153000A1E21A2EAA1BBB1BFD010DC0AA1FBB1FD7
:10154000EE1FFF1FA217B307E407F50720F0A21B49
:10155000B30BE40BF50B661F771F881F991F1A94B6
:1015600069F760957095809590959B01AC01BD01E0
:08157000CF010895F894FFCFAC
:101578002800260027002B0029002A0031002F0010
:10158800300025002300240000E1000000000800CE
:00000001FF
