:100000000C9402010C9421010C9421010C94210107
:100010000C9421010C9421010C9421010C942101D8
:100020000C9421010C9421010C945A0E0C94940E02
:100030000C9421010C9421010C9421010C942101B8
:100040000C9421010C9421010C9421010C942101A8
:100050000C9421010C9421010C9421010C94210198
:100060000C9421010C9421010C9421010C94210188
:100070000C9421010C9421010C9421010C94210178
:100080000C9421010C9421010C9421010C94210168
:100090000C9421010C942101F20DEF0DEC0DE90DF2
:1000A000E60DE30DE00DDD0DDA0DD70DD40DD10D0C
:1000B000CE0DCB0DC80DC50DC20DBF0DBC0DB90DBC
:1000C000B60DB30DB00DAD0DAA0DA70DA40DA10D6C
:1000D0009E0D9B0D980D950D920D8F0D8C0D890D1C
:1000E000860D830D800D7D0D7A0D770D740D710DCC
:1000F0006E0D6B0D680D650D620D5F0D5C0D590D7C
:10010000560D530D500D4D0D4A0D470D440D410D2B
:100110003E0D3B0D380D350D320D000100004E0136
:10012000120002000060014300030000A30104016B
:10013000030904A7010E02030904B7013C030309E4
:1001400004F5010C0001C112018036018136120153
:10015000000202000010C0167A040001010203012F
:1001600009024300020100C0FA0904000001020272
:1001700001000524001001052401010104240206E8
:100180000524060001070582031000400904010050
:10019000020A000000070503024000000705840270
:1001A000400000040309040E036A00750064006740
:1001B000006500730000003C034E004F00520077C2
:1001C00000610079002000500053003300200046F9
:1001D000006C00610073006800650072002000552B
:1001E0000053004200200053006500720069006166
:1001F000006C0000000C0331003200330034003585
:100200000000000011241FBECFEFD0E2DEBFCDBF43
:1002100011E0A0E0B1E0E2E5F1E300E00BBF02C0D5
:1002200007900D92A035B107D9F712E1A0E5B1E032
:1002300001C01D92AD33B107E1F70E94DF100C94AD
:10024000A7180C940000FC01A1A5B2A58FEF8C9318
:10025000A1A5B2A59C919F779C93A5A1B6A190EC76
:100260009C93DF01AF5BBF4F0D90BC91A02D8C9391
:10027000A5ADB6AD8C93A7A5B0A98C93A3A5B4A545
:100280008C93A3ADB4AD8C93A7A9B0AD1C92A5A9D6
:10029000B6A98C93A1A9B2A91C9203A0F4A1E02D48
:1002A0008083089511B814B817B81AB81DB810BAD9
:1002B00012B815B818B81BB81EB811BA0895CF9364
:1002C000DF9300D000D0CDB7DEB740E050E060E271
:1002D00070E049835A836B837C8349815A816B81A7
:1002E0007C814115510561057105F9F0DC01979696
:1002F000ED91FC919897808187FF04C01EC080819A
:1003000087FD1BC089819A81AB81BC810197A109BE
:10031000B10989839A83AB83BC8389819A81AB813C
:10032000BC810097A105B10551F780E00F900F90B7
:100330000F900F90DF91CF91089581E00F900F9073
:100340000F900F90DF91CF910895CF93DF9300D05E
:1003500000D0CDB7DEB7FC01A1A5B2A58FEF8C937D
:10036000A1A5B2A59C919F779C93A5A1B6A190EC65
:100370009C93DF01AF5BBF4F0D90BC91A02D8C9380
:10038000A5ADB6AD8C93A7A5B0A98C93A3A5B4A534
:100390008C93A3ADB4AD8C93A7A9B0AD1C92A5A9C5
:1003A000B6A98C93A1A9B2A91C92A3A1B4A18C93C4
:1003B000A78DB0A18C93A1A9B2A98C93A5ADB6AD20
:1003C0001C92A5ADB6AD8C93A1A9B2A91C9280E0F8
:1003D00090E0A0E2B0E089839A83AB83BC838981FB
:1003E0009A81AB81BC810097A105B105E9F007A016
:1003F000F0A5E02D808187FF04C016C0808187FDB5
:1004000013C089819A81AB81BC810197A109B1098F
:1004100089839A83AB83BC8389819A81AB81BC81B8
:100420000097A105B10551F70F900F900F900F9015
:10043000DF91CF9108954F925F926F927F928F924A
:100440009F92AF92BF92CF92DF92EF92FF920F9363
:100450001F93CF93DF93EC01E9A5FAA58FEF80837B
:10046000E9A5FAA590819F779083EDA1FEA190EC7C
:100470009083FE01EF5BFF4F0190F081E02D8083C0
:10048000EDADFEAD8083EFA5F8A98083EBA5FCA5BB
:100490008083EBADFCAD8083EFA9F8AD1082EDA9B0
:1004A000FEA98083E9A9FAA91082EBA1FCA18083AF
:1004B000EF8DF8A190E99083E9A9FAA98083EDADC9
:1004C000FEAD1082EDADFEAD8083E9A9FAA91082E0
:1004D000EFA9F8AD8083EF8DF8A11082EDADFEADF0
:1004E0001082EDADFEAD8083EFA9F8AD1082EBA1D7
:1004F000FCA11082EF8DF8A18083EBA5FCA51082F2
:100500000000E9A1FAA19081EBA5FCA58083EBA5F1
:10051000FCA510820000E9A1FAA12081EBA5FCA5B1
:100520008083EBA5FCA510820000E9A1FAA140811F
:10053000EBA5FCA58083EBA5FCA510820000E9A13A
:10054000FAA13081EBA5FCA58083EBA5FCA5108268
:100550000000E9A1FAA10081EBA5FCA580839883A6
:1005600029834A833B830C839F8328879D3A09F420
:10057000CFC09C3E09F4C4C0802F869586958370B9
:10058000E1E0F0E001C0EE0F8A95EAF7A32EBB246C
:10059000C5018370907040E054E002C0440F551FC5
:1005A0008A95E2F7662757FD6095762F49875A8727
:1005B0006B877C879501207330703595279535952D
:1005C0002795359527953595279580E090E0A1E012
:1005D000B0E004C0880F991FAA1FBB1F2A95D2F74D
:1005E000898B9A8BAB8BBC8BEA8F6A017B0129E0EC
:1005F000F694E794D794C7942A95D1F7C5018470EF
:100600009070959587959595879528E030E002C084
:10061000220F331F8A95E2F7442737FD4095542F68
:10062000C701B6010E942317DC01CB01803191057F
:10063000A105B105B9F080349105A105B10591F08E
:1006400080E0DF91CF911F910F91FF90EF90DF90AD
:10065000CF90BF90AF909F908F907F906F905F9062
:100660004F9008959E838D8302950770043009F49E
:1006700090C0053008F07EC0023009F434C1033068
:1006800008F41DC180E090E0A0E0B4E08B8F9C8F67
:10069000AD8FBE8FA6FC86C088E0898F6A8D70E022
:1006A00080E090E02B8D3C8D4D8D5E8D89889A8801
:1006B000AB88BC880E942317A50194010E9456179D
:1006C00069017A0149845A846B847C84C501B40130
:1006D000A30192010E94561789019A018D819E8182
:1006E000840D951DCD8ADE8AEF8AF88E0D871E87D0
:1006F0002F87388B909351018093500181E0A1CFD7
:10070000213F19F0213A09F037CFE1E000E43ECF74
:10071000273D09F449C0233709F02ECF80E092E04D
:10072000A0E0B0E089879A87AB87BC8780E090E43F
:10073000A0E0B0E0898B9A8BAB8BBC8B81E08A8F79
:1007400080E490E09E838D8380E090E0A0E0B1E0C3
:100750008B8F9C8FAD8FBE8F88E0898F80E492E075
:1007600000E210E020E030E0C12C44E0D42EE12C87
:10077000F12CB8CF063009F4ADC0063008F08BC0BC
:1007800080E090E0A0E0B0E18B8F9C8FAD8FBE8FBA
:1007900081CF80E090E0A0E0B8E08B8F9C8FAD8FA0
:1007A000BE8F78CF80E179CF232F237080E098E04F
:1007B00002C0880F991F2A95E2F7AA2797FDA095F6
:1007C000BA2F89879A87AB87BC8788E0898F06957F
:1007D0000695037081E090E002C0880F991F0A958A
:1007E000E2F78A8F80E090E0A0E0B0E88B8F9C8FEA
:1007F000AD8FBE8F832F807B803209F4F1C08132B0
:1008000008F07AC0882309F0DFC080E090E0A2E021
:10081000B0E0898B9A8BAB8BBC8B36953695832F4A
:1008200090E0A0E0B0E083709070A070B070813074
:100830009105A105B10509F49FC081309105A1057D
:10084000B10508F06BC080E890E09E838D836A8DCF
:1008500070E080E090E02B8D3C8D4D8D5E8D498861
:100860005A886B887C880E942317A30192010E94FA
:10087000561769017A0189849A84AB84BC84C301C8
:10088000B201A50194010E94561789019A01C40181
:1008900080589F4F27CF073049F080E090E0A0E8D4
:1008A000B0E08B8F9C8FAD8FBE8FF4CE80E090E058
:1008B000A0E0B0E48B8F9C8FAD8FBE8FEBCE01306C
:1008C00061F780E090E0A0E0B1E08B8F9C8FAD8F6E
:1008D000BE8FE0CE80E090E0A0E0B0E28B8F9C8FF6
:1008E000AD8FBE8FD7CE80E090E0A0E0B2E08B8FDE
:1008F0009C8FAD8FBE8FCECE803809F483C08039F7
:1009000009F477C0803309F09BCE80E090E0ACE042
:10091000B0E0898B9A8BAB8BBC8B7FCF82309105FB
:10092000A105B10509F08CCE80EC91E09E838D830A
:100930006A8D70E080E090E02B8D3C8D4D8D5E8D5A
:1009400049885A886B887C880E942317A3019201EA
:100950000E94561769017A0189849A84AB84BC8409
:10096000C301B201A50194010E94561789019A01A1
:10097000C40180549E4FB6CE80EE90E09E838D835E
:100980006A8D70E080E090E02B8D3C8D4D8D5E8D0A
:1009900049885A886B887C880E942317A30192019A
:1009A0000E94561769017A0189849A84AB84BC84B9
:1009B000C301B201A50194010E94561789019A0151
:1009C000C40180529F4F8ECE803109F039CE80E035
:1009D00090E0A4E0B0E0898B9A8BAB8BBC8B1DCFF1
:1009E00080E090E0A8E0B0E0898B9A8BAB8BBC8B69
:1009F00014CF80E090E0A0E2B0E0898B9A8BAB8BC3
:100A0000BC8B0BCF80E090E0A0E1B0E0898B9A8BAB
:100A1000AB8BBC8B02CFDF92EF92FF920F931F93B1
:100A2000CF93DF9300D000D0CDB7DEB77C01DC01DF
:100A30009996ED91FC919A978FEF80839996ED911D
:100A4000FC919A9790819F7790839596ED91FC9178
:100A5000969790EC9083F701EF5BFF4F0190F08148
:100A6000E02D8083DD96ED91FC91DE9780839F964B
:100A7000ED91FC91D09780839B96ED91FC919C9792
:100A80008083DB96ED91FC91DC978083D796ED9186
:100A9000FC91D8971082D596ED91FC91D6978083E2
:100AA000D196ED91FC91D29710829396ED91FC91A5
:100AB000949780835F96ED91FC9190971082D196E8
:100AC000ED91FC91D2978083DD96ED91FC91DE97BC
:100AD0001082DD96ED91FC91DE978083D196ED91A9
:100AE000FC91D2971082D796ED91FC91D897808394
:100AF00017969C9117979D3A09F429C1D7015F96E3
:100B0000ED91FC9190971082DD96ED91FC91DE972E
:100B10001082DD96ED91FC91DE978FEF80835F96DA
:100B2000ED91FC9190971082DD96ED91FC91DE970E
:100B30001082DD96ED91FC91DE9780835F96ED91BA
:100B4000FC919097909156019083DD96ED91FC91E8
:100B5000DE971082DD96ED91FC91DE9780835F96A3
:100B6000ED91FC919097909157019083DD96ED91D6
:100B7000FC91DE971082DD96ED91FC91DE978083EB
:100B80005F96ED91FC919097909158019083DD963E
:100B9000ED91FC91DE971082DD96ED91FC91DE9750
:100BA0008083D701D796ED91FC91D8971082179644
:100BB0008C9117978D3A59F018968C911897833726
:100BC00031F05F96ED91FC91909780E38083D7019F
:100BD000D196ED91FC91D2978FEF8083DD96ED91C8
:100BE000FC91DE971082DD96ED91FC91DE9780837B
:100BF000D196ED91FC91D29710829396ED91FC9154
:100C0000949710825F96ED91FC9190978083DFB668
:100C1000F89480E090E0A0E2B0E089839A83AB830F
:100C2000BC8389819A81AB81BC810097A105B10504
:100C3000F9F0D7019796ED91FC919897808187FF05
:100C400004C016C0808187FD13C089819A81AB8161
:100C5000BC810197A109B10989839A83AB83BC83C5
:100C600089819A81AB81BC810097A105B10551F7BB
:100C7000E0915001F0915101B0E1E03EFB07A0F19D
:100C800000E01FEFE9E5F1E0D7019B968D919C9183
:100C90009C97DC011C920000D70191968D919C914C
:100CA0009297DC018C918193D7019B968D919C91B9
:100CB0009C97DC011C93B2E1E933FB0729F789E536
:100CC00091E060EE70E10E94D70C0F5FE09150015F
:100CD000F0915101202F30E0CF0160EE70E10E94D1
:100CE00042172617370770F2CF0160EE70E10E94BD
:100CF0004217BC010097C9F0A9E5B1E08A0F9B1F1C
:100D00002FEFF70143A554A5FA0110820000F70167
:100D100041A152A1FA0130813D93F70143A554A5A9
:100D2000FA012083A817B90761F789E591E00E94CD
:100D3000D70CDFBE81E00F900F900F900F90DF91E6
:100D4000CF911F910F91FF90EF90DF90089518962B
:100D50009C911897933709F0D1CE5F96ED91FC9155
:100D600090971082DD96ED91FC91DE971082DD96D2
:100D7000ED91FC91DE9780835F96ED91FC919097C9
:100D8000909156019083DD96ED91FC91DE97108253
:100D9000DD96ED91FC91DE9780835F96ED91FC915D
:100DA000909790915701F2CEFC01A78DB0A180E7FA
:100DB0008C93A1A9B2A99FEF9C93A5ADB6AD1C924F
:100DC000A5ADB6AD9C93A1A9B2A91C92A3A1B4A153
:100DD0001C92A78DB0A19C93A3A5B4A51C92000062
:100DE000A1A1B2A18C91A3A5B4A59C9303A0F4A149
:100DF000E02D90830895FF920F931F93CF93DF937D
:100E00008C01DC019996ED91FC919A978FEF80838C
:100E10009996ED91FC919A9790819F779083959602
:100E2000ED91FC91969790EC9083F801EF5BFF4F6A
:100E30000190F081E02D8083DD96ED91FC91DE97AD
:100E400080839F96ED91FC91D09780839B96ED9146
:100E5000FC919C978083DB96ED91FC91DC978083DD
:100E6000D796ED91FC91D8971082D596ED91FC9193
:100E7000D6978083D196ED91FC91D297108293966C
:100E8000ED91FC91949780835F96ED91FC91909702
:100E900090E89083D196ED91FC91D2978083DD9676
:100EA000ED91FC91DE971082DD96ED91FC91DE973D
:100EB0008083D196ED91FC91D2971082D796ED91D7
:100EC000FC91D897808317969C9117979D3A09F4C7
:100ED00033C1D8015F96ED91FC9190971082DD9619
:100EE000ED91FC91DE971082DD96ED91FC91DE97FD
:100EF0008FEF80835F96ED91FC9190971082DD9645
:100F0000ED91FC91DE971082DD96ED91FC91DE97DC
:100F100080835F96ED91FC9190979091560190831C
:100F2000DD96ED91FC91DE971082DD96ED91FC91BE
:100F3000DE9780835F96ED91FC9190979091570199
:100F40009083DD96ED91FC91DE971082DD96ED9118
:100F5000FC91DE9780835F96ED91FC919097909144
:100F600058019083DD96ED91FC91DE971082DD961D
:100F7000ED91FC91DE978083D801D796ED91FC919D
:100F8000D89710828091500190915101C0E0D0E03B
:100F9000009709F1FF24FA9418C0D8015F96ED91EB
:100FA000FC9190978083DD96ED91FC91DE97108205
:100FB000DD96ED91FC91DE97F082219680915001B3
:100FC00090915101C817D90730F40E94090CBFEF66
:100FD0008F3F9B0711F7D8015F96ED91FC91909799
:100FE00080E18083D196ED91FC91D2978FEF808341
:100FF000DD96ED91FC91DE971082DD96ED91FC91EE
:10100000DE978083D196ED91FC91D29710828091EA
:10101000500190915101C817D90708F4BAC029E0CE
:1010200030E79FEF822F8A9501F0E9F7C895D80144
:101030005F96ED91FC9190973083D196ED91FC9164
:10104000D2978FEF9083DD96ED91FC91DE97108221
:10105000DD96ED91FC91DE979083D196ED91FC9118
:10106000D29710829396ED91FC91949710825F969F
:10107000ED91FC91909790839B96ED91FC919C97BC
:10108000108200009196ED91FC91929740819B9681
:10109000ED91FC919C9790839396ED91FC919497A0
:1010A000908346FFBFCF5F96ED91FC91909790E7BC
:1010B0009083D196ED91FC91D2978083DD96ED914E
:1010C000FC91DE971082DD96ED91FC91DE97808396
:1010D000D196ED91FC91D29710829396ED91FC916F
:1010E000949710825F96ED91FC91909780839B96E8
:1010F000ED91FC919C97108200009196ED91FC91EE
:10110000929790819B96ED91FC919C97808393960A
:10111000ED91FC919497808381E090FD06C0DF9172
:10112000CF911F910F91FF90089580E0DF91CF91B3
:101130001F910F91FF90089518969C9118979337DF
:1011400009F0C7CE5F96ED91FC9190971082DD96E5
:10115000ED91FC91DE971082DD96ED91FC91DE978A
:1011600080835F96ED91FC919097909156019083CA
:10117000DD96ED91FC91DE971082DD96ED91FC916C
:10118000DE9780835F96ED91FC9190979091570147
:10119000E8CE8FEFC4CFFC01A1A5B2A58FEF8C9351
:1011A000A1A5B2A59C919F779C93A5A1B6A190EC17
:1011B0009C93DF01AF5BBF4F0D90BC91A02D8C9332
:1011C000A5ADB6AD8C93A7A5B0A98C93A3A5B4A5E6
:1011D0008C93A3ADB4AD8C93A7A9B0AD1C92A5A977
:1011E000B6A98C93A1A9B2A91C92A3A1B4A18C9376
:1011F000A78DB0A190E69C93A1A9B2A98C93A5ADAF
:10120000B6AD1C92A5ADB6AD8C93A1A9B2A91C92A6
:10121000A7A9B0AD8C9397819D3A09F4B1C0A78D71
:10122000B0A1809156018C93A5ADB6AD1C92A5AD31
:10123000B6AD8FEF8C93A78DB0A1909157019C9381
:10124000A5ADB6AD1C92A5ADB6AD8C93A78DB0A1E2
:10125000909158019C93A5ADB6AD1C92A5ADB6ADCD
:101260008C93A7A9B0AD1C92A78DB0A180ED8C93F3
:10127000A1A9B2A98FEF8C93A5ADB6AD1C92A5AD77
:10128000B6AD8C93A1A9B2A91C92A78DB0A190E78D
:101290009C93A1A9B2A98C93A5ADB6AD1C92A5ADA6
:1012A000B6AD8C93A1A9B2A91C92A3A1B4A11C9222
:1012B000A78DB0A18C93A3A5B4A51C920000A1A1F9
:1012C000B2A19C91A3A5B4A58C93A3A1B4A18C9326
:1012D00097FF6AC027E230E79FEF822F8A9501F0DF
:1012E000E9F7C895A78DB0A13C93A1A9B2A98FEF4A
:1012F0009C93A5ADB6AD1C92A5ADB6AD9C93A1A92E
:10130000B2A91C92A3A1B4A11C92A78DB0A19C93D9
:10131000A3A5B4A51C920000A1A1B2A14C91A3A5C4
:10132000B4A59C93A3A1B4A19C9346FFD6CFA78D4F
:10133000B0A190E79C93A1A9B2A98C93A5ADB6AD3D
:101340001C92A5ADB6AD8C93A1A9B2A91C92A3A184
:10135000B4A11C92A78DB0A18C93A3A5B4A51C9297
:101360000000A1A1B2A19C91A3A5B4A58C9303A058
:10137000F4A1E02D808381E090FF089580E008953E
:101380009085933709F04BCFA78DB0A1909156016E
:101390009C93A5ADB6AD1C92A5ADB6AD8C93A78DB3
:1013A000B0A19091570156CF8FEF0895CF93DF935F
:1013B000EC010E94090C2FEF8F3F9207D9F0809328
:1013C00056010E94090C2FEF8F3F920799F08093EE
:1013D00057010E94090C2FEF8F3F920759F080931D
:1013E00058018BE40E94630CCE010E940B05DF9133
:1013F000CF91089582E50E94630CDF91CF9108950B
:10140000CF93DF93EC010E94090C2FEF8F3F9207DF
:1014100029F1809356010E94090C2FEF8F3F92070C
:10142000E9F0809357010E94090C2FEF8F3F92073C
:10143000A9F080935801CE010E94FB06181644F0D3
:10144000882361F486E50E94630CDF91CF910895B3
:101450008BE40E94630CDF91CF91089582E50E9496
:10146000630CDF91CF910895CF93DF93EC010E943D
:10147000090C2FEF8F3F920749F1809356010E948C
:10148000090C2FEF8F3F920709F1809357010E94BB
:10149000090C2FEF8F3F9207C9F080935801CE01BE
:1014A0000E94CB08181644F0882361F486E50E9458
:1014B000630CDF91CF9108958BE40E94630CDF9160
:1014C000CF91089580E50E94630CF3CF82E50E94DE
:1014D000630CDF91CF9108950F931F93CF93DF9308
:1014E00000D000D0CDB7DEB78C01DC019996ED912C
:1014F000FC919A978FEF80839996ED91FC919A9742
:1015000090819F7790839596ED91FC91969790ECC2
:101510009083F801EF5BFF4F0190F081E02D808315
:10152000DD96ED91FC91DE9780839F96ED91FC9185
:10153000D09780839B96ED91FC919C978083DB965E
:10154000ED91FC91DC978083D796ED91FC91D89733
:101550001082D596ED91FC91D6978083D196ED912E
:10156000FC91D29710829396ED91FC919497808391
:101570005F96ED91FC9190978083D196ED91FC91CF
:10158000D2978083DD96ED91FC91DE971082DD96F7
:10159000ED91FC91DE978083D196ED91FC91D297ED
:1015A000108280E090E0A0E2B0E089839A83AB8370
:1015B000BC8389819A81AB81BC810097A105B1056B
:1015C000F9F0D8019796ED91FC919897808187FF6B
:1015D00004C016C0808187FD13C089819A81AB81C8
:1015E000BC810197A109B10989839A83AB83BC832C
:1015F00089819A81AB81BC810097A105B10551F722
:10160000C8010E941B02882329F5D8018C910E94F1
:10161000630CF80181810E94630CD80112968C91B1
:101620000E94630CF80183810E94630CD801149618
:101630008C910E94630C04E180E00E94630C0150D5
:10164000D9F70F900F900F900F90DF91CF911F91CE
:101650000F910895F80180810E94630CD8011196C2
:101660008C910E94630CF80182810E94630CD80166
:1016700013968C910E94630CF80184810E94630C84
:10168000D8011C968C910E94630CF80183850E94FE
:10169000630CD8011A968C910E94630CF801818525
:1016A0000E94630CD80116968C910E94630CF8017D
:1016B00085810E94630CD80159968C910E94630C1D
:1016C000F80184890E94630CD80153968C910E9482
:1016D000630CF80182890E94630CD80151968C91A9
:1016E0000E94630CF801808D0E94630CD80157960C
:1016F0008C910E94630CF80186890E94630CD801CA
:1017000055968C910E94630CF801828D0E94630CA7
:10171000D8015E968C910E94630CF801858D0E9421
:10172000630CD8015C968C910E94630CF801838D48
:101730000E94630C86CFF89481E08093E00080E201
:101740008093D800E9ECF0E010828FE493ECA0E005
:10175000B0E00197A109B109000001F0D1F7C895E7
:1017600000001DBA109268001CBC10BE1FBA109277
:101770007A0010926E0010926F001092700010921A
:10178000710010821092BC0011B814B817B81AB8C2
:101790001DB810BA12B815B818B81BB81EB811BACF
:1017A0000C9400FE0895CF93DF9300D0CDB7DEB741
:1017B0008091391290913A12009761F09E012F5F4B
:1017C0003F4FA901481B590BCA010F900F90DF91A1
:1017D000CF9108958DE392E1F1CF81E88093D70016
:1017E00080EA8093D80086E189BD09B400FEFDCF70
:1017F00080E98093D8001092E0001092530110927B
:1018000054018CE08093E200789408958091530114
:1018100008953FB7F894809153018823F9F083E04D
:101820008093E9008091E80085FD0CC082FF16C01E
:101830009BE602C082FF12C09093E8008091E8000E
:1018400085FFF8CF8091F1009091E80095FD03C0ED
:101850009BE69093E8003FBF90E008953FBF8FEF75
:101860009FEF08959FB7F89480915301882391F0DA
:1018700083E08093E9008091F200882349F420916D
:10188000E80022FF05C025FD03C02BE62093E800F9
:101890009FBF089580E09FBF0895809153018823E2
:1018A00089F02FB7F89483E08093E9008091E800F5
:1018B00085FF07C09BE69093E8008091E80085FDD6
:1018C000FACF2FBF089590915301992309F449C08D
:1018D0009FB7F89424E02093E9002091550122233A
:1018E00091F53091E4002091E80025FD1DC0305FA6
:1018F0009FBF9091E400931769F190915301992350
:1019000081F144E009C09FBF9091E400931711F169
:1019100090915301992319F19FB7F8944093E900EE
:101920002091E80025FFEFCF8093F1008091E8003F
:1019300085FD03C08AE38093E80085E0809352012F
:101940009FBF80E008952091E80025FF0CC0109211
:101950005501C7CF81E0809355018FEF08958FEF38
:1019600008958FEF08959FBF8FEF089590915301D1
:101970009923C1F02FB7F89494E09093E9009091E7
:10198000E80095FF11C08093F1008091E80085FD8B
:1019900003C08AE38093E80085E0809352012FBF63
:1019A00080E008958FEF08952FBF8FEF0895CF93B4
:1019B000DC0180915301882381F12FB7F89484E0F2
:1019C0008093E90080915501882351F561157105D7
:1019D00009F415C134E050E4CAE345E09091E40015
:1019E0008091E80085FD23C0905F2FBF8091E400C7
:1019F000891779F406C12FB7F8943093E9008091E4
:101A0000E80085FD14C02FBF8091E400891709F418
:101A1000F8C080915301882371F78FEFCF9108951B
:101A20008091E80085FFF3C010925501CFCF8091DF
:101A3000F200E52FE81B8E2F90E06817790718F465
:101A4000E62F862F90E0681B790BF0E0E134F1057A
:101A500008F0C5C0E45BFF4FEE0FFF1F0590F49147
:101A6000E02D09948D918093F1008D918093F10088
:101A70008D918093F1008D918093F1008D918093F1
:101A8000F1008D918093F1008D918093F1008D9103
:101A90008093F1008D918093F1008D918093F100FE
:101AA0008D918093F1008D918093F1008D918093C1
:101AB000F1008D918093F1008D918093F1008D91D3
:101AC0008093F1008D918093F1008D918093F100CE
:101AD0008D918093F1008D918093F1008D91809391
:101AE000F1008D918093F1008D918093F1008D91A3
:101AF0008093F1008D918093F1008D918093F1009E
:101B00008D918093F1008D918093F1008D91809360
:101B1000F1008D918093F1008D918093F1008D9172
:101B20008093F1008D918093F1008D918093F1006D
:101B30008D918093F1008D918093F1008D91809330
:101B4000F1008D918093F1008D918093F1008D9142
:101B50008093F1008D918093F1008D918093F1003D
:101B60008D918093F1008D918093F1008D91809300
:101B7000F1008D918093F1008D918093F1008D9112
:101B80008093F1008D918093F1008D918093F1000D
:101B90008D918093F1008D918093F1008D918093D0
:101BA000F1008D918093F1008D918093F1008D91E2
:101BB0008093F1008D918093F1008D918093F100DD
:101BC0008D918093F1008D918093F1008D918093A0
:101BD000F1008D918093F1008D918093F1008D91B2
:101BE0008093F1008091E80085FD02C0C093E80079
:101BF000409352012FBF6115710509F0EFCE80E0CF
:101C00000DCF81E0809355018FEFCF9108952FBFC5
:101C10008FEF04CF8FB7F89490915201992341F040
:101C200094E09093E9009AE39093E80010925201B7
:101C30008FBF0895609143017091440180914501E7
:101C4000909146010895809147010895809148013F
:101C500008958091490108958091540108952FB706
:101C6000F89490915301992311F192E09093E90037
:101C70009091E80095FF1BC091EA9093F10090E2EB
:101C80009093F1001092F1001092F1001092F10087
:101C90001092F10091E09093F1001092F100809386
:101CA000F1008AE38093E8002FBF80E008952FBF02
:101CB0008FEF08951F920F920FB60F9211248F93FA
:101CC0009F938091E1001092E10083FF11C0109278
:101CD000E90091E09093EB001092EC0092E1909378
:101CE000ED0098E09093F00010925301109254018F
:101CF00082FF13C080915301882379F080915201B3
:101D0000882359F0815080935201882331F484E074
:101D10008093E9008AE38093E8009F918F910F9070
:101D20000FBE0F901F9018951F920F920FB60F9233
:101D30000BB60F9211240F931F932F933F934F9342
:101D40005F936F937F938F939F93AF93BF93CF9343
:101D5000EF93FF931092E9008091E80083FF71C038
:101D6000E091F1006091F1002091F10030E04091AC
:101D7000F100942F80E0282B392B4091F10050E0A6
:101D80007091F100972F80E0482B592BA091F10022
:101D9000C091F10082EF8093E8006630E1F0653099
:101DA00009F4E7C0693009F465C0683009F4ECC093
:101DB000613209F4F8C0603209F41CC1623209F0E2
:101DC000C5C0E13209F03DC0209354018091E80084
:101DD00080FFFCCFCAC06AE171E0FB01859194915C
:101DE0002817390709F4A5C1695F7F4FFB01859169
:101DF00094912817390709F4A5C168E271E0FB0145
:101E0000859194912817390709F4A9C16FE271E00F
:101E1000FB01859194912817390709F4ADC166E358
:101E200071E0FB01859194912817390709F4BBC132
:101E3000695F7F4FFB01859194912817390709F459
:101E400003C181E28093EB00FF91EF91CF91BF91AD
:101E5000AF919F918F917F916F915F914F913F9142
:101E60002F911F910F910F900BBE0F900FBE0F90EF
:101E70001F901895EE2329F72093530110925401D7
:101E8000109252018EEF8093E80081E08093E90088
:101E900024E431E0F90184918093EB00882309F474
:101EA0008BC13196E491E093EC00F9013296E49114
:101EB000E093ED002D5F3F4F82E08093E900C90180
:101EC0000196F90144914093EB00442361F0FC0139
:101ED00084918093EC00C90103962E5F3F4FF90176
:101EE00024912093ED0023E02093E9009C012F5FD3
:101EF0003F4FFC0144914093EB00442361F0F90112
:101F000024912093EC009C012D5F3F4F0296FC0131
:101F100084918093ED0084E08093E900C9010196EB
:101F2000F90144914093EB00442351F0FC0184916A
:101F30008093EC002E5F3F4FF90124912093ED0038
:101F40008EE18093EA001092EA007ECF662309F0CA
:101F5000C6C08091E80080FFFCCFE23809F419C1C7
:101F600080E08093F1001092F1008EEF8093E80002
:101F70006BCF8EEF8093E8008091E80080FFFCCF6C
:101F800020682093E30060CFE03809F05ACF8091B9
:101F9000E80080FFFCCF809153018093F1008EEF29
:101FA0008093E80051CFE13A09F04BCF8091E800EF
:101FB00080FFFCCF809143018093F1008091440128
:101FC0008093F100809145018093F100809146015A
:101FD0008093F100809147018093F1008091480146
:101FE0008093F100809149018093F1008EEF8093FE
:101FF000E8002ACFE13209F024CF8091E80082FF87
:10200000FCCF8091F100809343018091F100809397
:1020100044018091F100809345018091F10080930B
:1020200046018091F100809347018091F1008093F7
:1020300048018091F100809349018BEF8093E80083
:102040008EEF8093E80000CFFB013296859194914A
:102050004817590709F0F5CEFB01349625913491C4
:10206000C9016A5F7F4FFB016491B0E03C2F20E023
:10207000A22BB32BAF3FB10519F010F0AFEFB0E0DA
:10208000A61708F46A2F7EEF2091E80030E0A9013E
:102090004570507041155105B9F322FDD5CE562F2C
:1020A0006131D0F050E19C01452FF9012F5F3F4F86
:1020B000E491E093F1004150C1F7252F215030E029
:1020C0002F5F3F4F820F931F651B7093E8006623BD
:1020D000D9F65031C9F2B8CE662329F7F5CF613071
:1020E00021F5E23009F0ADCE2115310509F0A9CE78
:1020F0004F77842F8150843008F0A3CE8EEF8093E9
:10210000E8004093E900633009F49BCE89E18093B5
:10211000EB0081E090E002C0880F991F4A95E2F73A
:102120008093EA001092EA008FCE633009F089CEE6
:10213000D8CFFB013296859194914817590709F041
:1021400053CE8ACF03E211E0F801859194914817AC
:10215000590709F481CFB8016B5F7F4F50CE0AE277
:1021600011E0F801859194914817590709F474CF4B
:10217000B8016B5F7F4F4CCE01E311E0F801859110
:1021800094914817590709F467CFB8016B5F7F4FE7
:1021900048CE4093E9009091EB0081E095FF80E00C
:1021A0001092E900DECEFB0132968591949148179A
:1021B000590709F03DCE50CF2F5F3F4F7DCECF93D3
:1021C000DF93CDB7DEB72F970FB6F894DEBF0FBE03
:1021D000CDBF80E88093610091E09093610091E829
:1021E00095BF85BF0E9452010E94ED0B0E94060C14
:1021F0008823E1F38FE392E4AFE0B0E00197A10917
:10220000B109000001F0D1F7C8950000EE24FF24C9
:102210001E010894211C311C44244A940E944D0C38
:10222000F0E95F2EC12CA4E0DA2E812C912CB1E0D4
:10223000AB2EB12C18E0612E712C0E94060C882365
:1022400069F3FF2009F05AC00E94090C3FEF8F3F4D
:10225000930799F3009789F38130910571F38230E8
:10226000910509F454C08330910509F454C08430B9
:10227000910509F44FC185309105F9F28630910539
:1022800009F438C18F30910509F441C18C309105B2
:1022900009F446C18D30910509F43CC380319105A4
:1022A00009F45BC38131910509F47FC3863191053F
:1022B00009F4A1C38731910509F4BFCF8A31910593
:1022C00009F4BBCF8B31910509F4B7CF9C01022EE5
:1022D000232F000C221F330B000C221F331F213031
:1022E000310509F48CC3880F892F881F990B813021
:1022F000910509F0A2CF52E0F52E9FCF21E0F21612
:1023000011F0FF249ACFEE20E1F3EA9496CF80E01B
:102310000E94630C92CF8091391290913A120097EB
:1023200009F4FBC08101081B190B8DE30E94630CAB
:10233000812F0E94630C802F0E94630C7ECF9093AC
:1023400006018093050102950770043009F48CC4DE
:10235000053008F07DC3023009F4B9C4033008F435
:1023600064C480E090E0A0E0B4E080931B0190930F
:102370001C01A0931D01B0931E01BF81B6FD60C377
:1023800028E020931901309100013F8760911A01E4
:1023900070E080E090E020911B0130911C014091A1
:1023A0001D0150911E010E942317209111013091AF
:1023B000120140911301509114012B873C874D87E6
:1023C0005E872091090130910A0140910B015091E3
:1023D0000C012F83388749875A8700910501109196
:1023E0000601020F131F2B853C854D855E850E94DB
:1023F00056172093150130931601409317015093FF
:1024000018016B857C858D859E852F813885498552
:102410005A850E94561720930D0130930E01409368
:102420000F015093100110935101009350018F85BB
:102430000E94630C809101010E94630C8091020153
:102440000E94630C809103010E94630C809104013F
:102450000E94630C80910C010E94630C80910B011F
:102460000E94630C80910A010E94630C8091090113
:102470000E94630C809106010E94630C809105010B
:102480000E94630C809119010E94630C80911401D9
:102490000E94630C809113010E94630C80911201D1
:1024A0000E94630C809111010E94630C80911801BD
:1024B0000E94630C809117010E94630C80911601A9
:1024C0000E94630C809115010E94630C80911A0197
:1024D0000E94630C80911E010E94630C80911D017B
:1024E0000E94630C80911C010E94630C80911B016F
:1024F0000E94630C11B814B817B81AB81DB810BAF6
:1025000012B815B818B81BB81EB811BA96CE68E044
:10251000F62E93CE0E949B0B90CE8DE392E102CFDC
:1025200089E50E94630CE0912901F0912A01408223
:10253000E0912901F0912A0180818F778083E091D9
:102540002501F091260140EC4083E0914101F0919A
:1025500042014082E0913D01F0913E014082E091D4
:102560002F01F09130014082E0912B01F0912C017C
:102570004082E0913B01F0913C014082E0913701C3
:10258000F09138011082E0913501F09136014082DE
:10259000E0913101F09132011082E0912301F0913C
:1025A00024014082E0911F01F09120014082E091DE
:1025B0003101F09132014082E0913D01F0913E0104
:1025C0001082E0913D01F0913E014082E0913101A5
:1025D000F0913201108280E090E0A0E2B0E08B83C5
:1025E0009C83AD83BE838B819C81AD81BE8100972E
:1025F000A105B105F1F0E0912701F091280180815A
:1026000087FF04C016C0808187FD13C08B819C8129
:10261000AD81BE810197A109B1098B839C83AD83F4
:10262000BE838B819C81AD81BE810097A105B105E0
:1026300051F7E0912901F0912A014082E0912901AE
:10264000F0912A0180818F778083E0912501F091BC
:10265000260190EC9083E0914101F091420140828B
:10266000E0913D01F0913E014082E0912F01F09117
:1026700030014082E0912B01F0912C014082E091E9
:102680003B01F0913C014082E0913701F09138012B
:102690001082E0913501F09136014082E0913101E4
:1026A000F09132011082E0912301F09124014082E7
:1026B000E0911F01F09120015082E0913101F091F1
:1026C00032014082E0913D01F0913E011082E091A3
:1026D0003D01F0913E014082E0913101F0913201E3
:1026E0001082E0913701F09138014082E0911F01A2
:1026F000F09120011082E0913D01F0913E011082A5
:10270000E0913D01F0913E014082E0913701F0916E
:1027100038011082E0912301F09124011082E091B0
:102720001F01F09120014082E0912B01F0912C01DA
:1027300010820000E0912101F09122011081E091CE
:102740002B01F0912C014082E0912B01F0912C01A2
:1027500010820000E0912101F09122018081E0913E
:102760002B01F0912C014082E0912B01F0912C0182
:1027700010820000E0912101F09122019081E0910E
:102780002B01F0912C014082E0912B01F0912C0162
:1027900010820000E0912101F09122012081E0915E
:1027A0002B01F0912C014082E0912B01F0912C0142
:1027B00010820000E0912101F09122010081E0915E
:1027C0002B01F0912C0140821093000180930101B4
:1027D00090930201209303010093040110930701D9
:1027E000809308011D3A09F412C11C3E09F421C16D
:1027F000302F36953695337081E090E0B82F01C0C8
:10280000BB0F3A95EAF73B2F822F90E098878F8392
:1028100083709070D60102C0AA0FBB1F8A95E2F7A1
:10282000AD01662757FD6095762F409309015093BF
:102830000A0160930B0170930C01EF81F885E0733E
:10284000F070F595E795F595E795F595E795F5958C
:10285000E795D501C40104C0880F991FAA1FBB1FAB
:10286000EA95D2F78093110190931201A09313017E
:10287000B093140130931A01DB01CA0139E0B69517
:10288000A795979587953A95D1F78B879C87AD87C4
:10289000BE878F8198858470907095958795959562
:1028A0008795D30102C0AA0FBB1F8A95E2F79D014D
:1028B000442737FD4095542F6B857C858D859E85FB
:1028C0000E942317DC01CB0180319105A105B105E0
:1028D00009F435CD80349105A105B10509F42FCD5A
:1028E000812F0E94630C809101010E94630C8091F2
:1028F00002010E94630C809103010E94630C80918D
:1029000004010E94630C14E180E00E94630C1150EA
:10291000D9F7F0CD0E94090C3FEF8F3F930709F4E0
:1029200093C0809356010E94090C4FEF8F3F94078C
:1029300009F48AC0809357010E94090C5FEF8F3F12
:10294000950709F481C0809358018BE40E94630CC1
:1029500080E091E00E940B05CDCD0E94090CAFEF05
:102960008F3F9A0709F470C0809356010E94090CAA
:10297000BFEF8F3F9B0709F467C0809357010E9408
:10298000090C2FEF8F3F920709F45EC08093580126
:1029900080E091E00E94FB061816ACF1882309F054
:1029A00053C086E50E94630CA5CD0E94090C3FEF41
:1029B0008F3F930709F448C0809356010E94090C89
:1029C0004FEF8F3F940709F43FC0809357010E9457
:1029D000090C5FEF8F3F9507B9F18093580180E0B4
:1029E00091E00E94CB08181674F08823D1F280E59C
:1029F0000E94630C7FCD8EE40E94630C1ECCE82EF7
:102A0000FF24F3941ACC8BE40E94630C73CD873DB2
:102A100009F47AC0833779F1302F369536953370C3
:102A200081E090E0482F01C0440F3A95EAF7342F37
:102A3000EBCE813F11F0813A79F731E000E4E4CE4A
:102A400080E1809319019FCC82E50E94630C52CDF6
:102A5000063009F449C1063008F0F7C080E090E084
:102A6000A0E0B0E180931B0190931C01A0931D0195
:102A7000B0931E0182CC80E092E0A0E0B0E08093B1
:102A8000090190930A01A0930B01B0930C0180E01F
:102A900090E4A0E0B0E08093110190931201A09324
:102AA0001301B093140151E050931A0180E490E0B7
:102AB000909306018093050180E090E0A0E0B1E0F2
:102AC00080931B0190931C01A0931D01B0931E01E4
:102AD00088E08093190100E412E020E032E040E059
:102AE00050E02F83388749875A8780E090E4A0E040
:102AF000B0E08B879C87AD87BE8760E070E080E0A8
:102B000091E0ADEAAF876FCC322F337080E098E070
:102B100002C0880F991F3A95E2F7AA2797FDA09562
:102B2000BA2F8093090190930A01A0930B01B093EF
:102B30000C01A8E0A093190106950695037081E0A9
:102B400090E002C0880F991F0A95E2F780931A015E
:102B500080E090E0A0E0B0E880931B0190931C011E
:102B6000A0931D01B0931E01822F807B803209F457
:102B70000FC1813208F095C0882309F082C080E03F
:102B800090E0A2E0B0E08093110190931201A09335
:102B90001301B0931401822F8695869590E0A0E0F2
:102BA000B0E083709070A070B07081309105A10585
:102BB000B10509F4FAC081309105A105B10508F00D
:102BC000ADC080E890E0909306018093050160918C
:102BD0001A0170E080E090E020911B0130911C010F
:102BE00040911D0150911E010E9423172091110157
:102BF0003091120140911301509114012B873C87B1
:102C00004D875E872091090130910A0140910B01A7
:102C100050910C012F83388749875A870F81188577
:102C200000581F4F3DEA3F87DECB013009F469C0F1
:102C300080E090E0A0E8B0E080931B0190931C013D
:102C4000A0931D01B0931E0198CB073089F780E057
:102C500090E0A0E0B0E480931B0190931C01A0934E
:102C60001D01B0931E0189CB80E090E0A0E0B8E0A8
:102C700080931B0190931C01A0931D01B0931E0132
:102C80007CCB803109F02CCE80E090E0A4E0B0E075
:102C90008093110190931201A0931301B09314013A
:102CA0007ACF803809F4C2C0803909F4B2C08033C9
:102CB00009F016CE80E090E0ACE0B0E08093110126
:102CC00090931201A0931301B093140164CF80E09C
:102CD00090E0A0E0B2E080931B0190931C01A093D0
:102CE0001D01B0931E0149CB80E090E0A0E0B0E26E
:102CF00080931B0190931C01A0931D01B0931E01B2
:102D00003CCB80E090E0A0E0B1E080931B01909389
:102D10001C01A0931D01B0931E012FCB82309105A1
:102D2000A105B10509F0DCCD80EC91E0909306019E
:102D30008093050160911A0170E080E090E020919D
:102D40001B0130911C0140911D0150911E010E94F8
:102D500023172091110130911201409113015091DC
:102D600014012B873C874D875E87209109013091A4
:102D70000A0140910B0150910C012F83388749873C
:102D80005A870F81188500541E4F3DEA3F872BCB91
:102D900080E090E0A8E0B0E08093110190931201F0
:102DA000A0931301B0931401F6CE80EE90E09093BF
:102DB00006018093050160911A0170E080E090E0C7
:102DC00020911B0130911C0140911D0150911E0169
:102DD0000E9423172091110130911201409113019B
:102DE000509114012B873C874D875E872091090104
:102DF00030910A0140910B0150910C012F833887CB
:102E000049875A870F81188500521F4F3DEA3F8737
:102E1000EACA80E090E0A0E2B0E0809311019093D4
:102E20001201A0931301B0931401B5CE80E090E09D
:102E3000A0E1B0E08093110190931201A0931301DF
:102E4000B0931401A8CE629FD001739FF001829FBE
:102E5000E00DF11D649FE00DF11D929FF00D839F29
:102E6000F00D749FF00D659FF00D9927729FB00DC6
:102E7000E11DF91F639FB00DE11DF91FBD01CF01D9
:102E800011240895AA1BBB1B51E107C0AA1FBB1F39
:102E9000A617B70710F0A61BB70B881F991F5A95E6
:102EA000A9F780959095BC01CD010895A1E21A2E55
:102EB000AA1BBB1BFD010DC0AA1FBB1FEE1FFF1FDE
:102EC000A217B307E407F50720F0A21BB30BE40B2E
:102ED000F50B661F771F881F991F1A9469F7609575
:102EE0007095809590959B01AC01BD01CF0108952F
:102EF000CF93DF93AC018230910510F442E050E0B3
:102F0000E0913B12F0913C1220E030E0A0E0B0E014
:102F100024C08081918184179507D0F0841795078C
:102F200071F482819381109729F013969C938E936C
:102F300012972CC090933C1280933B1227C021150E
:102F4000310519F08217930718F49C01BD01EF01B8
:102F500092818381DF01E92FF82F3097D1F6211577
:102F60003105F9F0C901841B950B8430910580F47B
:102F70008A819B816115710521F0FB019383828316
:102F800004C090933C1280933B12FE01329642C0E3
:102F9000FE01E80FF91F41935193029799838883AB
:102FA00039C08091391290913A12009741F4809182
:102FB0004C0190914D0190933A12809339122091D7
:102FC0004A0130914B012115310541F42DB73EB72F
:102FD00080914E0190914F01281B390BE0913912DD
:102FE000F0913A12E217F30798F42E1B3F0B2417C7
:102FF000350770F0CA0102962817390748F08E0F7E
:103000009F1F90933A12809339124193519302C0BB
:10301000E0E0F0E0CF01DF91CF9108950F931F938F
:10302000CF93DF939C01009709F48CC0DC011297C9
:1030300013961C921E92129760913B1270913C1253
:103040006115710589F48D919C911197820F931FE1
:103050002091391230913A122817390769F5B09347
:103060003A12A09339126EC0FB0140E050E001C05B
:10307000FC01EA17FB0730F482819381AF010097CE
:10308000B9F71FC0E9012297FB83EA830881198100
:10309000C901800F911F8E179F0759F4808191817C
:1030A000800F911F029699838883828193819B83ED
:1030B0008A834115510529F4B0933C12A0933B1229
:1030C00041C0FA01B383A283C191D191EC0FFD1FDE
:1030D000AE17BF0781F4F901929182918C0F9D1F69
:1030E0000296DA0111969C938E93828193811396B6
:1030F0009C938E931297E0E0F0E002C0FB01BC01CC
:10310000DB0112968D919C9113970097B9F7CB0133
:1031100002962D913C911197820F931F20913912A5
:1031200030913A122817390769F4309729F4109230
:103130003C1210923B1202C01382128270933A1218
:1031400060933912DF91CF911F910F910895F894F8
:02315000FFCFAF
:10315200000000000000000000000000000000006D
:10316200000000000000000000000000000000312C
:10317200002F0030002E002C002D00220020002104
:10318200002500230024002B0029002A0028002605
:1031920000270000E1000000000800003D122000AE
:00000001FF
