:100000000C9402010C9421010C9421010C94210107
:100010000C9421010C9421010C9421010C942101D8
:100020000C9421010C9421010C94590D0C94930D06
:100030000C9421010C9421010C9421010C942101B8
:100040000C9421010C9421010C9421010C942101A8
:100050000C9421010C9421010C9421010C94210198
:100060000C9421010C9421010C9421010C94210188
:100070000C9421010C9421010C9421010C94210178
:100080000C9421010C9421010C9421010C94210168
:100090000C9421010C942101F10CEE0CEB0CE80CFA
:1000A000E50CE20CDF0CDC0CD90CD60CD30CD00C1C
:1000B000CD0CCA0CC70CC40CC10CBE0CBB0CB80CCC
:1000C000B50CB20CAF0CAC0CA90CA60CA30CA00C7C
:1000D0009D0C9A0C970C940C910C8E0C8B0C880C2C
:1000E000850C820C7F0C7C0C790C760C730C700CDC
:1000F0006D0C6A0C670C640C610C5E0C5B0C580C8C
:10010000550C520C4F0C4C0C490C460C430C400C3B
:100110003D0C3A0C370C340C310C000100004E0140
:10012000120002000060014300030000A30104016B
:10013000030904A7010E02030904B7013C030309E4
:1001400004F5010C0001C112018036018136120153
:10015000000202000010C0167A040001010203012F
:1001600009024300020100C0FA0904000001020272
:1001700001000524001001052401010104240206E8
:100180000524060001070582031000400904010050
:10019000020A000000070503024000000705840270
:1001A000400000040309040E036A00750064006740
:1001B000006500730000003C034E004F00520077C2
:1001C00000610079002000500053003300200046F9
:1001D000006C00610073006800650072002000552B
:1001E0000053004200200053006500720069006166
:1001F000006C0000000C0331003200330034003585
:100200000000000011241FBECFEFD0E2DEBFCDBF43
:1002100011E0A0E0B1E0E8EAFCE200E00BBF02C0C0
:1002200007900D92AA34B107D9F712E1AAE4B1E020
:1002300001C01D92A333B107E1F70E94DE0F0C94B9
:1002400052160C940000FC01A1A5B2A51C92A5A118
:10025000B6A18FEF8C93DF01AF5BBF4F0D90BC91C8
:10026000A02D8C93A5ADB6AD8C93A7A5B0A98C930A
:10027000A3A5B4A58C93A3ADB4AD8C93A7A9B0AD41
:100280001C92A5A9B6A98C93A1A9B2A91C9203A0FE
:10029000F4A1E02D8083089511B814B817B81AB8E6
:1002A0001DB810BA12B815B818B81BB81EB811BAD4
:1002B0000895CF93DF9300D000D0CDB7DEB740E0F4
:1002C00050E060E270E049835A836B837C8349810C
:1002D0005A816B817C814115510561057105F9F0E9
:1002E000DC019796ED91FC919897808187FF04C07F
:1002F0001EC0808187FD1BC089819A81AB81BC8132
:100300000197A109B10989839A83AB83BC83898151
:100310009A81AB81BC810097A105B10551F780E0BE
:100320000F900F900F900F90DF91CF91089581E083
:100330000F900F900F900F90DF91CF910895CF9372
:10034000DF9300D000D0CDB7DEB7FC01A1A5B2A5E8
:100350001C92A5A1B6A18FEF8C93DF01AF5BBF4FBD
:100360000D90BC91A02D8C93A5ADB6AD8C93A7A597
:10037000B0A98C93A3A5B4A58C93A3ADB4AD8C9375
:10038000A7A9B0AD1C92A5A9B6A98C93A1A9B2A9A1
:100390001C92A3A1B4A18C93A78DB0A18C93A1A909
:1003A000B2A98C93A5ADB6AD1C92A5ADB6AD8C939C
:1003B000A1A9B2A91C9280E090E0A0E2B0E08983FC
:1003C0009A83AB83BC8389819A81AB81BC8100977E
:1003D000A105B105E9F007A0F0A5E02D808187FF18
:1003E00004C016C0808187FD13C089819A81AB81CA
:1003F000BC810197A109B10989839A83AB83BC832E
:1004000089819A81AB81BC810097A105B10551F723
:100410000F900F900F900F90DF91CF9108954F9212
:100420005F926F927F928F929F92AF92BF92CF9284
:10043000DF92EF92FF920F931F93CF93DF93EC0124
:10044000E9A5FAA51082EDA1FEA18FEF8083FE0140
:10045000EF5BFF4F0190F081E02D8083EDADFEADAD
:100460008083EFA5F8A98083EBA5FCA58083EBAD85
:10047000FCAD8083EFA9F8AD1082EDA9FEA98083C1
:10048000E9A9FAA91082EBA1FCA18083EF8DF8A164
:1004900090E99083E9A9FAA98083EDADFEAD1082C1
:1004A000EDADFEAD8083E9A9FAA91082EFA9F8AD00
:1004B0008083EF8DF8A11082EDADFEAD1082EDAD21
:1004C000FEAD8083EFA9F8AD1082EBA1FCA11082F4
:1004D000EF8DF8A18083EBA5FCA510820000E9A1B7
:1004E000FAA19081EBA5FCA58083EBA5FCA5108269
:1004F0000000E9A1FAA12081EBA5FCA58083EBA572
:10050000FCA510820000E9A1FAA14081EBA5FCA5A1
:100510008083EBA5FCA510820000E9A1FAA130813F
:10052000EBA5FCA58083EBA5FCA510820000E9A14A
:10053000FAA10081EBA5FCA58083988329834A83D7
:100540003B830C839F8328879D3A09F4CFC09C3E50
:1005500009F4C4C0802F869586958370E1E0F0E0B1
:1005600001C0EE0F8A95EAF7A32EBB24C501837064
:10057000907040E054E002C0440F551F8A95E2F7A6
:10058000662757FD6095762F49875A876B877C874A
:1005900095012073307035952795359527953595BC
:1005A00027953595279580E090E0A1E0B0E004C064
:1005B000880F991FAA1FBB1F2A95D2F7898B9A8B88
:1005C000AB8BBC8BEA8F6A017B0129E0F694E79440
:1005D000D794C7942A95D1F7C501847090709595EA
:1005E00087959595879528E030E002C0220F331F4C
:1005F0008A95E2F7442737FD4095542FC701B6018D
:100600000E94FD15DC01CB0180319105A105B105EA
:10061000B9F080349105A105B10591F080E0DF913A
:10062000CF911F910F91FF90EF90DF90CF90BF90EF
:10063000AF909F908F907F906F905F904F900895B4
:100640009E838D8302950770043009F490C00530B5
:1006500008F07EC0023009F434C1033008F41DC133
:1006600080E090E0A0E0B4E08B8F9C8FAD8FBE8FD8
:10067000A6FC86C088E0898F6A8D70E080E090E0FB
:100680002B8D3C8D4D8D5E8D89889A88AB88BC887A
:100690000E94FD15A50194010E94301669017A019E
:1006A00049845A846B847C84C501B401A3019201FE
:1006B0000E94301689019A018D819E81840D951DBD
:1006C000CD8ADE8AEF8AF88E0D871E872F87388BBA
:1006D00090934B0180934A0181E0A1CF213F19F013
:1006E000213A09F037CFE1E000E43ECF273D09F49D
:1006F00049C0233709F02ECF80E092E0A0E0B0E0BF
:1007000089879A87AB87BC8780E090E4A0E0B0E05F
:10071000898B9A8BAB8BBC8B81E08A8F80E490E0D5
:100720009E838D8380E090E0A0E0B1E08B8F9C8F72
:10073000AD8FBE8F88E0898F80E492E000E210E008
:1007400020E030E0C12C44E0D42EE12CF12CB8CFD5
:10075000063009F4ADC0063008F08BC080E090E0B0
:10076000A0E0B0E18B8F9C8FAD8FBE8F81CF80E0FA
:1007700090E0A0E0B8E08B8F9C8FAD8FBE8F78CFDC
:1007800080E179CF232F237080E098E002C0880FAA
:10079000991F2A95E2F7AA2797FDA095BA2F898776
:1007A0009A87AB87BC8788E0898F0695069503708A
:1007B00081E090E002C0880F991F0A95E2F78A8FC6
:1007C00080E090E0A0E0B0E88B8F9C8FAD8FBE8F73
:1007D000832F807B803209F4F1C0813208F07AC027
:1007E000882309F0DFC080E090E0A2E0B0E0898BD0
:1007F0009A8BAB8BBC8B36953695832F90E0A0E01F
:10080000B0E083709070A070B07081309105A10548
:10081000B10509F49FC081309105A105B10508F02B
:100820006BC080E890E09E838D836A8D70E080E0ED
:1008300090E02B8D3C8D4D8D5E8D49885A886B885C
:100840007C880E94FD15A30192010E943016690167
:100850007A0189849A84AB84BC84C301B201A50166
:1008600094010E94301689019A01C40180589F4F5B
:1008700027CF073049F080E090E0A0E8B0E08B8F10
:100880009C8FAD8FBE8FF4CE80E090E0A0E0B0E40E
:100890008B8F9C8FAD8FBE8FEBCE013061F780E0E8
:1008A00090E0A0E0B1E08B8F9C8FAD8FBE8FE0CE4B
:1008B00080E090E0A0E0B0E28B8F9C8FAD8FBE8F88
:1008C000D7CE80E090E0A0E0B2E08B8F9C8FAD8F20
:1008D000BE8FCECE803809F483C0803909F477C04A
:1008E000803309F09BCE80E090E0ACE0B0E0898BF3
:1008F0009A8BAB8BBC8B7FCF82309105A105B10564
:1009000009F08CCE80EC91E09E838D836A8D70E03F
:1009100080E090E02B8D3C8D4D8D5E8D49885A880E
:100920006B887C880E94FD15A30192010E943016FD
:1009300069017A0189849A84AB84BC84C301B201C1
:10094000A50194010E94301689019A01C4018054C6
:100950009E4FB6CE80EE90E09E838D836A8D70E0D0
:1009600080E090E02B8D3C8D4D8D5E8D49885A88BE
:100970006B887C880E94FD15A30192010E943016AD
:1009800069017A0189849A84AB84BC84C301B20171
:10099000A50194010E94301689019A01C401805278
:1009A0009F4F8ECE803109F039CE80E090E0A4E0F8
:1009B000B0E0898B9A8BAB8BBC8B1DCF80E090E035
:1009C000A8E0B0E0898B9A8BAB8BBC8B14CF80E016
:1009D00090E0A0E2B0E0898B9A8BAB8BBC8B0BCF05
:1009E00080E090E0A0E1B0E0898B9A8BAB8BBC8B70
:1009F00002CFDF92EF92FF920F931F93CF93DF937B
:100A000000D000D0CDB7DEB77C01DC019996ED9126
:100A1000FC919A9710829596ED91FC9196978FEFA5
:100A20008083F701EF5BFF4F0190F081E02D808321
:100A3000DD96ED91FC91DE9780839F96ED91FC9180
:100A4000D09780839B96ED91FC919C978083DB9659
:100A5000ED91FC91DC978083D796ED91FC91D8972E
:100A60001082D596ED91FC91D6978083D196ED9129
:100A7000FC91D29710829396ED91FC91949780838C
:100A80005F96ED91FC9190971082D196ED91FC913B
:100A9000D2978083DD96ED91FC91DE971082DD96F2
:100AA000ED91FC91DE978083D196ED91FC91D297E8
:100AB0001082D796ED91FC91D897808317969C91E0
:100AC00017979D3A09F429C1D7015F96ED91FC91E2
:100AD00090971082DD96ED91FC91DE971082DD9665
:100AE000ED91FC91DE978FEF80835F96ED91FC9105
:100AF00090971082DD96ED91FC91DE971082DD9645
:100B0000ED91FC91DE9780835F96ED91FC9190973B
:100B1000909150019083DD96ED91FC91DE971082CB
:100B2000DD96ED91FC91DE9780835F96ED91FC91CF
:100B30009097909151019083DD96ED91FC91DE9715
:100B40001082DD96ED91FC91DE9780835F96ED91AA
:100B5000FC919097909152019083DD96ED91FC91DC
:100B6000DE971082DD96ED91FC91DE978083D701B0
:100B7000D796ED91FC91D897108217968C91179784
:100B80008D3A59F018968C911897833731F05F960B
:100B9000ED91FC91909780E38083D701D196ED9100
:100BA000FC91D2978FEF8083DD96ED91FC91DE97DB
:100BB0001082DD96ED91FC91DE978083D196ED91C8
:100BC000FC91D29710829396ED91FC9194971082AC
:100BD0005F96ED91FC9190978083DFB6F89480E06A
:100BE00090E0A0E2B0E089839A83AB83BC838981E3
:100BF0009A81AB81BC810097A105B105F9F0D701BD
:100C00009796ED91FC919897808187FF04C016C05C
:100C1000808187FD13C089819A81AB81BC81019756
:100C2000A109B10989839A83AB83BC8389819A81A5
:100C3000AB81BC810097A105B10551F7E0914A0154
:100C4000F0914B01B0E1E03EFB07A0F100E01FEFA7
:100C5000E3E5F1E0D7019B968D919C919C97DC0197
:100C60001C920000D70191968D919C919297DC0186
:100C70008C918193D7019B968D919C919C97DC01DF
:100C80001C93B2E1E333FB0729F783E591E060EEC3
:100C900070E10E94D60B0F5FE0914A01F0914B0189
:100CA000202F30E0CF0160EE70E10E941C16261765
:100CB000370770F2CF0160EE70E10E941C16BC0194
:100CC0000097C9F0A3E5B1E08A0F9B1F2FEFF70152
:100CD00043A554A5FA0110820000F70141A152A1D9
:100CE000FA0130813D93F70143A554A5FA01208311
:100CF000A817B90761F783E591E00E94D60BDFBE24
:100D000081E00F900F900F900F90DF91CF911F9186
:100D10000F91FF90EF90DF90089518969C9118978F
:100D2000933709F0D1CE5F96ED91FC9190971082A8
:100D3000DD96ED91FC91DE971082DD96ED91FC91B0
:100D4000DE9780835F96ED91FC9190979091500192
:100D50009083DD96ED91FC91DE971082DD96ED910A
:100D6000FC91DE9780835F96ED91FC919097909136
:100D70005101F2CEFC01A78DB0A180E78C93A1A90F
:100D8000B2A99FEF9C93A5ADB6AD1C92A5ADB6AD33
:100D90009C93A1A9B2A91C92A3A1B4A11C92A78D56
:100DA000B0A19C93A3A5B4A51C920000A1A1B2A1DF
:100DB0008C91A3A5B4A59C9303A0F4A1E02D9083EE
:100DC0000895FF920F931F93CF93DF938C01DC0163
:100DD0009996ED91FC919A9710829596ED91FC91E0
:100DE00096978FEF8083F801EF5BFF4F0190F081C2
:100DF000E02D8083DD96ED91FC91DE9780839F96B8
:100E0000ED91FC91D09780839B96ED91FC919C97FE
:100E10008083DB96ED91FC91DC978083D796ED91F2
:100E2000FC91D8971082D596ED91FC91D69780834E
:100E3000D196ED91FC91D29710829396ED91FC9111
:100E4000949780835F96ED91FC91909790E89083C2
:100E5000D196ED91FC91D2978083DD96ED91FC9136
:100E6000DE971082DD96ED91FC91DE978083D1961E
:100E7000ED91FC91D2971082D796ED91FC91D89785
:100E8000808317969C9117979D3A09F433C1D80136
:100E90005F96ED91FC9190971082DD96ED91FC911B
:100EA000DE971082DD96ED91FC91DE978FEF8083C7
:100EB0005F96ED91FC9190971082DD96ED91FC91FB
:100EC000DE971082DD96ED91FC91DE9780835F9630
:100ED000ED91FC919097909150019083DD96ED916A
:100EE000FC91DE971082DD96ED91FC91DE97808378
:100EF0005F96ED91FC919097909151019083DD96D2
:100F0000ED91FC91DE971082DD96ED91FC91DE97DC
:100F100080835F96ED91FC91909790915201908320
:100F2000DD96ED91FC91DE971082DD96ED91FC91BE
:100F3000DE978083D801D796ED91FC91D8971082E7
:100F400080914A0190914B01C0E0D0E0009709F1F7
:100F5000FF24FA9418C0D8015F96ED91FC91909708
:100F60008083DD96ED91FC91DE971082DD96ED9108
:100F7000FC91DE97F082219680914A0190914B017D
:100F8000C817D90730F40E94080BBFEF8F3F9B07AB
:100F900011F7D8015F96ED91FC91909780E18083E5
:100FA000D196ED91FC91D2978FEF8083DD96ED91F4
:100FB000FC91DE971082DD96ED91FC91DE978083A7
:100FC000D196ED91FC91D297108280914A01909137
:100FD0004B01C817D90708F4BAC029E030E79FEFE2
:100FE000822F8A9501F0E9F7C895D8015F96ED91B7
:100FF000FC9190973083D196ED91FC91D2978FEF31
:101000009083DD96ED91FC91DE971082DD96ED9157
:10101000FC91DE979083D196ED91FC91D29710824E
:101020009396ED91FC91949710825F96ED91FC91CF
:10103000909790839B96ED91FC919C971082000075
:101040009196ED91FC91929740819B96ED91FC9148
:101050009C9790839396ED91FC919497908346FF93
:10106000BFCF5F96ED91FC91909790E79083D196DA
:10107000ED91FC91D2978083DD96ED91FC91DE9706
:101080001082DD96ED91FC91DE978083D196ED91F3
:10109000FC91D29710829396ED91FC9194971082D7
:1010A0005F96ED91FC91909780839B96ED91FC91DA
:1010B0009C97108200009196ED91FC9192979081FF
:1010C0009B96ED91FC919C9780839396ED91FC917A
:1010D0009497808381E090FD06C0DF91CF911F91AE
:1010E0000F91FF90089580E0DF91CF911F910F91B4
:1010F000FF90089518969C911897933709F0C7CEE2
:101100005F96ED91FC9190971082DD96ED91FC91A8
:10111000DE971082DD96ED91FC91DE9780835F96DD
:10112000ED91FC919097909150019083DD96ED9117
:10113000FC91DE971082DD96ED91FC91DE97808325
:101140005F96ED91FC91909790915101E8CE8FEFD1
:10115000C4CFFC01A1A5B2A51C92A5A1B6A18FEF99
:101160008C93DF01AF5BBF4F0D90BC91A02D8C9392
:10117000A5ADB6AD8C93A7A5B0A98C93A3A5B4A536
:101180008C93A3ADB4AD8C93A7A9B0AD1C92A5A9C7
:10119000B6A98C93A1A9B2A91C92A3A1B4A18C93C6
:1011A000A78DB0A190E69C93A1A9B2A98C93A5ADFF
:1011B000B6AD1C92A5ADB6AD8C93A1A9B2A91C92F7
:1011C000A7A9B0AD8C9397819D3A09F4B1C0A78DC2
:1011D000B0A1809150018C93A5ADB6AD1C92A5AD88
:1011E000B6AD8FEF8C93A78DB0A1909151019C93D8
:1011F000A5ADB6AD1C92A5ADB6AD8C93A78DB0A133
:10120000909152019C93A5ADB6AD1C92A5ADB6AD23
:101210008C93A7A9B0AD1C92A78DB0A180ED8C9343
:10122000A1A9B2A98FEF8C93A5ADB6AD1C92A5ADC7
:10123000B6AD8C93A1A9B2A91C92A78DB0A190E7DD
:101240009C93A1A9B2A98C93A5ADB6AD1C92A5ADF6
:10125000B6AD8C93A1A9B2A91C92A3A1B4A11C9272
:10126000A78DB0A18C93A3A5B4A51C920000A1A149
:10127000B2A19C91A3A5B4A58C93A3A1B4A18C9376
:1012800097FF6AC027E230E79FEF822F8A9501F02F
:10129000E9F7C895A78DB0A13C93A1A9B2A98FEF9A
:1012A0009C93A5ADB6AD1C92A5ADB6AD9C93A1A97E
:1012B000B2A91C92A3A1B4A11C92A78DB0A19C932A
:1012C000A3A5B4A51C920000A1A1B2A14C91A3A515
:1012D000B4A59C93A3A1B4A19C9346FFD6CFA78DA0
:1012E000B0A190E79C93A1A9B2A98C93A5ADB6AD8E
:1012F0001C92A5ADB6AD8C93A1A9B2A91C92A3A1D5
:10130000B4A11C92A78DB0A18C93A3A5B4A51C92E7
:101310000000A1A1B2A19C91A3A5B4A58C9303A0A8
:10132000F4A1E02D808381E090FF089580E008958E
:101330009085933709F04BCFA78DB0A190915001C4
:101340009C93A5ADB6AD1C92A5ADB6AD8C93A78D03
:10135000B0A19091510156CF8FEF0895CF93DF93B5
:10136000EC010E94080B2FEF8F3F9207D9F080937A
:1013700050010E94080B2FEF8F3F920799F0809346
:1013800051010E94080B2FEF8F3F920759F0809375
:1013900052018BE40E94620BCE010E94F904DF919E
:1013A000CF91089582E50E94620BDF91CF9108955D
:1013B000CF93DF93EC010E94080B2FEF8F3F920732
:1013C00029F1809350010E94080B2FEF8F3F920765
:1013D000E9F0809351010E94080B2FEF8F3F920795
:1013E000A9F080935201CE010E94E106181644F044
:1013F000882361F486E50E94620BDF91CF91089506
:101400008BE40E94620BDF91CF91089582E50E94E8
:10141000620BDF91CF910895CF93DF93EC010E948F
:10142000080B2FEF8F3F920749F1809350010E94E4
:10143000080B2FEF8F3F920709F1809351010E9413
:10144000080B2FEF8F3F9207C9F080935201CE0116
:101450000E94A908181644F0882361F486E50E94CA
:10146000620BDF91CF9108958BE40E94620BDF91B4
:10147000CF91089580E50E94620BF3CF82E50E9430
:10148000620BDF91CF910895CF93DF93EC010E941F
:101490009F01CE010E940F028823C1F488810E941F
:1014A000620B89810E94620B8A810E94620B8B8190
:1014B0000E94620B8C810E94620BC4E180E00E945A
:1014C000620BC150D9F7DF91CF91089588810E94B6
:1014D000620B89810E94620B8A810E94620B8B8160
:1014E0000E94620B8C810E94620B8C850E94620BB1
:1014F0008B850E94620B8A850E94620B89850E94FF
:10150000620B8E810E94620B8D810E94620B898D1D
:101510000E94620B8C890E94620B8B890E94620B75
:101520008A890E94620B89890E94620B888D0E94C1
:10153000620B8F890E94620B8E890E94620B8D89DB
:101540000E94620B8A8D0E94620B8E8D0E94620B3C
:101550008D8D0E94620B8C8D0E94620B8B8D0E9480
:10156000620BDF91CF910895F89481E08093E000C1
:1015700080E28093D800E9ECF0E010828FE493ECF5
:10158000A0E0B0E00197A109B109000001F0D1F796
:10159000C89500001DBA109268001CBC10BE1FBA8E
:1015A00010927A0010926E0010926F0010927000EC
:1015B0001092710010821092BC0011B814B817B8C4
:1015C0001AB81DB810BA12B815B818B81BB81EB89A
:1015D00011BA0C9400FE089581E88093D70080EA48
:1015E0008093D80086E189BD09B400FEFDCF80E973
:1015F0008093D8001092E00010924D0110924E019D
:101600008CE08093E2007894089580914D010895D4
:101610003FB7F89480914D018823F9F083E08093DF
:10162000E9008091E80085FD0CC082FF16C09BE6B2
:1016300002C082FF12C09093E8008091E80085FF0D
:10164000F8CF8091F1009091E80095FD03C09BE6F2
:101650009093E8003FBF90E008953FBF8FEF9FEF6A
:1016600008959FB7F89480914D01882391F083E00D
:101670008093E9008091F200882349F42091E800EA
:1016800022FF05C025FD03C02BE62093E8009FBF85
:10169000089580E09FBF089580914D01882389F0CF
:1016A0002FB7F89483E08093E9008091E80085FFEC
:1016B00007C09BE69093E8008091E80085FDFACF93
:1016C0002FBF089590914D01992309F449C09FB708
:1016D000F89424E02093E90020914F01222391F512
:1016E0003091E4002091E80025FD1DC0305F9FBFD0
:1016F0009091E400931769F190914D01992381F144
:1017000044E009C09FBF9091E400931711F19091BC
:101710004D01992319F19FB7F8944093E900209166
:10172000E80025FFEFCF8093F1008091E80085FD70
:1017300003C08AE38093E80085E080934C019FBF5B
:1017400080E008952091E80025FF0CC010924F0121
:10175000C7CF81E080934F018FEF08958FEF0895F9
:101760008FEF08959FBF8FEF089590914D019923BA
:10177000C1F02FB7F89494E09093E9009091E800BD
:1017800095FF11C08093F1008091E80085FD03C0B2
:101790008AE38093E80085E080934C012FBF80E0CE
:1017A00008958FEF08952FBF8FEF0895CF93DC0139
:1017B00080914D01882381F12FB7F89484E08093C4
:1017C000E90080914F01882351F56115710509F4F5
:1017D00015C134E050E4CAE345E09091E400809103
:1017E000E80085FD23C0905F2FBF8091E40089173A
:1017F00079F406C12FB7F8943093E9008091E8009E
:1018000085FD14C02FBF8091E400891709F4F8C04A
:1018100080914D01882371F78FEFCF9108958091CA
:10182000E80085FFF3C010924F01CFCF8091F20006
:10183000E52FE81B8E2F90E06817790718F4E62F44
:10184000862F90E0681B790BF0E0E134F10508F099
:10185000C5C0E45BFF4FEE0FFF1F0590F491E02D34
:1018600009948D918093F1008D918093F1008D9179
:101870008093F1008D918093F1008D918093F10020
:101880008D918093F1008D918093F1008D918093E3
:10189000F1008D918093F1008D918093F1008D91F5
:1018A0008093F1008D918093F1008D918093F100F0
:1018B0008D918093F1008D918093F1008D918093B3
:1018C000F1008D918093F1008D918093F1008D91C5
:1018D0008093F1008D918093F1008D918093F100C0
:1018E0008D918093F1008D918093F1008D91809383
:1018F000F1008D918093F1008D918093F1008D9195
:101900008093F1008D918093F1008D918093F1008F
:101910008D918093F1008D918093F1008D91809352
:10192000F1008D918093F1008D918093F1008D9164
:101930008093F1008D918093F1008D918093F1005F
:101940008D918093F1008D918093F1008D91809322
:10195000F1008D918093F1008D918093F1008D9134
:101960008093F1008D918093F1008D918093F1002F
:101970008D918093F1008D918093F1008D918093F2
:10198000F1008D918093F1008D918093F1008D9104
:101990008093F1008D918093F1008D918093F100FF
:1019A0008D918093F1008D918093F1008D918093C2
:1019B000F1008D918093F1008D918093F1008D91D4
:1019C0008093F1008D918093F1008D918093F100CF
:1019D0008D918093F1008D918093F1008D91809392
:1019E000F1008091E80085FD02C0C093E8004093BB
:1019F0004C012FBF6115710509F0EFCE80E00DCFCE
:101A000081E080934F018FEFCF9108952FBF8FEF2B
:101A100004CF8FB7F89490914C01992341F094E052
:101A20009093E9009AE39093E80010924C018FBFE5
:101A30000895609143017091440180914501909116
:101A400046010895809147010895809148010895C5
:101A500080914901089580914E0108952FB7F8941F
:101A600090914D01992311F192E09093E9009091AA
:101A7000E80095FF1BC091EA9093F10090E29093EB
:101A8000F1001092F1001092F1001092F10010920A
:101A9000F10091E09093F1001092F1008093F10039
:101AA0008AE38093E8002FBF80E008952FBF8FEF77
:101AB00008951F920F920FB60F9211248F939F9348
:101AC0008091E1001092E10083FF11C01092E900C3
:101AD00091E09093EB001092EC0092E19093ED0076
:101AE00098E09093F00010924D0110924E0182FF09
:101AF00013C080914D01882379F080914C01882397
:101B000059F0815080934C01882331F484E0809314
:101B1000E9008AE38093E8009F918F910F900FBEB8
:101B20000F901F9018951F920F920FB60F920BB641
:101B30000F9211240F931F932F933F934F935F9313
:101B40006F937F938F939F93AF93BF93CF93EF93B5
:101B5000FF931092E9008091E80083FF71C0E0914B
:101B6000F1006091F1002091F10030E04091F1002E
:101B7000942F80E0282B392B4091F10050E0709198
:101B8000F100972F80E0482B592BA091F100C091D4
:101B9000F10082EF8093E8006630E1F0653009F4EF
:101BA000E7C0693009F465C0683009F4ECC06132FF
:101BB00009F4F8C0603209F41CC1623209F0C5C0F2
:101BC000E13209F03DC020934E018091E80080FF92
:101BD000FCCFCAC06AE171E0FB018591949128179E
:101BE000390709F4A5C1695F7F4FFB018591949185
:101BF0002817390709F4A5C168E271E0FB01859156
:101C000094912817390709F4A9C16FE271E0FB012B
:101C1000859194912817390709F4ADC166E371E005
:101C2000FB01859194912817390709F4BBC1695FBD
:101C30007F4FFB01859194912817390709F403C15F
:101C400081E28093EB00FF91EF91CF91BF91AF9133
:101C50009F918F917F916F915F914F913F912F91C4
:101C60001F910F910F900BBE0F900FBE0F901F9002
:101C70001895EE2329F720934D0110924E011092F2
:101C80004C018EEF8093E80081E08093E90024E42A
:101C900031E0F90184918093EB00882309F48BC132
:101CA0003196E491E093EC00F9013296E491E093EF
:101CB000ED002D5F3F4F82E08093E900C90101965E
:101CC000F90144914093EB00442361F0FC018491BD
:101CD0008093EC00C90103962E5F3F4FF9012491D8
:101CE0002093ED0023E02093E9009C012F5F3F4FFC
:101CF000FC0144914093EB00442361F0F9012491ED
:101D00002093EC009C012D5F3F4F0296FC018491D3
:101D10008093ED0084E08093E900C9010196F90108
:101D200044914093EB00442351F0FC018491809353
:101D3000EC002E5F3F4FF90124912093ED008EE1DE
:101D40008093EA001092EA007ECF662309F0C6C0B5
:101D50008091E80080FFFCCFE23809F419C180E0EF
:101D60008093F1001092F1008EEF8093E8006BCF2A
:101D70008EEF8093E8008091E80080FFFCCF206820
:101D80002093E30060CFE03809F05ACF8091E8005B
:101D900080FFFCCF80914D018093F1008EEF809306
:101DA000E80051CFE13A09F04BCF8091E80080FF85
:101DB000FCCF809143018093F10080914401809396
:101DC000F100809145018093F1008091460180935C
:101DD000F100809147018093F10080914801809348
:101DE000F100809149018093F1008EEF8093E8002B
:101DF0002ACFE13209F024CF8091E80082FFFCCFA6
:101E00008091F100809343018091F100809344011F
:101E10008091F100809345018091F100809346010B
:101E20008091F100809347018091F10080934801F7
:101E30008091F100809349018BEF8093E8008EEF51
:101E40008093E80000CFFB0132968591949148176A
:101E5000590709F0F5CEFB01349625913491C9015B
:101E60006A5F7F4FFB016491B0E03C2F20E0A22B22
:101E7000B32BAF3FB10519F010F0AFEFB0E0A617EC
:101E800008F46A2F7EEF2091E80030E0A901457048
:101E9000507041155105B9F322FDD5CE562F613151
:101EA000D0F050E19C01452FF9012F5F3F4FE491A5
:101EB000E093F1004150C1F7252F215030E02F5F12
:101EC0003F4F820F931F651B7093E8006623D9F67E
:101ED0005031C9F2B8CE662329F7F5CF613021F52C
:101EE000E23009F0ADCE2115310509F0A9CE4F77CA
:101EF000842F8150843008F0A3CE8EEF8093E800C9
:101F00004093E900633009F49BCE89E18093EB00B4
:101F100081E090E002C0880F991F4A95E2F7809314
:101F2000EA001092EA008FCE633009F089CED8CF54
:101F3000FB013296859194914817590709F053CEC9
:101F40008ACF03E211E0F80185919491481759076F
:101F500009F481CFB8016B5F7F4F50CE0AE211E0E8
:101F6000F801859194914817590709F474CFB80185
:101F70006B5F7F4F4CCE01E311E0F80185919491A6
:101F80004817590709F467CFB8016B5F7F4F48CEF8
:101F90004093E9009091EB0081E095FF80E0109282
:101FA000E900DECEFB0132968591949148175907DE
:101FB00009F03DCE50CF2F5F3F4F7DCECF93DF93C3
:101FC000CDB7DEB72B970FB6F894DEBF0FBECDBFEF
:101FD00080E88093610091E09093610091E895BF63
:101FE00085BF0E944C010E94EC0A0E94050B8823C9
:101FF000E1F38FE392E4AFE0B0E00197A109B1090A
:10200000000001F0D1F7C895000000E010E077244F
:102010007A940E944C0BA12C24E0B22EC12CD12C1E
:1020200031E0E32EF12C48E0842E912C50E1652E16
:102030000E94050B882369F3112309F059C00E94FF
:10204000080B2FEF8F3F920799F3009789F38130A8
:10205000910571F38230910509F452C083309105E6
:1020600009F452C08430910509F452C085309105BD
:10207000F9F28630910509F44EC08F30910509F4CC
:1020800045C08C30910509F453C08D30910509F499
:102090003EC28031910509F45DC28131910509F498
:1020A00082C28631910509F4A6C28731910509F4EF
:1020B000BFCF8A31910509F4BBCF8B31910509F46B
:1020C000B7CF9C01022E232F000C221F330B000CD4
:1020D000221F331F2130310509F46CC3880F892F6B
:1020E000881F990B8130910509F0A2CF12E0A0CF93
:1020F000113011F010E09CCF0023E1F3015098CF94
:1021000083E40E94620B94CF8EEBFBCF18E090CF5C
:102110000E94B40A8DCF11B814B817B81AB81DB8F8
:1021200010BA12B815B818B81BB81EB811BA80CFBB
:1021300089E50E94620BE0912901F0912A01108249
:10214000E0912501F09126017082E0914101F0912A
:1021500042017082E0913D01F0913E017082E09178
:102160002F01F09130017082E0912B01F0912C0150
:102170007082E0913B01F0913C017082E091370167
:10218000F09138011082E0913501F09136017082B2
:10219000E0913101F09132011082E0912301F09140
:1021A00024017082E0911F01F09120017082E09182
:1021B0003101F09132017082E0913D01F0913E01D8
:1021C0001082E0913D01F0913E017082E091310179
:1021D000F0913201108280E090E0A0E2B0E08983CB
:1021E0009A83AB83BC8389819A81AB81BC81009740
:1021F000A105B105F1F0E0912701F091280180815E
:1022000087FF04C016C0808187FD13C089819A8131
:10221000AB81BC810197A109B10989839A83AB8302
:10222000BC8389819A81AB81BC810097A105B105EE
:1022300051F7E0912901F0912A011082E0912501E6
:10224000F09126017082E0914101F091420170828B
:10225000E0913D01F0913E017082E0912F01F091FB
:1022600030017082E0912B01F0912C017082E0919D
:102270003B01F0913C017082E0913701F09138010F
:102280001082E0913501F09136017082E0913101C8
:10229000F09132011082E0912301F09124017082CB
:1022A000E0911F01F091200190E99083E0913101CC
:1022B000F09132017082E0913D01F0913E01108277
:1022C000E0913D01F0913E017082E0913101F09189
:1022D00032011082E0913701F09138017082E09173
:1022E0001F01F09120011082E0913D01F0913E012B
:1022F0001082E0913D01F0913E017082E091370142
:10230000F09138011082E0912301F09124011082B4
:10231000E0911F01F09120017082E0912B01F0917A
:102320002C0110820000E0912101F09122014080F7
:10233000E0912B01F0912C017082E0912B01F09142
:102340002C0110820000E0912101F0912201808196
:10235000E0912B01F0912C017082E0912B01F09122
:102360002C0110820000E0912101F0912201908166
:10237000E0912B01F0912C017082E0912B01F09102
:102380002C0110820000E0912101F09122012081B6
:10239000E0912B01F0912C017082E0912B01F091E2
:1023A0002C0110820000E0912101F0912201208097
:1023B000E0912B01F0912C017082409200018093FA
:1023C00001019093020120930301209204014092A5
:1023D000070180930801ADEA4A1609F4F2C14CEEF8
:1023E000441609F43CC2322D36953695337081E09F
:1023F00090E0582F01C0550F3A95EAF7352F422F3C
:1024000050E05E834D83CA0183709070D50102C095
:10241000AA0FBB1F8A95E2F7AD01662757FD6095AD
:10242000762F4093090150930A0160930B0170933A
:102430000C01ED81FE81E073F070F595E795F5955F
:10244000E795F595E795F595E795D701C60104C0A1
:10245000880F991FAA1FBB1FEA95D2F7809311011D
:1024600090931201A0931301B093140130931A01B9
:10247000DB01CA0139E0B695A795979587953A95FE
:10248000D1F78F839887A987BA878D819E818470C1
:1024900090709595879595958795D40102C0AA0F60
:1024A000BB1F8A95E2F79D01442737FD4095542FC5
:1024B0006F81788589859A850E94FD15DC01CB01A5
:1024C00080319105A105B10509F499C080349105C9
:1024D000A105B10509F493C0842D0E94620B80917F
:1024E00001010E94620B809102010E94620B8091A7
:1024F00003010E94620B809104010E94620B54E16F
:10250000452E80E00E94620B4A94D9F791CD0E943B
:10251000080BAFEF8F3F9A0709F4BAC180935001BF
:102520000E94080BBFEF8F3F9B0709F4B1C1809356
:1025300051010E94080B2FEF8F3F920709F4A8C1A9
:10254000809352018BE40E94620B80E091E00E9434
:10255000F9046ECD0E94080B3FEF8F3F930709F4FB
:1025600097C1809350010E94080B4FEF8F3F940753
:1025700009F48EC1809351010E94080B5FEF8F3FD9
:10258000950709F485C18093520180E091E00E9493
:10259000E10618160CF411C1882309F079C186E50B
:1025A0000E94620B45CD0E94080BAFEF8F3F9A0748
:1025B00009F46EC1809350010E94080BBFEF8F3F5A
:1025C0009B0709F465C1809351010E94080B2FEF0E
:1025D0008F3F920709F45CC18093520180E091E043
:1025E0000E94A90818160CF4E8C08823C1F280E5FF
:1025F0000E94620B1DCD8EE40E94620B19CD909358
:10260000060180930501822D82958770843009F43C
:102610003CC2853008F040C1823009F403C28330E7
:1026200008F4E1C180E090E0A0E0B4E080931B01F9
:1026300090931C01A0931D01B0931E01BD81B6FDB6
:1026400021C128E020931901309100013B8760915E
:102650001A0170E080E090E020911B0130911C0194
:1026600040911D0150911E010E94FD152091110104
:102670003091120140911301509114012F8338873A
:1026800049875A872090090130900A0140900B0138
:1026900050900C014091050150910601420D531DCF
:1026A0005E834D832F81388549855A850E94301677
:1026B0002093150130931601409317015093180190
:1026C0006F81788589859A85A20191010E943016D3
:1026D00020930D0130930E0140930F015093100190
:1026E0008D819E8190934B0180934A018B850E943E
:1026F000620B809101010E94620B809102010E9495
:10270000620B809103010E94620B809104010E9480
:10271000620B80910C010E94620B80910B010E9460
:10272000620B80910A010E94620B809109010E9454
:10273000620B809106010E94620B809105010E944C
:10274000620B809119010E94620B809114010E941A
:10275000620B809113010E94620B809112010E9412
:10276000620B809111010E94620B809118010E94FE
:10277000620B809117010E94620B809116010E94EA
:10278000620B809115010E94620B80911A010E94D8
:10279000620B80911E010E94620B80911D010E94BC
:1027A000620B80911C010E94620B80911B010E94B0
:1027B000620B3ECC082F11E03BCC8BE40E94620BF5
:1027C00037CC873D09F47BC0833709F00CCE80E01D
:1027D00092E0A0E0B0E08093090190930A01A093F9
:1027E0000B01B0930C0180E090E4A0E0B0E0809396
:1027F000110190931201A0931301B093140181E091
:1028000080931A0180E490E0909306018093050183
:1028100080E090E0A0E0B1E080931B0190931C0168
:10282000A0931D01B0931E0198E090931901A0E4BC
:10283000B2E0BE83AD83212C92E0392E412C512C85
:1028400020E030E440E050E02F83388749875A8702
:1028500060E070E080E091E03DEA3B8723CF813F7C
:1028600009F4BDC0813A09F4BAC0322D36953695C7
:10287000337081E090E0A82F01C0AA0F3A95EAF7E3
:102880003A2FBDCD60921901509100015B87DFCED8
:1028900082E50E94620BCCCB863009F403C18630FE
:1028A00008F0B1C080E090E0A0E0B0E180931B01AF
:1028B00090931C01A0931D01B0931E01BFCE322F37
:1028C000337080E098E002C0880F991F3A95E2F7D4
:1028D000AA2797FDA095BA2F8093090190930A012A
:1028E000A0930B01B0930C01B8E0B0931901322D05
:1028F00036953695337081E090E002C0880F991FBD
:102900003A95E2F780931A0180E090E0A0E0B0E809
:1029100080931B0190931C01A0931D01B0931E0195
:10292000822F807B803209F40FC1813208F097C07A
:10293000882309F084C080E090E0A2E0B0E08093BA
:10294000110190931201A0931301B0931401822FEF
:102950008695869590E0A0E0B0E083709070A070BE
:10296000B07081309105A105B10509F4FAC081303C
:102970009105A105B10508F0AFC080E890E0909303
:10298000060180930501909100019B8760911A01D7
:1029900070E080E090E020911B0130911C0140919B
:1029A0001D0150911E010E94FD15209111013091D1
:1029B000120140911301509114012F8338874987E8
:1029C0005A872090090130900A0140900B015090E5
:1029D0000C01A10140585F4F5E834D8363CE31E00F
:1029E000F0E42F2E0CCD813009F469C080E090E036
:1029F000A0E8B0E080931B0190931C01A0931D01FF
:102A0000B0931E011BCE873089F780E090E0A0E0F4
:102A1000B0E480931B0190931C01A0931D01B0931F
:102A20001E010CCE80E090E0A0E0B2E080931B019C
:102A300090931C01A0931D01B0931E01FFCD803126
:102A400009F04ACD80E090E0A4E0B0E0809311016D
:102A500090931201A0931301B093140178CF8038A2
:102A600009F4BEC0803909F4AEC0803309F034CD1A
:102A700080E090E0ACE0B0E080931101909312010F
:102A8000A0931301B093140162CF80E090E0A0E026
:102A9000B8E080931B0190931C01A0931D01B0939B
:102AA0001E01CCCD80E090E0A0E0B0E280931B015D
:102AB00090931C01A0931D01B0931E01BFCD80E037
:102AC00090E0A0E0B1E080931B0190931C01A093E3
:102AD0001D01B0931E01B2CD82309105A105B10553
:102AE00009F0FACC80EC91E0909306018093050107
:102AF000509100015B8760911A0170E080E090E0E6
:102B000020911B0130911C0140911D0150911E012B
:102B10000E94FD1520911101309112014091130185
:102B2000509114012F83388749875A8720900901D3
:102B300030900A0140900B0150900C01A1014054CB
:102B40005E4F5E834D83AECD80E090E0A8E0B0E0C4
:102B50008093110190931201A0931301B09314017B
:102B6000F6CE80EE90E0909306018093050150919F
:102B700000015B8760911A0170E080E090E0209195
:102B80001B0130911C0140911D0150911E010E94BA
:102B9000FD152091110130911201409113015091C6
:102BA00014012F83388749875A8720900901309074
:102BB0000A0140900B0150900C01A10140525F4F5F
:102BC0005E834D836FCD80E090E0A0E2B0E0809323
:102BD000110190931201A0931301B0931401B7CE89
:102BE00080E090E0A0E1B0E08093110190931201A9
:102BF000A0931301B0931401AACE629FD001739FDA
:102C0000F001829FE00DF11D649FE00DF11D929F88
:102C1000F00D839FF00D749FF00D659FF00D9927C7
:102C2000729FB00DE11DF91F639FB00DE11DF91FEB
:102C3000BD01CF0111240895AA1BBB1B51E107C0A0
:102C4000AA1FBB1FA617B70710F0A61BB70B881F3C
:102C5000991F5A95A9F780959095BC01CD010895CB
:102C6000A1E21A2EAA1BBB1BFD010DC0AA1FBB1F90
:102C7000EE1FFF1FA217B307E407F50720F0A21B02
:102C8000B30BE40BF50B661F771F881F991F1A946F
:102C900069F760957095809590959B01AC01BD0199
:082CA000CF010895F894FFCF65
:102CA800000000000000000000000000000000001C
:102CB80000000000000000000000000000000031DB
:102CC800002F0030002E002C002D002200200021B3
:102CD800002500230024002B0029002A00280026B4
:0A2CE80000270000E10000000008D2
:00000001FF
