:100000000C9402010C9421010C9421010C94210107
:100010000C9421010C9421010C9421010C942101D8
:100020000C9421010C9421010C947E0E0C94B80EBA
:100030000C9421010C9421010C9421010C942101B8
:100040000C9421010C9421010C9421010C942101A8
:100050000C9421010C9421010C9421010C94210198
:100060000C9421010C9421010C9421010C94210188
:100070000C9421010C9421010C9421010C94210178
:100080000C9421010C9421010C9421010C94210168
:100090000C9421010C942101160E130E100E0D0E5E
:1000A0000A0E070E040E010EFE0DFB0DF80DF50DE8
:1000B000F20DEF0DEC0DE90DE60DE30DE00DDD0D9C
:1000C000DA0DD70DD40DD10DCE0DCB0DC80DC50D4C
:1000D000C20DBF0DBC0DB90DB60DB30DB00DAD0DFC
:1000E000AA0DA70DA40DA10D9E0D9B0D980D950DAC
:1000F000920D8F0D8C0D890D860D830D800D7D0D5C
:100100007A0D770D740D710D6E0D6B0D680D650D0B
:10011000620D5F0D5C0D590D560D000100004E0182
:10012000120002000060014300030000A30104016B
:10013000030904A7010E02030904B7013C030309E4
:1001400004F5010C0001C112018036018136120153
:10015000000202000010C0167A040001010203012F
:1001600009024300020100C0FA0904000001020272
:1001700001000524001001052401010104240206E8
:100180000524060001070582031000400904010050
:10019000020A000000070503024000000705840270
:1001A000400000040309040E036A00750064006740
:1001B000006500730000003C034E004F00520077C2
:1001C00000610079002000500053003300200046F9
:1001D000006C00610073006800650072002000552B
:1001E0000053004200200053006500720069006166
:1001F000006C0000000C0331003200330034003585
:100200000000000011241FBECFEFD0E2DEBFCDBF43
:1002100011E0A0E0B1E0E6EFF0E300E00BBF02C0C8
:1002200007900D92A235B107D9F712E1A2E5B1E02E
:1002300001C01D92A034B107E1F70E9403110C9494
:1002400079180C940000FC01A1A5B2A58FEF8C9346
:10025000A1A5B2A59C919F779C93A5A1B6A190EC76
:100260009C93DF01AF5BBF4F0D90BC91A02D8C9391
:10027000A5ADB6AD8C93A7A5B0A98C93A3A5B4A545
:100280008C93A3ADB4AD8C93A7A9B0AD1C92A5A9D6
:10029000B6A98C93A1A9B2A91C9203A0F4A1E02D48
:1002A0008083089511B814B817B81AB81DB810BAD9
:1002B00012B815B818B81BB81EB811BA0895CF9364
:1002C000DF9300D000D0CDB7DEB740E050E060E271
:1002D00070E049835A836B837C8349815A816B81A7
:1002E0007C814115510561057105F9F0DC01979696
:1002F000ED91FC919897808187FF04C01EC080819A
:1003000087FD1BC089819A81AB81BC810197A109BE
:10031000B10989839A83AB83BC8389819A81AB813C
:10032000BC810097A105B10551F780E00F900F90B7
:100330000F900F90DF91CF91089581E00F900F9073
:100340000F900F90DF91CF910895CF93DF9300D05E
:1003500000D0CDB7DEB7FC01A1A5B2A58FEF8C937D
:10036000A1A5B2A59C919F779C93A5A1B6A190EC65
:100370009C93DF01AF5BBF4F0D90BC91A02D8C9380
:10038000A5ADB6AD8C93A7A5B0A98C93A3A5B4A534
:100390008C93A3ADB4AD8C93A7A9B0AD1C92A5A9C5
:1003A000B6A98C93A1A9B2A91C92A3A1B4A18C93C4
:1003B000A78DB0A18C93A1A9B2A98C93A5ADB6AD20
:1003C0001C92A5ADB6AD8C93A1A9B2A91C9280E0F8
:1003D00090E0A0E2B0E089839A83AB83BC838981FB
:1003E0009A81AB81BC810097A105B105E9F007A016
:1003F000F0A5E02D808187FF04C016C0808187FDB5
:1004000013C089819A81AB81BC810197A109B1098F
:1004100089839A83AB83BC8389819A81AB81BC81B8
:100420000097A105B10551F70F900F900F900F9015
:10043000DF91CF9108954F925F926F927F928F924A
:100440009F92AF92BF92CF92DF92EF92FF920F9363
:100450001F93CF93DF93EC01E9A5FAA58FEF80837B
:10046000E9A5FAA590819F779083EDA1FEA190EC7C
:100470009083FE01EF5BFF4F0190F081E02D8083C0
:10048000EDADFEAD8083EFA5F8A98083EBA5FCA5BB
:100490008083EBADFCAD8083EFA9F8AD1082EDA9B0
:1004A000FEA98083E9A9FAA91082EBA1FCA18083AF
:1004B000EF8DF8A190E99083E9A9FAA98083EDADC9
:1004C000FEAD1082EDADFEAD8083E9A9FAA91082E0
:1004D000EFA9F8AD8083EF8DF8A11082EDADFEADF0
:1004E0001082EDADFEAD8083EFA9F8AD1082EBA1D7
:1004F000FCA11082EF8DF8A1909143019083EBA5B0
:10050000FCA510820000E9A1FAA19081EBA5FCA551
:100510008083EBA5FCA510820000E9A1FAA120814F
:10052000EBA5FCA58083EBA5FCA510820000E9A14A
:10053000FAA14081EBA5FCA58083EBA5FCA5108268
:100540000000E9A1FAA13081EBA5FCA58083EBA511
:10055000FCA510820000E9A1FAA10081EBA5FCA591
:100560008083988329834A833B830C839F832887D6
:100570009D3A09F4D3C09C3E09F4C8C0802F8695EB
:1005800086958370E1E0F0E001C0EE0F8A95EAF70E
:10059000A32EBB24C5018370907040E054E002C0DC
:1005A000440F551F8A95E2F7662757FD6095762F11
:1005B00049875A876B877C87950120733070359502
:1005C000279535952795359527953595279580E07D
:1005D00090E0A1E0B0E004C0880F991FAA1FBB1FE4
:1005E0002A95D2F7898B9A8BAB8BBC8BEA8F6A01E9
:1005F0007B0129E0F694E794D794C7942A95D1F724
:10060000C50184709070959587959595879528E09C
:1006100030E002C0220F331F8A95E2F7442737FDEE
:100620004095542FC701B6010E94F516DC01CB019D
:1006300080319105A105B105B9F080349105A1057E
:10064000B10591F080E0DF91CF911F910F91FF9064
:10065000EF90DF90CF90BF90AF909F908F907F9062
:100660006F905F904F9008959E838D8302950770E1
:10067000043009F494C0053008F082C0023009F457
:100680003CC1033008F425C180E090E0A0E0B4E074
:100690008B8F9C8FAD8FBE8FA6FC8AC088E0898F20
:1006A0006B8D7C8D8D8D9E8D89889A88AB88BC885A
:1006B000A50194010E94281769017A012A8D30E072
:1006C00040E050E0C701B6010E94F5166B017C01C5
:1006D00049845A846B847C84C501B401A3019201CE
:1006E0000E94281789019A018D819E81840D951D94
:1006F000CD8ADE8AEF8AF88E0D871E872F87388B8A
:10070000909353018093520181E09DCF213F19F0D6
:10071000213A09F033CFE1E000E43ACF273D09F474
:1007200049C0233709F02ACF80E092E0A0E0B0E092
:1007300089879A87AB87BC8780E090E4A0E0B0E02F
:10074000898B9A8BAB8BBC8B81E08A8F80E190E0A8
:100750009E838D8380E090E0A0E0B1E08B8F9C8F42
:10076000AD8FBE8F88E0898F80E192E000E210E0DB
:1007700020E030E0C12C44E0D42EE12CF12CB8CFA5
:10078000063009F4B1C0063008F08FC080E090E078
:10079000A0E0B0E18B8F9C8FAD8FBE8F7DCF80E0CE
:1007A00090E0A0E0B8E08B8F9C8FAD8FBE8F74CFB0
:1007B00080E175CF232F237080E098E002C0880F7E
:1007C000991F2A95E2F7AA2797FDA095BA2F898746
:1007D0009A87AB87BC8788E0898F0695069503705A
:1007E00081E090E002C0880F991F0A95E2F78A8F96
:1007F00080E090E0A0E0B0E88B8F9C8FAD8FBE8F43
:10080000832F807B803209F4FDC0813208F07EC0E6
:10081000882309F0EBC080E090E0A2E0B0E0898B93
:100820009A8BAB8BBC8B36953695832F90E0A0E0EE
:10083000B0E083709070A070B07081309105A10518
:10084000B10509F4A7C081309105A105B10508F0F3
:100850006FC080E890E09E838D836B8D7C8D8D8D45
:100860009E8D49885A886B887C88A30192010E94DA
:10087000281769017A012A8D30E040E050E0C70175
:10088000B6010E94F5166B017C0189849A84AB84C1
:10089000BC84C301B201A50194010E9428178901FB
:1008A0009A01C40180589F4F23CF073049F080E060
:1008B00090E0A0E8B0E08B8F9C8FAD8FBE8FECCE28
:1008C00080E090E0A0E0B0E48B8F9C8FAD8FBE8F76
:1008D000E3CE013061F780E090E0A0E0B1E08B8FE3
:1008E0009C8FAD8FBE8FD8CE80E090E0A0E0B0E2CC
:1008F0008B8F9C8FAD8FBE8FCFCE80E090E0A0E03D
:10090000B2E08B8F9C8FAD8FBE8FC6CE803809F43E
:100910008BC0803909F47FC0803309F093CE80E02A
:1009200090E0ACE0B0E0898B9A8BAB8BBC8B7BCF3B
:1009300082309105A105B10509F084CE80EC91E0EB
:100940009E838D836B8D7C8D8D8D9E8D49885A887D
:100950006B887C88A30192010E94281769017A01A3
:100960002A8D30E040E050E0C701B6010E94F51644
:100970006B017C0189849A84AB84BC84C301B2017D
:10098000A50194010E94281789019A01C40180548D
:100990009E4FAECE80EE90E09E838D836B8D7C8DDE
:1009A0008D8D9E8D49885A886B887C88A301920121
:1009B0000E94281769017A012A8D30E040E050E05A
:1009C000C701B6010E94F5166B017C0189849A84E7
:1009D000AB84BC84C301B201A50194010E94281715
:1009E00089019A01C40180529F4F82CE803109F063
:1009F00029CE80E090E0A4E0B0E0898B9A8BAB8BAD
:100A0000BC8B11CF80E090E0A8E0B0E0898B9A8B9E
:100A1000AB8BBC8B08CF80E090E0A0E2B0E0898B8C
:100A20009A8BAB8BBC8BFFCE80E090E0A0E1B0E076
:100A3000898B9A8BAB8BBC8BF6CEDF92EF92FF92B9
:100A40000F931F93CF93DF9300D000D0CDB7DEB7C5
:100A50007C01DC019996ED91FC919A978FEF808350
:100A60009996ED91FC919A9790819F7790839596B6
:100A7000ED91FC91969790EC9083F701EF5BFF4F1F
:100A80000190F081E02D8083DD96ED91FC91DE9761
:100A900080839F96ED91FC91D09780839B96ED91FA
:100AA000FC919C978083DB96ED91FC91DC97808391
:100AB000D796ED91FC91D8971082D596ED91FC9147
:100AC000D6978083D196ED91FC91D2971082939620
:100AD000ED91FC91949780835F96ED91FC919097B6
:100AE0001082D196ED91FC91D2978083DD96ED91A5
:100AF000FC91DE971082DD96ED91FC91DE9780836C
:100B0000D196ED91FC91D2971082D796ED91FC9100
:100B1000D897808317969C9117979D3A09F428C11E
:100B2000D7015F96ED91FC9190971082DD96ED9143
:100B3000FC91DE971082DD96ED91FC91DE978FEFB0
:100B400080835F96ED91FC9190971082DD96ED91F8
:100B5000FC91DE971082DD96ED91FC91DE9780830B
:100B60005F96ED91FC919097909159019083DD965D
:100B7000ED91FC91DE971082DD96ED91FC91DE9770
:100B800080835F96ED91FC91909790915A019083AC
:100B9000DD96ED91FC91DE971082DD96ED91FC9152
:100BA000DE9780835F96ED91FC91909790915B0129
:100BB0009083DD96ED91FC91DE971082DD96ED91AC
:100BC000FC91DE978083D701D796ED91FC91D89761
:100BD000108217968C9117978D3A09F4F6C0D701B9
:100BE0005F96ED91FC91909780E38083D701D19639
:100BF000ED91FC91D2978FEF8083DD96ED91FC9182
:100C0000DE971082DD96ED91FC91DE978083D19680
:100C1000ED91FC91D29710829396ED91FC9194976F
:100C200010825F96ED91FC919097809143018083B3
:100C3000DFB6F89480E090E0A0E2B0E089839A8388
:100C4000AB83BC8389819A81AB81BC810097A1056C
:100C5000B105F9F0D7019796ED91FC9198978081B5
:100C600087FF04C016C0808187FD13C089819A81E7
:100C7000AB81BC810197A109B10989839A83AB83B8
:100C8000BC8389819A81AB81BC810097A105B105A4
:100C900051F7E0915201F0915301B0E1E03EFB07C2
:100CA000A0F100E01FEFECE5F1E0D7019B968D91FC
:100CB0009C919C97DC011C920000D70191968D912C
:100CC0009C919297DC018C918193D7019B968D9199
:100CD0009C919C97DC011C93B2E1EC33FB0729F754
:100CE0008CE591E060EE70E10E94FB0C0F5FE091FB
:100CF0005201F0915301202F30E0CF0160EE70E1FE
:100D00000E9414172617370770F2CF0160EE70E1CA
:100D10000E941417BC010097C9F0ACE5B1E08A0F3E
:100D20009B1F2FEFF70143A554A5FA011082000085
:100D3000F70141A152A1FA0130813D93F70143A58A
:100D400054A5FA012083A817B90761F78CE591E053
:100D50000E94FB0CDFBE81E00F900F900F900F9070
:100D6000DF91CF911F910F91FF90EF90DF90089549
:100D700018969C911897933709F0D2CE5F96ED9113
:100D8000FC9190971082DD96ED91FC91DE97108298
:100D9000DD96ED91FC91DE9780835F96ED91FC915D
:100DA0009097909159019083DD96ED91FC91DE979B
:100DB0001082DD96ED91FC91DE9780835F96ED9138
:100DC000FC91909790915A01F3CE18968C911897B8
:100DD000833709F004CF000009CFFC01A78DB0A133
:100DE00080E78C93A1A9B2A99FEF9C93A5ADB6AD66
:100DF0001C92A5ADB6AD9C93A1A9B2A91C92A3A1CA
:100E0000B4A11C92A78DB0A1809143018C93A3A59E
:100E1000B4A51C920000A1A1B2A18C91A3A5B4A578
:100E20009C9303A0F4A1E02D90830895FF920F936B
:100E30001F93CF93DF938C01DC019996ED91FC9188
:100E40009A978FEF80839996ED91FC919A97908174
:100E50009F7790839596ED91FC91969790EC908377
:100E6000F801EF5BFF4F0190F081E02D8083DD966C
:100E7000ED91FC91DE9780839F96ED91FC91D09748
:100E800080839B96ED91FC919C978083DB96ED91FE
:100E9000FC91DC978083D796ED91FC91D8971082D6
:100EA000D596ED91FC91D6978083D196ED91FC91EA
:100EB000D29710829396ED91FC91949780835F96E0
:100EC000ED91FC91909790E89083D196ED91FC91F3
:100ED000D2978083DD96ED91FC91DE971082DD96AE
:100EE000ED91FC91DE978083D196ED91FC91D297A4
:100EF0001082D796ED91FC91D897808317969C919C
:100F000017979D3A09F437C1D8015F96ED91FC918E
:100F100090971082DD96ED91FC91DE971082DD9620
:100F2000ED91FC91DE978FEF80835F96ED91FC91C0
:100F300090971082DD96ED91FC91DE971082DD9600
:100F4000ED91FC91DE9780835F96ED91FC919097F7
:100F5000909159019083DD96ED91FC91DE9710827E
:100F6000DD96ED91FC91DE9780835F96ED91FC918B
:100F7000909790915A019083DD96ED91FC91DE97C8
:100F80001082DD96ED91FC91DE9780835F96ED9166
:100F9000FC91909790915B019083DD96ED91FC918F
:100FA000DE971082DD96ED91FC91DE978083D8016B
:100FB000D796ED91FC91D897108280915201909133
:100FC0005301C0E0D0E0009709F1FF24FA9418C063
:100FD000D8015F96ED91FC9190978083DD96ED911D
:100FE000FC91DE971082DD96ED91FC91DE97F08208
:100FF00021968091520190915301C817D90730F47E
:101000000E942D0CBFEF8F3F9B0711F7D8015F9611
:10101000ED91FC91909780E18083D196ED91FC91C8
:10102000D2978FEF8083DD96ED91FC91DE97108251
:10103000DD96ED91FC91DE978083D196ED91FC9148
:10104000D29710828091520190915301C817D9070D
:1010500008F4BEC029E090E78FEF322F3A9501F0F7
:10106000E9F7C895D8015F96ED91FC919097908330
:10107000D196ED91FC91D2973FEF8083DD96ED9173
:10108000FC91DE971082DD96ED91FC91DE978083D6
:10109000D196ED91FC91D29710829396ED91FC91AF
:1010A000949710825F96ED91FC9190974091430147
:1010B00040839B96ED91FC919C9710820000919645
:1010C000ED91FC91929740819B96ED91FC919C97BC
:1010D00080839396ED91FC919497808346FFBDCFDA
:1010E0005F96ED91FC91909780E78083D196ED918A
:1010F000FC91D2973083DD96ED91FC91DE971082C2
:10110000DD96ED91FC91DE973083D196ED91FC91C7
:10111000D29710829396ED91FC91949710825F96EE
:10112000ED91FC9190978091430180839B96ED9186
:10113000FC919C97108200009196ED91FC91929702
:1011400090819B96ED91FC919C9730839396ED91C5
:10115000FC919497308381E090FD06C0DF91CF91A0
:101160001F910F91FF90089580E0DF91CF911F9123
:101170000F91FF90089518969C911897933709F056
:10118000C3CE5F96ED91FC9190971082DD96ED9124
:10119000FC91DE971082DD96ED91FC91DE978083C5
:1011A0005F96ED91FC919097909159019083DD9617
:1011B000ED91FC91DE971082DD96ED91FC91DE972A
:1011C00080835F96ED91FC91909790915A01E4CEC7
:1011D0008FEFC4CFFC01A1A5B2A58FEF8C93A1A581
:1011E000B2A59C919F779C93A5A1B6A190EC9C93EE
:1011F000DF01AF5BBF4F0D90BC91A02D8C93A5ADCF
:10120000B6AD8C93A7A5B0A98C93A3A5B4A58C93D8
:10121000A3ADB4AD8C93A7A9B0AD1C92A5A9B6A9F6
:101220008C93A1A9B2A91C92A3A1B4A18C93A78D60
:10123000B0A190E69C93A1A9B2A98C93A5ADB6AD3F
:101240001C92A5ADB6AD8C93A1A9B2A91C92A7A979
:10125000B0AD8C9397819D3A09F4B6C0A78DB0A12B
:10126000809159018C93A5ADB6AD1C92A5ADB6ADDC
:101270008FEF8C93A78DB0A190915A019C93A5AD4F
:10128000B6AD1C92A5ADB6AD8C93A78DB0A19091D3
:101290005B019C93A5ADB6AD1C92A5ADB6AD8C938C
:1012A000A7A9B0AD1C92A78DB0A180ED8C93A1A988
:1012B000B2A98FEF8C93A5ADB6AD1C92A5ADB6AD1E
:1012C0008C93A1A9B2A91C92A78DB0A190E79C9381
:1012D000A1A9B2A98C93A5ADB6AD1C92A5ADB6AD32
:1012E0008C93A1A9B2A91C92A3A1B4A11C92A78D11
:1012F000B0A1909143019C93A3A5B4A51C920000BA
:10130000A1A1B2A19C91A3A5B4A58C93A3A1B4A1C2
:101310008C9397FF6DC027E290E7322F3A9501F04A
:10132000E9F7C895A78DB0A19C93A1A9B2A93FEFF9
:101330008C93A5ADB6AD1C92A5ADB6AD8C93A1A90D
:10134000B2A91C92A3A1B4A11C92A78DB0A14091F7
:1013500043014C93A3A5B4A51C920000A1A1B2A186
:101360004C91A3A5B4A58C93A3A1B4A18C9346FFE3
:10137000D4CFA78DB0A180E78C93A1A9B2A93C934B
:10138000A5ADB6AD1C92A5ADB6AD3C93A1A9B2A9D1
:101390001C92A3A1B4A11C92A78DB0A1809143017E
:1013A0008C93A3A5B4A51C920000A1A1B2A19C910D
:1013B000A3A5B4A53C9303A0F4A1E02D308381E064
:1013C00090FF089580E008959085933709F046CF07
:1013D000A78DB0A1909159019C93A5ADB6AD1C927B
:1013E000A5ADB6AD8C93A78DB0A190915A0151CF08
:1013F0008FEF0895CF93DF93EC010E942D0C2FEF18
:101400008F3F9207D9F0809359010E942D0C2FEF46
:101410008F3F920799F080935A010E942D0C2FEF75
:101420008F3F920759F080935B018BE40E94870CF9
:10143000CE010E941D05DF91CF91089582E50E94A3
:10144000870CDF91CF910895CF93DF93EC010E9439
:101450002D0C2FEF8F3F920729F1809359010E94A5
:101460002D0C2FEF8F3F9207E9F080935A010E94D5
:101470002D0C2FEF8F3F9207A9F080935B01CE01D7
:101480000E941607181644F0882361F486E50E942E
:10149000870CDF91CF9108958BE40E94870CDF9138
:1014A000CF91089582E50E94870CDF91CF91089536
:1014B000CF93DF93EC010E942D0C2FEF8F3F92070B
:1014C00049F1809359010E942D0C2FEF8F3F920715
:1014D00009F180935A010E942D0C2FEF8F3F920744
:1014E000C9F080935B01CE010E94EA08181644F00F
:1014F000882361F486E50E94870CDF91CF910895DF
:101500008BE40E94870CDF91CF91089580E50E94C3
:10151000870CF3CF82E50E94870CDF91CF9108956D
:101520000F931F93CF93DF9300D000D0CDB7DEB7DA
:101530008C01DC019996ED91FC919A978FEF808355
:101540009996ED91FC919A9790819F7790839596CB
:10155000ED91FC91969790EC9083F801EF5BFF4F33
:101560000190F081E02D8083DD96ED91FC91DE9776
:1015700080839F96ED91FC91D09780839B96ED910F
:10158000FC919C978083DB96ED91FC91DC978083A6
:10159000D796ED91FC91D8971082D596ED91FC915C
:1015A000D6978083D196ED91FC91D2971082939635
:1015B000ED91FC91949780835F96ED91FC919097CB
:1015C0008083D196ED91FC91D2978083DD96ED9149
:1015D000FC91DE971082DD96ED91FC91DE97808381
:1015E000D196ED91FC91D297108280E090E0A0E23C
:1015F000B0E089839A83AB83BC8389819A81AB8174
:10160000BC810097A105B105F9F0D8019796ED913D
:10161000FC919897808187FF04C016C0808187FD68
:1016200013C089819A81AB81BC810197A109B1095D
:1016300089839A83AB83BC8389819A81AB81BC8186
:101640000097A105B10551F7C8010E941B0288232C
:1016500029F5D8018C910E94870CF80181810E94A4
:10166000870CD80112968C910E94870CF801838117
:101670000E94870CD80114968C910E94870C04E17B
:1016800080E00E94870C0150D9F70F900F900F90C7
:101690000F90DF91CF911F910F910895F8018081F4
:1016A0000E94870CD80111968C910E94870CF8013A
:1016B00082810E94870CD80113968C910E94870C1E
:1016C000F80184810E94870CD8011C968C910E949D
:1016D000870CF80183850E94870CD8011A968C919B
:1016E0000E94870CF80181850E94870CD80116960C
:1016F0008C910E94870CF80185810E94870CD8018B
:1017000059968C910E94870CF80184890E94870C5D
:10171000D80153968C910E94870CF80182890E940F
:10172000870CD80151968C910E94870CF801808D0E
:101730000E94870CD80157968C910E94870CF80163
:1017400086890E94870CD80155968C910E94870C3F
:10175000F801828D0E94870CD8015E968C910E94C0
:10176000870CF801858D0E94870CD8015C968C91BE
:101770000E94870CF801838D0E94870C86CFF89415
:1017800081E08093E00080E28093D800E9ECF0E013
:1017900010828FE493ECA0E0B0E00197A109B109B9
:1017A000000001F0D1F7C89500001DBA1092680042
:1017B0001CBC10BE1FBA10927A0010926E001092DC
:1017C0006F00109270001092710010821092BC0095
:1017D00011B814B817B81AB81DB810BA12B815B89D
:1017E00018B81BB81EB811BA0C9400FE0895CF9318
:1017F000DF9300D0CDB7DEB780913C1290913D12BF
:10180000009761F09E012F5F3F4FA901481B590BC4
:10181000CA010F900F90DF91CF91089580E492E17B
:10182000F1CF81E88093D70080EA8093D80086E1E9
:1018300089BD09B400FEFDCF80E98093D8001092E5
:10184000E00010925501109256018CE08093E20066
:10185000789408958091550108953FB7F894809148
:1018600055018823F9F083E08093E9008091E80036
:1018700085FD0CC082FF16C09BE602C082FF12C02D
:101880009093E8008091E80085FFF8CF8091F10007
:101890009091E80095FD03C09BE69093E8003FBF60
:1018A00090E008953FBF8FEF9FEF08959FB7F894A2
:1018B00080915501882391F083E08093E900809125
:1018C000F200882349F42091E80022FF05C025FD9D
:1018D00003C02BE62093E8009FBF089580E09FBFE0
:1018E000089580915501882389F02FB7F89483E0FB
:1018F0008093E9008091E80085FF07C09BE6909304
:10190000E8008091E80085FDFACF2FBF08959091FF
:101910005501992309F449C09FB7F89424E0209316
:10192000E90020915701222391F53091E4002091A4
:10193000E80025FD1DC0305F9FBF9091E400931724
:1019400069F190915501992381F144E009C09FBF4D
:101950009091E400931711F190915501992319F199
:101960009FB7F8944093E9002091E80025FFEFCF5E
:101970008093F1008091E80085FD03C08AE38093A5
:10198000E80085E0809354019FBF80E00895209196
:10199000E80025FF0CC010925701C7CF81E080936B
:1019A00057018FEF08958FEF08958FEF08959FBF30
:1019B0008FEF0895909155019923C1F02FB7F894B6
:1019C00094E09093E9009091E80095FF11C0809316
:1019D000F1008091E80085FD03C08AE38093E80070
:1019E00085E0809354012FBF80E008958FEF089524
:1019F0002FBF8FEF0895CF93DC018091550188238D
:101A000081F12FB7F89484E08093E9008091570129
:101A1000882351F56115710509F415C134E050E4CE
:101A2000CAE345E09091E4008091E80085FD23C081
:101A3000905F2FBF8091E400891779F406C12FB71A
:101A4000F8943093E9008091E80085FD14C02FBF21
:101A50008091E400891709F4F8C08091550188232A
:101A600071F78FEFCF9108958091E80085FFF3C063
:101A700010925701CFCF8091F200E52FE81B8E2FF7
:101A800090E06817790718F4E62F862F90E0681B1E
:101A9000790BF0E0E134F10508F0C5C0E45BFF4FDD
:101AA000EE0FFF1F0590F491E02D09948D91809326
:101AB000F1008D918093F1008D918093F1008D91D3
:101AC0008093F1008D918093F1008D918093F100CE
:101AD0008D918093F1008D918093F1008D91809391
:101AE000F1008D918093F1008D918093F1008D91A3
:101AF0008093F1008D918093F1008D918093F1009E
:101B00008D918093F1008D918093F1008D91809360
:101B1000F1008D918093F1008D918093F1008D9172
:101B20008093F1008D918093F1008D918093F1006D
:101B30008D918093F1008D918093F1008D91809330
:101B4000F1008D918093F1008D918093F1008D9142
:101B50008093F1008D918093F1008D918093F1003D
:101B60008D918093F1008D918093F1008D91809300
:101B7000F1008D918093F1008D918093F1008D9112
:101B80008093F1008D918093F1008D918093F1000D
:101B90008D918093F1008D918093F1008D918093D0
:101BA000F1008D918093F1008D918093F1008D91E2
:101BB0008093F1008D918093F1008D918093F100DD
:101BC0008D918093F1008D918093F1008D918093A0
:101BD000F1008D918093F1008D918093F1008D91B2
:101BE0008093F1008D918093F1008D918093F100AD
:101BF0008D918093F1008D918093F1008D91809370
:101C0000F1008D918093F1008D918093F1008D9181
:101C10008093F1008D918093F1008D918093F1007C
:101C20008D918093F1008D918093F1008091E80077
:101C300085FD02C0C093E800409354012FBF611599
:101C4000710509F0EFCE80E00DCF81E08093570160
:101C50008FEFCF9108952FBF8FEF04CF8FB7F894F8
:101C600090915401992341F094E09093E9009AE314
:101C70009093E800109254018FBF08956091440141
:101C8000709145018091460190914701089580919E
:101C90004801089580914901089580914A0108956D
:101CA0008091560108952FB7F8949091550199238A
:101CB00011F192E09093E9009091E80095FF1BC02C
:101CC00091EA9093F10090E29093F1001092F1006C
:101CD0001092F1001092F1001092F10091E09093B7
:101CE000F1001092F1008093F1008AE38093E80004
:101CF0002FBF80E008952FBF8FEF08951F920F929E
:101D00000FB60F9211248F939F938091E100109250
:101D1000E10083FF11C01092E90091E09093EB0085
:101D20001092EC0092E19093ED0098E09093F00017
:101D3000109255011092560182FF13C080915501F7
:101D4000882379F080915401882359F08150809341
:101D50005401882331F484E08093E9008AE380937E
:101D6000E8009F918F910F900FBE0F901F901895D4
:101D70001F920F920FB60F920BB60F9211240F9372
:101D80001F932F933F934F935F936F937F938F9303
:101D90009F93AF93BF93CF93EF93FF931092E9007C
:101DA0008091E80083FF71C0E091F1006091F10043
:101DB0002091F10030E04091F100942F80E0282B39
:101DC000392B4091F10050E07091F100972F80E0A5
:101DD000482B592BA091F100C091F10082EF809324
:101DE000E8006630E1F0653009F4E7C0693009F4D5
:101DF00065C0683009F4ECC0613209F4F8C06032A3
:101E000009F41CC1623209F0C5C0E13209F03DC0DD
:101E1000209356018091E80080FFFCCFCAC06AE1A0
:101E200071E0FB01859194912817390709F4A5C148
:101E3000695F7F4FFB01859194912817390709F459
:101E4000A5C168E271E0FB018591949128173907DB
:101E500009F4A9C16FE271E0FB0185919491281703
:101E6000390709F4ADC166E371E0FB0185919491F6
:101E70002817390709F4BBC1695F7F4FFB018591C2
:101E800094912817390709F403C181E28093EB008C
:101E9000FF91EF91CF91BF91AF919F918F917F91E2
:101EA0006F915F914F913F912F911F910F910F90E3
:101EB0000BBE0F900FBE0F901F901895EE2329F7C1
:101EC0002093550110925601109254018EEF809389
:101ED000E80081E08093E90024E431E0F901849195
:101EE0008093EB00882309F48BC13196E491E09351
:101EF000EC00F9013296E491E093ED002D5F3F4F45
:101F000082E08093E900C9010196F9014491409370
:101F1000EB00442361F0FC0184918093EC00C90143
:101F200003962E5F3F4FF90124912093ED0023E0AB
:101F30002093E9009C012F5F3F4FFC0144914093A7
:101F4000EB00442361F0F90124912093EC009C0103
:101F50002D5F3F4F0296FC0184918093ED0084E059
:101F60008093E900C9010196F90144914093EB0087
:101F7000442351F0FC0184918093EC002E5F3F4F8D
:101F8000F90124912093ED008EE18093EA001092F4
:101F9000EA007ECF662309F0C6C08091E80080FF8A
:101FA000FCCFE23809F419C180E08093F10010926F
:101FB000F1008EEF8093E8006BCF8EEF8093E80006
:101FC0008091E80080FFFCCF20682093E30060CF81
:101FD000E03809F05ACF8091E80080FFFCCF809173
:101FE00055018093F1008EEF8093E80051CFE13AE4
:101FF00009F04BCF8091E80080FFFCCF8091440135
:102000008093F100809145018093F1008091460119
:102010008093F100809147018093F1008091480105
:102020008093F100809149018093F10080914A01F1
:102030008093F1008EEF8093E8002ACFE13209F01F
:1020400024CF8091E80082FFFCCF8091F100809343
:1020500044018091F100809345018091F1008093CB
:1020600046018091F100809347018091F1008093B7
:1020700048018091F100809349018091F1008093A3
:102080004A018BEF8093E8008EEF8093E80000CF49
:10209000FB013296859194914817590709F0F5CEC6
:1020A000FB01349625913491C9016A5F7F4FFB0192
:1020B0006491B0E03C2F20E0A22BB32BAF3FB105E1
:1020C00019F010F0AFEFB0E0A61708F46A2F7EEF1A
:1020D0002091E80030E0A90145705070411551058C
:1020E000B9F322FDD5CE562F6131D0F050E19C01DD
:1020F000452FF9012F5F3F4FE491E093F1004150EC
:10210000C1F7252F215030E02F5F3F4F820F931FE3
:10211000651B7093E8006623D9F65031C9F2B8CE3A
:10212000662329F7F5CF613021F5E23009F0ADCE15
:102130002115310509F0A9CE4F77842F81508430C5
:1021400008F0A3CE8EEF8093E8004093E90063305F
:1021500009F49BCE89E18093EB0081E090E002C01E
:10216000880F991F4A95E2F78093EA001092EA00DF
:102170008FCE633009F089CED8CFFB01329685919E
:1021800094914817590709F053CE8ACF03E211E022
:10219000F801859194914817590709F481CFB80146
:1021A0006B5F7F4F50CE0AE211E0F8018591949168
:1021B0004817590709F474CFB8016B5F7F4F4CCEB5
:1021C00001E311E0F801859194914817590709F44A
:1021D00067CFB8016B5F7F4F48CE4093E900909185
:1021E000EB0081E095FF80E01092E900DECEFB017C
:1021F0003296859194914817590709F03DCE50CFFA
:102200002F5F3F4F7DCECF93DF93CDB7DEB72C97B7
:102210000FB6F894DEBF0FBECDBF80E8809361009B
:1022200091E09093610091E895BF85BF0E945201B3
:102230000E94110C0E942A0C8823E1F38FE392E4A0
:10224000AFE0B0E00197A109B109000001F0D1F7BA
:10225000C89500009E012F5F3F4F38872F83FF24D2
:10226000FA940E94710C78E0272E312CE8E0EE2ED3
:102270000E942A0C8823A9F30E942D0C3FEF8F3F68
:102280009307B1F38630910509F47DC0873091053D
:102290001CF58230910509F473C0833091050CF070
:1022A00065C0009709F473C08130910509F78091EA
:1022B0003C1290913D12009709F404C40F811885D7
:1022C000081B190B80E40E94870C812F0E94870C49
:1022D000802F0E94870CCCCF8930910509F450C221
:1022E0008A309105BCF58730910509F454C08830D7
:1022F000910509F0BDCF0E942D0C4FEF8F3F940741
:1023000009F4C9C3809359010E942D0C5FEF8F3FE0
:10231000950709F4C0C380935A010E942D0CAFEFBA
:102320008F3F9A0709F4B7C380935B018BE40E9447
:10233000870C80E091E00E941D0511B814B817B811
:102340001AB81DB810BA12B815B818B81BB81EB80C
:1023500011BA8ECF8A30910509F43BC28B309105BA
:1023600009F086CF8EE40E94870C82CF84309105DD
:1023700021F38530910509F07BCF1092430178CF8E
:102380000E94BF0B75CFBFEFB093430171CF80E0C8
:102390000E94870C6DCF89E50E94870CE09129018E
:1023A000F0912A01F082E0912901F0912A018081C7
:1023B0008F778083E0912501F091260160EC862ED5
:1023C0008082E0914101F0914201F082E0913D0173
:1023D000F0913E01F082E0912F01F0913001F08206
:1023E000E0912B01F0912C01F082E0913B01F09102
:1023F0003C01F082E0913701F09138011082E091C8
:102400003501F0913601F082E0913101F091320115
:102410001082E0912301F0912401F082E0911F01EC
:10242000F0912001F082E0913101F0913201F082CF
:10243000E0913D01F0913E011082E0913D01F0916B
:102440003E01F082E0913101F0913201108220E0F2
:1024500030E040E250E02B833C834D835E838B81F0
:102460009C81AD81BE810097A105B105F1F0E0919D
:102470002701F0912801808187FF04C016C0808168
:1024800087FD13C08B819C81AD81BE810197A1091D
:10249000B1098B839C83AD83BE838B819C81AD818D
:1024A000BE810097A105B10551F7E0912901F09196
:1024B0002A01F082E0912901F0912A0180818F7731
:1024C0008083E0912501F091260130EC3083E0918A
:1024D0004101F0914201F082E0913D01F0913E0115
:1024E000F082E0912F01F0913001F082E0912B0118
:1024F000F0912C01F082E0913B01F0913C01F082DF
:10250000E0913701F09138011082E0913501F091AE
:102510003601F082E0913101F09132011082E091B8
:102520002301F0912401F082E0911F01F09120013C
:1025300040E94083E0913101F0913201F082E09175
:102540003D01F0913E011082E0913D01F0913E018C
:10255000F082E0913101F09132011082E091370177
:10256000F0913801F082E0911F01F091200110827A
:10257000E0913D01F0913E011082E0913D01F0912A
:102580003E01F082E0913701F09138011082E09134
:102590002301F09124011082E0911F01F0912001AC
:1025A000809143018083E0912B01F0912C011082F6
:1025B0000000E0912101F09122011081E0912B01B6
:1025C000F0912C01F082E0912B01F0912C0110820E
:1025D0000000E0912101F09122019081E0912B0116
:1025E000F0912C01F082E0912B01F0912C011082EE
:1025F0000000E0912101F09122012081E0912B0166
:10260000F0912C01F082E0912B01F0912C011082CD
:102610000000E0912101F09122018081E0912B01E5
:10262000F0912C01F082E0912B01F0912C011082AD
:102630000000E0912101F09122010081E0912B0145
:10264000F0912C01F08210930001909301012093EE
:1026500002018093030100930401109307019093FA
:1026600008011D3A09F4B9C11C3E09F407C2902FB4
:1026700096959695937021E030E001C0220F9A95CF
:10268000EAF7C82EDD24A6014370507080E094E084
:1026900002C0880F991F4A95E2F7AC01662757FDE3
:1026A0006095762F4093090150930A0160930B01C6
:1026B00070930C01C60180739070959587959595E0
:1026C00087959595879595958795812C912CF1E027
:1026D000AF2EB12C04C0880C991CAA1CBB1C8A9577
:1026E000D2F78092110190921201A0921301B09240
:1026F000140120931A01CB01BA0129E09695879520
:10270000779567952A95D1F79601247030703595A5
:10271000279535952795510102C0AA0CBB1C2A9517
:10272000E2F79501442737FD4095542F0E94F51696
:10273000DC01CB0180319105A105B10509F471C01F
:1027400080349105A105B10509F46BC0812F0E9469
:10275000870C809101010E94870C809102010E94E8
:10276000870C809103010E94870C809104010E94D4
:10277000870C14E180E00E94870C1150D9F7DDCD61
:102780000E942D0CBFEF8F3F9B0709F484C18093FB
:1027900059010E942D0C2FEF8F3F920709F47BC146
:1027A00080935A010E942D0C3FEF8F3F930709F44D
:1027B00072C180935B0180E091E00E9416071816B9
:1027C0000CF407C1882309F066C186E50E94870CD6
:1027D000B4CD0E942D0C4FEF8F3F940709F45BC1DD
:1027E000809359010E942D0C5FEF8F3F950709F4EC
:1027F00052C180935A010E942D0CAFEF8F3F9A0770
:1028000009F449C180935B0180E091E00E94EA08ED
:1028100018160CF4DEC08823C1F280E50E94870CF4
:102820008CCD9093060180930501029507700430CA
:1028300009F4F4C1053008F032C1023009F4FBC1DB
:10284000033008F4CCC180E090E0A0E0B4E08093D5
:102850001B0190931C01A0931D01B0931E01C6FCA7
:1028600015C1E09219011091000180911A01882E82
:102870009924AA24BB2489869A86AB86BC8660915B
:102880001B0170911C0180911D0190911E0180908F
:10289000110190901201A0901301B090140140908A
:1028A000090150900A0160900B0170900C01C090DA
:1028B0000501D0900601C40CD51CA50194010E940D
:1028C0002817CA01B90129853A854B855C850E9484
:1028D000F516DC01CB018093150190931601A093AE
:1028E0001701B0931801C501B401A30192010E9420
:1028F000281720930D0130930E0140930F01509340
:102900001001D0925301C0925201812F0E94870C76
:10291000809101010E94870C809102010E94870C26
:10292000809103010E94870C809104010E94870C12
:1029300080910C010E94870C80910B010E94870CF2
:1029400080910A010E94870C809109010E94870CE6
:10295000809106010E94870C809105010E94870CDE
:10296000809119010E94870C809114010E94870CAC
:10297000809113010E94870C809112010E94870CA4
:10298000809111010E94870C809118010E94870C90
:10299000809117010E94870C809116010E94870C7C
:1029A000809115010E94870C80911A010E94870C6A
:1029B00080911E010E94870C80911D010E94870C4E
:1029C00080911C010E94870C80911B010E94870C42
:1029D000B4CC8BE40E94870CB0CC973D09F475C051
:1029E000933709F044CE80E092E0A0E0B0E080931D
:1029F000090190930A01A0930B01B0930C0180E0B0
:102A000090E4A0E0B0E08093110190931201A093B4
:102A10001301B093140181E080931A0180E190E0EA
:102A2000909306018093050180E090E0A0E0B1E082
:102A300080931B0190931C01A0931D01B0931E0174
:102A4000E0921901F0E1CF2EF2E0DF2E412C12E0EE
:102A5000512E612C712C812C00E4902EA12CB12CD4
:102A600060E070E080E091E021E030E040E050E0A4
:102A700029873A874B875C871DEA1FCF913F19F062
:102A8000913A09F0F4CD21E000E4FBCD50E1952E20
:102A900090921901E8CE82E50E94870C4ECC063058
:102AA00009F4D6C0063008F0AAC080E090E0A0E0AB
:102AB000B0E180931B0190931C01A0931D01B09382
:102AC0001E01CDCE80E492E1F9CB982F937040E0C7
:102AD00058E002C0440F551F9A95E2F7662757FD4C
:102AE0006095762F4093090150930A0160930B0182
:102AF00070930C01E092190106950695037021E090
:102B000030E002C0220F331F0A95E2F720931A012A
:102B100040E050E060E070E840931B0150931C01DE
:102B200060931D0170931E01982F907B903209F4E1
:102B300034C1913208F0A6C0992309F01EC140E0CB
:102B400050E062E070E040931101509312016093F5
:102B50001301709314018695869590E0A0E0B0E093
:102B600083709070A070B07081309105A105B1059F
:102B700009F4D4C081309105A105B10508F098C0D1
:102B800080E890E0909306018093050180911A01FE
:102B9000882E9924AA24BB2489869A86AB86BC8673
:102BA00060911B0170911C0180911D0190911E018B
:102BB0008090110190901201A0901301B090140127
:102BC0004090090150900A0160900B0170900C0137
:102BD00040E8C42ED12CC40CD51C1DEA6ECE0130A9
:102BE00009F443C080E090E0A0E8B0E080931B01CE
:102BF00090931C01A0931D01B0931E0130CE0730AD
:102C000089F780E090E0A0E0B0E480931B0190930E
:102C10001C01A0931D01B0931E0121CE20E030E0E5
:102C200040E058E020931B0130931C0140931D01AC
:102C300050931E0114CE80E090E0A0E0B2E08093BB
:102C40001B0190931C01A0931D01B0931E0107CEA0
:102C500080E090E0A0E0B0E280931B0190931C0123
:102C6000A0931D01B0931E01FACD80E090E0A0E09A
:102C7000B1E080931B0190931C01A0931D01B093C0
:102C80001E01EDCD903809F4A3C0903909F492C02B
:102C9000903309F05BCD40E050E06CE070E0409391
:102CA000110150931201609313017093140153CFDB
:102CB00082309105A105B10509F048CD80EC91E085
:102CC000909306018093050180911A01882E992422
:102CD000AA24BB2489869A86AB86BC8660911B0198
:102CE00070911C0180911D0190911E018090110135
:102CF00090901201A0901301B0901401409009012E
:102D000050900A0160900B0170900C0120ECC22ED3
:102D100021E0D22EC40CD51C1DEACFCD80EE90E070
:102D2000909306018093050180911A01882E9924C1
:102D3000AA24BB2489869A86AB86BC8660911B0137
:102D400070911C0180911D0190911E0180901101D4
:102D500090901201A0901301B090140140900901CD
:102D600050900A0160900B0170900C0130EEC32E60
:102D7000D12CC40CD51C1DEAA0CD903109F0E6CCB5
:102D800040E050E064E070E0409311015093120184
:102D90006093130170931401DECE40E050E068E0D0
:102DA00070E04093110150931201609313017093EE
:102DB0001401D1CE812C912C50E2A52EB12C809201
:102DC000110190921201A0921301B0921401C3CE8E
:102DD00040E050E060E170E0409311015093120137
:102DE0006093130170931401B6CE629FD001739F5C
:102DF000F001829FE00DF11D649FE00DF11D929F97
:102E0000F00D839FF00D749FF00D659FF00D9927D5
:102E1000729FB00DE11DF91F639FB00DE11DF91FF9
:102E2000BD01CF0111240895AA1BBB1B51E107C0AE
:102E3000AA1FBB1FA617B70710F0A61BB70B881F4A
:102E4000991F5A95A9F780959095BC01CD010895D9
:102E5000A1E21A2EAA1BBB1BFD010DC0AA1FBB1F9E
:102E6000EE1FFF1FA217B307E407F50720F0A21B10
:102E7000B30BE40BF50B661F771F881F991F1A947D
:102E800069F760957095809590959B01AC01BD01A7
:102E9000CF010895CF93DF93AC018230910510F4F8
:102EA00042E050E0E0913E12F0913F1220E030E02D
:102EB000A0E0B0E024C08081918184179507D0F014
:102EC0008417950771F482819381109729F01396E6
:102ED0009C938E9312972CC090933F1280933E1236
:102EE00027C02115310519F08217930718F49C01AA
:102EF000BD01EF0192818381DF01E92FF82F309727
:102F0000D1F621153105F9F0C901841B950B8430E8
:102F1000910580F48A819B816115710521F0FB0187
:102F20009383828304C090933F1280933E12FE01EC
:102F3000329642C0FE01E80FF91F41935193029768
:102F40009983888339C080913C1290913D120097FB
:102F500041F480914D0190914E0190933D128093E8
:102F60003C1220914B0130914C012115310541F467
:102F70002DB73EB780914F0190915001281B390B1E
:102F8000E0913C12F0913D12E217F30798F42E1BEA
:102F90003F0B2417350770F0CA010296281739072E
:102FA00048F08E0F9F1F90933D1280933C124193E7
:102FB000519302C0E0E0F0E0CF01DF91CF9108959E
:102FC0000F931F93CF93DF939C01009709F48CC05C
:102FD000DC01129713961C921E92129760913E127A
:102FE00070913F126115710589F48D919C91119733
:102FF000820F931F20913C1230913D122817390700
:1030000069F5B0933D12A0933C126EC0FB0140E005
:1030100050E001C0FC01EA17FB0730F48281938184
:10302000AF010097B9F71FC0E9012297FB83EA833C
:1030300008811981C901800F911F8E179F0759F4CC
:1030400080819181800F911F02969983888382816C
:1030500093819B838A834115510529F4B0933F12D4
:10306000A0933E1241C0FA01B383A283C191D191D2
:10307000EC0FFD1FAE17BF0781F4F9019291829109
:103080008C0F9D1F0296DA0111969C938E9382817C
:10309000938113969C938E931297E0E0F0E002C028
:1030A000FB01BC01DB0112968D919C911397009757
:1030B000B9F7CB0102962D913C911197820F931F86
:1030C00020913C1230913D122817390769F430974E
:1030D00029F410923F1210923E1202C01382128203
:1030E00070933D1260933C12DF91CF911F910F912D
:0630F0000895F894FFCFE3
:1030F60000000000000000000000000000000000CA
:103106000000000000000000000000000000003188
:10311600002F0030002E002C002D00220020002160
:10312600002500230024002B0029002A0028002661
:10313600002700FF00E10000000008000040122008
:02314600000087
:00000001FF
