:100000000C94F2000C9411010C9411010C94110148
:100010000C9411010C9411010C9411010C94110118
:100020000C9411010C9411010C9476050C94B005FC
:100030000C9411010C9411010C9411010C941101F8
:100040000C9411010C9411010C9411010C941101E8
:100050000C9411010C9411010C9411010C941101D8
:100060000C9411010C9411010C9411010C941101C8
:100070000C9411010C9411010C9411010C941101B8
:100080000C9411010C9411010C9411010C941101A8
:100090000C9411010C941101480445041F051C0522
:1000A00019051605130510050D050A0507050405B4
:1000B0000105FE04FB04F804F504F204EF04EC046B
:1000C000E904E604E304E004DD04DA04D704D4041C
:1000D000D104CE04CB04C804C504C204BF04BC04CC
:1000E000B904B604B304B004AD04AA04A704A4047C
:1000F000A1049E049B049804950492048F048C042C
:1001000089048604830480047D047A0477047404DB
:1001100071046E046B0468046504000100004E0164
:10012000120002000060014300030000A30104016B
:10013000030904A7011402030904BD0116030309FE
:1001400004D5010C0001C112018036018136120173
:10015000000202000010C0167A040001010203012F
:1001600009024300020100C032090400000102023A
:1001700001000524001001052401010104240206E8
:100180000524060001070582031000400904010050
:10019000020A000000070503024000000705840270
:1001A00040000004030904140359006F0075007235
:1001B0000020004E0061006D006500000016035530
:1001C0000053004200200053006500720069006186
:1001D000006C0000000C03310032003300340035A5
:1001E0000000000011241FBECFEFD0E2DEBFCDBF64
:1001F00011E0A0E0B1E0EEEFFFE000E00BBF02C0D5
:1002000007900D92A830B107D9F711E0A8E0B1E04E
:1002100001C01D92AD30B107E1F70E9456010C9468
:10022000FD070C94000080910C01882321F160E40B
:100230009CB1991F9927991F9295990F907E2CB187
:100240002071669B16C058E0609B0EC044E0659923
:100250000EC030E081E0619B80E0822B862B892BF1
:10026000852B842B832B089540E0659BF2CF32E0F1
:10027000F1CF50E0E9CF60E0DBCF81B38F3F21F0D9
:1002800081B38F5F81BB089511BA82B18F3F21F096
:1002900082B18F5F82B9089512B885B18F3710F09F
:1002A00015B8089585B18F5F85B90895BF92CF9233
:1002B000DF92EF92FF920F931F93DF93CF93CDB70F
:1002C000DEB7C054D0400FB6F894DEBF0FBECDBF2E
:1002D00080E88093610081E0809361000E940803C0
:1002E0000E9421038823E1F38FEF99E6A8E1815072
:1002F0009040A040E1F700C0000010920C018FEF89
:1003000087B997B19AB984B994B191B991B190BBB9
:1003100015B895B192B992B191BB8DB96E98769A94
:100320008EB18E778EB98EB182638EB9CC24DD24E6
:1003300000E07E010894E11CF11CBB24BA940E94E9
:10034000480580FFFCCF0E946A030E942103882396
:10035000B1F30E94480580FFF2CF043009F497C042
:10036000053008F057C0013009F4CEC0013008F064
:1003700060C00E942403AFEF8F3F9A0731F30097CC
:1003800021F38130910509F4F3C08230910509F41D
:10039000DEC08330910509F4DEC09C0135952795B8
:1003A0002230310509F4E0C02330310509F40CC1D5
:1003B0002430310509F413C12730310509F40AC18D
:1003C000AC0155954795559547954430510509F42D
:1003D00014C12C30310509F40BC19C01022E232FCE
:1003E000000C221F330B000C221F331F213031055C
:1003F00009F4FBC09C01220F232F221F330B213055
:10040000310509F0A2CF880F991F9595879585B979
:1004100002E09BCF063009F486C00630D0F40E947B
:100420002403AFEF8F3F9A0709F48FCF88B906E016
:100430008CCF023009F46DC0033009F086CF0E94E2
:1004400024032FEF8F3F920709F47FCF81BB00E099
:100450007CCF073091F0083009F077CF669B75CFDD
:10046000CC2011F400E071CF81B38F3F09F466C056
:1004700081B38F5F81BB00E068CF759ACC2091F388
:1004800081B38F3F09F45AC081B38F5FDFCF00E0A3
:1004900010E080E008C091B39F5F91BB8034D9F039
:1004A0000150104009F196B1F701E80FF11D90835A
:1004B0008F5F99B1F701E80FF11D90838F5F91B3C2
:1004C0009F3F49F711BA92B19F3FA1F092B19F5F50
:1004D00092B9803429F7C70160E470E00E94F40308
:1004E00080E001501040F9F6719AB7B887B18AB927
:1004F00000E02BCF12B895B19F3710F015B8CECFD2
:1005000095B19F5F95B9CACFDD2009F4ABCFDA94DE
:100510001CCF0E942403BFEF8F3F9B0709F415CF28
:1005200082B903E012CF0E942403BFEF8F3F9B07E5
:1005300009F40BCF8BB9759807E007CF11BA82B1D8
:100540008F3F59F082B18F5F82B900E0FECE82E426
:100550000E948003FACE8DEBFBCF12B885B18F37A6
:1005600070F115B800E0F1CE817080930C01EDCEF2
:1005700080910C01882309F150E49CB1991F9927BF
:10058000991F9295990F907E8CB18071669B13C0D4
:1005900048E0609B0EC034E065991AC020E061E03D
:1005A000619B60E0862B852B892B842B832B822BF0
:1005B000CFCF30E0F1CF40E0ECCF50E0DECF85B1DF
:1005C0008F5F85B900E0C1CE80FF0DC0779ABDCEA8
:1005D00022E0E5CFCC24C394C82208E0B6CE80FF49
:1005E00015C07498B2CE7798B0CED82E01E0ADCEBB
:1005F000CC24C394C82205E0A8CECC24C394C8223E
:1006000017B887B18AB9719804E09FCE749A9DCECD
:1006100081E88093D70080EA8093D80086E189BD85
:1006200009B400FEFDCF80E98093D8001092E0006D
:1006300010920801109209018CE08093E2007894F6
:1006400008958091080108953FB7F89480910801BA
:10065000882301F183E08093E9008091E80085FD23
:100660000CC082FF17C09BE602C082FF13C09093AC
:10067000E8008091E80085FFF8CF2091F10080919B
:10068000E80085FD03C08BE68093E8003FBF30E0C3
:10069000C90108953FBF2FEF3FEFC90108959FB7EC
:1006A000F89480910801882391F083E08093E90019
:1006B0008091F200882349F42091E80022FF05C0D0
:1006C00025FD03C02BE62093E8009FBF089580E03E
:1006D0009FBF089580910801882389F02FB7F8946F
:1006E00083E08093E9008091E80085FF07C09BE6E6
:1006F0009093E8008091E80085FDFACF2FBF089520
:1007000090910801992309F442C09FB7F89424E01E
:100710002093E90020910B01222391F53091E40010
:100720002091E80025FD1DC0375E9FBF9091E40039
:10073000931779F190910801992349F144E009C098
:100740009FBF9091E400931721F1909108019923A4
:1007500029F19FB7F8944093E9002091E80025FF24
:10076000EFCF8093F1008091E80085FD03C08AE31C
:100770008093E80085E080930A019FBF80E00895A0
:100780002091E80025FF0CC010920B01C7CF8FEF1E
:10079000089581E080930B018FEF08958FEF089506
:1007A0009FBF8FEF0895909108019923C1F02FB753
:1007B000F89494E09093E9009091E80095FF11C0BF
:1007C0008093F1008091E80085FD03C08AE3809367
:1007D000E80085E080930A012FBF80E008958FEF45
:1007E00008952FBF8FEF08951F93DC0180910801BA
:1007F000882379F12FB7F89484E08093E900809101
:100800000B01882349F56115710509F44EC034E0E8
:1008100050E41AE345E09091E4008091E80085FD02
:1008200022C0975E2FBF8091E400891771F43FC00A
:100830002FB7F8943093E9008091E80085FD13C04C
:100840002FBF8091E400891791F1809108018823DE
:1008500079F78FEF1F9108958091E80085FFF3C02D
:1008600010920B01D0CF8091F200E52FE81B8E2F64
:1008700090E06817790718F4E62F862F90E0681B40
:10088000790BF0E0E134F105C0F08D918093F10037
:100890008091E80085FD02C01093E80040930A01B2
:1008A0002FBF6115710509F0B6CF80E0D3CF81E08D
:1008B00080930B018FEF1F910895E45BFF4FEE0FC4
:1008C000FF1F0590F491E02D09948D918093F10024
:1008D0008D918093F1008D918093F1008D918093A3
:1008E000F1008D918093F1008D918093F1008D91B5
:1008F0008093F1008D918093F1008D918093F100B0
:100900008D918093F1008D918093F1008D91809372
:10091000F1008D918093F1008D918093F1008D9184
:100920008093F1008D918093F1008D918093F1007F
:100930008D918093F1008D918093F1008D91809342
:10094000F1008D918093F1008D918093F1008D9154
:100950008093F1008D918093F1008D918093F1004F
:100960008D918093F1008D918093F1008D91809312
:10097000F1008D918093F1008D918093F1008D9124
:100980008093F1008D918093F1008D918093F1001F
:100990008D918093F1008D918093F1008D918093E2
:1009A000F1008D918093F1008D918093F1008D91F4
:1009B0008093F1008D918093F1008D918093F100EF
:1009C0008D918093F1008D918093F1008D918093B2
:1009D000F1008D918093F1008D918093F1008D91C4
:1009E0008093F1008D918093F1008D918093F100BF
:1009F0008D918093F1008D918093F1008D91809382
:100A0000F1008D918093F1008D918093F1008D9193
:100A10008093F1008D918093F1008D918093F1008E
:100A20008D918093F1008D918093F1008D91809351
:100A3000F1008D918093F1008D918093F1008D9163
:100A40008093F10022CF2FBF8FEF04CF8FB7F894A0
:100A500090910A01992341F094E09093E9009AE380
:100A60009093E80010920A018FBF089560910001F1
:100A7000709101018091020190910301089580918C
:100A8000040108958091050108958091060108955B
:100A90008091090108952FB7F89490910801992346
:100AA00011F192E09093E9009091E80095FF1BC04E
:100AB00091EA9093F10090E29093F1001092F1008E
:100AC0001092F1001092F1001092F10091E09093D9
:100AD000F1001092F1008093F1008AE38093E80026
:100AE0002FBF80E008952FBF8FEF08951F920F92C0
:100AF0000FB60F9211248F939F938091E100109273
:100B0000E10083FF11C01092E90091E09093EB00A7
:100B10001092EC0092E19093ED0098E09093F00039
:100B2000109208011092090182FF13C08091080100
:100B3000882379F080910A01882359F081508093AD
:100B40000A01882331F484E08093E9008AE38093EA
:100B5000E8009F918F910F900FBE0F901F901895F6
:100B60001F920F920FB60F920BB60F9211242F9374
:100B70003F934F935F936F937F938F939F93AF9325
:100B8000BF93CF93DF93EF93FF931092E90080918F
:100B9000E80083FF6FC0E091F1006091F100809167
:100BA000F10090E04091F100342F20E0822B932B54
:100BB0002091F10030E07091F100572F40E0242B9C
:100BC000352BB091F100A091F10042EF4093E80085
:100BD0006630E1F0653009F4E6C0693009F462C0BE
:100BE000683009F4EBC0613209F4F7C0603209F4EF
:100BF0001BC1623209F0C4C0E13209F03BC08093EE
:100C000009018091E80080FFFCCFC9C06AE171E072
:100C1000FB01459154918417950709F4A6C1695FBA
:100C20007F4FFB01459154918417950709F4A8C1A2
:100C3000E8E2F1E0659174918617970709F4ACC179
:100C4000EFE2F1E0659174918617970709F4B0C15E
:100C500066E371E0FB01459154918417950709F40F
:100C6000BEC1695F7F4FFB01459154918417950781
:100C700009F404C181E28093EB00FF91EF91DF91D1
:100C8000CF91BF91AF919F918F917F916F915F9124
:100C90004F913F912F910F900BBE0F900FBE0F9071
:100CA0001F901895EE2331F78093080110920901E7
:100CB00010920A018EEF8093E80081E08093E900B2
:100CC00084E491E0FC0124912093EB00222309F4B9
:100CD00091C13196E491E093EC00FC013296E491ED
:100CE000E093ED00FC01339682E08093E9009F01E0
:100CF0002F5F3F4FE491E093EB00EE2369F0C901D1
:100D00000196F90124912093EC009C012F5F3F4F45
:100D1000FC0184918093ED0083E08093E900C90198
:100D20000196F90124912093EB00222369F09C01A4
:100D30002F5F3F4FFC0184918093EC00C901019625
:100D4000F90124912093ED0024E02093E9009C0117
:100D50002F5F3F4FFC0184918093EB00882351F07B
:100D6000F90184918093EC002F5F3F4FF9012491AA
:100D70002093ED008EE18093EA001092EA007DCF8F
:100D8000662309F0C9C08091E80080FFFCCFE238FB
:100D900009F41BC180E08093F1001092F1008EEF06
:100DA0008093E8006ACF2EEF2093E8002091E800BE
:100DB00020FFFCCF80688093E3005FCFE03809F02C
:100DC00059CF8091E80080FFFCCF8091080180938B
:100DD000F1008EEF8093E80050CFE13A09F04ACF5E
:100DE0008091E80080FFFCCF809100018093F100AA
:100DF000809101018093F100809102018093F100C4
:100E0000809103018093F100809104018093F100AF
:100E1000809105018093F100809106018093F1009B
:100E20008EEF8093E80029CFE13209F023CF809143
:100E3000E80082FFFCCF8091F10080930001809157
:100E4000F100809301018091F10080930201809173
:100E5000F100809303018091F1008093040180915F
:100E6000F100809305018091F100809306018BEFE2
:100E70008093E8008EEF8093E800FFCEAB014E5FD9
:100E80005F4FFA01859194912817390709F0F2CE46
:100E90004E5F5F4FFA0185919491282F392F4E5F55
:100EA0005F4FFA0164918B2F90E05A2F40E0842B22
:100EB000952B8F3F910519F010F08FEF90E086177A
:100EC00008F4682F7EEF8091E80090E0AC01457057
:100ED000507041155105B9F382FDCFCE462F6131D7
:100EE000C0F040E1C901542FFC010196E491E09368
:100EF000F1005150C9F7842F815090E00196280FDE
:100F0000391F641B7093E8006623E9F64031D9F27B
:100F1000B4CE662339F7F5CF613019F5E23009F028
:100F2000A9CE009709F0A6CE2F77822F815084306A
:100F300008F0A0CE8EEF8093E8002093E9006330A4
:100F400009F498CE89E18093EB0081E090E002C043
:100F5000880F991F2A95E2F78093EA001092EA0021
:100F60008CCE633009F086CED9CFAB014E5F5F4F98
:100F7000FA01C591D4912C173D0709F050CE88CFC6
:100F800043E251E0FA01659174912617370709F49D
:100F90007FCFFA0135964ECE4AE251E0FA016591D3
:100FA00074912617370709F473CFFA0135964ACEA4
:100FB00041E351E0FA01659174912617370709F46E
:100FC00067CFBA016B5F7F4F45CE2093E9009091C8
:100FD000EB0081E095FF80E01092E900DCCEAB01F0
:100FE0004E5F5F4FFA01C591D4912C173D0709F070
:0E0FF00038CE4ECFFC01319677CEF894FFCF6D
:080FFE0000E100000000080002
:00000001FF
