:100000000C9402010C9421010C9421010C94210107
:100010000C9421010C9421010C9421010C942101D8
:100020000C9421010C9421010C947A0A0C94B40ACA
:100030000C9421010C9421010C9421010C942101B8
:100040000C9421010C9421010C9421010C942101A8
:100050000C9421010C9421010C9421010C94210198
:100060000C9421010C9421010C9421010C94210188
:100070000C9421010C9421010C9421010C94210178
:100080000C9421010C9421010C9421010C94210168
:100090000C9421010C9421014C094909230A200ADE
:1000A0001D0A1A0A170A140A110A0E0A0B0A080A6C
:1000B000050A020AFF09FC09F909F609F309F00922
:1000C000ED09EA09E709E409E109DE09DB09D809D4
:1000D000D509D209CF09CC09C909C609C309C00984
:1000E000BD09BA09B709B409B109AE09AB09A80934
:1000F000A509A2099F099C099909960993099009E4
:100100008D098A098709840981097E097B09780993
:10011000750972096F096C096909000100004E0137
:10012000120002000060014300030000A30104016B
:10013000030904A7010E02030904B7013C030309E4
:1001400004F5010C0001C112018036018136120153
:10015000000202000010C0167A040001010203012F
:1001600009024300020100C0FA0904000001020272
:1001700001000524001001052401010104240206E8
:100180000524060001070582031000400904010050
:10019000020A000000070503024000000705840270
:1001A000400000040309040E036A00750064006740
:1001B000006500730000003C034E004F00520077C2
:1001C00000610079002000500053003300200046F9
:1001D000006C00610073006800650072002000552B
:1001E0000053004200200053006500720069006166
:1001F000006C0000000C0331003200330034003585
:100200000000000011241FBECFEFD0E2DEBFCDBF43
:1002100011E0A0E0B1E0E6E0FAE100E00BBF02C0CF
:1002200007900D92A830B107D9F711E0A8E0B1E02E
:1002300001C01D92AF30B107E1F70E94B7020C94E4
:10024000010D0C94000085B962B941BB089588B9CD
:100250006BB900007598759A089590910C019F3FB5
:1002600079F09F5F90930C01882349F080910D01F4
:1002700085B980910E0182B980910C0181BB0895EE
:1002800010920C0190910E019F3F21F09F5F90937F
:100290000E01EACF10920E0190910D019F3720F4CC
:1002A0009F5F90930D01E0CF10920D01DDCF00C054
:1002B0002FEF3FEF4FEF50E005C02150304040405E
:1002C000504021F1669BF9CF882311F481E0089515
:1002D00080910C018F3F71F08F5F80930C018091B2
:1002E0000D0185B980910E0182B980910C0181BB0D
:1002F00081E0089510920C0180910E018F3F41F032
:100300008F5F80930E0180910D01EBCF80E0089507
:1003100010920E0180910D018F3720F48F5F809332
:100320000D01DFCF10920D0180910D01DACF00C0D9
:10033000669BFECF882311F480E0089580910C0124
:100340008F3F71F08F5F80930C0180910D0185B913
:1003500080910E0182B980910C0181BB80E00895EB
:1003600010920C0180910E018F3F31F08F5F8093CE
:100370000E0180910D01EBCF10920E0180910D01C5
:100380008F3720F48F5F80930D01E1CF10920D0124
:1003900080E0DDCF9CB1991F9927991F9295990F05
:1003A000907E2CB12071669B15C058E0609B0DC0FB
:1003B00044E065990DC030E081E0619B80E0822BD4
:1003C000892B852B842B832B089540E0659BF3CFED
:1003D00032E0F2CF50E0EACFF89481E08093E00081
:1003E00080E28093D800E9ECF0E010828FE798E398
:1003F000A1E081509040A040E1F700C000001DBA8C
:10040000109268001CBC10BE1FBA10927A001092A5
:100410006E0010926F0010927000109271001082A6
:100420001092BC0011B814B817B81AB81DB810BA99
:1004300012B815B818B81BB81EB811BA0C9400FE43
:100440000895CF93DF93C0E0D0E005C0219680E10E
:10045000C030D80761F00E9428082FEF8F3F920725
:10046000A9F784E50E948408DF91CF9108958BE479
:100470000E948408DF91CF910895CF92DF92EF928E
:10048000FF920F931F93DF93CF93CDB7DEB7C05486
:10049000D0400FB6F894DEBF0FBECDBF198281E009
:1004A0008A83E12CF12C81E0082F112D82E06E016E
:1004B0000894C11CD11C0894E108F1080109110934
:1004C000E114F1040105110599F0F601E80FF11DA1
:1004D00080838F5FF601E80FF11D80838F5F80348A
:1004E00051F7C60160E470E00E94F80880E0E3CFB5
:1004F000C05CDF4F0FB6F894DEBF0FBECDBFCF910B
:10050000DF911F910F91FF90EF90DF90CF900895B2
:100510008FEF87B997B19AB984B994B191B991B174
:1005200090BB15B895B192B992B191BB8DB96E9847
:10053000769A8EB18E778EB98EB182638EB9089518
:100540001DB88DB187B987B18AB98AB184B984B130
:1005500081B981B180BB1EB88EB188B988B18BB921
:100560008BB185B985B182B982B181BB08952F92D3
:100570003F924F925F926F927F928F929F92AF9233
:10058000BF92CF92DF92EF92FF920F931F93DF9370
:10059000CF93CDB7DEB7C654D0410FB6F894DEBFC7
:1005A0000FBECDBF80E88093610091E09093610021
:1005B00091E895BF85BF0E940C080E9425088823FA
:1005C000E1F38FEF99E6A8E181509040A040E1F778
:1005D00000C0000010920D0110920E0110920C014B
:1005E0001DB88DB187B987B18AB98AB184B984B190
:1005F00081B981B180BB1EB88EB188B988B18BB981
:100600008BB185B985B182B982B181BB9924CF5BA9
:10061000DF4E1882C154D041CA5BDF4E1882C654E7
:10062000D041EE2480E090E0A2E0B0E0CE5BDF4E6F
:1006300088839983AA83BB83C254D04191E4292E35
:10064000312C2C0E3D1E8E010F5B1F4E85E0882E37
:10065000B5E5BB2EAAEAAA2E0E944C0A80FFFCCF69
:100660000E946E080E9425088823B1F30E944C0A5C
:1006700080FFF2CF9E2D953009F4FAC19630C8F470
:10068000923009F400C2933008F045C0EE2009F41E
:1006900007C2913039F7CA5BDF4EB881C654D041EA
:1006A000BB23D1F0B150CA5BDF4EB883C654D041F2
:1006B000D9CFBE2DB83091F0B93008F091C0B63026
:1006C00009F45AC2B73071F6759ACF5BDF4EE881F4
:1006D000C154D041EE2361F4EE24C4CF00C0669B28
:1006E000FECFCF5BDF4EB881C154D041BB23A1F315
:1006F00080910C018F3F09F479C28F5F80930C01C8
:1007000080910D0185B980910E0182B980910C0113
:1007100081BBEE24A7CFAE2DA33009F49DC1A43038
:1007200009F0A0CFCE5BDF4E88819981AA81BB8181
:10073000C254D04182309105A105B10509F47DC1B3
:100740002C013D017694679457944794089441088E
:1007500051086108710820E0EE24FF241BC08F5F60
:1007600080930C0180910D0185B980910E0182B9B1
:1007700080910C0181BB203409F40AC2C701A0E0BA
:10078000B0E0481659066A067B0609F45FC1089472
:10079000E11CF11C7198000086B1E1E0F0E0EC0F83
:1007A000FD1FE20FF11D80832F5F89B1E1E0F0E0D2
:1007B000EC0FFD1FE20FF11D80832F5F719A809176
:1007C0000C018F3F61F610920C0180910E018F3F5A
:1007D00009F4E6C18F5F80930E0180910D01C4CFB3
:1007E000EE2DEA3009F418C1EA3008F404C1EB3008
:1007F00009F038CF710106C0F70181937F01E0173E
:10080000F10759F00E942808BFEF8F3F9B07A1F71F
:1008100082E50E948408EE2425CF20E030E040915C
:100820000C0150910E01DA0190910D01E92E15B8DD
:1008300082B8B1BA18B8ABB800007598759A15B8F7
:10084000F2E0F2B9A1BA18B8BBB800007598759A71
:1008500095B952B941BB18B875E27BB900007598DB
:10086000759A95B952B941BB18B88FE18BB90000A0
:100870007598759AF101E20FF31F80E20CC04F5F8B
:1008800040930C0195B952B941BB815032968823EF
:10089000D9F090910D017081618178B96BB9000038
:1008A0007598759A4F3F59F710920C015F3F59F1B7
:1008B0005F5F50930E0140910C0195B952B941BB55
:1008C00081503296882329F7E5B8B2B9A1BB18B890
:1008D00099E29BB900007598759A00C08FEF9FEF61
:1008E000AFEFB0E005C00197A109B10909F481C0DB
:1008F000669BF9CF205C3F4FA0E120303A0709F01A
:1009000092CF8BE486CF10920E019F3738F49F5F11
:1009100090930D0150E040910C01B4CF10920D0165
:1009200090E050E040910C01ADCF95B882B8B1BADB
:1009300018B8ABB800007598759A95B8E2E0E2B9BE
:10094000A1BA18B8BBB800007598759A95B882B866
:10095000B1BA18B8F0E2FBB900007598759A6091C9
:100960000D0150910E0140910C0165B952B941BB86
:1009700020E030E0F60180818F3F09F020C19181B5
:100980009F3FB9F018B870EA7BB900007598759A66
:1009900088B99BB900007598759A00C08FEF9FEFDA
:1009A000AFEFB0E004C00197A109B10991F0669BD7
:1009B000FACF4F3F09F405C14F5F40930C0165B971
:1009C00052B941BB2E5F3F4F329680E1203038074D
:1009D00091F618B890E99BB900007598759A18B807
:1009E0001BB800007598759AA0E120303A0708F00E
:1009F00088CF84E50ECF6101710107C0D7018D93C7
:100A00007D01A017B10709F405C10E942808FFEF76
:100A10008F3F9F0799F7FCCE6101710107C0F70175
:100A200081937F01E017F10709F47FCF0E94280826
:100A3000AFEF8F3F9A0799F7EBCE7198000086B120
:100A40000E94840889B10E948408719A8FEF87B947
:100A500087B18AB9EE2406CE0E942808FFEF8F3FA7
:100A60009F0709F4FFCD80930C0181BBEE24FACDE2
:100A70000E942808AFEF8F3F9A0709F4F3CD88B999
:100A800046E0E42EEFCD0E942808EFEF8F3F9E074F
:100A900009F4E8CD80930E0182B963E0E62EE2CD41
:100AA0000E942808FFEF8F3F9F0709F4DBCD0097D6
:100AB00009F4D8CD8130910509F425C18230910522
:100AC00009F41FC18330910509F44EC184309105AA
:100AD00009F48DC18530910509F46EC19C013595ED
:100AE00027952330310509F463C12430310509F419
:100AF0005BC12630310509F43DC12730310509F4C9
:100B0000FFC1AC0155954795559547955595479526
:100B10004230510509F4D5C12C30310509F42EC2FB
:100B20002D30310509F4BFC12E30310509F45AC208
:100B30002F30310509F43AC29C01022E232F000CFC
:100B4000221F330B000C221F331F2130310509F403
:100B500038C29C01220F232F221F330B2130310575
:100B600009F080CD880F991F9595879580930D0189
:100B700085B972E0E72E76CD0E942808BFEF8F3F3F
:100B80009B0709F46FCD8BB9000037E0E32E6ACDE7
:100B9000CE01019660E470E00E94F80820E0EECDFE
:100BA00010920E0180910D018F3720F48F5F80939A
:100BB0000D01DACD10920D0180910D01D5CD9181FD
:100BC000E1CE10920C015F3F31F05F5F50930E0158
:100BD00040910C01F4CE10920E016F37A0F46F5FBC
:100BE00060930D0150E040910C01E9CE10920C0190
:100BF00080910E018F3F09F4A1C08F5F80930E0199
:100C000080910D017FCD10920D0150E060E0409188
:100C10000C01D5CEF60190819F3F09F047C021819C
:100C20002F3F09F455C095B882B8B1BA18B8ABB81F
:100C300000007598759A95B8B2E0B2B9A1BA18B823
:100C4000BBB800007598759A95B882B8B1BA18B853
:100C500070EA7BB900007598759A40910D0130914A
:100C60000E0180910C0145B932B981BB98B92BB9FD
:100C700000007598759A8F3FD9F08F5F80930C01B3
:100C800000C08FEF9FEFAFEFB0E005C00197A10963
:100C9000B10909F4AECE669BF9CF32960E171F0745
:100CA00009F42FCE90819F3F09F4B9CF2181BBCFAA
:100CB00010920C013F3F21F03F5F30930E01E0CFD7
:100CC00010920E014F3780F44F5F40930D01D8CF43
:100CD00080910C018F3F59F08F5F80930C01329609
:100CE0000E171F07F9F60DCE10920D01C9CF109205
:100CF0000C0180910E018F3F61F18F5F80930E0197
:100D0000CCCF82E486CD9CB1991F9927991F9295EB
:100D1000990F907E8CB18071669B2AC048E0609BE1
:100D200025C034E065995CC020E051E0619B50E053
:100D3000852B892B842B832B822B6BCD10920E015C
:100D400080910D018F3708F04DC08F5F80930D01AA
:100D5000D9CC10920E0180910D018F3708F07CC024
:100D60008F5F80930D0199CF8DEB53CD30E0DACFBB
:100D700040E0D5CF80FF73C08FEF87B997B19AB9A4
:100D800084B994B191B991B190BB15B895B192B9AC
:100D900092B191BB8DB96E98769A8EB18E778EB9DD
:100DA0008EB182638EB95ECC80FF70C074985ACCCD
:100DB00080FF14C0779A56CC80910C018F3F09F4C4
:100DC00067C08F5F80930C0180910D0185B9809180
:100DD0000E0182B980910C0181BB44CC779842CC42
:100DE00022E0A3CF10920D0180910D018BCCF894DD
:100DF00081E08093E00020E22093D8001092C900A7
:100E00008FE798E3A1E081509040A040E1F700C057
:100E100000001DBA109268001CBC10BE1FBA1092D0
:100E20007A0010926E0010926F0010927000109273
:100E300071001092C9001092BC0011B814B817B814
:100E40001AB81DB810BA12B815B818B81BB81EB821
:100E500011BA0C9400FE06CC10920D011ECF1DB8E5
:100E60008DB187B987B18AB98AB184B984B181B9A2
:100E700081B180BB1EB88EB188B988B18BB98BB1F6
:100E800085B985B182B982B181BBECCB749AEACBCA
:100E900010920C0180910E018F3F09F47DC08F5F8D
:100EA00080930E0191CF719A709880FF92C040E4B8
:100EB000942ECF5BDF4E1882C154D04139E0E32E2F
:100EC000D1CB8031910509F44CC081319105E1F11C
:100ED0008231910561F183319105E1F082E090E08A
:100EE000A0E0B0E0CE5BDF4E88839983AA83BB830A
:100EF000C254D04117B887B18AB964E0E62EB2CBAC
:100F0000A82FA170CF5BDF4EA883C154D041E8E089
:100F1000EE2EA8CB80E090E0A2E0B0E0CE5BDF4E0A
:100F200088839983AA83BB83C254D041E3CF80E0F6
:100F300090E0A1E0B0E0CE5BDF4E88839983AA8386
:100F4000BB83C254D041D6CF80E090E2A0E0B0E0B5
:100F5000CE5BDF4E88839983AA83BB83C254D04182
:100F6000C9CF80E090E1A0E0B0E0CE5BDF4E8883A7
:100F70009983AA83BB83C254D041BCCF719A2EB14E
:100F80002E7D2EB9A82FA170CF5BDF4EA883C15450
:100F9000D04155E0E52E66CB10920E0180910D01F7
:100FA0008F3770F58F5F80930D010ECF719A709817
:100FB0009924CF5BDF4E1882C154D0418BE0E82EDC
:100FC00051CBCA5BDF4E8883C654D041EE24E394F4
:100FD00049CB9924CF5BDF4E1882C154D04129E020
:100FE000E22E40CB719A709880FF0DC020E4922EC3
:100FF000CF5BDF4E1882C154D0419AE0E92E32CB4C
:1010000010920D01E1CE9924CF5BDF4E1882C154BE
:10101000D0419AE0E92E26CB81E88093D70080EA80
:101020008093D80086E189BD09B400FEFDCF80E938
:101030008093D8001092E0001092080110920901EC
:101040008CE08093E20078940895809108010895DF
:101050003FB7F89480910801882301F183E08093E1
:10106000E9008091E80085FD0CC082FF17C09BE677
:1010700002C082FF13C09093E8008091E80085FFD2
:10108000F8CF2091F1008091E80085FD03C08BE648
:101090008093E8003FBF30E0C90108953FBF2FEFC4
:1010A0003FEFC90108959FB7F89480910801882304
:1010B00091F083E08093E9008091F200882349F465
:1010C0002091E80022FF05C025FD03C02BE62093F8
:1010D000E8009FBF089580E09FBF089580910801B8
:1010E000882389F02FB7F89483E08093E9008091FA
:1010F000E80085FF07C09BE69093E8008091E80038
:1011000085FDFACF2FBF089590910801992309F426
:1011100042C09FB7F89424E02093E90020910B018E
:10112000222391F53091E4002091E80025FD1DC0B7
:10113000375E9FBF9091E400931779F19091080179
:10114000992349F144E009C09FBF9091E4009317AF
:1011500021F190910801992329F19FB7F8944093C8
:10116000E9002091E80025FFEFCF8093F100809106
:10117000E80085FD03C08AE38093E80085E0809362
:101180000A019FBF80E008952091E80025FF0CC070
:1011900010920B01C7CF8FEF089581E080930B0170
:1011A0008FEF08958FEF08959FBF8FEF089590916F
:1011B00008019923C1F02FB7F89494E09093E900C7
:1011C0009091E80095FF11C08093F1008091E800B4
:1011D00085FD03C08AE38093E80085E080930A01DF
:1011E0002FBF80E008958FEF08952FBF8FEF0895F0
:1011F0001F93DC0180910801882379F12FB7F894BF
:1012000084E08093E90080910B01882349F5611502
:10121000710509F44EC034E050E41AE345E09091C2
:10122000E4008091E80085FD22C0975E2FBF809189
:10123000E400891771F43FC02FB7F8943093E900A8
:101240008091E80085FD13C02FBF8091E4008917CD
:1012500091F180910801882379F78FEF1F9108950C
:101260008091E80085FFF3C010920B01D0CF8091F0
:10127000F200E52FE81B8E2F90E06817790718F42D
:10128000E62F862F90E0681B790BF0E0E134F10542
:10129000C0F08D918093F1008091E80085FD02C03F
:1012A0001093E80040930A012FBF6115710509F002
:1012B000B6CF80E0D3CF81E080930B018FEF1F91F9
:1012C0000895E45BFF4FEE0FFF1F0590F491E02DB2
:1012D00009948D918093F1008D918093F1008D910F
:1012E0008093F1008D918093F1008D918093F100B6
:1012F0008D918093F1008D918093F1008D91809379
:10130000F1008D918093F1008D918093F1008D918A
:101310008093F1008D918093F1008D918093F10085
:101320008D918093F1008D918093F1008D91809348
:10133000F1008D918093F1008D918093F1008D915A
:101340008093F1008D918093F1008D918093F10055
:101350008D918093F1008D918093F1008D91809318
:10136000F1008D918093F1008D918093F1008D912A
:101370008093F1008D918093F1008D918093F10025
:101380008D918093F1008D918093F1008D918093E8
:10139000F1008D918093F1008D918093F1008D91FA
:1013A0008093F1008D918093F1008D918093F100F5
:1013B0008D918093F1008D918093F1008D918093B8
:1013C000F1008D918093F1008D918093F1008D91CA
:1013D0008093F1008D918093F1008D918093F100C5
:1013E0008D918093F1008D918093F1008D91809388
:1013F000F1008D918093F1008D918093F1008D919A
:101400008093F1008D918093F1008D918093F10094
:101410008D918093F1008D918093F1008D91809357
:10142000F1008D918093F1008D918093F1008D9169
:101430008093F1008D918093F1008D918093F10064
:101440008D918093F1008D918093F10022CF2FBF79
:101450008FEF04CF8FB7F89490910A01992341F050
:1014600094E09093E9009AE39093E80010920A01C7
:101470008FBF089560910001709101018091020178
:1014800090910301089580910401089580910501D0
:1014900008958091060108958091090108952FB75C
:1014A000F89490910801992311F192E09093E9004A
:1014B0009091E80095FF1BC091EA9093F10090E2B3
:1014C0009093F1001092F1001092F1001092F1004F
:1014D0001092F10091E09093F1001092F10080934E
:1014E000F1008AE38093E8002FBF80E008952FBFCA
:1014F0008FEF08951F920F920FB60F9211248F93C2
:101500009F938091E1001092E10083FF11C010923F
:10151000E90091E09093EB001092EC0092E190933F
:10152000ED0098E09093F0001092080110920901EC
:1015300082FF13C080910801882379F080910A010D
:10154000882359F0815080930A01882331F484E084
:101550008093E9008AE38093E8009F918F910F9038
:101560000FBE0F901F9018951F920F920FB60F92FB
:101570000BB60F9211242F933F934F935F936F936A
:101580007F938F939F93AF93BF93CF93DF93EF930B
:10159000FF931092E9008091E80083FF6FC0E09113
:1015A000F1006091F1008091F10090E04091F10034
:1015B000342F20E0822B932B2091F10030E07091AA
:1015C000F100572F40E0242B352BB091F100A09172
:1015D000F10042EF4093E8006630E1F0653009F435
:1015E000E6C0693009F462C0683009F4EBC06132CA
:1015F00009F4F7C0603209F41BC1623209F0C4C0BB
:10160000E13209F03BC0809309018091E80080FF3E
:10161000FCCFC9C06AE171E0FB0145915491841788
:10162000950709F4A6C1695F7F4FFB01459154916D
:101630008417950709F4A8C1E8E2F1E06591749177
:101640008617970709F4ACC1EFE2F1E06591749158
:101650008617970709F4B0C166E371E0FB01459175
:1016600054918417950709F4BEC1695F7F4FFB0150
:10167000459154918417950709F404C181E2809340
:10168000EB00FF91EF91DF91CF91BF91AF919F91CF
:101690008F917F916F915F914F913F912F910F901B
:1016A0000BBE0F900FBE0F901F901895EE2331F7D1
:1016B000809308011092090110920A018EEF809325
:1016C000E80081E08093E90084E491E0FC0124914A
:1016D0002093EB00222309F491C13196E491E09329
:1016E000EC00FC013296E491E093ED00FC013396AE
:1016F00082E08093E9009F012F5F3F4FE491E093E8
:10170000EB00EE2369F0C9010196F90124912093C1
:10171000EC009C012F5F3F4FFC0184918093ED0012
:1017200083E08093E900C9010196F9012491209397
:10173000EB00222369F09C012F5F3F4FFC01849155
:101740008093EC00C9010196F90124912093ED00EA
:1017500024E02093E9009C012F5F3F4FFC0184911E
:101760008093EB00882351F0F90184918093EC0081
:101770002F5F3F4FF90124912093ED008EE180937C
:10178000EA001092EA007DCF662309F0C9C080917B
:10179000E80080FFFCCFE23809F41BC180E08093B1
:1017A000F1001092F1008EEF8093E8006ACF2EEFE7
:1017B0002093E8002091E80020FFFCCF8068809310
:1017C000E3005FCFE03809F059CF8091E80080FF57
:1017D000FCCF809108018093F1008EEF8093E800A8
:1017E00050CFE13A09F04ACF8091E80080FFFCCF6A
:1017F000809100018093F100809101018093F100BC
:10180000809102018093F100809103018093F100A7
:10181000809104018093F100809105018093F10093
:10182000809106018093F1008EEF8093E80029CF2C
:10183000E13209F023CF8091E80082FFFCCF809154
:10184000F100809300018091F1008093010180916B
:10185000F100809302018091F10080930301809157
:10186000F100809304018091F10080930501809143
:10187000F100809306018BEF8093E8008EEF809358
:10188000E800FFCEAB014E5F5F4FFA018591949166
:101890002817390709F0F2CE4E5F5F4FFA018591A4
:1018A0009491282F392F4E5F5F4FFA0164918B2F4F
:1018B00090E05A2F40E0842B952B8F3F910519F033
:1018C00010F08FEF90E0861708F4682F7EEF80917C
:1018D000E80090E0AC014570507041155105B9F336
:1018E00082FDCFCE462F6131C0F040E1C901542FB7
:1018F000FC010196E491E093F1005150C9F7842F67
:10190000815090E00196280F391F641B7093E80006
:101910006623E9F64031D9F2B4CE662339F7F5CF24
:10192000613019F5E23009F0A9CE009709F0A6CE92
:101930002F77822F8150843008F0A0CE8EEF8093D5
:10194000E8002093E900633009F498CE89E18093A0
:10195000EB0081E090E002C0880F991F2A95E2F722
:101960008093EA001092EA008CCE633009F086CEB4
:10197000D9CFAB014E5F5F4FFA01C591D4912C17BF
:101980003D0709F050CE88CF43E251E0FA0165915E
:1019900074912617370709F47FCFFA0135964ECE9A
:1019A0004AE251E0FA01659174912617370709F46C
:1019B00073CFFA0135964ACE41E351E0FA016591C1
:1019C00074912617370709F467CFBA016B5F7F4F11
:1019D00045CE2093E9009091EB0081E095FF80E0F7
:1019E0001092E900DCCEAB014E5F5F4FFA01C5916A
:1019F000D4912C173D0709F038CE4ECFFC0131961B
:061A000077CEF894FFCF41
:081A060000E1000000000800EF
:00000001FF
