:100000000C9418010C9437010C9437010C943701AF
:100010000C9437010C9437010C9437010C94370180
:100020000C9437010C9437010C94630F0C949D0FC2
:100030000C9437010C9437010C9437010C94370160
:100040000C9437010C9437010C9437010C94370150
:100050000C9437010C9437010C9437010C94370140
:100060000C9437010C9437010C9437010C94370130
:100070000C9437010C9437010C9437010C94370120
:100080000C9437010C9437010C9437010C94370110
:100090000C9437010C943701FC03F103E603DB03F6
:1000A000C503D0038B04230C0F0CDB0B360A2A0C80
:1000B000270CD70B520B3A0B1F0B020B7D0A650A5C
:1000C000480A370C1A0F700D0D0F570F000F590FFC
:1000D000F30E4F0FE60E510FD90E530FCC0E550FE6
:1000E000BF0E270FB20E290FA50E2B0F980E450F2E
:1000F0008B0E470F7E0E490F710E4B0F640E4D0F86
:10010000570E3D0F4A0E3F0F3D0E410F300E430F6D
:10011000230E2F0F160E2D0F090E5D0FFC0D5B0F1A
:10012000EF0D610FE20D5F0FD50D370FC80D350FC5
:10013000BB0D3B0FAE0D390FA10D330F940D310FD9
:10014000870D7F0D770D00010000130212000200E1
:1001500000D0014300030000CC010401030904BCEA
:10016000010E020309047E013C0303090470010C23
:100170000C033100320033003400350000003C0332
:100180004E004F00520077006100790020005000BF
:1001900053003300200046006C00610073006800CB
:1001A00065007200200055005300420020005300FB
:1001B00065007200690061006C0000000E036A00B7
:1001C0007500640067006500730000000403090403
:1001D00009024300020100C0FA0904000001020202
:1001E0000100052400100105240101010424020678
:1001F00005240600010705820310004009040100E0
:10020000020A0000000705030240000007058402FF
:100210004000001201000202000010C0167A040023
:1002200001010203010001C1120180360181360083
:1002300011241FBECFEFD0E2DEBFCDBF11E0A0E0A2
:10024000B1E0ECE3F4E200E00BBF02C007900D92D6
:10025000AE35B107D9F722E1AEE5B1E001C01D929C
:10026000AC34B207E1F70E94BF090C941C120C9445
:100270000000CF93DF93EC0188810E94BB0C898141
:100280000E94BB0C8A810E94BB0C8B810E94BB0C1C
:100290008C810E94BB0C8C850E94BB0C8B850E94BC
:1002A000BB0C8A850E94BB0C89850E94BB0C8E8189
:1002B0000E94BB0C8D810E94BB0C898D0E94BB0CDF
:1002C0008C890E94BB0C8B890E94BB0C8A890E947E
:1002D000BB0C89890E94BB0C888D0E94BB0C8F8946
:1002E0000E94BB0C8E890E94BB0C8D890E94BB0CA6
:1002F0008A8D0E94BB0C8E8D0E94BB0C8D8D0E943E
:10030000BB0C8C8D0E94BB0C8B8DDF91CF910C941C
:10031000BB0C2F923F924F925F926F927F928F927F
:100320009F92AF92BF92CF92DF92EF92FF920F9384
:100330001F93CF93DF9300D000D000D0CDB7DEB7AE
:100340009E838D83DC019996ED91FC919A979FEFA6
:1003500090839996ED91FC919A9780818F7B808311
:100360009596ED91FC91969782E780839396ED9117
:10037000FC91949790835F96ED91FC91909780E922
:1003800080839596ED91FC9196978081846080831F
:100390009596ED91FC91969780818F7D80839596BF
:1003A000ED91FC9196978081806280839596ED9186
:1003B000FC91969780818B7F80839596ED91FC913F
:1003C00096978081886080835F96ED91FC919097ED
:1003D00010829596ED91FC91969780818F7D808318
:1003E0009596ED91FC919697808180628083959699
:1003F000ED91FC9196978081877F80839396ED9114
:10040000FC91949710825F96ED91FC91909780916A
:10041000560180839596ED91FC91969780818D7F12
:10042000808300009196ED91FC9192978081959642
:10043000ED91FC9196979081926090839596ED91C5
:10044000FC91969790819D7F908300009196ED910D
:10045000FC91929790819596ED91FC9196972081D1
:10046000226020839596ED91FC91969720812D7FB7
:10047000208300009196ED91FC91929730819596A2
:10048000ED91FC9196972081226020839596ED91C5
:10049000FC91969720812D7F208300009196ED910D
:1004A000FC919297B081B983ED81FE81A5A1B6A19F
:1004B0002C9122602C93A5A1B6A12C912D7F2C9379
:1004C0000000A1A1B2A12C90A5A1B6A12C912260FF
:1004D0002C93808391833283298123832482878391
:1004E00090878D3A09F4D6C08C3E09F4C2C0822DA3
:1004F00086958695837091E0392E01C0330C8A95DC
:10050000EAF78981837000E014E002C0000F111F38
:100510008A95E2F72801662457FC6094762CAD8119
:10052000BE8119964D925D926D927C921C97898145
:10053000807382958F70C12CD12C7601E39404C016
:10054000CC0CDD1CEE1CFF1C8A95D2F7FD01C18A84
:10055000D28AE38AF48A328EA301920169E0569529
:100560004795379527956A95D1F7F981F2FB88274A
:1005700080F9A8E0B0E002C0AA0FBB1F8A95E2F79D
:100580000E9405124B015C016031710581059105E6
:1005900001F180E488169104A104B104D1F080E057
:1005A00026960FB6F894DEBF0FBECDBFDF91CF9178
:1005B0001F910F91FF90EF90DF90CF90BF90AF9081
:1005C0009F908F907F906F905F904F903F902F9073
:1005D0000895AD81BE8116969C928E921597822DBC
:1005E0008295877090E001978730910508F489C063
:1005F00080E090E0A0E8B0E0ED81FE81838F948FF1
:10060000A58FB68FF981F6FD81C088E0AD81BE81EE
:1006100059968C9359975B966D917D918D919C9194
:100620005E97A70196010E94D211A32DB0E00E940F
:10063000FA1169837A838B839C83C701B601A30176
:1006400092010E94D211080D191D89819A81AB81F6
:10065000BC81ED81FE81858B968BA78BB08F258722
:1006600036874787508B10935F0100935E0181E0CE
:1006700097CF993709F453C0913F09F481C0913A5B
:1006800009F47EC09A3D09F032CF3324339470E5EB
:10069000272E37CF973D09F4BAC0933709F027CFFB
:1006A00080E092E0A0E0B0E0ED81FE81818792875A
:1006B000A387B48780E090E4A0E0B0E0818B928BC8
:1006C000A38BB48B81E0828F80E190E09683858359
:1006D00080E090E0A0E0B1E0838F948FA58FB68F8B
:1006E00088E0818F00E112E020E230E040E050E05D
:1006F00080E094E0A0E0B0E089839A83AB83BC8380
:10070000AACF845B9F4FFC010C94F41180E1ED8132
:10071000FE81818F638D748D858D968D82CF80E073
:1007200092E0A0E0B0E0ED81FE8181879287A3870F
:10073000B48780E090E4A0E0B0E0818B928BA38B43
:10074000B48B84E0828F80E190E09683858380E0A3
:1007500090E0A0E0B2E0838F948FA58FB68F88E001
:10076000818F00E112E020E230E040E050E080E0E4
:1007700090E2A0E0B0E089839A83AB83BC836BCF27
:1007800033243394E0E42E2EBCCE80E090E0A0E051
:10079000B0E1ED81FE81838F948FA58FB68F32CF2C
:1007A00080E090E0A0E0B0E2ED81FE81838F948F45
:1007B000A58FB68F27CF80E090E0A0E0B8E0ED8174
:1007C000FE81838F948FA58FB68F1CCF80E090E041
:1007D000A0E0B4E0ED81FE81838F948FA58FB68F6A
:1007E00011CF80E090E0A0E0B2E0ED81FE81838F48
:1007F000948FA58FB68F06CF80E090E0A0E0B1E0A7
:10080000ED81FE81838F948FA58FB68FFBCE822FD3
:10081000837000E018E002C0000F111F8A95E2F714
:100820006801EE24D7FCE094FE2CAD81BE811996C0
:10083000CD92DD92ED92FC921C9788E059968C93B4
:100840005997F22DF695F695F37066246394712C02
:1008500002C0660C771CFA95E2F75A966C9280E01B
:1008600090E0A0E0B0E8ED81FE81838F948FA58FAA
:10087000B68F822F807B803209F4BDC008F456C049
:10088000803809F4D7C0803909F4C9C0803309F031
:1008900086CE80E090E0ACE0B0E0ED81FE81818B1F
:1008A000928BA38BB48BE981E695E695E370E130FA
:1008B00009F479C008F44BC0E23009F070CE80EC46
:1008C00091E0AD81BE8116969C938E9315975196BB
:1008D0008D909D90AD90BC90549760E070E080E06A
:1008E00090E8A50194010E94D211D3010E94051243
:1008F00069837A838B839C83C501B401A701960128
:100900000E94D21100541E4F89819A81AB81BC8113
:10091000ED81FE81A0CE80E090E0A0E0B0E4ED812A
:10092000FE81838F948FA58FB68F6CCE882309F4B8
:100930006BC0803109F033CE80E090E0A4E0B0E0FD
:10094000ED81FE81818B928BA38BB48BACCF80E841
:1009500090E0AD81BE8116969C938E93159751962B
:100960008D909D90AD90BC90549760E070E080E0D9
:1009700090E8A50194010E94D211D3010E940512B2
:1009800069837A838B839C83C501B401A701960197
:100990000E94D21100581F4F89819A81AB81BC817E
:1009A000ED81FE8158CE80EE90E0ED81FE81968350
:1009B000858381889288A388B48860E070E080E0B5
:1009C00090E8A50194010E94D211D3010E94051262
:1009D00069837A838B839C83C501B401A701960147
:1009E0000E94D21100521F4F89819A81AB81BC8134
:1009F000ED81FE8130CE80E090E0A8E0B0E0818B18
:100A0000928BA38BB48B4FCF80E090E0A2E0B0E05C
:100A1000ED81FE81818B928BA38BB48B44CF80E0E0
:100A200090E0A0E2B0E0ED81FE81818B928BA38B00
:100A3000B48B39CF80E090E0A0E1B0E0ED81FE81A1
:100A4000818B928BA38BB48B2ECFEF92FF920F935F
:100A50001F93CF93DF9300D000D0CDB7DEB78C01CA
:100A6000DC019996ED91FC919A979FEF908399966E
:100A7000ED91FC919A9780818F7B80839596ED9183
:100A8000FC91969782E780839396ED91FC919497E1
:100A900090835F96ED91FC91909710829596ED91E1
:100AA000FC9196978081846080839596ED91FC916E
:100AB000969780818F7D80839596ED91FC91969796
:100AC0008081806280839596ED91FC9196978081DC
:100AD0008B7F80839596ED91FC91969780818860BD
:100AE000808317968C9117978D3A09F470C18C3ECC
:100AF00009F45BC1D8015F96ED91FC91909710824B
:100B00009596ED91FC91969780818F7D8083959647
:100B1000ED91FC9196978081806280835F96ED9144
:100B2000FC91909710829596ED91FC91969780811B
:100B30008F7D80839596ED91FC9196978081806260
:100B400080835F96ED91FC91909780916501808301
:100B50009596ED91FC91969780818F7D80839596F7
:100B6000ED91FC9196978081806280835F96ED91F4
:100B7000FC9190978091660180839596ED91FC9110
:100B8000969780818F7D80839596ED91FC919697C5
:100B90008081806280835F96ED91FC919097809137
:100BA000670180839596ED91FC91969780818F7D6A
:100BB00080839596ED91FC919697808180628083E9
:100BC000D8019596ED91FC9196978081877F8083DF
:100BD00017968C9117978D3A09F4F2C08C3E09F460
:100BE000DDC0D8015F96ED91FC91909780E3808302
:100BF000D8019596ED91FC919697808184608083D1
:100C00009596ED91FC91969780818F7D8083959646
:100C1000ED91FC9196978081806280839596ED910D
:100C2000FC91969780818B7F80839396ED91FC91C8
:100C3000949710825F96ED91FC9190978091560168
:100C40008083FFB6F89480E090E0A0E2B0E0898372
:100C50009A83AB83BC8389819A81AB81BC81892BC8
:100C60008A2B8B2B01F1D8019796ED91FC919897E7
:100C7000808186FF04C017C0808186FD14C0498131
:100C80005A816B817C814150510961097109498305
:100C90005A836B837C8349815A816B817C81452B8C
:100CA000462B472B49F720915E0130915F01203E92
:100CB000B0E13B07B8F1E12CE8E6F1E0D801959608
:100CC0002D913C919697D9018C918D7F8C9300004A
:100CD000D80191968D919C919297DC018C91819392
:100CE000D80195962D913C919697D9018C9182606F
:100CF0008C93B2E1E834FB0709F760EE70E188E617
:100D000091E00E940A0DE39420915E0130915F0111
:100D1000EE2DF0E0C90160EE70E10E94BE11E61711
:100D2000F70750F2C90160EE70E10E94BE11009712
:100D300019F1E8E6F1E09C0128593E4FD80195965B
:100D40006D917C919697DB014C914D7F4C93000007
:100D5000D80191964D915C919297DA014C91419313
:100D6000D80195966D917C919697DB014C914260EC
:100D70004C93E217F30711F7BC0188E691E00E945B
:100D80000A0DFFBE81E00F900F900F900F90DF9142
:100D9000CF911F910F91FF90EF900895F8018085FA
:100DA000893709F01ECF000023CFF80180858937ED
:100DB00009F0A0CE078CF0A1E02D1082D801B3CEAF
:100DC00018968C91833709F00CCF000011CF18963C
:100DD0008C911897833709F08DCE5F96ED91FC9139
:100DE000909710829596ED91FC91969780818F7DDA
:100DF00080839596ED91FC919697808180628083A7
:100E00005F96ED91FC919097809165018083959616
:100E1000ED91FC91969780818F7D80839596ED91E1
:100E2000FC9196978081806280835F96ED91FC9122
:100E3000909780916601B5CE0F931F93CF93DF9368
:100E4000EC01E9A5FAA59FEF9083E9A5FAA58081B9
:100E50008F7B8083EDA1FEA182E78083EBA1FCA1C3
:100E60009083EF8DF8A180E88083EDA1FEA18081C1
:100E700084608083EDA1FEA180818F7D8083EDA1C0
:100E8000FEA1808180628083EDA1FEA180818B7FA5
:100E90008083EDA1FEA18081886080838F818D3A5F
:100EA00009F40CC18C3E09F404C1EF8DF8A1108245
:100EB000EDA1FEA180818F7D8083EDA1FEA18081C7
:100EC00080628083EF8DF8A11082EDA1FEA1808168
:100ED0008F7D8083EDA1FEA1808180628083EF8D74
:100EE000F8A1809165018083EDA1FEA180818F7DB5
:100EF0008083EDA1FEA1808180628083EF8DF8A1C7
:100F0000809166018083EDA1FEA180818F7D808329
:100F1000EDA1FEA1808180628083EF8DF8A1809198
:100F200067018083EDA1FEA180818F7D8083EDA18B
:100F3000FEA1808180628083EDA1FEA18081877FF8
:100F4000808380915E0190915F0100E010E0892B29
:100F5000B9F41CC0EF8DF8A18083EDA1FEA18081C2
:100F60008F7D8083EDA1FEA18081806280830F5FF1
:100F70001F4F80915E0190915F010817190730F4AF
:100F80000E947B0C8F3F2FEF920721F7EF8DF8A186
:100F900080E18083EDA1FEA1808184608083EDA14A
:100FA000FEA180818F7D8083EDA1FEA18081806282
:100FB0008083EDA1FEA180818B7F808380915E0183
:100FC00090915F010817190708F49DC039E020E7E8
:100FD0009FEF832F8A9501F0E9F7C895EF8DF8A16F
:100FE0002083EDA1FEA1808184608083EDA1FEA11C
:100FF00080818F7D8083EDA1FEA1808180628083CE
:10100000EDA1FEA180818B7F8083EBA1FCA11082EA
:10101000EF8DF8A1809156018083EDA1FEA1808122
:101020008D7F80830000E9A1FAA14081EDA1FEA19E
:10103000808182608083EBA1FCA1908346FFC9CFB1
:10104000EF8DF8A180E78083EDA1FEA1808184600F
:101050008083EDA1FEA180818F7D8083EDA1FEA123
:10106000808180628083EDA1FEA180818B7F80835F
:10107000EBA1FCA11082EF8DF8A180915601808335
:10108000EDA1FEA180818D7F80830000E9A1FAA1FE
:101090008081EDA1FEA1908192609083EBA1FCA1E3
:1010A0009FEF908380958170DF91CF911F910F9179
:1010B00008958885893709F0F8CE04CF888583376D
:1010C00009F0F3CEEF8DF8A11082EDA1FEA1808191
:1010D0008F7D8083EDA1FEA1808180628083EF8D72
:1010E000F8A1809165018083EDA1FEA180818F7DB3
:1010F0008083EDA1FEA1808180628083EF8DF8A1C5
:10110000809166010ECF8FEFCFCFFC01A1A5B2A5D4
:101110009FEF9C93A1A5B2A58C918F7B8C93A5A1E9
:10112000B6A182E78C93A3A1B4A19C93A78DB0A193
:1011300080E68C93A5A1B6A18C9184608C93A5A127
:10114000B6A18C918F7D8C93A5A1B6A18C91806264
:101150008C93A5A1B6A18C918B7F8C93A5A1B6A1F0
:101160008C9188608C9387818D3A09F4EEC0A78DAD
:10117000B0A1809165018C93A5A1B6A18C918F7DC2
:101180008C93A5A1B6A18C9180628C93A78DB0A100
:10119000809166018C93A5A1B6A18C918F7D8C93D3
:1011A000A5A1B6A18C9180628C93A78DB0A18091EE
:1011B00067018C93A5A1B6A18C918F7D8C93A5A17D
:1011C000B6A18C9180628C93A5A1B6A18C91877FEA
:1011D0008C93A78DB0A180ED8C93A5A1B6A18C9125
:1011E00084608C93A5A1B6A18C918F7D8C93A5A1D1
:1011F000B6A18C9180628C93A5A1B6A18C918B7FB6
:101200008C93A78DB0A180E78C93A5A1B6A18C91FA
:1012100084608C93A5A1B6A18C918F7D8C93A5A1A0
:10122000B6A18C9180628C93A5A1B6A18C918B7F85
:101230008C93A3A1B4A11C92A78DB0A1809156015B
:101240008C93A5A1B6A18C918D7F8C930000A1A158
:10125000B2A19C91A5A1B6A18C9182608C93A3A10F
:10126000B4A18FEF8C9397FF88C037E220E79FEF00
:10127000832F8A9501F0E9F7C895A78DB0A12C932B
:10128000A5A1B6A18C9184608C93A5A1B6A18C91E7
:101290008F7D8C93A5A1B6A18C9180628C93A5A122
:1012A000B6A18C918B7F8C93A3A1B4A11C92A78D26
:1012B000B0A1809156018C93A5A1B6A18C918D7F90
:1012C0008C930000A1A1B2A14C91A5A1B6A18C91D3
:1012D00082608C93A3A1B4A19C9346FFC9CFA78D34
:1012E000B0A180E78C93A5A1B6A18C9184608C936A
:1012F000A5A1B6A18C918F7D8C93A5A1B6A18C914F
:1013000080628C93A5A1B6A18C918B7F8C93A3A1B5
:10131000B4A11C92A78DB0A1809156018C93A5A178
:10132000B6A18C918D7F8C930000A1A1B2A18C916C
:10133000A5A1B6A19C9192609C9303A0F4A1E02D7D
:101340009FEF90838095817008958085833709F0A1
:101350000ECFA78DB0A1809165018C93A5A1B6A1F8
:101360008C918F7D8C93A5A1B6A18C9180628C937A
:10137000A78DB0A1809166011CCF8FEF0895CF9308
:10138000DF93CDB7DEB72A970FB6F894DEBF0FBE56
:10139000CDBF80E88093610091E09093610091E877
:1013A00095BF85BF11B814B817B81AB81DB810BAD0
:1013B00012B815B818B81BB81EB811BA0E945F0C45
:1013C0000E94780C8823E1F3E0915401F0915501DB
:1013D0008FEF8083E0915401F091550190819F7BC4
:1013E0009083E0915001F091510122E72083E09138
:1013F0004E01F0914F018083E0912901F0912A0183
:101400008083E0912901F0912A0190819F7B908354
:10141000E0912501F09126012083E0912301F091D4
:10142000240180838FE392E4AFE0B0E00197A1094B
:10143000B109000001F0D1F7C8950000CE0109966E
:101440005C0199249A9422E7822E3FE4432E33ECE8
:10145000532E612C712CC12CD12C40E2E42EF12CA6
:101460000E94A40C3324339490E2292E0E94780C1D
:101470008823B1F30E947B0C8F3FEFEF9E07B1F3FF
:101480008F30910598F7FC01ED5AFF4F0C94F41141
:1014900005E611E00E947B0C8F3F2FEF920709F4C5
:1014A000FDC1F80181938F01F1E008361F0791F724
:1014B00080E091E00E941C0718160CF4D7C081113F
:1014C000EDC186E50E94BB0CD1CF05E611E00E947C
:1014D0007B0C8F3F2FEF920709F4E0C1F801819355
:1014E0008F01F1E008361F0791F78BE40E94BB0CD7
:1014F00080E091E00E942505B9CF89E50E94BB0CF0
:10150000E0912901F0912A019082E0912901F09166
:101510002A0180818F7B8083E0912501F091260153
:101520008082E0912301F09124019082E0911F01DB
:10153000F09120019082E0912501F09126018081B7
:1015400084608083E0912501F091260180818F7D68
:101550008083E0912501F091260180818062808363
:10156000E0912501F091260180818B7F8083C982E3
:10157000DA82EB82FC8289819A81AB81BC81892BE2
:101580008A2B8B2BF1F0E0912701F09128018081CB
:1015900086FF04C016C0808186FD13C089819A81B0
:1015A000AB81BC810197A109B10989839A83AB837F
:1015B000BC8389819A81AB81BC81892B8A2B8B2B3F
:1015C00051F780E091E00E948901811170C1809102
:1015D00000010E94BB0C809101010E94BB0C809114
:1015E00002010E94BB0C809103010E94BB0C809100
:1015F00004010E94BB0C14E180E00E94BB0C11505E
:10160000D9F734CF05E611E00E947B0C8F3F2FEF16
:10161000920709F443C1F80181938F01F1E0083684
:101620001F0791F78BE291E00E9485081816F4F0ED
:10163000882309F446CF80E50E94BB0C17CF05E64E
:1016400011E00E947B0C8F3F2FEF920709F426C117
:10165000F80181938F01F1E008361F0791F78BE2C3
:1016600091E00E941C0718160CF029CF8BE40E9411
:10167000BB0CFCCE05E611E00E947B0C8F3F2FEFE8
:10168000920709F40BC1F80181938F01F1E008364C
:101690001F0791F78BE40E94BB0C8BE291E00E9444
:1016A0002505E4CE89E50E94BB0CE0915401F09140
:1016B00055019082E0915401F091550180818F7B1A
:1016C0008083E0915001F09151018082E0914E01C0
:1016D000F0914F019082E0914A01F0914B0190828C
:1016E000E0915001F0915101808184608083E0910C
:1016F0005001F091510180818F7D8083E0915001F4
:10170000F0915101808180628083E0915001F091DD
:10171000510180818B7F8083CD82DE82EF82F886CB
:101720008D819E81AF81B885892B8A2B8B2BF1F01F
:10173000E0915201F0915301808186FF04C016C0F0
:10174000808186FD13C08D819E81AF81B885019710
:10175000A109B1098D839E83AF83B8878D819E8156
:10176000AF81B885892B8A2B8B2B51F78BE291E0C7
:101770000E948901811196C080912B010E94BB0CAF
:1017800080912C010E94BB0C80912D010E94BB0C0A
:1017900080912E010E94BB0C80912F010E94BB0CF6
:1017A00014E180E00E94BB0C1150D9F75FCEFFEF2F
:1017B000F09356015BCEF8943092E0002092D8006E
:1017C0001092C900D301C2010197A109B10900001B
:1017D00001F0D1F7C89500001DBA109268001CBC3A
:1017E00010BE1FBA10927A0010926E0010926F0015
:1017F00010927000109271001092C9001092BC00FB
:1018000011B814B817B81AB81DB810BA12B815B86C
:1018100018B81BB81EB811BA0C9400FE27CE8091E0
:10182000481290914912009709F446C08501081B9F
:10183000190B81E40E94BB0C812F0E94BB0C802FEE
:101840000E94BB0C13CE80E00E94BB0C0FCE109206
:1018500056010CCE11B814B817B81AB81DB810BA82
:1018600012B815B818B81BB81EB811BAFFCD05E6E6
:1018700011E00E947B0C8F3F2FEF920779F0F80167
:1018800081938F01F1E008361F0799F780E091E01E
:101890000E94850818160CF0CBCEE8CE82E50E9497
:1018A000BB0CE4CD8BE291E00E943901DFCD80E0FA
:1018B00091E00E943901DACD8CE492E1B7CF81E862
:1018C0008093D70080EA8093D80086E189BD09B46F
:1018D00000FEFDCF80E98093D8001092E0001092C6
:1018E0006301109260018CE08093E2007894089587
:1018F0008091630108952FB7F89480916301882344
:10190000F9F083E08093E9008091E80085FD0CC048
:1019100082FF16C09BE602C082FF12C09093E800CF
:101920008091E80085FFF8CF8091F1009091E80068
:1019300095FD03C09BE69093E8002FBF90E00895CB
:101940002FBF8FEF9FEF089580916301882391F05F
:101950002FB7F89483E08093E9008091E80085FF39
:1019600007C09BE69093E8008091E80085FDFACFE0
:101970002FBF0895089590916301992309F443C0FE
:101980009FB7F89424E02093E90020916101211190
:1019900032C03091E400305F2091E80025FD1CC08A
:1019A0009FBF9091E400931781F190916301992377
:1019B00051F144E009C09FBF9091E400931729F1D1
:1019C000909163019923F9F09FB7F8944093E9004F
:1019D0002091E80025FFEFCF8093F1008091E8008F
:1019E00085FD03C08AE38093E80085E0809362016F
:1019F0009FBF80E008952091E80025FF03C010926A
:101A00006101C7CF9FBF8FEF089581E0809361018F
:101A10008FEF0895CF92DF92FF920F931F93CF9392
:101A2000DF936C01CB01209163012223B9F1CFB781
:101A3000F89424E02093E90020916101211137C03E
:101A4000009709F402C2D4E000E42AE3F22E15E084
:101A50003091E400305F2091E80025FF0DC02EC0DA
:101A6000209163012223D1F0CFB7F894D093E900FD
:101A70002091E80025FD22C0CFBF2091E400231370
:101A8000EFCF81E0809361018FEFDF91CF911F91C4
:101A90000F91FF90DF90CF900895CFBF8FEFDF9130
:101AA000CF911F910F91FF90DF90CF9008952091DB
:101AB000E80025FFF2CF10926101C2CF2091F20021
:101AC000402F421B242F30E08217930718F4482F31
:101AD0009C013327821B930B50E04134510510F0D9
:101AE000D601A1C14E595F4FFA010C94F411F601D1
:101AF00020812093F10096012F5F3F4F6901F6018D
:101B000020812093F10096012F5F3F4F6901D6019C
:101B10001196F60120812093F1006D01FFEFCF1A9D
:101B2000DF0A2C912093F100D6011196F601208155
:101B30002093F1006D01FFEFCF1ADF0A2C91209363
:101B4000F100D6011196F60120812093F1006D017C
:101B5000FFEFCF1ADF0A2C912093F100D6011196E6
:101B6000F60120812093F1006D01FFEFCF1ADF0A0B
:101B70002C912093F100D6011196F601208120933B
:101B8000F1006D01FFEFCF1ADF0A2C912093F100D5
:101B9000D6011196F60120812093F1006D01FFEF2F
:101BA000CF1ADF0A2C912093F100D6011196F6018D
:101BB00020812093F1006D01FFEFCF1ADF0A2C91F5
:101BC0002093F100D6011196F60120812093F100B7
:101BD0006D01FFEFCF1ADF0A2C912093F100D6019F
:101BE0001196F60120812093F1006D01FFEFCF1ACD
:101BF000DF0A2C912093F100D6011196F601208185
:101C00002093F1006D01FFEFCF1ADF0A2C91209392
:101C1000F100D6011196F60120812093F1006D01AB
:101C2000FFEFCF1ADF0A2C912093F100D601119615
:101C3000F60120812093F1006D01FFEFCF1ADF0A3A
:101C40002C912093F100D6011196F601208120936A
:101C5000F1006D01FFEFCF1ADF0A2C912093F10004
:101C6000D6011196F60120812093F1006D01FFEF5E
:101C7000CF1ADF0A2C912093F100D6011196F601BC
:101C800020812093F1006D01FFEFCF1ADF0A2C9124
:101C90002093F100D6011196F60120812093F100E6
:101CA0006D01FFEFCF1ADF0A2C912093F100D601CE
:101CB0001196F60120812093F1006D01FFEFCF1AFC
:101CC000DF0A2C912093F100D6011196F6012081B4
:101CD0002093F1006D01FFEFCF1ADF0A2C912093C2
:101CE000F100D6011196F60120812093F1006D01DB
:101CF000FFEFCF1ADF0A2C912093F100D601119645
:101D0000F60120812093F1006D01FFEFCF1ADF0A69
:101D10002C912093F100D6011196F6012081209399
:101D2000F1006D01FFEFCF1ADF0A2C912093F10033
:101D3000D6011196F60120812093F1006D01FFEF8D
:101D4000CF1ADF0A2C912093F100D6011196F601EB
:101D500020812093F1006D01FFEFCF1ADF0A2C9153
:101D60002093F100D6011196F60120812093F10015
:101D70006D01FFEFCF1ADF0A2C912093F100D601FD
:101D80001196F60120812093F1006D01FFEFCF1A2B
:101D9000DF0A2C912093F100D6011196F6012081E3
:101DA0002093F1006D01FFEFCF1ADF0A2C912093F1
:101DB000F100D6011196F60120812093F1006D010A
:101DC000FFEFCF1ADF0A2C912093F100D601119674
:101DD000F60120812093F1006D01FFEFCF1ADF0A99
:101DE0002C912093F100D6011196F60120812093C9
:101DF000F1006D01FFEFCF1ADF0A2C912093F10063
:101E0000D6011196F60120812093F1006D01FFEFBC
:101E1000CF1ADF0A2C912093F100D6011196F6011A
:101E200020812093F1006D01FFEFCF1ADF0A2C9182
:101E30002093F1002091E80025FFF092E800109334
:101E40006201CFBF009709F003CE80E028CED60113
:101E50008FCFD60180CFD60171CFD601E0CED6018B
:101E6000EBCED6015ACED60165CED6018ACED601AA
:101E700095CED6016CCED60177CED60111CFD60144
:101E800002CFD601F3CED601E4CED6014ACFD60199
:101E90003BCFD6012CCFD6011DCFD6010ECFD60118
:101EA0009BCFD6018CCFD6017DCFD6016ECFD60188
:101EB000ADCFD6019ECFD60198CED601A3CED60106
:101EC0007ACED60185CE1F920F920FB60F921124B3
:101ED0008F939F938091E1001092E10083FF11C0E6
:101EE0001092E90091E09093EB001092EC0092E1E7
:101EF0009093ED0098E09093F0001092630110929F
:101F0000600182FF13C080916301882379F0809182
:101F10006201882359F0815080936201811106C0CB
:101F200084E08093E9008AE38093E8009F918F9199
:101F30000F900FBE0F901F9018951F920F920FB623
:101F40000F9211240BB60F922F933F934F935F93F1
:101F50006F937F938F939F93AF93BF93EF93FF9371
:101F60001092E9008091E80083FF2BC06091F1009E
:101F70004091F1008091F1002091F10090E0922BCE
:101F80002091F1005091F10030E0352BB091F1003B
:101F9000A091F10052EF5093E800463009F44EC092
:101FA000453009F426C1493009F4BCC0483009F471
:101FB0002BC1413209F45EC1403209F0B8C161322F
:101FC000B1F081E28093EB00FF91EF91BF91AF916F
:101FD0009F918F917F916F915F914F913F912F9141
:101FE0000F900BBE0F900FBE0F901F901895809111
:101FF000E80082FFFCCF8091F1008093570180912F
:10200000F100809358018091F100809359018091F3
:10201000F10080935A018091F10080935B018091DF
:10202000F10080935C018091F10080935D018BEF62
:102030008093E8008EEF8093E800C6CFE6E4F1E0FD
:10204000459154918417950709F43FC14DE451E03F
:10205000FA01659174918617970709F441C1495FA8
:102060005F4FFA01659174918617970709F441C192
:10207000495F5F4FFA01659174918617970709F4DC
:1020800041C1495F5F4FFA016591749186179707C7
:1020900009F441C1495F5F4FFA0165917491861758
:1020A000970709F08ECFFA013296859194912817FF
:1020B000390709F086CFFA01349625913491FA0157
:1020C000369644918B2F90E09A2B8F3F910519F013
:1020D00010F08FEF90E0841708F4482F6EEF809196
:1020E000E800982F9570D9F382FD6ECF542F4131BF
:1020F00008F4E6C050E1F901852F94919093F10026
:10210000815031968111F9CF8FEF850F90E00196C4
:10211000280F391F451B6093E8004111E0CF503173
:10212000F1F252CF611172C080936301109260018D
:10213000109262018EEF8093E80081E08093E900C5
:10214000E5E2F2E0E491E093EB00EE2309F4ECC069
:10215000E6E2F2E0E491E093EC00E7E2F2E0E49101
:10216000E093ED0028E232E082E08093E900C901CB
:102170000196F90144914093EB00442351F0FC0196
:1021800084918093EC00C9010396319624912093A9
:10219000ED0023E02093E9009C012F5F3F4FFC01FD
:1021A00044914093EB00442359F0F901249120938A
:1021B000EC009C012D5F3F4F319684918093ED00A0
:1021C00084E08093E900C9010196F90144914093AC
:1021D000EB00442341F0FC0184918093EC003196A4
:1021E00024912093ED008EE18093EA001092EA00A2
:1021F000EBCE2EEF2093E8002091E80020FFFCCFEB
:1022000080688093E300E0CE603841F1542F5D7F19
:10221000513009F0D6CE623009F0D3CE892B09F0C7
:10222000D0CE2F778FEF820F843008F0CACE8EEF9A
:102230008093E8002093E900433009F4C2CE89E19D
:102240008093EB0081E090E0022E01C0880F0A9499
:10225000EAF78093EA001092EA00B6CE8091E80097
:1022600080FFFCCF809163018093F1008EEF80931B
:10227000E800AACE613A51F68091E80080FFFCCFD9
:10228000809157018093F100809158018093F10073
:10229000809159018093F10080915A018093F1005F
:1022A00080915B018093F10080915C018093F1004B
:1022B00080915D018093F1008EEF8093E80084CEE1
:1022C000411119CF6093E8007FCEE8E4F1E0459139
:1022D00054912417350709F0B9CE46E451E0EBCE0E
:1022E000FA013296659174912617370709F0B7CE37
:1022F000E2CEFA013296659174912617370709F0FC
:10230000B7CED9CEFA013296659174912617370768
:1023100009F0B7CED0CEFA013296659174912617A6
:10232000370709F0B7CEC7CE26E232E01DCF4232E2
:1023300069F4613209F045CE809360018091E80034
:1023400080FFFCCF8EEF8093E8003ECE41115ECF40
:102350008091E80080FFFCCF623831F080E080930C
:10236000F1001092F100EECF2093E9008091EB0094
:1023700085FB882780F91092E900F1CFAA1BBB1BCF
:1023800051E107C0AA1FBB1FA617B70710F0A61B75
:10239000B70B881F991F5A95A9F780959095BC0196
:1023A000CD010895A1E21A2EAA1BBB1BFD010DC091
:1023B000AA1FBB1FEE1FFF1FA217B307E407F507F5
:1023C00020F0A21BB30BE40BF50B661F771F881FD1
:1023D000991F1A9469F760957095809590959B0167
:1023E000AC01BD01CF010895EE0FFF1F0590F491E0
:1023F000E02D09940E940D12A59F900DB49F900DA1
:10240000A49F800D911D11240895B7FF0C94FA111B
:102410000E94FA11821B930B0895A29FB001B39FF3
:10242000C001A39F700D811D1124911DB29F700DDD
:0C243000811D1124911D0895F894FFCF28
:10243C000000000000000000000000000000000090
:10244C000000000000000000000000000000002858
:10245C0000260027002B0029002A000000000000A5
:10246C000000000000000000000000000000000060
:10247C000000000000000000000031002F003000C0
:0E248C00250023002400FF00E10000000008EE
:00000001FF
