:100000000C9402010C9421010C9421010C94210107
:100010000C9421010C9421010C9421010C942101D8
:100020000C9421010C9421010C94E40C0C941E0DF1
:100030000C9421010C9421010C9421010C942101B8
:100040000C9421010C9421010C9421010C942101A8
:100050000C9421010C9421010C9421010C94210198
:100060000C9421010C9421010C9421010C94210188
:100070000C9421010C9421010C9421010C94210178
:100080000C9421010C9421010C9421010C94210168
:100090000C9421010C9421017C0C790C760C730CCE
:1000A000700C6D0C6A0C670C640C610C5E0C5B0CC4
:1000B000580C550C520C4F0C4C0C490C460C430C74
:1000C000400C3D0C3A0C370C340C310C2E0C2B0C24
:1000D000280C250C220C1F0C1C0C190C160C130CD4
:1000E000100C0D0C0A0C070C040C010CFE0BFB0B86
:1000F000F80BF50BF20BEF0BEC0BE90BE60BE30B3C
:10010000E00BDD0BDA0BD70BD40BD10BCE0BCB0BEB
:10011000C80BC50BC20BBF0BBC0B000100004E018E
:10012000120002000060014300030000A30104016B
:10013000030904A7010E02030904B7013C030309E4
:1001400004F5010C0001C112018036018136120153
:10015000000202000010C0167A040001010203012F
:1001600009024300020100C0FA0904000001020272
:1001700001000524001001052401010104240206E8
:100180000524060001070582031000400904010050
:10019000020A000000070503024000000705840270
:1001A000400000040309040E036A00750064006740
:1001B000006500730000003C034E004F00520077C2
:1001C00000610079002000500053003300200046F9
:1001D000006C00610073006800650072002000552B
:1001E0000053004200200053006500720069006166
:1001F000006C0000000C0331003200330034003585
:100200000000000011241FBECFEFD0E2DEBFCDBF43
:1002100011E0A0E0B1E0EEEEF5E200E00BBF02C0BD
:1002200007900D92A436B107D9F712E1A4E6B1E028
:1002300001C01D92A235B107E1F70E94690F0C942D
:10024000F5120C940000CF93DF93EC0188810E949B
:10025000ED0A89810E94ED0A8A810E94ED0A8B8154
:100260000E94ED0A8C810E94ED0A8C850E94ED0AA5
:100270008B850E94ED0A8A850E94ED0A89850E947D
:10028000ED0A8E810E94ED0A8D810E94ED0A898D12
:100290000E94ED0A8C890E94ED0A8B890E94ED0A6A
:1002A0008A890E94ED0A89890E94ED0A888D0E9440
:1002B000ED0A8F890E94ED0A8E890E94ED0A8D89D0
:1002C0000E94ED0A8A8D0E94ED0A8E8D0E94ED0A31
:1002D0008D8D0E94ED0A8C8D0E94ED0A8B8D0E94FF
:1002E000ED0ADF91CF910895FC01A1A5B2A59FEF82
:1002F0009C93A1A5B2A58C918F7B8C93A5A1B6A14F
:1003000082E78C9303A0F4A1E02D9083089511B8A7
:1003100014B817B81AB81DB810BA12B815B818B86A
:100320001BB81EB811BA0895CF93DF9300D000D048
:10033000CDB7DEB740E050E060E270E049835A8319
:100340006B837C8349815A816B817C814115510586
:1003500061057105F9F0DC019796ED91FC91989794
:10036000808186FF04C01EC0808186FD1BC08981FC
:100370009A81AB81BC810197A109B10989839A83D4
:10038000AB83BC8389819A81AB81BC810097A10535
:10039000B10551F780E00F900F900F900F90DF9113
:1003A000CF91089581E00F900F900F900F90DF9103
:1003B000CF910895CF93DF9300D000D0CDB7DEB7B3
:1003C000FC01A1A5B2A58FEF8C93A1A5B2A59C912C
:1003D0009F7B9C93A5A1B6A192E79C93A3A1B4A1F6
:1003E0008C93A78DB0A18C93A5A1B6A18C918460AC
:1003F0008C93A5A1B6A18C918F7D8C93A5A1B6A15C
:100400008C9180628C93A5A1B6A18C918B7F8C93EB
:1004100080E090E0A0E2B0E089839A83AB83BC8364
:1004200089819A81AB81BC810097A105B105E9F072
:1004300007A0F0A5E02D808186FF04C016C0808152
:1004400086FD13C089819A81AB81BC810197A10986
:10045000B10989839A83AB83BC8389819A81AB81FB
:10046000BC810097A105B10551F70F900F900F9037
:100470000F90DF91CF9108954F925F926F927F928C
:100480008F929F92AF92BF92CF92DF92EF92FF92A4
:100490000F931F93CF93DF93EC01E9A5FAA59FEF8C
:1004A0009083E9A5FAA580818F7B8083EDA1FEA1D1
:1004B00082E78083EBA1FCA19083EF8DF8A180E916
:1004C0008083EDA1FEA1808184608083EDA1FEA1E7
:1004D00080818F7D8083EDA1FEA1808180628083F9
:1004E000EDA1FEA180818B7F8083EDA1FEA18081A3
:1004F00088608083EF8DF8A11082EDA1FEA180813C
:100500008F7D8083EDA1FEA1808180628083EDA13B
:10051000FEA18081877F8083EBA1FCA11082EF8DFB
:10052000F8A1809156018083EDA1FEA180818D7F8D
:1005300080830000E9A1FAA18081EDA1FEA1908154
:1005400092609083EDA1FEA190819D7F9083000039
:10055000E9A1FAA19081EDA1FEA120812260208372
:10056000EDA1FEA120812D7F20830000E9A1FAA149
:100570003081EDA1FEA1208122602083EDA1FEA1AA
:1005800020812D7F20830000E9A1FAA12081EDA127
:10059000FEA1408142604083EDA1FEA140814D7FDC
:1005A00040830000E9A1FAA10081EDA1FEA14081F4
:1005B00042604083888399833A832B830C838F83A3
:1005C00098878D3A09F4CFC08C3E09F4C4C0802FBF
:1005D000869586958370E1E0F0E001C0EE0F8A9584
:1005E000EAF7A22EBB24C5018370907040E054E06E
:1005F00002C0440F551F8A95E2F7662757FD6095A4
:10060000762F49875A876B877C87950120733070D6
:1006100035952795359527953595279535952795C2
:1006200080E090E0A1E0B0E004C0880F991FAA1F0D
:10063000BB1F2A95D2F7898B9A8BAB8BBC8BEA8F29
:100640006A017B0129E0F694E794D794C7942A9530
:10065000D1F7C5018470907095958795959587958C
:1006600028E030E002C0220F331F8A95E2F74427CA
:1006700037FD4095542FC701B6010E947111DC016E
:10068000CB0180319105A105B105B9F08034910508
:10069000A105B10591F080E0DF91CF911F910F91FD
:1006A000FF90EF90DF90CF90BF90AF909F908F9092
:1006B0007F906F905F904F9008959E838D830295F9
:1006C0000770043009F490C0053008F07EC0023095
:1006D00009F434C1033008F41DC180E090E0A0E0CB
:1006E000B4E08B8F9C8FAD8FBE8FA6FC86C088E058
:1006F000898F6A8D70E080E090E02B8D3C8D4D8D70
:100700005E8D89889A88AB88BC880E947111A5018A
:1007100094010E94A41169017A0149845A846B846E
:100720007C84C501B401A30192010E94A411890136
:100730009A018D819E81840D951DCD8ADE8AEF8A76
:10074000F88E0D871E872F87388B909365018093D5
:10075000640181E0A1CF913F19F0913A09F037CFC0
:10076000E1E000E43ECF973D09F449C0933709F03A
:100770002ECF80E092E0A0E0B0E089879A87AB8737
:10078000BC8780E090E4A0E0B0E0898B9A8BAB8BD3
:10079000BC8B81E08A8F80E190E09E838D8380E036
:1007A00090E0A0E0B1E08B8F9C8FAD8FBE8F88E092
:1007B000898F80E192E000E210E020E030E0C12C7F
:1007C00044E0D42EE12CF12CB8CF063009F4ADC0B2
:1007D000063008F08BC080E090E0A0E0B0E18B8FA5
:1007E0009C8FAD8FBE8F81CF80E090E0A0E0B8E01D
:1007F0008B8F9C8FAD8FBE8F78CF80E179CF322FDA
:10080000337080E098E002C0880F991F3A95E2F7B4
:10081000AA2797FDA095BA2F89879A87AB87BC87AF
:1008200088E0898F06950695037081E090E002C00C
:10083000880F991F0A95E2F78A8F80E090E0A0E088
:10084000B0E88B8F9C8FAD8FBE8F822F807B8032E4
:1008500009F4F1C0813208F07AC0882309F0DFC0C2
:1008600080E090E0A2E0B0E0898B9A8BAB8BBC8BF0
:1008700026952695822F90E0A0E0B0E083709070DE
:10088000A070B07081309105A105B10509F49FC039
:1008900081309105A105B10508F06BC080E890E0BA
:1008A0009E838D836A8D70E080E090E02B8D3C8D7F
:1008B0004D8D5E8D49885A886B887C880E947111A5
:1008C000A30192010E94A41169017A0189849A848A
:1008D000AB84BC84C301B201A50194010E94A411A0
:1008E00089019A01C40180589F4F27CF073049F0F2
:1008F00080E090E0A0E8B0E08B8F9C8FAD8FBE8F42
:10090000F4CE80E090E0A0E0B0E48B8F9C8FAD8FC0
:10091000BE8FEBCE013061F780E090E0A0E0B1E067
:100920008B8F9C8FAD8FBE8FE0CE80E090E0A0E0FB
:10093000B0E28B8F9C8FAD8FBE8FD7CE80E090E0E2
:10094000A0E0B2E08B8F9C8FAD8FBE8FCECE803873
:1009500009F483C0803909F477C0803309F09BCE55
:1009600080E090E0ACE0B0E0898B9A8BAB8BBC8BE5
:100970007FCF82309105A105B10509F08CCE80ECC6
:1009800091E09E838D836A8D70E080E090E02B8DF6
:100990003C8D4D8D5E8D49885A886B887C880E947D
:1009A0007111A30192010E94A41169017A01898445
:1009B0009A84AB84BC84C301B201A50194010E9456
:1009C000A41189019A01C40180549E4FB6CE80EED5
:1009D00090E09E838D836A8D70E080E090E02B8DA7
:1009E0003C8D4D8D5E8D49885A886B887C880E942D
:1009F0007111A30192010E94A41169017A018984F5
:100A00009A84AB84BC84C301B201A50194010E9405
:100A1000A41189019A01C40180529F4F8ECE80316A
:100A200009F039CE80E090E0A4E0B0E0898B9A8BA9
:100A3000AB8BBC8B1DCF80E090E0A8E0B0E0898B51
:100A40009A8BAB8BBC8B14CF80E090E0A0E2B0E03F
:100A5000898B9A8BAB8BBC8B0BCF80E090E0A0E1B5
:100A6000B0E0898B9A8BAB8BBC8B02CFEF92FF925D
:100A70000F931F93CF93DF9300D000D0CDB7DEB795
:100A80008C01DC019996ED91FC919A979FEF9083F0
:100A90009996ED91FC919A9780818F7B80839596B2
:100AA000ED91FC91969782E780839396ED91FC916E
:100AB000949790835F96ED91FC9190971082959614
:100AC000ED91FC9196978081846080839596ED915D
:100AD000FC91969780818F7D80839596ED91FC9116
:100AE00096978081806280839596ED91FC91969790
:100AF00080818B7F80839596ED91FC919697808184
:100B00008860808317968C9117978D3A09F449C1B4
:100B1000D8015F96ED91FC91909710829596ED919A
:100B2000FC91969780818F7D80839596ED91FC91C5
:100B300096978081806280835F96ED91FC9190977B
:100B400010829596ED91FC91969780818F7D8083A0
:100B50009596ED91FC9196978081806280835F9657
:100B6000ED91FC91909780916B0180839596ED912A
:100B7000FC91969780818F7D80839596ED91FC9175
:100B800096978081806280835F96ED91FC9190972B
:100B900080916C0180839596ED91FC919697808170
:100BA0008F7D80839596ED91FC91969780818062F0
:100BB00080835F96ED91FC91909780916D01808389
:100BC0009596ED91FC91969780818F7D8083959687
:100BD000ED91FC919697808180628083D8019596F3
:100BE000ED91FC9196978081877F808317968C91F9
:100BF00017978D3A09F40AC1D8015F96ED91FC91DF
:100C0000909780E38083D8019596ED91FC9196971B
:100C10008081846080839596ED91FC919697808188
:100C20008F7D80839596ED91FC919697808180626F
:100C300080839596ED91FC91969780818B7F808340
:100C40009396ED91FC91949710825F96ED91FC91B3
:100C50009097809156018083EFB6F89480E090E001
:100C6000A0E2B0E089839A83AB83BC8389819A81B7
:100C7000AB81BC810097A105B105F9F0D801979629
:100C8000ED91FC919897808186FF04C016C0808109
:100C900086FD13C089819A81AB81BC810197A1092E
:100CA000B10989839A83AB83BC8389819A81AB81A3
:100CB000BC810097A105B10551F7E0916401F09165
:100CC0006501B0E1E03EFB07B8F1FF24EEE6F1E09C
:100CD000D80195962D913C919697D9018C918D7F55
:100CE0008C930000D80191968D919C919297DC0194
:100CF0008C918193D80195962D913C919697D9012D
:100D00008C9182608C93B2E1EE34FB0709F78EE69A
:100D100091E060EE70E10E94610BF394E091640158
:100D2000F09165012F2D30E0CF0160EE70E10E945F
:100D300090112617370750F2CF0160EE70E10E9444
:100D40009011BC010097E1F0AEE6B1E08A0F9B1F65
:100D5000F80145A156A1FA0120812D7F20830000D2
:100D6000F80121A132A1F90120812D93F80145A1BB
:100D700056A1FA01208122602083A817B90741F704
:100D80008EE691E00E94610BEFBE81E00F900F9024
:100D90000F900F90DF91CF911F910F91FF90EF90E7
:100DA000089518968C911897833709F0B1CE5F9605
:100DB000ED91FC91909710829596ED91FC9196970C
:100DC00080818F7D80839596ED91FC9196978081AF
:100DD000806280835F96ED91FC91909780916B018A
:100DE00080839596ED91FC91969780818F7D80838D
:100DF0009596ED91FC9196978081806280835F96B5
:100E0000ED91FC91909780916C01D9CE18968C91C0
:100E10001897833709F0F0CE0000F5CEFC01A78DBE
:100E2000B0A180E78C93A5A1B6A18C9184608C932E
:100E3000A5A1B6A18C918F7D8C93A5A1B6A18C9113
:100E400080628C93A5A1B6A18C918B7F8C93A3A17A
:100E5000B4A11C92A78DB0A1809156018C93A5A13D
:100E6000B6A18C918D7F8C930000A1A1B2A18C9131
:100E7000A5A1B6A19C9192609C9303A0F4A1E02D42
:100E80009FEF908308950F931F93CF93DF938C016F
:100E9000DC019996ED91FC919A979FEF908399963A
:100EA000ED91FC919A9780818F7B80839596ED914F
:100EB000FC91969782E780839396ED91FC919497AD
:100EC00090835F96ED91FC91909780E88083959652
:100ED000ED91FC9196978081846080839596ED9149
:100EE000FC91969780818F7D80839596ED91FC9102
:100EF00096978081806280839596ED91FC9196977C
:100F000080818B7F80839596ED91FC91969780816F
:100F10008860808317968C9117978D3A09F4E2C008
:100F2000D8015F96ED91FC91909710829596ED9186
:100F3000FC91969780818F7D80839596ED91FC91B1
:100F400096978081806280835F96ED91FC91909767
:100F500010829596ED91FC91969780818F7D80838C
:100F60009596ED91FC9196978081806280835F9643
:100F7000ED91FC91909780916B0180839596ED9116
:100F8000FC91969780818F7D80839596ED91FC9161
:100F900096978081806280835F96ED91FC91909717
:100FA00080916C0180839596ED91FC91969780815C
:100FB0008F7D80839596ED91FC91969780818062DC
:100FC00080835F96ED91FC91909780916D01808375
:100FD0009596ED91FC91969780818F7D8083959673
:100FE000ED91FC919697808180628083D8019596DF
:100FF000ED91FC9196978081877F80838091640139
:1010000090916501C0E0D0E00097E9F422C0D801DA
:101010005F96ED91FC91909780839596ED91FC9170
:10102000969780818F7D80839596ED91FC91969720
:101030008081806280832196809164019091650116
:10104000C817D90730F40E94930ABFEF8F3F9B0760
:10105000F1F6D8015F96ED91FC91909780E1808345
:101060009596ED91FC91969780818460808395960A
:10107000ED91FC91969780818F7D80839596ED917F
:10108000FC9196978081806280839596ED91FC918A
:10109000969780818B7F8083809164019091650118
:1010A000C817D90708F453C0C9E08C2F8A9501F0FE
:1010B000E9F7C895C8010E940E0786FFF6CFC80160
:1010C0000E940E0791E080FD06C0892FDF91CF912D
:1010D0001F910F91089590E0892FDF91CF911F917B
:1010E0000F91089518968C911897833709F018CFAF
:1010F0005F96ED91FC91909710829596ED91FC9101
:10110000969780818F7D80839596ED91FC9196973F
:101110008081806280835F96ED91FC9190978091B1
:101120006B0180839596ED91FC91969780818F7DE0
:1011300080839596ED91FC91969780818062808363
:101140005F96ED91FC91909780916C0140CF9FEF5D
:10115000BCCF1F93CF93DF93EC01E9A5FAA59FEFD6
:101160009083E9A5FAA580818F7B8083EDA1FEA104
:1011700082E78083EBA1FCA19083EF8DF8A180E64C
:101180008083EDA1FEA1808184608083EDA1FEA11A
:1011900080818F7D8083EDA1FEA18081806280832C
:1011A000EDA1FEA180818B7F8083EDA1FEA18081D6
:1011B000886080838F818D3A09F46BC0EF8DF8A130
:1011C00080916B018083EDA1FEA180818F7D808362
:1011D000EDA1FEA1808180628083EF8DF8A18091D6
:1011E0006C018083EDA1FEA180818F7D8083EDA1C4
:1011F000FEA1808180628083EF8DF8A180916D01D6
:101200008083EDA1FEA180818F7D8083EDA1FEA171
:10121000808180628083EDA1FEA18081877F8083B1
:10122000EF8DF8A180ED8083EDA1FEA18081846027
:101230008083EDA1FEA180818F7D8083EDA1FEA141
:10124000808180628083EDA1FEA180818B7F80837D
:10125000CE010E940E0787FF34C017E2812F8A95C6
:1012600001F0E9F7C895CE010E940E0786FFF6CF80
:10127000CE010E940E0791E080FD05C0892FDF910D
:10128000CF911F91089590E0892FDF91CF911F9109
:1012900008958885833709F091CFEF8DF8A180916B
:1012A0006B018083EDA1FEA180818F7D8083EDA104
:1012B000FEA1808180628083EF8DF8A180916C0116
:1012C0009FCF9FEF892FDF91CF911F910895CF93EB
:1012D000DF93EC010E94930A2FEF8F3F9207D9F022
:1012E00080936B010E94930A2FEF8F3F920799F032
:1012F00080936C010E94930A2FEF8F3F920759F061
:1013000080936D018BE40E94ED0ACE010E943605A8
:10131000DF91CF91089582E50E94ED0ADF91CF9190
:101320000895CF93DF93EC010E94930A2FEF8F3F34
:10133000920729F180936B010E94930A2FEF8F3F50
:101340009207E9F080936C010E94930A2FEF8F3F80
:101350009207A9F080936D01CE010E9443071816F1
:1013600044F0882361F486E50E94ED0ADF91CF9175
:1013700008958BE40E94ED0ADF91CF91089582E5F4
:101380000E94ED0ADF91CF910895CF93DF93EC0196
:101390000E94930A2FEF8F3F920749F180936B01D0
:1013A0000E94930A2FEF8F3F920709F180936C01FF
:1013B0000E94930A2FEF8F3F9207C9F080936D012F
:1013C000CE010E94A908181644F0882361F486E52E
:1013D0000E94ED0ADF91CF9108958BE40E94ED0AFF
:1013E000DF91CF91089580E50E94ED0AF3CF82E569
:1013F0000E94ED0ADF91CF910895CF93DF93EC0126
:101400000E94DA01CE010E943C028823C1F4888147
:101410000E94ED0A89810E94ED0A8A810E94ED0AEC
:101420008B810E94ED0A8C810E94ED0AC4E180E06C
:101430000E94ED0AC150D9F7DF91CF910895CE01F6
:101440000E942301DF91CF910895F89481E0809369
:10145000E00080E28093D800E9ECF0E010828FE4B5
:1014600093ECA0E0B0E00197A109B109000001F000
:10147000D1F7C89500001DBA109268001CBC10BEC0
:101480001FBA10927A0010926E0010926F001092A4
:1014900070001092710010821092BC0011B814B844
:1014A00017B81AB81DB810BA12B815B818B81BB8C2
:1014B0001EB811BA0C9400FE0895CF93DF9300D0AC
:1014C000CDB7DEB780914E1290914F12009761F028
:1014D0009E012F5F3F4FA901481B590BCA010F9076
:1014E0000F90DF91CF91089582E592E1F1CF81E8ED
:1014F0008093D70080EA8093D80086E189BD09B443
:1015000000FEFDCF80E98093D8001092E000109299
:101510006701109268018CE08093E200789408954E
:101520008091670108953FB7F894809167018823FF
:10153000F9F083E08093E9008091E80085FD0CC01C
:1015400082FF16C09BE602C082FF12C09093E800A3
:101550008091E80085FFF8CF8091F1009091E8003C
:1015600095FD03C09BE69093E8003FBF90E008958F
:101570003FBF8FEF9FEF08959FB7F8948091670169
:10158000882391F083E08093E9008091F200882322
:1015900049F42091E80022FF05C025FD03C02BE699
:1015A0002093E8009FBF089580E09FBF0895809139
:1015B0006701882389F02FB7F89483E08093E900CE
:1015C0008091E80085FF07C09BE69093E80080913A
:1015D000E80085FDFACF2FBF089590916701992308
:1015E00009F449C09FB7F89424E02093E9002091C2
:1015F0006901222391F53091E4002091E80025FD56
:101600001DC0305F9FBF9091E400931769F19091E6
:101610006701992381F144E009C09FBF9091E400E4
:10162000931711F190916701992319F19FB7F894DD
:101630004093E9002091E80025FFEFCF8093F1006F
:101640008091E80085FD03C08AE38093E80085E08F
:10165000809366019FBF80E008952091E80025FFF8
:101660000CC010926901C7CF81E0809369018FEFB0
:1016700008958FEF08958FEF08959FBF8FEF08951E
:10168000909167019923C1F02FB7F89494E090935B
:10169000E9009091E80095FF11C08093F1008091DE
:1016A000E80085FD03C08AE38093E80085E080932D
:1016B00066012FBF80E008958FEF08952FBF8FEF51
:1016C0000895CF93DC0180916701882381F12FB7C2
:1016D000F89484E08093E90080916901882351F5B2
:1016E0006115710509F415C134E050E4CAE345E021
:1016F0009091E4008091E80085FD23C0905F2FBFAA
:101700008091E400891779F406C12FB7F8943093DB
:10171000E9008091E80085FD14C02FBF8091E400AE
:10172000891709F4F8C080916701882371F78FEF5A
:10173000CF9108958091E80085FFF3C01092690170
:10174000CFCF8091F200E52FE81B8E2F90E0681735
:10175000790718F4E62F862F90E0681B790BF0E0EC
:10176000E134F10508F0C5C0E45BFF4FEE0FFF1F49
:101770000590F491E02D09948D918093F1008D9165
:101780008093F1008D918093F1008D918093F10011
:101790008D918093F1008D918093F1008D918093D4
:1017A000F1008D918093F1008D918093F1008D91E6
:1017B0008093F1008D918093F1008D918093F100E1
:1017C0008D918093F1008D918093F1008D918093A4
:1017D000F1008D918093F1008D918093F1008D91B6
:1017E0008093F1008D918093F1008D918093F100B1
:1017F0008D918093F1008D918093F1008D91809374
:10180000F1008D918093F1008D918093F1008D9185
:101810008093F1008D918093F1008D918093F10080
:101820008D918093F1008D918093F1008D91809343
:10183000F1008D918093F1008D918093F1008D9155
:101840008093F1008D918093F1008D918093F10050
:101850008D918093F1008D918093F1008D91809313
:10186000F1008D918093F1008D918093F1008D9125
:101870008093F1008D918093F1008D918093F10020
:101880008D918093F1008D918093F1008D918093E3
:10189000F1008D918093F1008D918093F1008D91F5
:1018A0008093F1008D918093F1008D918093F100F0
:1018B0008D918093F1008D918093F1008D918093B3
:1018C000F1008D918093F1008D918093F1008D91C5
:1018D0008093F1008D918093F1008D918093F100C0
:1018E0008D918093F1008D918093F1008D91809383
:1018F000F1008D918093F1008091E80085FD02C098
:10190000C093E800409366012FBF6115710509F08F
:10191000EFCE80E00DCF81E0809369018FEFCF9112
:1019200008952FBF8FEF04CF8FB7F8949091660181
:10193000992341F094E09093E9009AE39093E800B2
:10194000109266018FBF0895609157017091580100
:101950008091590190915A01089580915B010895F9
:1019600080915C01089580915D01089580916801E6
:1019700008952FB7F89490916701992311F192E09F
:101980009093E9009091E80095FF1BC091EA909335
:10199000F10090E29093F1001092F1001092F100AA
:1019A0001092F1001092F10091E09093F1001092EA
:1019B000F1008093F1008AE38093E8002FBF80E07C
:1019C00008952FBF8FEF08951F920F920FB60F92B9
:1019D00011248F939F938091E1001092E10083FF87
:1019E00011C01092E90091E09093EB001092EC008E
:1019F00092E19093ED0098E09093F00010926701CF
:101A00001092680182FF13C080916701882379F0EA
:101A100080916601882359F0815080936601882364
:101A200031F484E08093E9008AE38093E8009F9199
:101A30008F910F900FBE0F901F9018951F920F92CD
:101A40000FB60F920BB60F9211240F931F932F9383
:101A50003F934F935F936F937F938F939F93AF9336
:101A6000BF93CF93EF93FF931092E9008091E8002A
:101A700083FF71C0E091F1006091F1002091F100CD
:101A800030E04091F100942F80E0282B392B4091D9
:101A9000F10050E07091F100972F80E0482B592B16
:101AA000A091F100C091F10082EF8093E8006630D0
:101AB000E1F0653009F4E7C0693009F465C06830C9
:101AC00009F4ECC0613209F4F8C0603209F41CC1B9
:101AD000623209F0C5C0E13209F03DC020936801CF
:101AE0008091E80080FFFCCFCAC06AE171E0FB0191
:101AF000859194912817390709F4A5C1695F7F4F33
:101B0000FB01859194912817390709F4A5C168E272
:101B100071E0FB01859194912817390709F4A9C157
:101B20006FE271E0FB01859194912817390709F460
:101B3000ADC166E371E0FB018591949128173907E7
:101B400009F4BBC1695F7F4FFB0185919491281710
:101B5000390709F403C181E28093EB00FF91EF9113
:101B6000CF91BF91AF919F918F917F916F915F9135
:101B70004F913F912F911F910F910F900BBE0F909E
:101B80000FBE0F901F901895EE2329F72093670141
:101B900010926801109266018EEF8093E80081E058
:101BA0008093E90024E431E0F90184918093EB0013
:101BB000882309F48BC13196E491E093EC00F9019C
:101BC0003296E491E093ED002D5F3F4F82E08093E9
:101BD000E900C9010196F90144914093EB004423C7
:101BE00061F0FC0184918093EC00C90103962E5FA3
:101BF0003F4FF90124912093ED0023E02093E90069
:101C00009C012F5F3F4FFC0144914093EB00442324
:101C100061F0F90124912093EC009C012D5F3F4F6E
:101C20000296FC0184918093ED0084E08093E900AA
:101C3000C9010196F90144914093EB00442351F00E
:101C4000FC0184918093EC002E5F3F4FF9012491B9
:101C50002093ED008EE18093EA001092EA007ECF9F
:101C6000662309F0C6C08091E80080FFFCCFE2380F
:101C700009F419C180E08093F1001092F1008EEF19
:101C80008093E8006BCF8EEF8093E8008091E800AE
:101C900080FFFCCF20682093E30060CFE03809F09C
:101CA0005ACF8091E80080FFFCCF8091670180933C
:101CB000F1008EEF8093E80051CFE13A09F04BCF6D
:101CC0008091E80080FFFCCF809157018093F10064
:101CD000809158018093F100809159018093F10027
:101CE00080915A018093F10080915B018093F10013
:101CF00080915C018093F10080915D018093F100FF
:101D00008EEF8093E8002ACFE13209F024CF809152
:101D1000E80082FFFCCF8091F10080935701809111
:101D2000F100809358018091F100809359018091D6
:101D3000F10080935A018091F10080935B018091C2
:101D4000F10080935C018091F10080935D018BEF45
:101D50008093E8008EEF8093E80000CFFB0132967D
:101D6000859194914817590709F0F5CEFB013496F7
:101D700025913491C9016A5F7F4FFB016491B0E006
:101D80003C2F20E0A22BB32BAF3FB10519F010F090
:101D9000AFEFB0E0A61708F46A2F7EEF2091E800BD
:101DA00030E0A9014570507041155105B9F322FD8D
:101DB000D5CE562F6131D0F050E19C01452FF9016D
:101DC0002F5F3F4FE491E093F1004150C1F7252F81
:101DD000215030E02F5F3F4F820F931F651B7093A0
:101DE000E8006623D9F65031C9F2B8CE662329F748
:101DF000F5CF613021F5E23009F0ADCE2115310586
:101E000009F0A9CE4F77842F8150843008F0A3CEFB
:101E10008EEF8093E8004093E900633009F49BCE95
:101E200089E18093EB0081E090E002C0880F991F68
:101E30004A95E2F78093EA001092EA008FCE633071
:101E400009F089CED8CFFB0132968591949148173D
:101E5000590709F053CE8ACF03E211E0F8018591CA
:101E600094914817590709F481CFB8016B5F7F4FF0
:101E700050CE0AE211E0F801859194914817590774
:101E800009F474CFB8016B5F7F4F4CCE01E311E0D2
:101E9000F801859194914817590709F467CFB80163
:101EA0006B5F7F4F48CE4093E9009091EB0081E05B
:101EB00095FF80E01092E900DECEFB01329685911D
:101EC00094914817590709F03DCE50CF2F5F3F4FEF
:101ED0007DCECF93DF9300D0CDB7DEB780E880937F
:101EE000610091E09093610091E895BF85BF0E94E9
:101EF00087010E94770A0E94900A8823E1F3E0910B
:101F00005401F09155018FEF8083E0915401F091DD
:101F1000550190819F7B9083E0915001F091510198
:101F200022E72083E0914E01F0914F018083E09100
:101F30002901F0912A018083E0912901F0912A0181
:101F400090819F7B9083E0912501F0912601208371
:101F5000E0912301F091240180838FE392E4AFE0CC
:101F6000B0E00197A109B109000001F0D1F7C895CF
:101F700000007E010894E11CF11CDD24DA940E942B
:101F8000D70A0E94900A8823D1F30E94930A2FEF68
:101F90008F3F9207B1F38730910509F4B0C08830C4
:101FA000910514F58230910509F442C18330910501
:101FB0000CF053C0009709F49EC08130910509F7D9
:101FC00080914E1290914F12009709F483C18701BE
:101FD000081B190B8FE30E94ED0A812F0E94ED0A66
:101FE000802F0E94ED0ACDCF8B30910509F4D6C029
:101FF0008C3091050CF04AC08930910509F441C13B
:102000008A3091050CF4F3C00E94930A2FEF8F3FA2
:10201000920709F432C180936B010E94930A2FEF5B
:102020008F3F920709F429C180936C010E94930AA3
:102030002FEF8F3F920709F420C180936D018BE24F
:1020400091E00E94A90818160CF44EC0882309F0EC
:1020500044C186E50E94ED0A94CF8530910509F4CC
:1020600047C0863091050CF096C08430910509F088
:1020700088CF11B814B817B81AB81DB810BA12B86A
:1020800015B818B81BB81EB811BA7BCF8D309105A2
:1020900009F4D1C08D3091050CF45AC08E309105F1
:1020A00009F06FCF0E94930A2FEF8F3F920709F438
:1020B000E4C080936B010E94930A2FEF8F3F920739
:1020C00009F4DBC080936C010E94930A2FEF8F3FCD
:1020D000920709F4D2C080936D0180E091E00E94E4
:1020E000A90818160CF0B2CF8BE40E94ED0A49CF74
:1020F0001092560146CF80E00E94ED0A42CF89E55A
:102100000E94ED0A8BE291E00E94DA018BE291E0FD
:102110000E943C02882309F0D8C080912B010E94C4
:10212000ED0A80912C010E94ED0A80912D010E9400
:10213000ED0A80912E010E94ED0A80912F010E94EC
:10214000ED0A04E180E00E94ED0A0150D9F719CFB1
:102150000E94930A2FEF8F3F920709F48EC080935D
:102160006B010E94930A2FEF8F3F920709F485C0FD
:1021700080936C010E94930A2FEF8F3F920709F41E
:102180007CC080936D018BE40E94ED0A80E091E0B9
:102190000E943605F6CED0925601F3CE89E50E9414
:1021A000ED0A80E091E00E94DA0180E091E00E9477
:1021B0003C02882309F084C0809100010E94ED0A4E
:1021C000809101010E94ED0A809102010E94ED0AB6
:1021D000809103010E94ED0A809104010E94ED0AA2
:1021E00004E180E00E94ED0A0150D9F7CACE0E94B6
:1021F000930A2FEF8F3F920709F43FC080936B0142
:102200000E94930A2FEF8F3F9207B9F180936C01E0
:102210000E94930A2FEF8F3F920779F180936D010F
:102220008BE40E94ED0A8BE291E00E943605A9CE74
:102230000E94250AA6CE0E94930A2FEF8F3F920795
:10224000E1F080936B010E94930A2FEF8F3F92077A
:10225000A1F080936C010E94930A2FEF8F3F9207A9
:1022600061F080936D0180E091E00E9443071816B1
:102270000CF43ACF882309F4ECCE82E50E94ED0AF3
:1022800080CE0E94930A2FEF8F3F9207B1F3809385
:102290006B010E94930A2FEF8F3F920771F3809397
:1022A0006C010E94930A2FEF8F3F920731F38093C6
:1022B0006D018BE291E00E9443071816DCF614CF03
:1022C00080E091E00E9423015CCE8BE291E00E94CD
:1022D000230157CE82E592E17ACE80E50E94ED0A95
:1022E00050CE629FD001739FF001829FE00DF11DDF
:1022F000649FE00DF11D929FF00D839FF00D749F80
:10230000F00D659FF00D9927729FB00DE11DF91F2B
:10231000639FB00DE11DF91FBD01CF011124089588
:10232000AA1BBB1B51E107C0AA1FBB1FA617B707FB
:1023300010F0A61BB70B881F991F5A95A9F7809517
:102340009095BC01CD010895A1E21A2EAA1BBB1BDA
:10235000FD010DC0AA1FBB1FEE1FFF1FA217B30771
:10236000E407F50720F0A21BB30BE40BF50B661F87
:10237000771F881F991F1A9469F76095709580954B
:1023800090959B01AC01BD01CF010895CF93DF93E0
:10239000AC018230910510F442E050E0E09150121F
:1023A000F091511220E030E0A0E0B0E024C0808144
:1023B000918184179507D0F08417950771F4828175
:1023C0009381109729F013969C938E9312972CC0AB
:1023D000909351128093501227C02115310519F0A6
:1023E0008217930718F49C01BD01EF01928183814C
:1023F000DF01E92FF82F3097D1F621153105F9F0DB
:10240000C901841B950B8430910580F48A819B81DE
:102410006115710521F0FB019383828304C09093C1
:10242000511280935012FE01329642C0FE01E80F15
:10243000F91F4193519302979983888339C0809102
:102440004E1290914F12009741F48091600190914B
:10245000610190934F1280934E1220915E01309152
:102460005F012115310541F42DB73EB7809162011E
:1024700090916301281B390BE0914E12F0914F129D
:10248000E217F30798F42E1B3F0B2417350770F063
:10249000CA0102962817390748F08E0F9F1F9093A4
:1024A0004F1280934E124193519302C0E0E0F0E04E
:1024B000CF01DF91CF9108950F931F93CF93DF93B7
:1024C0009C01009709F48CC0DC01129713961C92B2
:1024D0001E92129760915012709151126115710500
:1024E00089F48D919C911197820F931F20914E1228
:1024F00030914F122817390769F5B0934F12A09306
:102500004E126EC0FB0140E050E001C0FC01EA1732
:10251000FB0730F482819381AF010097B9F71FC0A8
:10252000E9012297FB83EA8308811981C901800FA1
:10253000911F8E179F0759F480819181800F911F01
:10254000029699838883828193819B838A83411534
:10255000510529F4B0935112A093501241C0FA01D1
:10256000B383A283C191D191EC0FFD1FAE17BF07BA
:1025700081F4F901929182918C0F9D1F0296DA01EC
:1025800011969C938E938281938113969C938E9344
:102590001297E0E0F0E002C0FB01BC01DB01129603
:1025A0008D919C9113970097B9F7CB0102962D91CD
:1025B0003C911197820F931F20914E1230914F1230
:1025C0002817390769F4309729F4109251121092A4
:1025D000501202C01382128270934F1260934E12F7
:0E25E000DF91CF911F910F910895F894FFCFD6
:1025EE0000000000000000000000000000000000DD
:1025FE0000000000000000000000000000000028A5
:10260E0000260027002B0029002A000000000000F1
:10261E0000000000000000000000000000000000AC
:10262E000000000000000000000031002F0030000C
:10263E00250023002400FF00E10000000008000038
:04264E005212200004
:00000001FF
