:100000000C9402010C9421010C9421010C94210107
:100010000C9421010C9421010C9421010C942101D8
:100020000C9421010C9421010C94500D0C948A0D18
:100030000C9421010C9421010C9421010C942101B8
:100040000C9421010C9421010C9421010C942101A8
:100050000C9421010C9421010C9421010C94210198
:100060000C9421010C9421010C9421010C94210188
:100070000C9421010C9421010C9421010C94210178
:100080000C9421010C9421010C9421010C94210168
:100090000C9421010C942101E80CE50CE20CDF0C1E
:1000A000DC0CD90CD60CD30CD00CCD0CCA0CC70C64
:1000B000C40CC10CBE0CBB0CB80CB50CB20CAF0C14
:1000C000AC0CA90CA60CA30CA00C9D0C9A0C970CC4
:1000D000940C910C8E0C8B0C880C850C820C7F0C74
:1000E0007C0C790C760C730C700C6D0C6A0C670C24
:1000F000640C610C5E0C5B0C580C550C520C4F0CD4
:100100004C0C490C460C430C400C3D0C3A0C370C83
:10011000340C310C2E0C2B0C280C000100004E016D
:10012000120002000060014300030000A30104016B
:10013000030904A7010E02030904B7013C030309E4
:1001400004F5010C0001C112018036018136120153
:10015000000202000010C0167A040001010203012F
:1001600009024300020100C0FA0904000001020272
:1001700001000524001001052401010104240206E8
:100180000524060001070582031000400904010050
:10019000020A000000070503024000000705840270
:1001A000400000040309040E036A00750064006740
:1001B000006500730000003C034E004F00520077C2
:1001C00000610079002000500053003300200046F9
:1001D000006C00610073006800650072002000552B
:1001E0000053004200200053006500720069006166
:1001F000006C0000000C0331003200330034003585
:100200000000000011241FBECFEFD0E2DEBFCDBF43
:1002100011E0A0E0B1E0E4E1F7E200E00BBF02C0D2
:1002200007900D92A436B107D9F712E1A4E6B1E028
:1002300001C01D92A135B107E1F70E94D50F0C94C2
:1002400088130C940000CF93DF93EC0188810E9407
:10025000590B89810E94590B8A810E94590B8B810D
:100260000E94590B8C810E94590B8C850E94590B5E
:100270008B850E94590B8A850E94590B89850E94A3
:10028000590B8E810E94590B8D810E94590B898DCB
:100290000E94590B8C890E94590B8B890E94590B23
:1002A0008A890E94590B89890E94590B888D0E9466
:1002B000590B8F890E94590B8E890E94590B8D8989
:1002C0000E94590B8A8D0E94590B8E8D0E94590BEA
:1002D0008D8D0E94590B8C8D0E94590B8B8D0E9425
:1002E000590BDF91CF910895FC01A1A5B2A59FEF15
:1002F0009C93A1A5B2A58C918F7B8C93A5A1B6A14F
:1003000082E78C9303A0F4A1E02D9083089511B8A7
:1003100014B817B81AB81DB810BA12B815B818B86A
:100320001BB81EB811BA0895CF93DF9300D000D048
:10033000CDB7DEB740E050E060E270E049835A8319
:100340006B837C8349815A816B817C814115510586
:1003500061057105F9F0DC019796ED91FC91989794
:10036000808186FF04C01EC0808186FD1BC08981FC
:100370009A81AB81BC810197A109B10989839A83D4
:10038000AB83BC8389819A81AB81BC810097A10535
:10039000B10551F780E00F900F900F900F90DF9113
:1003A000CF91089581E00F900F900F900F90DF9103
:1003B000CF910895CF93DF9300D000D0CDB7DEB7B3
:1003C000FC01A1A5B2A58FEF8C93A1A5B2A59C912C
:1003D0009F7B9C93A5A1B6A192E79C93A3A1B4A1F6
:1003E0008C93A78DB0A18C93A5A1B6A18C918460AC
:1003F0008C93A5A1B6A18C918F7D8C93A5A1B6A15C
:100400008C9180628C93A5A1B6A18C918B7F8C93EB
:1004100080E090E0A0E2B0E089839A83AB83BC8364
:1004200089819A81AB81BC810097A105B105E9F072
:1004300007A0F0A5E02D808186FF04C016C0808152
:1004400086FD13C089819A81AB81BC810197A10986
:10045000B10989839A83AB83BC8389819A81AB81FB
:10046000BC810097A105B10551F70F900F900F9037
:100470000F90DF91CF9108954F925F926F927F928C
:100480008F929F92AF92BF92CF92DF92EF92FF92A4
:100490000F931F93CF93DF93EC01E9A5FAA58FEF9C
:1004A0008083E9A5FAA590819F7B9083EDA1FEA1B1
:1004B00092E79083EBA1FCA18083EF8DF8A190E9F6
:1004C0009083EDA1FEA1908194609083EDA1FEA1A7
:1004D00090819F7D9083EDA1FEA190819062908399
:1004E000EDA1FEA190819B7F9083EDA1FEA1908163
:1004F00098609083EF8DF8A11082EDA1FEA190810C
:100500009F7D9083EDA1FEA1908190629083EDA1EB
:10051000FEA19081977F9083EBA1FCA11082EF8DCB
:10052000F8A18083EDA1FEA180818D7F80830000F2
:10053000E9A1FAA18081EDA1FEA190819260908352
:10054000EDA1FEA190819D7F90830000E9A1FAA119
:100550009081EDA1FEA1208122602083EDA1FEA16A
:1005600020812D7F20830000E9A1FAA13081EDA137
:10057000FEA1208122602083EDA1FEA120812D7F9C
:1005800020830000E9A1FAA12081EDA1FEA1408114
:1005900042604083EDA1FEA140814D7F4083000079
:1005A000E9A1FAA10081EDA1FEA140814260408352
:1005B000888399833A832B830C838F8398878D3A22
:1005C00009F4CFC08C3E09F4C4C0802F869586956F
:1005D0008370E1E0F0E001C0EE0F8A95EAF7A22E09
:1005E000BB24C5018370907040E054E002C0440F0A
:1005F000551F8A95E2F7662757FD6095762F498744
:100600005A876B877C8795012073307035952795C5
:1006100035952795359527953595279580E090E078
:10062000A1E0B0E004C0880F991FAA1FBB1F2A9544
:10063000D2F7898B9A8BAB8BBC8BEA8F6A017B01DB
:1006400029E0F694E794D794C7942A95D1F7C50189
:1006500084709070959587959595879528E030E002
:1006600002C0220F331F8A95E2F7442737FD4095D9
:10067000542FC701B6010E940412DC01CB01803166
:100680009105A105B105B9F080349105A105B10529
:1006900091F080E0DF91CF911F910F91FF90EF904B
:1006A000DF90CF90BF90AF909F908F907F906F9092
:1006B0005F904F9008959E838D830295077004305C
:1006C00009F490C0053008F07EC0023009F434C14E
:1006D000033008F41DC180E090E0A0E0B4E08B8F0F
:1006E0009C8FAD8FBE8FA6FC86C088E0898F6A8DF7
:1006F00070E080E090E02B8D3C8D4D8D5E8D898883
:100700009A88AB88BC880E940412A50194010E94BB
:10071000371269017A0149845A846B847C84C5014B
:10072000B401A30192010E94371289019A018D81BF
:100730009E81840D951DCD8ADE8AEF8AF88E0D8705
:100740001E872F87388B909365018093640181E029
:10075000A1CF913F19F0913A09F037CFE1E000E4E1
:100760003ECF973D09F449C0933709F02ECF80E082
:1007700092E0A0E0B0E089879A87AB87BC8780E0F1
:1007800090E4A0E0B0E0898B9A8BAB8BBC8B81E0CE
:100790008A8F80E490E09E838D8380E090E0A0E0EB
:1007A000B1E08B8F9C8FAD8FBE8F88E0898F80E406
:1007B00092E000E210E020E030E0C12C44E0D42ED2
:1007C000E12CF12CB8CF063009F4ADC0063008F0AA
:1007D0008BC080E090E0A0E0B0E18B8F9C8FAD8F6C
:1007E000BE8F81CF80E090E0A0E0B8E08B8F9C8F3F
:1007F000AD8FBE8F78CF80E179CF322F337080E01C
:1008000098E002C0880F991F3A95E2F7AA2797FD52
:10081000A095BA2F89879A87AB87BC8788E0898F94
:1008200006950695037081E090E002C0880F991F3D
:100830000A95E2F78A8F80E090E0A0E0B0E88B8F25
:100840009C8FAD8FBE8F822F807B803209F4F1C0E8
:10085000813208F07AC0882309F0DFC080E090E0A0
:10086000A2E0B0E0898B9A8BAB8BBC8B269526954A
:10087000822F90E0A0E0B0E083709070A070B07024
:1008800081309105A105B10509F49FC08130910522
:10089000A105B10508F06BC080E890E09E838D83D0
:1008A0006A8D70E080E090E02B8D3C8D4D8D5E8DEB
:1008B00049885A886B887C880E940412A30192019F
:1008C0000E94371269017A0189849A84AB84BC84BE
:1008D000C301B201A50194010E94371289019A0156
:1008E000C40180589F4F27CF073049F080E090E047
:1008F000A0E8B0E08B8F9C8FAD8FBE8FF4CE80E0F0
:1009000090E0A0E0B0E48B8F9C8FAD8FBE8FEBCEDC
:10091000013061F780E090E0A0E0B1E08B8F9C8F28
:10092000AD8FBE8FE0CE80E090E0A0E0B0E28B8F94
:100930009C8FAD8FBE8FD7CE80E090E0A0E0B2E07C
:100940008B8F9C8FAD8FBE8FCECE803809F483C045
:10095000803909F477C0803309F09BCE80E090E0C5
:10096000ACE0B0E0898B9A8BAB8BBC8B7FCF8230B5
:100970009105A105B10509F08CCE80EC91E09E8334
:100980008D836A8D70E080E090E02B8D3C8D4D8DE5
:100990005E8D49885A886B887C880E940412A30166
:1009A00092010E94371269017A0189849A84AB848A
:1009B000BC84C301B201A50194010E9437128901D0
:1009C0009A01C40180549E4FB6CE80EE90E09E8383
:1009D0008D836A8D70E080E090E02B8D3C8D4D8D95
:1009E0005E8D49885A886B887C880E940412A30116
:1009F00092010E94371269017A0189849A84AB843A
:100A0000BC84C301B201A50194010E94371289017F
:100A10009A01C40180529F4F8ECE803109F039CEA9
:100A200080E090E0A4E0B0E0898B9A8BAB8BBC8B2C
:100A30001DCF80E090E0A8E0B0E0898B9A8BAB8B73
:100A4000BC8B14CF80E090E0A0E2B0E0898B9A8B61
:100A5000AB8BBC8B0BCF80E090E0A0E1B0E0898B4A
:100A60009A8BAB8BBC8B02CFEF92FF920F931F93AD
:100A7000CF93DF9300D000D0CDB7DEB78C01DC017F
:100A80009996ED91FC919A979FEF90839996ED91AD
:100A9000FC919A9780818F7B80839596ED91FC9154
:100AA000969782E780839396ED91FC91949790833B
:100AB0005F96ED91FC91909710829596ED91FC9147
:100AC00096978081846080839596ED91FC919697AE
:100AD00080818F7D80839596ED91FC9196978081A2
:100AE000806280839596ED91FC91969780818B7FB3
:100AF00080839596ED91FC919697808188608083A4
:100B000017968C9117978D3A09F44BC1D8015F96CF
:100B1000ED91FC91909710829596ED91FC919697AE
:100B200080818F7D80839596ED91FC919697808151
:100B3000806280835F96ED91FC91909710829596EC
:100B4000ED91FC91969780818F7D80839596ED91B4
:100B5000FC9196978081806280835F96ED91FC91F5
:100B6000909780916A0180839596ED91FC9196977C
:100B700080818F7D80839596ED91FC919697808101
:100B8000806280835F96ED91FC91909780916B01DC
:100B900080839596ED91FC91969780818F7D8083DF
:100BA0009596ED91FC9196978081806280835F9607
:100BB000ED91FC91909780916C0180839596ED91D9
:100BC000FC91969780818F7D80839596ED91FC9125
:100BD0009697808180628083D8019596ED91FC91F3
:100BE00096978081877F808317968C9117978D3A8F
:100BF00059F018968C911897833731F05F96ED91E4
:100C0000FC91909780E38083D8019596ED91FC91BB
:100C100096978081846080839596ED91FC9196975C
:100C200080818F7D80839596ED91FC919697808150
:100C3000806280839596ED91FC91969780818B7F61
:100C400080839396ED91FC91949710825F96ED913D
:100C5000FC9190978FEF8083EFB6F89480E090E05E
:100C6000A0E2B0E089839A83AB83BC8389819A81B7
:100C7000AB81BC810097A105B105F9F0D801979629
:100C8000ED91FC919897808186FF04C016C0808109
:100C900086FD13C089819A81AB81BC810197A1092E
:100CA000B10989839A83AB83BC8389819A81AB81A3
:100CB000BC810097A105B10551F7E0916401F09165
:100CC0006501B0E1E03EFB07B8F1FF24EDE6F1E09D
:100CD000D80195962D913C919697D9018C918D7F55
:100CE0008C930000D80191968D919C919297DC0194
:100CF0008C918193D80195962D913C919697D9012D
:100D00008C9182608C93B2E1ED34FB0709F78DE69C
:100D100091E060EE70E10E94CD0BF394E0916401EC
:100D2000F09165012F2D30E0CF0160EE70E10E945F
:100D300023122617370750F2CF0160EE70E10E94B0
:100D40002312BC010097E1F0ADE6B1E08A0F9B1FD2
:100D5000F80145A156A1FA0120812D7F20830000D2
:100D6000F80121A132A1F90120812D93F80145A1BB
:100D700056A1FA01208122602083A817B90741F704
:100D80008DE691E00E94CD0BEFBE81E00F900F90B9
:100D90000F900F90DF91CF911F910F91FF90EF90E7
:100DA000089518968C911897833709F0AFCE5F9607
:100DB000ED91FC91909710829596ED91FC9196970C
:100DC00080818F7D80839596ED91FC9196978081AF
:100DD000806280835F96ED91FC91909780916A018B
:100DE00080839596ED91FC91969780818F7D80838D
:100DF0009596ED91FC9196978081806280835F96B5
:100E0000ED91FC91909780916B01D7CEFC01A78D5D
:100E1000B0A180E78C93A5A1B6A18C9184608C933E
:100E2000A5A1B6A18C918F7D8C93A5A1B6A18C9123
:100E300080628C93A5A1B6A18C918B7F8C93A3A18A
:100E4000B4A11C92A78DB0A12FEF2C93A5A1B6A1A0
:100E50008C918D7F8C930000A1A1B2A18C91A5A152
:100E6000B6A19C9192609C9303A0F4A1E02D2083F5
:100E700008950F931F93CF93DF93EC01E9A5FAA593
:100E80009FEF9083E9A5FAA580818F7B8083EDA1F8
:100E9000FEA182E78083EBA1FCA19083EF8DF8A1F6
:100EA00080E88083EDA1FEA1808184608083EDA134
:100EB000FEA180818F7D8083EDA1FEA18081806273
:100EC0008083EDA1FEA180818B7F8083EDA1FEA1B7
:100ED0008081886080838F818D3A09F407C1EF8D0E
:100EE000F8A11082EDA1FEA180818F7D8083EDA10C
:100EF000FEA1808180628083EF8DF8A11082EDA138
:100F0000FEA180818F7D8083EDA1FEA18081806222
:100F10008083EF8DF8A180916A018083EDA1FEA10D
:100F200080818F7D8083EDA1FEA18081806280839E
:100F3000EF8DF8A180916B018083EDA1FEA18081EE
:100F40008F7D8083EDA1FEA1808180628083EF8D03
:100F5000F8A180916C018083EDA1FEA180818F7D3D
:100F60008083EDA1FEA1808180628083EDA1FEA13E
:100F70008081877F8083809164019091650100E08A
:100F800010E00097B9F41CC0EF8DF8A18083EDA1AB
:100F9000FEA180818F7D8083EDA1FEA18081806292
:100FA00080830F5F1F4F8091640190916501081746
:100FB000190730F40E94FF0A2FEF8F3F920721F7A5
:100FC000EF8DF8A180E18083EDA1FEA18081846096
:100FD0008083EDA1FEA180818F7D8083EDA1FEA1A4
:100FE000808180628083EDA1FEA180818B7F8083E0
:100FF00080916401909165010817190708F49BC05E
:1010000029E090E78FEF322F3A9501F0E9F7C89584
:10101000EF8DF8A19083EDA1FEA130813460308383
:10102000EDA1FEA130813F7D3083EDA1FEA1308195
:1010300030623083EDA1FEA130813B7F3083EBA194
:10104000FCA11082EF8DF8A13FEF8083EDA1FEA1FE
:1010500040814D7F40830000E9A1FAA15081EDA1BC
:10106000FEA1408142604083EBA1FCA1808356FF3A
:10107000CACFEF8DF8A180E78083EDA1FEA180812A
:1010800084608083EDA1FEA180818F7D8083EDA1AE
:10109000FEA1808180628083EDA1FEA180818B7F93
:1010A0008083EBA1FCA11082EF8DF8A13083EDA12C
:1010B000FEA180818D7F80830000E9A1FAA190814B
:1010C000EDA1FEA1808182608083EBA1FCA1308331
:1010D00081E090FD05C0DF91CF911F910F910895A0
:1010E00080E0DF91CF911F910F910895888583371C
:1010F00009F0F5CEEF8DF8A11082EDA1FEA180815F
:101100008F7D8083EDA1FEA1808180628083EF8D41
:10111000F8A180916A018083EDA1FEA180818F7D7D
:101120008083EDA1FEA1808180628083EF8DF8A194
:1011300080916B0110CF8FEFCECFFC01A1A5B2A59E
:101140009FEF9C93A1A5B2A58C918F7B8C93A5A1B9
:10115000B6A182E78C93A3A1B4A19C93A78DB0A163
:1011600080E68C93A5A1B6A18C9184608C93A5A1F7
:10117000B6A18C918F7D8C93A5A1B6A18C91806234
:101180008C93A5A1B6A18C918B7F8C93A5A1B6A1C0
:101190008C9188608C9387818D3A09F4EAC0A78D81
:1011A000B0A180916A018C93A5A1B6A18C918F7D8D
:1011B0008C93A5A1B6A18C9180628C93A78DB0A1D0
:1011C00080916B018C93A5A1B6A18C918F7D8C939E
:1011D000A5A1B6A18C9180628C93A78DB0A18091BE
:1011E0006C018C93A5A1B6A18C918F7D8C93A5A148
:1011F000B6A18C9180628C93A5A1B6A18C91877FBA
:101200008C93A78DB0A180ED8C93A5A1B6A18C91F4
:1012100084608C93A5A1B6A18C918F7D8C93A5A1A0
:10122000B6A18C9180628C93A5A1B6A18C918B7F85
:101230008C93A78DB0A180E78C93A5A1B6A18C91CA
:1012400084608C93A5A1B6A18C918F7D8C93A5A170
:10125000B6A18C9180628C93A5A1B6A18C918B7F55
:101260008C93A3A1B4A11C92A78DB0A19FEF9C93D6
:10127000A5A1B6A18C918D7F8C930000A1A1B2A1F4
:101280002C91A5A1B6A18C9182608C93A3A1B4A14D
:101290009C9327FF86C027E290E78FEF322F3A9585
:1012A00001F0E9F7C895A78DB0A19C93A5A1B6A1BF
:1012B0003C9134603C93A5A1B6A13C913F7D3C9309
:1012C000A5A1B6A13C9130623C93A5A1B6A13C91E9
:1012D0003B7F3C93A3A1B4A11C92A78DB0A13FEF8B
:1012E0008C93A5A1B6A14C914D7F4C930000A1A178
:1012F000B2A15C91A5A1B6A14C9142604C93A3A16F
:10130000B4A18C9356FFCACFA78DB0A180E78C9370
:10131000A5A1B6A18C9184608C93A5A1B6A18C9156
:101320008F7D8C93A5A1B6A18C9180628C93A5A191
:10133000B6A18C918B7F8C93A3A1B4A11C92A78D95
:10134000B0A13C93A5A1B6A18C918D7F8C93000098
:10135000A1A1B2A19C91A5A1B6A18C9182608C9310
:1013600003A0F4A1E02D308381E090FF089580E098
:1013700008958085833709F012CFA78DB0A18091A1
:101380006A018C93A5A1B6A18C918F7D8C93A5A1A8
:10139000B6A18C9180628C93A78DB0A180916B01D6
:1013A00020CF8FEF0895CF93DF93EC010E94FF0AC7
:1013B0002FEF8F3F9207D9F080936A010E94FF0AB6
:1013C0002FEF8F3F920799F080936B010E94FF0AE5
:1013D0002FEF8F3F920759F080936C018BE40E94AE
:1013E000590BCE010E943405DF91CF91089582E51B
:1013F0000E94590BDF91CF910895CF93DF93EC01B9
:101400000E94FF0A2FEF8F3F920729F180936A0114
:101410000E94FF0A2FEF8F3F9207E9F080936B0144
:101420000E94FF0A2FEF8F3F9207A9F080936C0173
:10143000CE010E943907181644F0882361F486E52E
:101440000E94590BDF91CF9108958BE40E94590BB4
:10145000DF91CF91089582E50E94590BDF91CF91E2
:101460000895CF93DF93EC010E94FF0A2FEF8F3F87
:10147000920749F180936A010E94FF0A2FEF8F3F84
:10148000920709F180936B010E94FF0A2FEF8F3FB3
:101490009207C9F080936C01CE010E949D08181636
:1014A00044F0882361F486E50E94590BDF91CF91C7
:1014B00008958BE40E94590BDF91CF91089580E548
:1014C0000E94590BF3CF82E50E94590BDF91CF9117
:1014D0000895CF93DF93EC010E94DA01CE010E94C0
:1014E0003C028823C1F488810E94590B89810E94A3
:1014F000590B8A810E94590B8B810E94590B8C8158
:101500000E94590BC4E180E00E94590BC150D9F7E9
:10151000DF91CF910895CE010E942301DF91CF91F9
:101520000895F89481E08093E00080E28093D800F1
:10153000E9ECF0E010828FE493ECA0E0B0E00197DA
:10154000A109B109000001F0D1F7C89500001DBA4A
:10155000109268001CBC10BE1FBA10927A00109244
:101560006E0010926F001092700010927100108245
:101570001092BC0011B814B817B81AB81DB810BA38
:1015800012B815B818B81BB81EB811BA0C9400FEE2
:101590000895CF93DF9300D0CDB7DEB780914D1281
:1015A00090914E12009761F09E012F5F3F4FA9016D
:1015B000481B590BCA010F900F90DF91CF910895EE
:1015C00081E592E1F1CF81E88093D70080EA8093B2
:1015D000D80086E189BD09B400FEFDCF80E9809383
:1015E000D8001092E00010926701109268018CE020
:1015F0008093E200789408958091670108953FB741
:10160000F894809167018823F9F083E08093E900E2
:101610008091E80085FD0CC082FF16C09BE602C0E9
:1016200082FF12C09093E8008091E80085FFF8CF18
:101630008091F1009091E80095FD03C09BE69093A6
:10164000E8003FBF90E008953FBF8FEF9FEF089500
:101650009FB7F89480916701882391F083E080938D
:10166000E9008091F200882349F42091E80022FFEC
:1016700005C025FD03C02BE62093E8009FBF089519
:1016800080E09FBF089580916701882389F02FB77C
:10169000F89483E08093E9008091E80085FF07C01B
:1016A0009BE69093E8008091E80085FDFACF2FBF7C
:1016B000089590916701992309F449C09FB7F89460
:1016C00024E02093E90020916901222391F53091D3
:1016D000E4002091E80025FD1DC0305F9FBF909180
:1016E000E400931769F190916701992381F144E037
:1016F00009C09FBF9091E400931711F19091670189
:10170000992319F19FB7F8944093E9002091E800DC
:1017100025FFEFCF8093F1008091E80085FD03C0A5
:101720008AE38093E80085E0809366019FBF80E0B4
:1017300008952091E80025FF0CC010926901C7CFE1
:1017400081E0809369018FEF08958FEF08958FEF07
:1017500008959FBF8FEF0895909167019923C1F07D
:101760002FB7F89494E09093E9009091E80095FFEA
:1017700011C08093F1008091E80085FD03C08AE3E9
:101780008093E80085E0809366012FBF80E0089594
:101790008FEF08952FBF8FEF0895CF93DC018091D5
:1017A0006701882381F12FB7F89484E08093E900E2
:1017B00080916901882351F56115710509F415C1FE
:1017C00034E050E4CAE345E09091E4008091E80001
:1017D00085FD23C0905F2FBF8091E400891779F4C5
:1017E00006C12FB7F8943093E9008091E80085FD99
:1017F00014C02FBF8091E400891709F4F8C08091CC
:101800006701882371F78FEFCF9108958091E800E9
:1018100085FFF3C010926901CFCF8091F200E52FD0
:10182000E81B8E2F90E06817790718F4E62F862FB3
:1018300090E0681B790BF0E0E134F10508F0C5C0D9
:10184000E45BFF4FEE0FFF1F0590F491E02D09942C
:101850008D918093F1008D918093F1008D91809313
:10186000F1008D918093F1008D918093F1008D9125
:101870008093F1008D918093F1008D918093F10020
:101880008D918093F1008D918093F1008D918093E3
:10189000F1008D918093F1008D918093F1008D91F5
:1018A0008093F1008D918093F1008D918093F100F0
:1018B0008D918093F1008D918093F1008D918093B3
:1018C000F1008D918093F1008D918093F1008D91C5
:1018D0008093F1008D918093F1008D918093F100C0
:1018E0008D918093F1008D918093F1008D91809383
:1018F000F1008D918093F1008D918093F1008D9195
:101900008093F1008D918093F1008D918093F1008F
:101910008D918093F1008D918093F1008D91809352
:10192000F1008D918093F1008D918093F1008D9164
:101930008093F1008D918093F1008D918093F1005F
:101940008D918093F1008D918093F1008D91809322
:10195000F1008D918093F1008D918093F1008D9134
:101960008093F1008D918093F1008D918093F1002F
:101970008D918093F1008D918093F1008D918093F2
:10198000F1008D918093F1008D918093F1008D9104
:101990008093F1008D918093F1008D918093F100FF
:1019A0008D918093F1008D918093F1008D918093C2
:1019B000F1008D918093F1008D918093F1008D91D4
:1019C0008093F1008D918093F1008D918093F100CF
:1019D0008091E80085FD02C0C093E8004093660155
:1019E0002FBF6115710509F0EFCE80E00DCF81E0CA
:1019F000809369018FEFCF9108952FBF8FEF04CFB0
:101A00008FB7F89490916601992341F094E09093F8
:101A1000E9009AE39093E800109266018FBF089561
:101A20006091560170915701809158019091590130
:101A3000089580915A01089580915B0108958091E5
:101A40005C0108958091680108952FB7F8949091F2
:101A50006701992311F192E09093E9009091E800D9
:101A600095FF1BC091EA9093F10090E29093F100F2
:101A70001092F1001092F1001092F1001092F1001A
:101A800091E09093F1001092F1008093F1008AE3CD
:101A90008093E8002FBF80E008952FBF8FEF089557
:101AA0001F920F920FB60F9211248F939F938091E4
:101AB000E1001092E10083FF11C01092E90091E073
:101AC0009093EB001092EC0092E19093ED0098E07F
:101AD0009093F000109267011092680182FF13C08A
:101AE00080916701882379F080916601882359F0FD
:101AF000815080936601882331F484E08093E9006B
:101B00008AE38093E8009F918F910F900FBE0F9012
:101B10001F9018951F920F920FB60F920BB60F924F
:101B200011240F931F932F933F934F935F936F93C2
:101B30007F938F939F93AF93BF93CF93EF93FF9335
:101B40001092E9008091E80083FF71C0E091F100FC
:101B50006091F1002091F10030E04091F100942F6C
:101B600080E0282B392B4091F10050E07091F1007A
:101B7000972F80E0482B592BA091F100C091F100E4
:101B800082EF8093E8006630E1F0653009F4E7C049
:101B9000693009F465C0683009F4ECC0613209F4B9
:101BA000F8C0603209F41CC1623209F0C5C0E132EC
:101BB00009F03DC0209368018091E80080FFFCCFD0
:101BC000CAC06AE171E0FB01859194912817390739
:101BD00009F4A5C1695F7F4FFB0185919491281796
:101BE000390709F4A5C168E271E0FB018591949180
:101BF0002817390709F4A9C16FE271E0FB0185914B
:101C000094912817390709F4ADC166E371E0FB012F
:101C1000859194912817390709F4BBC1695F7F4FFB
:101C2000FB01859194912817390709F403C181E2DA
:101C30008093EB00FF91EF91CF91BF91AF919F9176
:101C40008F917F916F915F914F913F912F911F9154
:101C50000F910F900BBE0F900FBE0F901F90189515
:101C6000EE2329F720936701109268011092660114
:101C70008EEF8093E80081E08093E90024E431E076
:101C8000F90184918093EB00882309F48BC131968C
:101C9000E491E093EC00F9013296E491E093ED00D9
:101CA0002D5F3F4F82E08093E900C9010196F90161
:101CB00044914093EB00442361F0FC0184918093B4
:101CC000EC00C90103962E5F3F4FF9012491209348
:101CD000ED0023E02093E9009C012F5F3F4FFC01C2
:101CE00044914093EB00442361F0F9012491209347
:101CF000EC009C012D5F3F4F0296FC018491809384
:101D0000ED0084E08093E900C9010196F901449156
:101D10004093EB00442351F0FC0184918093EC004C
:101D20002E5F3F4FF90124912093ED008EE18093C7
:101D3000EA001092EA007ECF662309F0C6C08091C7
:101D4000E80080FFFCCFE23809F419C180E08093FD
:101D5000F1001092F1008EEF8093E8006BCF8EEFD0
:101D60008093E8008091E80080FFFCCF20682093FA
:101D7000E30060CFE03809F05ACF8091E80080FF9F
:101D8000FCCF809167018093F1008EEF8093E80093
:101D900051CFE13A09F04BCF8091E80080FFFCCFB2
:101DA000809156018093F100809157018093F1005A
:101DB000809158018093F100809159018093F10046
:101DC00080915A018093F10080915B018093F10032
:101DD00080915C018093F1008EEF8093E8002ACF20
:101DE000E13209F024CF8091E80082FFFCCF80919E
:101DF000F100809356018091F1008093570180910A
:101E0000F100809358018091F100809359018091F5
:101E1000F10080935A018091F10080935B018091E1
:101E2000F10080935C018BEF8093E8008EEF80934C
:101E3000E80000CFFB01329685919491481759072D
:101E400009F0F5CEFB01349625913491C9016A5F02
:101E50007F4FFB016491B0E03C2F20E0A22BB32B1D
:101E6000AF3FB10519F010F0AFEFB0E0A61708F4DE
:101E70006A2F7EEF2091E80030E0A9014570507094
:101E800041155105B9F322FDD5CE562F6131D0F061
:101E900050E19C01452FF9012F5F3F4FE491E09302
:101EA000F1004150C1F7252F215030E02F5F3F4F07
:101EB000820F931F651B7093E8006623D9F650319B
:101EC000C9F2B8CE662329F7F5CF613021F5E230AB
:101ED00009F0ADCE2115310509F0A9CE4F77842F39
:101EE0008150843008F0A3CE8EEF8093E8004093B9
:101EF000E900633009F49BCE89E18093EB0081E037
:101F000090E002C0880F991F4A95E2F78093EA009B
:101F10001092EA008FCE633009F089CED8CFFB0152
:101F20003296859194914817590709F053CE8ACF7C
:101F300003E211E0F801859194914817590709F4DB
:101F400081CFB8016B5F7F4F50CE0AE211E0F801FC
:101F5000859194914817590709F474CFB8016B5FC4
:101F60007F4F4CCE01E311E0F80185919491481721
:101F7000590709F467CFB8016B5F7F4F48CE409394
:101F8000E9009091EB0081E095FF80E01092E9007C
:101F9000DECEFB013296859194914817590709F0DE
:101FA0003DCE50CF2F5F3F4F7DCECF93DF9300D0FC
:101FB000CDB7DEB780E88093610091E09093610037
:101FC00091E895BF85BF0E9487010E94E30A0E94A5
:101FD000FC0A8823E1F3E0915401F09155018FEF61
:101FE0008083E0915401F091550190819F7B908313
:101FF000E0915001F091510122E72083E0914E01E0
:10200000F0914F018083E0912901F0912A018083B2
:10201000E0912901F0912A0190819F7B9083E091CA
:102020002501F09126012083E0912301F091240104
:1020300080838FE392E4AFE0B0E00197A109B1099A
:10204000000001F0D1F7C8950000EE24FF246E01D6
:102050000894C11CD11C0E94430B0E94FC0A8823D7
:10206000D1F3FF2009F05AC00E94FF0A2FEF8F3FE3
:10207000920799F3009789F38130910571F38230CB
:10208000910509F454C08330910509F454C084309B
:10209000910509F466C085309105F9F28630910505
:1020A00009F462C08F30910509F458C08C30910555
:1020B00009F46AC08D30910509F48FC08031910513
:1020C00009F4AEC08131910509F4D7C0863191057C
:1020D00009F4FBC08731910509F446C18A319105A5
:1020E00009F462C18B31910509F418C19C01022EDB
:1020F000232F000C221F330B000C221F331F213013
:10210000310509F4B6C0880F892F881F990B8130DB
:10211000910509F0A2CF52E0F52E9FCF21E0F216F3
:1021200011F0FF249ACFEE20E1F3EA9496CF80E0FD
:102130000E94590B92CF80914D1290914E120097B0
:1021400001F18601081B190B8CE30E94590B812FAA
:102150000E94590B802F0E94590B7FCF68E0F62E0A
:102160007CCF0E94910A79CF11B814B817B81AB869
:102170001DB810BA12B815B818B81BB81EB811BAE5
:102180006CCF81E592E1DDCF89E50E94590B8BE2AE
:1021900091E00E94DA018BE291E00E943C028823E8
:1021A00009F028C180912B010E94590B80912C01CC
:1021B0000E94590B80912D010E94590B80912E0194
:1021C0000E94590B80912F010E94590B04E180E07D
:1021D0000E94590B0150D9F740CF0E94FF0A2FEF00
:1021E0008F3F920709F402C180936A010E94FF0A9F
:1021F0002FEF8F3F920709F4F9C080936B010E9483
:10220000FF0A2FEF8F3F920709F4F0C080936C0113
:102210008BE40E94590B8BE291E00E9434051DCFA4
:102220000E94FF0A2FEF8F3F920709F4DFC08093CF
:102230006A010E94FF0A2FEF8F3F920709F4D6C070
:1022400080936B010E94FF0A2FEF8F3F920709F4E2
:10225000CDC080936C018BE291E00E943907181683
:102260000CF47EC0882309F0C1C086E50E94590B9A
:10227000F4CEE82EFF24F394F0CE0E94FF0A2FEF55
:102280008F3F920709F4B2C080936A010E94FF0A4F
:102290002FEF8F3F920709F4A9C080936B010E9432
:1022A000FF0A2FEF8F3F920709F4A0C080936C01C3
:1022B0008BE291E00E949D0818160CF451C088230F
:1022C000A1F280E50E94590BC8CE89E50E94590B06
:1022D00080E091E00E94DA0180E091E00E943C02FF
:1022E000882309F08CC0809100010E94590B8091D5
:1022F00001010E94590B809102010E94590B8091AB
:1023000003010E94590B809104010E94590B04E1C2
:1023100080E00E94590B0150D9F79FCE0E94FF0A1E
:102320002FEF8F3F920709F461C080936A010E94EA
:10233000FF0A2FEF8F3F920709F458C080936B017B
:102340000E94FF0A2FEF8F3F920709F44FC080933E
:102350006C0180E091E00E949D0818160CF0AFCF50
:102360008BE40E94590B79CE0E94FF0A2FEF8F3F1A
:102370009207E1F180936A010E94FF0A2FEF8F3FDD
:102380009207A1F180936B010E94FF0A2FEF8F3F0C
:10239000920761F180936C018BE40E94590B80E0FD
:1023A00091E00E94340559CE0E94FF0A2FEF8F3F23
:1023B0009207E1F080936A010E94FF0A2FEF8F3F9E
:1023C0009207A1F080936B010E94FF0A2FEF8F3FCD
:1023D000920761F080936C0180E091E00E943907E0
:1023E00018160CF4BDCF882309F43FCF82E50E9474
:1023F000590B33CE8BE291E00E9423012ECE80E078
:1024000091E00E94230129CE629FD001739FF001C9
:10241000829FE00DF11D649FE00DF11D929FF00D74
:10242000839FF00D749FF00D659FF00D9927729FAB
:10243000B00DE11DF91F639FB00DE11DF91FBD0136
:10244000CF0111240895AA1BBB1B51E107C0AA1F8D
:10245000BB1FA617B70710F0A61BB70B881F991F45
:102460005A95A9F780959095BC01CD010895A1E2F8
:102470001A2EAA1BBB1BFD010DC0AA1FBB1FEE1FFE
:10248000FF1FA217B307E407F50720F0A21BB30B49
:10249000E40BF50B661F771F881F991F1A9469F7C5
:1024A00060957095809590959B01AC01BD01CF0121
:1024B0000895CF93DF93AC018230910510F442E090
:1024C00050E0E0914F12F091501220E030E0A0E097
:1024D000B0E024C08081918184179507D0F08417E3
:1024E000950771F482819381109729F013969C933C
:1024F0008E9312972CC09093501280934F1227C046
:102500002115310519F08217930718F49C01BD01BC
:10251000EF0192818381DF01E92FF82F3097D1F607
:1025200021153105F9F0C901841B950B8430910503
:1025300080F48A819B816115710521F0FB019383F1
:10254000828304C09093501280934F12FE01329602
:1025500042C0FE01E80FF91F4193519302979983FE
:10256000888339C080914D1290914E12009741F4AA
:1025700080915F019091600190934E1280934D1273
:1025800020915D0130915E012115310541F42DB797
:102590003EB78091610190916201281B390BE09157
:1025A0004D12F0914E12E217F30798F42E1B3F0BD9
:1025B0002417350770F0CA0102962817390748F02A
:1025C0008E0F9F1F90934E1280934D124193519303
:1025D00002C0E0E0F0E0CF01DF91CF9108950F93CA
:1025E0001F93CF93DF939C01009709F48CC0DC010B
:1025F000129713961C921E92129760914F1270912F
:1026000050126115710589F48D919C911197820F7B
:10261000931F20914D1230914E122817390769F5FA
:10262000B0934E12A0934D126EC0FB0140E050E0FB
:1026300001C0FC01EA17FB0730F482819381AF01EE
:102640000097B9F71FC0E9012297FB83EA8308814D
:102650001981C901800F911F8E179F0759F480813E
:102660009181800F911F0296998388838281938143
:102670009B838A834115510529F4B0935012A0938E
:102680004F1241C0FA01B383A283C191D191EC0FE3
:10269000FD1FAE17BF0781F4F901929182918C0F53
:1026A0009D1F0296DA0111969C938E9382819381ED
:1026B00013969C938E931297E0E0F0E002C0FB012A
:1026C000BC01DB0112968D919C9113970097B9F78D
:1026D000CB0102962D913C911197820F931F20916F
:1026E0004D1230914E122817390769F4309729F4AA
:1026F0001092501210924F1202C0138212827093E5
:102700004E1260934D12DF91CF911F910F9108955A
:04271000F894FFCF6B
:1027140000000000000000000000000000000000B5
:10272400000000000000000000000000000000287D
:1027340000260027002B0029002A000000000000CA
:102744000000000000000000000000000000000085
:102754000000000000000000000031002F003000E5
:1027640025002300240000E10000000008000051BF
:04277400122000002F
:00000001FF
