:100000000C940E010C942D010C942D010C942D01D7
:100010000C942D010C942D010C942D010C942D01A8
:100020000C942D010C942D010C94160C0C94500C76
:100030000C942D010C942D010C942D010C942D0188
:100040000C942D010C942D010C942D010C942D0178
:100050000C942D010C942D010C942D010C942D0168
:100060000C942D010C942D010C942D010C942D0158
:100070000C942D010C942D010C942D010C942D0148
:100080000C942D010C942D010C942D010C942D0138
:100090000C942D010C942D016604FC04EF045A0409
:1000A000F203CC03C003D7038C036E033E03D104D9
:1000B000CD0B230AC00B0A0CB30B0C0CA60B020CC5
:1000C000990B040C8C0B060C7F0B080C720BDA0BD3
:1000D000650BDC0B580BDE0B4B0BF80B3E0BFA0BD6
:1000E000310BFC0B240BFE0B170B000C0A0BF00B57
:1000F000FD0AF20BF00AF40BE30AF60BD60AE20B48
:10010000C90AE00BBC0A100CAF0A0E0CA20A140CB0
:10011000950A120C880AEA0B7B0AE80B6E0AEE0BB2
:10012000610AEC0B540AE60B470AE40B3A0A320A5E
:100130002A0A00010000FF011200020000BC014376
:1001400000030000B8010401030904A8010E020322
:1001500009046A013C030309045C010C0C0331002F
:10016000320033003400350000003C034E004F00E5
:1001700052007700610079002000500053003300E6
:10018000200046006C00610073006800650072008A
:10019000200055005300420020005300650072000B
:1001A000690061006C0000000E036A0075006400C5
:1001B000670065007300000004030904090243009E
:1001C000020100C0FA090400000102020100052436
:1001D0000010010524010101042402060524060083
:1001E000010705820310004009040100020A000013
:1001F00000070503024000000705840240000012CA
:1002000001000202000010C0167A0400010102037E
:10021000010001C1120180360181360011241FBE88
:10022000CFEFD0E2DEBFCDBF11E0A0E0B1E0E2EF62
:10023000FCE100E00BBF02C007900D92A830B107AF
:10024000D9F721E0A8E0B1E001C01D92AF30B207BC
:10025000E1F70E94BC020C94770E0C94000017B8D2
:100260001AB86115710509F450C07198000026B1E3
:10027000DC013C91321342C0FC01329629B1DC0111
:1002800011968C918217F9F039C08F5F80930C0121
:1002900080910D0185B980910E0182B980910C0188
:1002A00081BB625071096115710579F17198000087
:1002B000DF0186B19081981321C089B132961196E1
:1002C0009C9198131BC0719A80910C018F3FE9F6A5
:1002D00010920C0180910E018F3F31F08F5F80935F
:1002E0000E0180910D01D6CF10920E0180910D016B
:1002F0008F3738F48F5F80930D01CCCF719A81E0F6
:10030000089510920D0180E0C5CF8FEF87B98AB9AB
:1003100080E008958FEF87B98AB984B981B980BB2D
:1003200015B812B811BA8DB96E98769A8EB18E77CB
:100330008EB98EB182638EB908950F931F93CF93B8
:10034000DF93279AC0E0D0E00FE11EE406C02596B7
:10035000C43081E0D80709F459C0D0938D00C09310
:100360008C0080918000886080938000C801019794
:10037000F1F7000000C00E942B09882341F38FEFA2
:1003800087B98AB984B981B980BB15B812B811BAD6
:100390008DB96E98769A8EB18E778EB98EB1826352
:1003A0008EB915E02FEF30E04FE956E861E070E0DC
:1003B00030938D0020938C00809180008860809322
:1003C0008000DB01CA010197A109B109000001F019
:1003D000D1F7C895000010928D0010928C0080918A
:1003E0008000886080938000DB01CA010197A10929
:1003F000B109000001F0D1F7C8950000115009F0D3
:10040000D7CFDF91CF911F910F910895CFEFD0E01B
:100410000FE11EE405C02597CB3F8FEFD80789F386
:10042000D0938D00C0938C00809180008860809371
:100430008000C8010197F1F7000000C00E942B095D
:10044000882349F38FEF87B98AB984B981B980BB12
:1004500015B812B811BA8DB96E98769A8EB18E779A
:100460008EB98EB182638EB915E02FEF30E04FE97F
:1004700056E861E070E030938D0020938C0080910D
:100480008000886080938000DB01CA010197A10988
:10049000B109000001F0D1F7C895000010928D005D
:1004A00010928C0080918000886080938000DB0136
:1004B000CA010197A109B109000001F0D1F7C8955F
:1004C0000000115009F0D7CFDF91CF911F910F910C
:1004D00008950F931F93CF93DF93279AC0E0D0E046
:1004E0000FE017E205C02596C43081E0D80711F16E
:1004F000D0938D00C0938C008091800088608093A1
:100500008000C8010197F1F7000000C00E942E0989
:100510008F3F2FEF920739F310928D0010928C00CD
:1005200020918000286020938000DF91CF911F915F
:100530000F910895CFEFD0E00FE017E205C02597A7
:10054000CB3F8FEFD807A9F0D0938D00C0938C00DC
:1005500080918000886080938000C8010197F1F746
:10056000000000C00E942E098F3F2FEF920739F341
:10057000D3CF8FEF9FEFD9CFCF93DF93CDB7DEB738
:10058000CE54D0410FB6F894DEBF0FBECDBF80E889
:100590008093610091E09093610091E895BF85BFE1
:1005A000F89481E08093800082E0809381007894C9
:1005B0001DB817B81AB814B811B810BA1EB818B8C0
:1005C0001BB815B812B811BA0E9412090E942B0963
:1005D000811106C00E949D010E942B098823D1F33E
:1005E00010920D0110920E0110920C01C12CD12C11
:1005F000C55BDF4E1882CB54D041CB5BDF4E1882F7
:10060000C554D041C65BDF4E1882CA54D041F12C8C
:1006100080E090E0A2E0B0E0CA5BDF4E888399837F
:10062000AA83BB83C654D0418E010F5F1F4E222484
:100630002A94312C6FE4462E63EC562E612C712CDB
:10064000AC2C0E945709A1E0B0E0AC0FBD1FAF5F1A
:10065000BF4ECD5BDF4EB983A883C354D041BD2CC0
:100660000E942B098823C1F18F2D90E08C309105D9
:1006700030F5FC01E45BFF4F0C94710EA0948A2DC1
:1006800090E090938D0080938C0080918000886032
:1006900080938000CE0101967C0107C0F701819311
:1006A0007F01E017F10709F4D1C10E942E098F3FA5
:1006B000AFEF9A0799F782E50E946E09F12C10922C
:1006C0008D0010928C008091800088608093800063
:1006D0000E942B098111C8CFDB2CB3CFA0948A2DA7
:1006E00090E090938D0080938C00809180008860D2
:1006F00080938000CE0101967C0107C0F7018193B1
:100700007F01E017F10709F420C30E942E098F3FF3
:10071000AFEF9A0799F7CFCF00C0669928C0309203
:100720008D0020928C0080918000886080938000F2
:10073000D301C2010197A109B109000001F0D1F76D
:10074000C895000010928D0010928C00809180005E
:10075000886080938000D301C2010197A109B1098B
:10076000000001F0D1F7C8950000669BD8CFCB5BA5
:10077000DF4E2881C554D041211121C0F12C9FCFDB
:100780000E942E098F3FBFEF9B0709F498CF8BB9CA
:10079000000087E0F82E93CF0E942E098F3FAFEF25
:1007A0009A0709F48CCF88B996E0F92E88CF759A0C
:1007B000CB5BDF4E2881C554D0412223F9F28091D2
:1007C0000C018F3F09F474C38F5F80930C018091FB
:1007D0000D0185B980910E0182B980910C0181BB18
:1007E000F12C6DCFA0948A2D90E090938D00809392
:1007F0008C0080918000886080938000CA5BDF4E0F
:1008000088819981AA81BB81C654D04182309105EB
:10081000A105B10509F480C39C01AD01569547952A
:1008200037952795215031094109510960E0E12CA4
:10083000F12C650149015A011CC08F5F80930C01A6
:1008400080910D0185B980910E0182B980910C01D2
:1008500081BB603409F4DFC0A7014F5F5F4FC70160
:10086000A0E0B0E088159905AA05BB0509F4DAC037
:100870007A017198000086B1F801E60FF11D8083BE
:1008800089B191E0960FF801E90FF11D6E5F808349
:10089000719A80910C018F3F81F610920C0180912A
:1008A0000E018F3F09F4C4C08F5F80930E018091C9
:1008B0000D01C8CF0E942E098F3FBFEF9B0709F49F
:1008C000FECE80930C0181BBF12CF9CE0E9469020F
:1008D0009C012F5F3F4F2230310508F4F0CE81306C
:1008E000910509F425C38230910509F41FC38330B3
:1008F000910509F443C38430910509F483C385301D
:10090000910509F46DC39C01359527952330310578
:1009100009F457C32430310509F4B2C32630310538
:1009200009F4A6C32730310509F4D0C3AC015595AD
:10093000479555954795559547954230510509F48A
:10094000A8C32C30310509F430C42D30310509F429
:100950001FC42E30310509F440C42F30310509F48D
:100960000CC49C01022E232F000C221F330B000C01
:10097000221F331F2130310509F4E6C39C01220FE9
:10098000232F221F330B2130310509F098CE880F19
:10099000991F9595879580930D0185B9A2E0FA2E50
:1009A0008ECEA0948A2D90E090938D0080938C0041
:1009B00080918000886080938000CE0101967C0148
:1009C00007C0F70181937F01E017F10709F405C122
:1009D0000E942E098F3FAFEF9A0799F76CCE0E94C5
:1009E0002E098F3FAFEF9A0709F469CE80930E016D
:1009F00082B973E0F72E63CEC65BDF4E4881CA54DE
:100A0000D041442309F4BACE4150C65BDF4E48833F
:100A1000CA54D04154CE60E470E0C8010E94BD09C0
:100A200060E01ACF56018FEF87B98AB9F12C47CE13
:100A300010920E0180910D018F3720F48F5F80930B
:100A40000D0100CF10920D0180E0FCCED0900C0182
:100A5000E0900E01F0900D01B5B885E082B985E512
:100A600081BB18B88AEA8BB900007598759AB5B839
:100A700082E082B98AEA81BB18B885E58BB90000AB
:100A80007598759AB5B885E082B985E581BB18B8C7
:100A900080E28BB900007598759A80910C01909155
:100AA0000E0120910D0125B992B981BBFE0131964D
:100AB00081E090E020E030E0A0EACA2E40814F3F84
:100AC00049F4A1E0B0E0AC0FBD1FA80FB91F4C91D5
:100AD0004F3F19F118B8CBB800007598759AA1E08E
:100AE000B0E0AC0FBD1FA80FB91F4C91508158B991
:100AF0004BB900007598759A00C04FEF5FEF6FEF2C
:100B000070E009C041505109610971094115510551
:100B100061057105E1F0669BF5CF40910C014F3FF7
:100B200009F43FC04F5F40930C0140910D0145B95E
:100B300040910E0142B940910C0141BB2E5F3F4FE5
:100B400032960296211540E1340709F0B7CF18B864
:100B500080E98BB900007598759A18B81BB8000029
:100B60007598759A2115304141F5C55BDF4E288196
:100B7000CB54D041213011F08BE49ECDD0920C01AA
:100B8000E0920E01F0920D01F5B8E2B8D1BA60E042
:100B900070E1CE0101960E942F01813069F786E550
:100BA0008BCD10920C0140910E014F3F41F04F5FF1
:100BB00040930E0140910D01BACF84E57DCD109296
:100BC0000E0140910D014F3720F44F5F40930D010E
:100BD000AECF10920D0140E0AACF80910C01C45B12
:100BE000DF4E8883CC54D04190910E01C35BDF4E21
:100BF0009883CD54D041A0910D01C25BDF4EA883F4
:100C0000CE54D0419E012E5F3F4F882E45E0942E5A
:100C100055E54AEA62E0C62E75E2D72E7FE169E229
:100C2000CF5BDF4E19830883C154D0411A2FE92EC0
:100C300015B892B851BB18B84BB900007598759AA1
:100C400015B8C2B841BB18B85BB900007598759A61
:100C500015B9E2B881BA18B8DBB800007598759A72
:100C600015B9E2B881BA18B87BB900007598759AC1
:100C7000D90100E2F02E10C08F5F80930C018091AB
:100C80000D0185B980910E0182B980910C0181BB63
:100C9000FA941296FF2039F18C91FD0131979081E1
:100CA00098B98BB900007598759A80910C018F3FA7
:100CB00019F710920C0180910E018F3F31F08F5F78
:100CC00080930E0180910D01DCCF10920E01809176
:100CD0000D018F3720F48F5F80930D01D2CF1092DA
:100CE0000D0180E0CECF15B9E2B881BA18B86BB962
:100CF00000007598759A00C08FEF9FEFAFEFB0E0DE
:100D000007C00197A109B1090097A105B105A9F094
:100D1000669BF7CF205C3F4FCD5BDF4EE881F981CA
:100D2000C354D0412E173F0709F4CFC080900C0167
:100D3000E0900E0110910D017BCFCF5BDF4E08815B
:100D40001981C154D04184E5B7CC80900C019090BA
:100D50000E01E0900D01FE01319621E030E065E0EA
:100D600045E55AEAB2E0FB2E70EA80818F3F51F4EC
:100D7000A1E0B0E0AC0FBD1FA20FB31F8C918F3F5D
:100D800009F472C0B5B862B941BB18B85BB90000CC
:100D90007598759AB5B8F2B851BB18B84BB9000040
:100DA0007598759AB5B862B941BB18B87BB900009F
:100DB0007598759A80910C0190910E01A0910D018A
:100DC000A5B992B981BBA1E0B0E0AC0FBD1FA20FE5
:100DD000B31F8C91908198B98BB900007598759A62
:100DE00080910C018F3F61F18F5F80930C0100C0F7
:100DF0008FEF9FEFAFEFB0E008C00197A109B109F5
:100E00000097A105B10509F4D8CE669BF6CF3296BE
:100E10002E5F3F4F0E171F0709F0A7CFC55BDF4EB0
:100E20004881CB54D041413009F0A6CE80920C01CC
:100E300090920E01E0920D01E5B892B881BAA7CE6A
:100E400010920C0180910E018F3F21F08F5F8093F3
:100E50000E01CDCF10920E0180910D018F3798F4C5
:100E60008F5F80930D01C3CF80910C018F3F71F094
:100E70008F5F80930C0132962E5F3F4F0E171F0736
:100E800009F073CFCBCF10920D01B1CF10920C01AE
:100E900080910E018F3F09F473C08F5F80930E0124
:100EA00032962E5F3F4F0E171F0709F05ECFB6CF69
:100EB00010920C0180910E018F3F09F454C08F5F96
:100EC00080930E0180910D0184CCCF5BDF4E0881B1
:100ED0001981C154D041C55BDF4E2881CB54D0412C
:100EE000213009F049CEC45BDF4EF881CC54D041AB
:100EF000F0930C01C35BDF4E2881CD54D041209389
:100F00000E01C25BDF4E4881CE54D04140930D01AB
:100F100045B922B9F1BB3BCE7198000086B10E9461
:100F20006E0989B10E946E09719A7DCD82E4C4CBAD
:100F30009CB1991F9927991F9295990F907E2CB17A
:100F40002071669B3CC058E0609B37C044E06599C7
:100F500028C030E08CB186958170822B892B852B3F
:100F6000842B832BA9CB10920E0180910D018F371A
:100F700008F0F2C08F5F80930D012BCC8DEB9CCBE2
:100F800010920E0180910D018F3768F48F5F80936E
:100F90000D0132962E5F3F4F0E171F0709F0E5CE69
:100FA0003DCF32E0D7CF10920D0132962E5F3F4FEA
:100FB0000E171F0709F0D9CE31CF40E0C8CF50E05F
:100FC000C3CF80FD61C01DB817B81AB814B811B8E6
:100FD00010BA1EB818B81BB815B812B811BA6FCB32
:100FE00080910C018F3F09F4BBC08F5F80930C018F
:100FF00080910D0185B980910E0182B980910C011B
:1010000081BB5DCBF89481E08093E00080E2809327
:10101000D8001092C900D301C2010197A109B109FA
:10102000000001F0D1F7C89500001DBA10926800C9
:101030001CBC10BE1FBA10927A0010926E00109263
:101040006F0010927000109271001092C9001092FF
:10105000BC0011B814B817B81AB81DB810BA12B835
:1010600015B818B81BB81EB811BA0C9400FE27CBDF
:10107000282F2170C55BDF4E2883CB54D0411FCB76
:1010800080FF05C074981BCB0E948A0118CB749A0C
:1010900016CB8031910509F44AC081319105D1F117
:1010A0008231910551F14397D9F082E090E0A0E0C0
:1010B000B0E0CA5BDF4E88839983AA83BB83C654A2
:1010C000D04117B81AB8A4E0FA2EF9CA482F4170D7
:1010D000CB5BDF4E4883C554D04188E0F82EEFCA81
:1010E00080E090E0A2E0B0E0CA5BDF4E88839983A5
:1010F000AA83BB83C654D041E4CF80E090E0A1E056
:10110000B0E0CA5BDF4E88839983AA83BB83C65451
:10111000D041D7CF80E090E2A0E0B0E0CA5BDF4EE4
:1011200088839983AA83BB83C654D041CACF80E009
:1011300090E1A0E0B0E0CA5BDF4E88839983AA8388
:10114000BB83C654D041BDCFC65BDF4E8883CA5433
:10115000D041FF24F394B3CA10920D0180E039CB43
:1011600010920C0180910E018F3F09F444C08F5FF3
:1011700080930E0180910D013DCF719A7098B12C32
:10118000CB5BDF4E1882C554D0415BE0F52E97CA89
:10119000719A709880FD17C0B12CCB5BDF4E18821E
:1011A000C554D041E9E0FE2E8ACA719A9EB19E7D57
:1011B0009EB9282F2170CB5BDF4E2883C554D041C8
:1011C000F5E0FF2E7CCA90E4B92ECB5BDF4E18828F
:1011D000C554D04129E0F22E72CA719A709880FFEE
:1011E00014C060E4B62ECB5BDF4E1882C554D041EC
:1011F0007AE0F72E64CA10920E0180910D018F37AC
:1012000068F48F5F80930D01F5CEB12CCB5BDF4E80
:101210001882C554D0418AE0F82E51CA10920D01AF
:1012200080E0E8CE81E88093D70080EA8093D80000
:1012300086E189BD09B400FEFDCF80E98093D80026
:101240001092E00010920B01109208018CE0809344
:10125000E2007894089580910B0108952FB7F894D7
:1012600080910B018823F9F083E08093E90080915D
:10127000E80085FD0CC082FF16C09BE602C082FF1D
:1012800012C09093E8008091E80085FFF8CF80912C
:10129000F1009091E80095FD03C09BE69093E80073
:1012A0002FBF90E008952FBF8FEF9FEF089580919B
:1012B0000B01882391F02FB7F89483E08093E90025
:1012C0008091E80085FF07C09BE69093E80080913D
:1012D000E80085FDFACF2FBF0895089590910B0186
:1012E000992309F443C09FB7F89424E02093E900C0
:1012F00020910901211132C03091E400385320912E
:10130000E80025FD1CC09FBF9091E400931781F178
:1013100090910B01992351F144E009C09FBF909136
:10132000E400931729F190910B019923F9F09FB7ED
:10133000F8944093E9002091E80025FFEFCF8093D7
:10134000F1008091E80085FD03C08AE38093E80006
:1013500085E080930A019FBF80E008952091E80016
:1013600025FF03C010920901C7CF9FBF8FEF0895DB
:1013700081E0809309018FEF0895CF92DF92FF9271
:101380000F931F93CF93DF936C01CB0120910B013F
:101390002223B9F1CFB7F89424E02093E9002091FB
:1013A0000901211137C0009709F402C2D4E000E41A
:1013B0002AE3F22E15E03091E40038532091E80042
:1013C00025FF0DC02EC020910B012223D1F0CFB7F5
:1013D000F894D093E9002091E80025FD22C0CFBF0A
:1013E0002091E4002313EFCF81E0809309018FEF78
:1013F000DF91CF911F910F91FF90DF90CF900895D3
:10140000CFBF8FEFDF91CF911F910F91FF90DF90B2
:10141000CF9008952091E80025FFF2CF10920901A6
:10142000C2CF2091F200402F421B242F30E08217C0
:10143000930718F4482F9C013327821B930B50E02D
:101440004134510510F0D601A1C1485A5F4FFA014D
:101450000C94710EF60120812093F10096012F5F0C
:101460003F4F6901F60120812093F10096012F5F23
:101470003F4F6901D6011196F60120812093F100BA
:101480006D01FFEFCF1ADF0A2C912093F100D601F6
:101490001196F60120812093F1006D01FFEFCF1A24
:1014A000DF0A2C912093F100D6011196F6012081DC
:1014B0002093F1006D01FFEFCF1ADF0A2C912093EA
:1014C000F100D6011196F60120812093F1006D0103
:1014D000FFEFCF1ADF0A2C912093F100D60111966D
:1014E000F60120812093F1006D01FFEFCF1ADF0A92
:1014F0002C912093F100D6011196F60120812093C2
:10150000F1006D01FFEFCF1ADF0A2C912093F1005B
:10151000D6011196F60120812093F1006D01FFEFB5
:10152000CF1ADF0A2C912093F100D6011196F60113
:1015300020812093F1006D01FFEFCF1ADF0A2C917B
:101540002093F100D6011196F60120812093F1003D
:101550006D01FFEFCF1ADF0A2C912093F100D60125
:101560001196F60120812093F1006D01FFEFCF1A53
:10157000DF0A2C912093F100D6011196F60120810B
:101580002093F1006D01FFEFCF1ADF0A2C91209319
:10159000F100D6011196F60120812093F1006D0132
:1015A000FFEFCF1ADF0A2C912093F100D60111969C
:1015B000F60120812093F1006D01FFEFCF1ADF0AC1
:1015C0002C912093F100D6011196F60120812093F1
:1015D000F1006D01FFEFCF1ADF0A2C912093F1008B
:1015E000D6011196F60120812093F1006D01FFEFE5
:1015F000CF1ADF0A2C912093F100D6011196F60143
:1016000020812093F1006D01FFEFCF1ADF0A2C91AA
:101610002093F100D6011196F60120812093F1006C
:101620006D01FFEFCF1ADF0A2C912093F100D60154
:101630001196F60120812093F1006D01FFEFCF1A82
:10164000DF0A2C912093F100D6011196F60120813A
:101650002093F1006D01FFEFCF1ADF0A2C91209348
:10166000F100D6011196F60120812093F1006D0161
:10167000FFEFCF1ADF0A2C912093F100D6011196CB
:10168000F60120812093F1006D01FFEFCF1ADF0AF0
:101690002C912093F100D6011196F6012081209320
:1016A000F1006D01FFEFCF1ADF0A2C912093F100BA
:1016B000D6011196F60120812093F1006D01FFEF14
:1016C000CF1ADF0A2C912093F100D6011196F60172
:1016D00020812093F1006D01FFEFCF1ADF0A2C91DA
:1016E0002093F100D6011196F60120812093F1009C
:1016F0006D01FFEFCF1ADF0A2C912093F100D60184
:101700001196F60120812093F1006D01FFEFCF1AB1
:10171000DF0A2C912093F100D6011196F601208169
:101720002093F1006D01FFEFCF1ADF0A2C91209377
:10173000F100D6011196F60120812093F1006D0190
:10174000FFEFCF1ADF0A2C912093F100D6011196FA
:10175000F60120812093F1006D01FFEFCF1ADF0A1F
:101760002C912093F100D6011196F601208120934F
:10177000F1006D01FFEFCF1ADF0A2C912093F100E9
:10178000D6011196F60120812093F1006D01FFEF43
:10179000CF1ADF0A2C912093F1002091E80025FF59
:1017A000F092E80010930A01CFBF009709F003CE32
:1017B00080E028CED6018FCFD60180CFD60171CF61
:1017C000D601E0CED601EBCED6015ACED60165CEFB
:1017D000D6018ACED60195CED6016CCED60177CE73
:1017E000D60111CFD60102CFD601F3CED601E4CE79
:1017F000D6014ACFD6013BCFD6012CCFD6011DCF83
:10180000D6010ECFD6019BCFD6018CCFD6017DCF8E
:10181000D6016ECFD601ADCFD6019ECFD60198CEE0
:10182000D601A3CED6017ACED60185CE1F920F92D5
:101830000FB60F9211248F939F938091E100109225
:10184000E10083FF11C01092E90091E09093EB005A
:101850001092EC0092E19093ED0098E09093F000EC
:1018600010920B011092080182FF13C080910B01AE
:10187000882379F080910A01882359F08150809360
:101880000A01811106C084E08093E9008AE3809315
:10189000E8009F918F910F900FBE0F901F901895A9
:1018A0001F920F920FB60F9211240BB60F922F9327
:1018B0003F934F935F936F937F938F939F93AF93D8
:1018C000BF93EF93FF931092E9008091E80083FFAC
:1018D0002BC06091F1004091F1008091F1002091C6
:1018E000F10090E0922B2091F1005091F10030E056
:1018F000352BB091F100A091F10052EF5093E80028
:10190000463009F44EC0453009F426C1493009F487
:10191000BCC0483009F42BC1413209F45EC14032E9
:1019200009F0B8C16132B1F081E28093EB00FF9120
:10193000EF91BF91AF919F918F917F916F915F9147
:101940004F913F912F910F900BBE0F900FBE0F90B4
:101950001F9018958091E80082FFFCCF8091F100E4
:10196000809300018091F100809301018091F1004A
:10197000809302018091F100809303018091F10036
:10198000809304018091F100809305018091F10022
:10199000809306018BEF8093E8008EEF8093E80040
:1019A000C6CFE2E3F1E0459154918417950709F41D
:1019B0003FC149E351E0FA01659174918617970799
:1019C00009F441C1495F5F4FFA016591749186172F
:1019D000970709F441C1495F5F4FFA01659174911E
:1019E0008617970709F441C1495F5F4FFA01659176
:1019F00074918617970709F441C1495F5F4FFA0157
:101A0000659174918617970709F08ECFFA01329687
:101A1000859194912817390709F086CFFA013496F9
:101A200025913491FA01369644918B2F90E09A2BB0
:101A30008F3F910519F010F08FEF90E0841708F4B4
:101A4000482F6EEF8091E800982F9570D9F382FDB2
:101A50006ECF542F413108F4E6C050E1F901852FD3
:101A600094919093F100815031968111F9CF8FEFCD
:101A7000850F90E00196280F391F451B6093E80001
:101A80004111E0CF5031F1F252CF611172C0809319
:101A90000B011092080110920A018EEF8093E8006A
:101AA00081E08093E900E1E1F2E0E491E093EB0072
:101AB000EE2309F4ECC0E2E1F2E0E491E093EC0003
:101AC000E3E1F2E0E491E093ED0024E132E082E032
:101AD0008093E900C9010196F90144914093EB001C
:101AE000442351F0FC0184918093EC00C9010396DA
:101AF000319624912093ED0023E02093E9009C018E
:101B00002F5F3F4FFC0144914093EB00442359F079
:101B1000F90124912093EC009C012D5F3F4F3196F9
:101B200084918093ED0084E08093E900C9010196DF
:101B3000F90144914093EB00442341F0FC0184916E
:101B40008093EC00319624912093ED008EE18093F8
:101B5000EA001092EA00EBCE2EEF2093E8002091ED
:101B6000E80020FFFCCF80688093E300E0CE60387F
:101B700041F1542F5D7F513009F0D6CE623009F02B
:101B8000D3CE892B09F0D0CE2F778FEF820F843000
:101B900008F0CACE8EEF8093E8002093E90043302E
:101BA00009F4C2CE89E18093EB0081E090E0022E3F
:101BB00001C0880F0A94EAF78093EA001092EA00C5
:101BC000B6CE8091E80080FFFCCF80910B0180931E
:101BD000F1008EEF8093E800AACE613A51F6809131
:101BE000E80080FFFCCF809100018093F10080919C
:101BF00001018093F100809102018093F1008091B6
:101C000003018093F100809104018093F1008091A1
:101C100005018093F100809106018093F1008EEF21
:101C20008093E80084CE411119CF6093E8007FCE05
:101C3000E4E3F1E0459154912417350709F0B9CE5A
:101C400042E351E0EBCEFA0132966591749126178A
:101C5000370709F0B7CEE2CEFA013296659174915A
:101C60002617370709F0B7CED9CEFA01329665911B
:101C700074912617370709F0B7CED0CEFA01329605
:101C8000659174912617370709F0B7CEC7CE22E1C8
:101C900032E01DCF423269F4613209F045CE8093C3
:101CA00008018091E80080FFFCCF8EEF8093E80070
:101CB0003ECE41115ECF8091E80080FFFCCF6238BC
:101CC00031F080E08093F1001092F100EECF20938C
:101CD000E9008091EB0085FB882780F91092E900EC
:101CE000F1CFEE0FFF1F0590F491E02D0994F894C9
:021CF000FFCF24
:081CF20000E100000000080001
:00000001FF
